{
	"contracts/lolo.sol": {
		"Lolo": {
			"abi": [
				{
					"inputs": [
						{
							"internalType": "address",
							"name": "_tokenReward",
							"type": "address"
						},
						{
							"internalType": "address",
							"name": "_tokenBurn",
							"type": "address"
						}
					],
					"stateMutability": "nonpayable",
					"type": "constructor"
				},
				{
					"anonymous": false,
					"inputs": [
						{
							"indexed": true,
							"internalType": "address",
							"name": "owner",
							"type": "address"
						},
						{
							"indexed": true,
							"internalType": "address",
							"name": "spender",
							"type": "address"
						},
						{
							"indexed": false,
							"internalType": "uint256",
							"name": "value",
							"type": "uint256"
						}
					],
					"name": "Approval",
					"type": "event"
				},
				{
					"anonymous": false,
					"inputs": [
						{
							"indexed": true,
							"internalType": "address",
							"name": "previousOwner",
							"type": "address"
						},
						{
							"indexed": true,
							"internalType": "address",
							"name": "newOwner",
							"type": "address"
						}
					],
					"name": "OwnershipTransferred",
					"type": "event"
				},
				{
					"anonymous": false,
					"inputs": [
						{
							"indexed": true,
							"internalType": "address",
							"name": "from",
							"type": "address"
						},
						{
							"indexed": true,
							"internalType": "address",
							"name": "to",
							"type": "address"
						},
						{
							"indexed": false,
							"internalType": "uint256",
							"name": "value",
							"type": "uint256"
						}
					],
					"name": "Transfer",
					"type": "event"
				},
				{
					"inputs": [],
					"name": "MAX_SUPPLY",
					"outputs": [
						{
							"internalType": "uint256",
							"name": "",
							"type": "uint256"
						}
					],
					"stateMutability": "view",
					"type": "function"
				},
				{
					"inputs": [
						{
							"internalType": "address",
							"name": "owner",
							"type": "address"
						},
						{
							"internalType": "address",
							"name": "spender",
							"type": "address"
						}
					],
					"name": "allowance",
					"outputs": [
						{
							"internalType": "uint256",
							"name": "",
							"type": "uint256"
						}
					],
					"stateMutability": "view",
					"type": "function"
				},
				{
					"inputs": [
						{
							"internalType": "address",
							"name": "spender",
							"type": "address"
						},
						{
							"internalType": "uint256",
							"name": "amount",
							"type": "uint256"
						}
					],
					"name": "approve",
					"outputs": [
						{
							"internalType": "bool",
							"name": "",
							"type": "bool"
						}
					],
					"stateMutability": "nonpayable",
					"type": "function"
				},
				{
					"inputs": [
						{
							"internalType": "address",
							"name": "account",
							"type": "address"
						}
					],
					"name": "balanceOf",
					"outputs": [
						{
							"internalType": "uint256",
							"name": "",
							"type": "uint256"
						}
					],
					"stateMutability": "view",
					"type": "function"
				},
				{
					"inputs": [],
					"name": "decimals",
					"outputs": [
						{
							"internalType": "uint8",
							"name": "",
							"type": "uint8"
						}
					],
					"stateMutability": "view",
					"type": "function"
				},
				{
					"inputs": [
						{
							"internalType": "address",
							"name": "spender",
							"type": "address"
						},
						{
							"internalType": "uint256",
							"name": "subtractedValue",
							"type": "uint256"
						}
					],
					"name": "decreaseAllowance",
					"outputs": [
						{
							"internalType": "bool",
							"name": "",
							"type": "bool"
						}
					],
					"stateMutability": "nonpayable",
					"type": "function"
				},
				{
					"inputs": [
						{
							"internalType": "address",
							"name": "",
							"type": "address"
						}
					],
					"name": "excludedFromBurn",
					"outputs": [
						{
							"internalType": "bool",
							"name": "",
							"type": "bool"
						}
					],
					"stateMutability": "view",
					"type": "function"
				},
				{
					"inputs": [
						{
							"internalType": "address",
							"name": "",
							"type": "address"
						}
					],
					"name": "excludedFromReward",
					"outputs": [
						{
							"internalType": "bool",
							"name": "",
							"type": "bool"
						}
					],
					"stateMutability": "view",
					"type": "function"
				},
				{
					"inputs": [
						{
							"internalType": "address",
							"name": "",
							"type": "address"
						}
					],
					"name": "excludedFromTax",
					"outputs": [
						{
							"internalType": "bool",
							"name": "",
							"type": "bool"
						}
					],
					"stateMutability": "view",
					"type": "function"
				},
				{
					"inputs": [],
					"name": "impuestoCompra",
					"outputs": [
						{
							"internalType": "uint256",
							"name": "",
							"type": "uint256"
						}
					],
					"stateMutability": "view",
					"type": "function"
				},
				{
					"inputs": [],
					"name": "impuestoVenta",
					"outputs": [
						{
							"internalType": "uint256",
							"name": "",
							"type": "uint256"
						}
					],
					"stateMutability": "view",
					"type": "function"
				},
				{
					"inputs": [
						{
							"internalType": "address",
							"name": "spender",
							"type": "address"
						},
						{
							"internalType": "uint256",
							"name": "addedValue",
							"type": "uint256"
						}
					],
					"name": "increaseAllowance",
					"outputs": [
						{
							"internalType": "bool",
							"name": "",
							"type": "bool"
						}
					],
					"stateMutability": "nonpayable",
					"type": "function"
				},
				{
					"inputs": [],
					"name": "name",
					"outputs": [
						{
							"internalType": "string",
							"name": "",
							"type": "string"
						}
					],
					"stateMutability": "view",
					"type": "function"
				},
				{
					"inputs": [],
					"name": "owner",
					"outputs": [
						{
							"internalType": "address",
							"name": "",
							"type": "address"
						}
					],
					"stateMutability": "view",
					"type": "function"
				},
				{
					"inputs": [],
					"name": "renounceOwnership",
					"outputs": [],
					"stateMutability": "nonpayable",
					"type": "function"
				},
				{
					"inputs": [
						{
							"internalType": "address",
							"name": "account",
							"type": "address"
						},
						{
							"internalType": "bool",
							"name": "excluded",
							"type": "bool"
						}
					],
					"name": "setExcludedFromBurn",
					"outputs": [],
					"stateMutability": "nonpayable",
					"type": "function"
				},
				{
					"inputs": [
						{
							"internalType": "address",
							"name": "account",
							"type": "address"
						},
						{
							"internalType": "bool",
							"name": "excluded",
							"type": "bool"
						}
					],
					"name": "setExcludedFromReward",
					"outputs": [],
					"stateMutability": "nonpayable",
					"type": "function"
				},
				{
					"inputs": [
						{
							"internalType": "address",
							"name": "account",
							"type": "address"
						},
						{
							"internalType": "bool",
							"name": "excluded",
							"type": "bool"
						}
					],
					"name": "setExcludedFromTax",
					"outputs": [],
					"stateMutability": "nonpayable",
					"type": "function"
				},
				{
					"inputs": [
						{
							"internalType": "uint256",
							"name": "newImpuesto",
							"type": "uint256"
						}
					],
					"name": "setImpuestoCompra",
					"outputs": [],
					"stateMutability": "nonpayable",
					"type": "function"
				},
				{
					"inputs": [
						{
							"internalType": "uint256",
							"name": "newImpuesto",
							"type": "uint256"
						}
					],
					"name": "setImpuestoVenta",
					"outputs": [],
					"stateMutability": "nonpayable",
					"type": "function"
				},
				{
					"inputs": [
						{
							"internalType": "address",
							"name": "newTokenBurn",
							"type": "address"
						}
					],
					"name": "setTokenBurn",
					"outputs": [],
					"stateMutability": "nonpayable",
					"type": "function"
				},
				{
					"inputs": [
						{
							"internalType": "address",
							"name": "newTokenReward",
							"type": "address"
						}
					],
					"name": "setTokenReward",
					"outputs": [],
					"stateMutability": "nonpayable",
					"type": "function"
				},
				{
					"inputs": [],
					"name": "symbol",
					"outputs": [
						{
							"internalType": "string",
							"name": "",
							"type": "string"
						}
					],
					"stateMutability": "view",
					"type": "function"
				},
				{
					"inputs": [],
					"name": "tokenBurn",
					"outputs": [
						{
							"internalType": "address",
							"name": "",
							"type": "address"
						}
					],
					"stateMutability": "view",
					"type": "function"
				},
				{
					"inputs": [],
					"name": "tokenReward",
					"outputs": [
						{
							"internalType": "address",
							"name": "",
							"type": "address"
						}
					],
					"stateMutability": "view",
					"type": "function"
				},
				{
					"inputs": [],
					"name": "totalSupply",
					"outputs": [
						{
							"internalType": "uint256",
							"name": "",
							"type": "uint256"
						}
					],
					"stateMutability": "view",
					"type": "function"
				},
				{
					"inputs": [
						{
							"internalType": "address",
							"name": "recipient",
							"type": "address"
						},
						{
							"internalType": "uint256",
							"name": "amount",
							"type": "uint256"
						}
					],
					"name": "transfer",
					"outputs": [
						{
							"internalType": "bool",
							"name": "",
							"type": "bool"
						}
					],
					"stateMutability": "nonpayable",
					"type": "function"
				},
				{
					"inputs": [
						{
							"internalType": "address",
							"name": "from",
							"type": "address"
						},
						{
							"internalType": "address",
							"name": "to",
							"type": "address"
						},
						{
							"internalType": "uint256",
							"name": "amount",
							"type": "uint256"
						}
					],
					"name": "transferFrom",
					"outputs": [
						{
							"internalType": "bool",
							"name": "",
							"type": "bool"
						}
					],
					"stateMutability": "nonpayable",
					"type": "function"
				},
				{
					"inputs": [
						{
							"internalType": "address",
							"name": "newOwner",
							"type": "address"
						}
					],
					"name": "transferOwnership",
					"outputs": [],
					"stateMutability": "nonpayable",
					"type": "function"
				},
				{
					"inputs": [],
					"name": "uniswapV2Pair",
					"outputs": [
						{
							"internalType": "address",
							"name": "",
							"type": "address"
						}
					],
					"stateMutability": "view",
					"type": "function"
				},
				{
					"inputs": [],
					"name": "uniswapV2Router",
					"outputs": [
						{
							"internalType": "contract IUniswapV2Router02",
							"name": "",
							"type": "address"
						}
					],
					"stateMutability": "view",
					"type": "function"
				},
				{
					"inputs": [],
					"name": "withdrawLiquidity",
					"outputs": [],
					"stateMutability": "nonpayable",
					"type": "function"
				}
			],
			"devdoc": {
				"events": {
					"Approval(address,address,uint256)": {
						"details": "Emitted when the allowance of a `spender` for an `owner` is set by a call to {approve}. `value` is the new allowance."
					},
					"Transfer(address,address,uint256)": {
						"details": "Emitted when `value` tokens are moved from one account (`from`) to another (`to`). Note that `value` may be zero."
					}
				},
				"kind": "dev",
				"methods": {
					"allowance(address,address)": {
						"details": "See {IERC20-allowance}."
					},
					"approve(address,uint256)": {
						"details": "See {IERC20-approve}. NOTE: If `amount` is the maximum `uint256`, the allowance is not updated on `transferFrom`. This is semantically equivalent to an infinite approval. Requirements: - `spender` cannot be the zero address."
					},
					"balanceOf(address)": {
						"details": "See {IERC20-balanceOf}."
					},
					"decimals()": {
						"details": "Returns the number of decimals used to get its user representation. For example, if `decimals` equals `2`, a balance of `505` tokens should be displayed to a user as `5.05` (`505 / 10 ** 2`). Tokens usually opt for a value of 18, imitating the relationship between Ether and Wei. This is the value {ERC20} uses, unless this function is overridden; NOTE: This information is only used for _display_ purposes: it in no way affects any of the arithmetic of the contract, including {IERC20-balanceOf} and {IERC20-transfer}."
					},
					"decreaseAllowance(address,uint256)": {
						"details": "Atomically decreases the allowance granted to `spender` by the caller. This is an alternative to {approve} that can be used as a mitigation for problems described in {IERC20-approve}. Emits an {Approval} event indicating the updated allowance. Requirements: - `spender` cannot be the zero address. - `spender` must have allowance for the caller of at least `subtractedValue`."
					},
					"increaseAllowance(address,uint256)": {
						"details": "Atomically increases the allowance granted to `spender` by the caller. This is an alternative to {approve} that can be used as a mitigation for problems described in {IERC20-approve}. Emits an {Approval} event indicating the updated allowance. Requirements: - `spender` cannot be the zero address."
					},
					"name()": {
						"details": "Returns the name of the token."
					},
					"owner()": {
						"details": "Returns the address of the current owner."
					},
					"renounceOwnership()": {
						"details": "Leaves the contract without owner. It will not be possible to call `onlyOwner` functions anymore. Can only be called by the current owner. NOTE: Renouncing ownership will leave the contract without an owner, thereby removing any functionality that is only available to the owner."
					},
					"symbol()": {
						"details": "Returns the symbol of the token, usually a shorter version of the name."
					},
					"totalSupply()": {
						"details": "See {IERC20-totalSupply}."
					},
					"transferFrom(address,address,uint256)": {
						"details": "See {IERC20-transferFrom}. Emits an {Approval} event indicating the updated allowance. This is not required by the EIP. See the note at the beginning of {ERC20}. NOTE: Does not update the allowance if the current allowance is the maximum `uint256`. Requirements: - `from` and `to` cannot be the zero address. - `from` must have a balance of at least `amount`. - the caller must have allowance for ``from``'s tokens of at least `amount`."
					},
					"transferOwnership(address)": {
						"details": "Transfers ownership of the contract to a new account (`newOwner`). Can only be called by the current owner."
					}
				},
				"version": 1
			},
			"evm": {
				"assembly": "    /* \"contracts/lolo.sol\":402:5561  contract Lolo is ERC20, Ownable {... */\n  mstore(0x40, 0x80)\n    /* \"contracts/lolo.sol\":803:804  6 */\n  0x06\n    /* \"contracts/lolo.sol\":771:804  uint256 public impuestoCompra = 6 */\n  0x0a\n  sstore\n    /* \"contracts/lolo.sol\":842:844  10 */\n  0x0a\n    /* \"contracts/lolo.sol\":811:844  uint256 public impuestoVenta = 10 */\n  0x0b\n  sstore\n    /* \"contracts/lolo.sol\":1021:2059  constructor(address _tokenReward, address _tokenBurn) ERC20(\"Lolo\", \"LOLO\") {... */\n  callvalue\n  dup1\n  iszero\n  tag_1\n  jumpi\n  0x00\n  dup1\n  revert\ntag_1:\n  pop\n  mload(0x40)\n  sub(codesize, bytecodeSize)\n  dup1\n  bytecodeSize\n  dup4\n  codecopy\n  dup2\n  dup2\n  add\n  0x40\n  mstore\n  dup2\n  add\n  swap1\n  tag_2\n  swap2\n  swap1\n  tag_3\n  jump\t// in\ntag_2:\n    /* \"@openzeppelin/contracts/token/ERC20/ERC20.sol\":1976:2089  constructor(string memory name_, string memory symbol_) {... */\n  mload(0x40)\n  dup1\n  0x40\n  add\n  0x40\n  mstore\n  dup1\n  0x04\n  dup2\n  mstore\n  0x20\n  add\n  0x4c6f6c6f00000000000000000000000000000000000000000000000000000000\n  dup2\n  mstore\n  pop\n  mload(0x40)\n  dup1\n  0x40\n  add\n  0x40\n  mstore\n  dup1\n  0x04\n  dup2\n  mstore\n  0x20\n  add\n  0x4c4f4c4f00000000000000000000000000000000000000000000000000000000\n  dup2\n  mstore\n  pop\n    /* \"@openzeppelin/contracts/token/ERC20/ERC20.sol\":2050:2055  name_ */\n  dup2\n    /* \"@openzeppelin/contracts/token/ERC20/ERC20.sol\":2042:2047  _name */\n  0x03\n    /* \"@openzeppelin/contracts/token/ERC20/ERC20.sol\":2042:2055  _name = name_ */\n  swap1\n  dup2\n  tag_8\n  swap2\n  swap1\n  tag_9\n  jump\t// in\ntag_8:\n  pop\n    /* \"@openzeppelin/contracts/token/ERC20/ERC20.sol\":2075:2082  symbol_ */\n  dup1\n    /* \"@openzeppelin/contracts/token/ERC20/ERC20.sol\":2065:2072  _symbol */\n  0x04\n    /* \"@openzeppelin/contracts/token/ERC20/ERC20.sol\":2065:2082  _symbol = symbol_ */\n  swap1\n  dup2\n  tag_10\n  swap2\n  swap1\n  tag_9\n  jump\t// in\ntag_10:\n  pop\n    /* \"@openzeppelin/contracts/token/ERC20/ERC20.sol\":1976:2089  constructor(string memory name_, string memory symbol_) {... */\n  pop\n  pop\n    /* \"@openzeppelin/contracts/access/Ownable.sol\":936:968  _transferOwnership(_msgSender()) */\n  tag_12\n    /* \"@openzeppelin/contracts/access/Ownable.sol\":955:967  _msgSender() */\n  tag_13\n    /* \"@openzeppelin/contracts/access/Ownable.sol\":955:965  _msgSender */\n  shl(0x20, tag_14)\n    /* \"@openzeppelin/contracts/access/Ownable.sol\":955:967  _msgSender() */\n  0x20\n  shr\n  jump\t// in\ntag_13:\n    /* \"@openzeppelin/contracts/access/Ownable.sol\":936:954  _transferOwnership */\n  shl(0x20, tag_15)\n    /* \"@openzeppelin/contracts/access/Ownable.sol\":936:968  _transferOwnership(_msgSender()) */\n  0x20\n  shr\n  jump\t// in\ntag_12:\n    /* \"contracts/lolo.sol\":1122:1134  _tokenReward */\n  dup2\n    /* \"contracts/lolo.sol\":1108:1119  tokenReward */\n  0x08\n  0x00\n    /* \"contracts/lolo.sol\":1108:1134  tokenReward = _tokenReward */\n  0x0100\n  exp\n  dup2\n  sload\n  dup2\n  0xffffffffffffffffffffffffffffffffffffffff\n  mul\n  not\n  and\n  swap1\n  dup4\n  0xffffffffffffffffffffffffffffffffffffffff\n  and\n  mul\n  or\n  swap1\n  sstore\n  pop\n    /* \"contracts/lolo.sol\":1157:1167  _tokenBurn */\n  dup1\n    /* \"contracts/lolo.sol\":1145:1154  tokenBurn */\n  0x09\n  0x00\n    /* \"contracts/lolo.sol\":1145:1167  tokenBurn = _tokenBurn */\n  0x0100\n  exp\n  dup2\n  sload\n  dup2\n  0xffffffffffffffffffffffffffffffffffffffff\n  mul\n  not\n  and\n  swap1\n  dup4\n  0xffffffffffffffffffffffffffffffffffffffff\n  and\n  mul\n  or\n  swap1\n  sstore\n  pop\n    /* \"contracts/lolo.sol\":1238:1273  IUniswapV2Router02 _uniswapV2Router */\n  0x00\n    /* \"contracts/lolo.sol\":1295:1337  0x7a250d5630B4cF539739dF2C5dAcb4c659F2488D */\n  0x7a250d5630b4cf539739df2c5dacb4c659f2488d\n    /* \"contracts/lolo.sol\":1238:1338  IUniswapV2Router02 _uniswapV2Router = IUniswapV2Router02(0x7a250d5630B4cF539739dF2C5dAcb4c659F2488D) */\n  swap1\n  pop\n    /* \"contracts/lolo.sol\":1383:1399  _uniswapV2Router */\n  dup1\n    /* \"contracts/lolo.sol\":1383:1407  _uniswapV2Router.factory */\n  0xffffffffffffffffffffffffffffffffffffffff\n  and\n  0xc45a0155\n    /* \"contracts/lolo.sol\":1383:1409  _uniswapV2Router.factory() */\n  mload(0x40)\n  dup2\n  0xffffffff\n  and\n  0xe0\n  shl\n  dup2\n  mstore\n  0x04\n  add\n  0x20\n  mload(0x40)\n  dup1\n  dup4\n  sub\n  dup2\n  dup7\n  gas\n  staticcall\n  iszero\n  dup1\n  iszero\n  tag_18\n  jumpi\n  returndatasize\n  0x00\n  dup1\n  returndatacopy\n  revert(0x00, returndatasize)\ntag_18:\n  pop\n  pop\n  pop\n  pop\n  mload(0x40)\n  returndatasize\n  not(0x1f)\n  0x1f\n  dup3\n  add\n  and\n  dup3\n  add\n  dup1\n  0x40\n  mstore\n  pop\n  dup2\n  add\n  swap1\n  tag_19\n  swap2\n  swap1\n  tag_20\n  jump\t// in\ntag_19:\n    /* \"contracts/lolo.sol\":1365:1421  IUniswapV2Factory(_uniswapV2Router.factory()).createPair */\n  0xffffffffffffffffffffffffffffffffffffffff\n  and\n  0xc9c65396\n    /* \"contracts/lolo.sol\":1430:1434  this */\n  address\n    /* \"contracts/lolo.sol\":1437:1453  _uniswapV2Router */\n  dup4\n    /* \"contracts/lolo.sol\":1437:1458  _uniswapV2Router.WETH */\n  0xffffffffffffffffffffffffffffffffffffffff\n  and\n  0xad5c4648\n    /* \"contracts/lolo.sol\":1437:1460  _uniswapV2Router.WETH() */\n  mload(0x40)\n  dup2\n  0xffffffff\n  and\n  0xe0\n  shl\n  dup2\n  mstore\n  0x04\n  add\n  0x20\n  mload(0x40)\n  dup1\n  dup4\n  sub\n  dup2\n  dup7\n  gas\n  staticcall\n  iszero\n  dup1\n  iszero\n  tag_22\n  jumpi\n  returndatasize\n  0x00\n  dup1\n  returndatacopy\n  revert(0x00, returndatasize)\ntag_22:\n  pop\n  pop\n  pop\n  pop\n  mload(0x40)\n  returndatasize\n  not(0x1f)\n  0x1f\n  dup3\n  add\n  and\n  dup3\n  add\n  dup1\n  0x40\n  mstore\n  pop\n  dup2\n  add\n  swap1\n  tag_23\n  swap2\n  swap1\n  tag_20\n  jump\t// in\ntag_23:\n    /* \"contracts/lolo.sol\":1365:1461  IUniswapV2Factory(_uniswapV2Router.factory()).createPair(address(this), _uniswapV2Router.WETH()) */\n  mload(0x40)\n  dup4\n  0xffffffff\n  and\n  0xe0\n  shl\n  dup2\n  mstore\n  0x04\n  add\n  tag_24\n  swap3\n  swap2\n  swap1\n  tag_25\n  jump\t// in\ntag_24:\n  0x20\n  mload(0x40)\n  dup1\n  dup4\n  sub\n  dup2\n  0x00\n  dup8\n  gas\n  call\n  iszero\n  dup1\n  iszero\n  tag_27\n  jumpi\n  returndatasize\n  0x00\n  dup1\n  returndatacopy\n  revert(0x00, returndatasize)\ntag_27:\n  pop\n  pop\n  pop\n  pop\n  mload(0x40)\n  returndatasize\n  not(0x1f)\n  0x1f\n  dup3\n  add\n  and\n  dup3\n  add\n  dup1\n  0x40\n  mstore\n  pop\n  dup2\n  add\n  swap1\n  tag_28\n  swap2\n  swap1\n  tag_20\n  jump\t// in\ntag_28:\n    /* \"contracts/lolo.sol\":1349:1362  uniswapV2Pair */\n  0x07\n  0x00\n    /* \"contracts/lolo.sol\":1349:1461  uniswapV2Pair = IUniswapV2Factory(_uniswapV2Router.factory()).createPair(address(this), _uniswapV2Router.WETH()) */\n  0x0100\n  exp\n  dup2\n  sload\n  dup2\n  0xffffffffffffffffffffffffffffffffffffffff\n  mul\n  not\n  and\n  swap1\n  dup4\n  0xffffffffffffffffffffffffffffffffffffffff\n  and\n  mul\n  or\n  swap1\n  sstore\n  pop\n    /* \"contracts/lolo.sol\":1577:1619  0x7a250d5630B4cF539739dF2C5dAcb4c659F2488D */\n  0x7a250d5630b4cf539739df2c5dacb4c659f2488d\n    /* \"contracts/lolo.sol\":1540:1555  uniswapV2Router */\n  0x06\n  0x00\n    /* \"contracts/lolo.sol\":1540:1620  uniswapV2Router = IUniswapV2Router02(0x7a250d5630B4cF539739dF2C5dAcb4c659F2488D) */\n  0x0100\n  exp\n  dup2\n  sload\n  dup2\n  0xffffffffffffffffffffffffffffffffffffffff\n  mul\n  not\n  and\n  swap1\n  dup4\n  0xffffffffffffffffffffffffffffffffffffffff\n  and\n  mul\n  or\n  swap1\n  sstore\n  pop\n    /* \"contracts/lolo.sol\":1672:1698  _mint(owner(), MAX_SUPPLY) */\n  tag_29\n    /* \"contracts/lolo.sol\":1678:1685  owner() */\n  tag_30\n    /* \"contracts/lolo.sol\":1678:1683  owner */\n  shl(0x20, tag_31)\n    /* \"contracts/lolo.sol\":1678:1685  owner() */\n  0x20\n  shr\n  jump\t// in\ntag_30:\n    /* \"contracts/lolo.sol\":708:727  1 * 10**15 * 10**18 */\n  0x314dc6448d9338c15b0a00000000\n    /* \"contracts/lolo.sol\":1672:1677  _mint */\n  shl(0x20, tag_32)\n    /* \"contracts/lolo.sol\":1672:1698  _mint(owner(), MAX_SUPPLY) */\n  0x20\n  shr\n  jump\t// in\ntag_29:\n    /* \"contracts/lolo.sol\":1817:1821  true */\n  0x01\n    /* \"contracts/lolo.sol\":1784:1799  excludedFromTax */\n  0x0c\n    /* \"contracts/lolo.sol\":1784:1814  excludedFromTax[address(this)] */\n  0x00\n    /* \"contracts/lolo.sol\":1808:1812  this */\n  address\n    /* \"contracts/lolo.sol\":1784:1814  excludedFromTax[address(this)] */\n  0xffffffffffffffffffffffffffffffffffffffff\n  and\n  0xffffffffffffffffffffffffffffffffffffffff\n  and\n  dup2\n  mstore\n  0x20\n  add\n  swap1\n  dup2\n  mstore\n  0x20\n  add\n  0x00\n  keccak256\n  0x00\n    /* \"contracts/lolo.sol\":1784:1821  excludedFromTax[address(this)] = true */\n  0x0100\n  exp\n  dup2\n  sload\n  dup2\n  0xff\n  mul\n  not\n  and\n  swap1\n  dup4\n  iszero\n  iszero\n  mul\n  or\n  swap1\n  sstore\n  pop\n    /* \"contracts/lolo.sol\":1859:1863  true */\n  0x01\n    /* \"contracts/lolo.sol\":1832:1847  excludedFromTax */\n  0x0c\n    /* \"contracts/lolo.sol\":1832:1856  excludedFromTax[owner()] */\n  0x00\n    /* \"contracts/lolo.sol\":1848:1855  owner() */\n  tag_33\n    /* \"contracts/lolo.sol\":1848:1853  owner */\n  shl(0x20, tag_31)\n    /* \"contracts/lolo.sol\":1848:1855  owner() */\n  0x20\n  shr\n  jump\t// in\ntag_33:\n    /* \"contracts/lolo.sol\":1832:1856  excludedFromTax[owner()] */\n  0xffffffffffffffffffffffffffffffffffffffff\n  and\n  0xffffffffffffffffffffffffffffffffffffffff\n  and\n  dup2\n  mstore\n  0x20\n  add\n  swap1\n  dup2\n  mstore\n  0x20\n  add\n  0x00\n  keccak256\n  0x00\n    /* \"contracts/lolo.sol\":1832:1863  excludedFromTax[owner()] = true */\n  0x0100\n  exp\n  dup2\n  sload\n  dup2\n  0xff\n  mul\n  not\n  and\n  swap1\n  dup4\n  iszero\n  iszero\n  mul\n  or\n  swap1\n  sstore\n  pop\n    /* \"contracts/lolo.sol\":1910:1914  true */\n  0x01\n    /* \"contracts/lolo.sol\":1874:1892  excludedFromReward */\n  0x0d\n    /* \"contracts/lolo.sol\":1874:1907  excludedFromReward[address(this)] */\n  0x00\n    /* \"contracts/lolo.sol\":1901:1905  this */\n  address\n    /* \"contracts/lolo.sol\":1874:1907  excludedFromReward[address(this)] */\n  0xffffffffffffffffffffffffffffffffffffffff\n  and\n  0xffffffffffffffffffffffffffffffffffffffff\n  and\n  dup2\n  mstore\n  0x20\n  add\n  swap1\n  dup2\n  mstore\n  0x20\n  add\n  0x00\n  keccak256\n  0x00\n    /* \"contracts/lolo.sol\":1874:1914  excludedFromReward[address(this)] = true */\n  0x0100\n  exp\n  dup2\n  sload\n  dup2\n  0xff\n  mul\n  not\n  and\n  swap1\n  dup4\n  iszero\n  iszero\n  mul\n  or\n  swap1\n  sstore\n  pop\n    /* \"contracts/lolo.sol\":1955:1959  true */\n  0x01\n    /* \"contracts/lolo.sol\":1925:1943  excludedFromReward */\n  0x0d\n    /* \"contracts/lolo.sol\":1925:1952  excludedFromReward[owner()] */\n  0x00\n    /* \"contracts/lolo.sol\":1944:1951  owner() */\n  tag_34\n    /* \"contracts/lolo.sol\":1944:1949  owner */\n  shl(0x20, tag_31)\n    /* \"contracts/lolo.sol\":1944:1951  owner() */\n  0x20\n  shr\n  jump\t// in\ntag_34:\n    /* \"contracts/lolo.sol\":1925:1952  excludedFromReward[owner()] */\n  0xffffffffffffffffffffffffffffffffffffffff\n  and\n  0xffffffffffffffffffffffffffffffffffffffff\n  and\n  dup2\n  mstore\n  0x20\n  add\n  swap1\n  dup2\n  mstore\n  0x20\n  add\n  0x00\n  keccak256\n  0x00\n    /* \"contracts/lolo.sol\":1925:1959  excludedFromReward[owner()] = true */\n  0x0100\n  exp\n  dup2\n  sload\n  dup2\n  0xff\n  mul\n  not\n  and\n  swap1\n  dup4\n  iszero\n  iszero\n  mul\n  or\n  swap1\n  sstore\n  pop\n    /* \"contracts/lolo.sol\":2004:2008  true */\n  0x01\n    /* \"contracts/lolo.sol\":1970:1986  excludedFromBurn */\n  0x0e\n    /* \"contracts/lolo.sol\":1970:2001  excludedFromBurn[address(this)] */\n  0x00\n    /* \"contracts/lolo.sol\":1995:1999  this */\n  address\n    /* \"contracts/lolo.sol\":1970:2001  excludedFromBurn[address(this)] */\n  0xffffffffffffffffffffffffffffffffffffffff\n  and\n  0xffffffffffffffffffffffffffffffffffffffff\n  and\n  dup2\n  mstore\n  0x20\n  add\n  swap1\n  dup2\n  mstore\n  0x20\n  add\n  0x00\n  keccak256\n  0x00\n    /* \"contracts/lolo.sol\":1970:2008  excludedFromBurn[address(this)] = true */\n  0x0100\n  exp\n  dup2\n  sload\n  dup2\n  0xff\n  mul\n  not\n  and\n  swap1\n  dup4\n  iszero\n  iszero\n  mul\n  or\n  swap1\n  sstore\n  pop\n    /* \"contracts/lolo.sol\":2047:2051  true */\n  0x01\n    /* \"contracts/lolo.sol\":2019:2035  excludedFromBurn */\n  0x0e\n    /* \"contracts/lolo.sol\":2019:2044  excludedFromBurn[owner()] */\n  0x00\n    /* \"contracts/lolo.sol\":2036:2043  owner() */\n  tag_35\n    /* \"contracts/lolo.sol\":2036:2041  owner */\n  shl(0x20, tag_31)\n    /* \"contracts/lolo.sol\":2036:2043  owner() */\n  0x20\n  shr\n  jump\t// in\ntag_35:\n    /* \"contracts/lolo.sol\":2019:2044  excludedFromBurn[owner()] */\n  0xffffffffffffffffffffffffffffffffffffffff\n  and\n  0xffffffffffffffffffffffffffffffffffffffff\n  and\n  dup2\n  mstore\n  0x20\n  add\n  swap1\n  dup2\n  mstore\n  0x20\n  add\n  0x00\n  keccak256\n  0x00\n    /* \"contracts/lolo.sol\":2019:2051  excludedFromBurn[owner()] = true */\n  0x0100\n  exp\n  dup2\n  sload\n  dup2\n  0xff\n  mul\n  not\n  and\n  swap1\n  dup4\n  iszero\n  iszero\n  mul\n  or\n  swap1\n  sstore\n  pop\n    /* \"contracts/lolo.sol\":1097:2059  {... */\n  pop\n    /* \"contracts/lolo.sol\":1021:2059  constructor(address _tokenReward, address _tokenBurn) ERC20(\"Lolo\", \"LOLO\") {... */\n  pop\n  pop\n    /* \"contracts/lolo.sol\":402:5561  contract Lolo is ERC20, Ownable {... */\n  jump(tag_36)\n    /* \"@openzeppelin/contracts/utils/Context.sol\":640:736  function _msgSender() internal view virtual returns (address) {... */\ntag_14:\n    /* \"@openzeppelin/contracts/utils/Context.sol\":693:700  address */\n  0x00\n    /* \"@openzeppelin/contracts/utils/Context.sol\":719:729  msg.sender */\n  caller\n    /* \"@openzeppelin/contracts/utils/Context.sol\":712:729  return msg.sender */\n  swap1\n  pop\n    /* \"@openzeppelin/contracts/utils/Context.sol\":640:736  function _msgSender() internal view virtual returns (address) {... */\n  swap1\n  jump\t// out\n    /* \"@openzeppelin/contracts/access/Ownable.sol\":2433:2620  function _transferOwnership(address newOwner) internal virtual {... */\ntag_15:\n    /* \"@openzeppelin/contracts/access/Ownable.sol\":2506:2522  address oldOwner */\n  0x00\n    /* \"@openzeppelin/contracts/access/Ownable.sol\":2525:2531  _owner */\n  0x05\n  0x00\n  swap1\n  sload\n  swap1\n  0x0100\n  exp\n  swap1\n  div\n  0xffffffffffffffffffffffffffffffffffffffff\n  and\n    /* \"@openzeppelin/contracts/access/Ownable.sol\":2506:2531  address oldOwner = _owner */\n  swap1\n  pop\n    /* \"@openzeppelin/contracts/access/Ownable.sol\":2550:2558  newOwner */\n  dup2\n    /* \"@openzeppelin/contracts/access/Ownable.sol\":2541:2547  _owner */\n  0x05\n  0x00\n    /* \"@openzeppelin/contracts/access/Ownable.sol\":2541:2558  _owner = newOwner */\n  0x0100\n  exp\n  dup2\n  sload\n  dup2\n  0xffffffffffffffffffffffffffffffffffffffff\n  mul\n  not\n  and\n  swap1\n  dup4\n  0xffffffffffffffffffffffffffffffffffffffff\n  and\n  mul\n  or\n  swap1\n  sstore\n  pop\n    /* \"@openzeppelin/contracts/access/Ownable.sol\":2604:2612  newOwner */\n  dup2\n    /* \"@openzeppelin/contracts/access/Ownable.sol\":2573:2613  OwnershipTransferred(oldOwner, newOwner) */\n  0xffffffffffffffffffffffffffffffffffffffff\n  and\n    /* \"@openzeppelin/contracts/access/Ownable.sol\":2594:2602  oldOwner */\n  dup2\n    /* \"@openzeppelin/contracts/access/Ownable.sol\":2573:2613  OwnershipTransferred(oldOwner, newOwner) */\n  0xffffffffffffffffffffffffffffffffffffffff\n  and\n  0x8be0079c531659141344cd1fd0a4f28419497f9722a3daafe3b4186f6b6457e0\n  mload(0x40)\n  mload(0x40)\n  dup1\n  swap2\n  sub\n  swap1\n  log3\n    /* \"@openzeppelin/contracts/access/Ownable.sol\":2496:2620  {... */\n  pop\n    /* \"@openzeppelin/contracts/access/Ownable.sol\":2433:2620  function _transferOwnership(address newOwner) internal virtual {... */\n  pop\n  jump\t// out\n    /* \"@openzeppelin/contracts/access/Ownable.sol\":1201:1286  function owner() public view virtual returns (address) {... */\ntag_31:\n    /* \"@openzeppelin/contracts/access/Ownable.sol\":1247:1254  address */\n  0x00\n    /* \"@openzeppelin/contracts/access/Ownable.sol\":1273:1279  _owner */\n  0x05\n  0x00\n  swap1\n  sload\n  swap1\n  0x0100\n  exp\n  swap1\n  div\n  0xffffffffffffffffffffffffffffffffffffffff\n  and\n    /* \"@openzeppelin/contracts/access/Ownable.sol\":1266:1279  return _owner */\n  swap1\n  pop\n    /* \"@openzeppelin/contracts/access/Ownable.sol\":1201:1286  function owner() public view virtual returns (address) {... */\n  swap1\n  jump\t// out\n    /* \"@openzeppelin/contracts/token/ERC20/ERC20.sol\":8567:9102  function _mint(address account, uint256 amount) internal virtual {... */\ntag_32:\n    /* \"@openzeppelin/contracts/token/ERC20/ERC20.sol\":8669:8670  0 */\n  0x00\n    /* \"@openzeppelin/contracts/token/ERC20/ERC20.sol\":8650:8671  account != address(0) */\n  0xffffffffffffffffffffffffffffffffffffffff\n  and\n    /* \"@openzeppelin/contracts/token/ERC20/ERC20.sol\":8650:8657  account */\n  dup3\n    /* \"@openzeppelin/contracts/token/ERC20/ERC20.sol\":8650:8671  account != address(0) */\n  0xffffffffffffffffffffffffffffffffffffffff\n  and\n  sub\n    /* \"@openzeppelin/contracts/token/ERC20/ERC20.sol\":8642:8707  require(account != address(0), \"ERC20: mint to the zero address\") */\n  tag_41\n  jumpi\n  mload(0x40)\n  0x08c379a000000000000000000000000000000000000000000000000000000000\n  dup2\n  mstore\n  0x04\n  add\n  tag_42\n  swap1\n  tag_43\n  jump\t// in\ntag_42:\n  mload(0x40)\n  dup1\n  swap2\n  sub\n  swap1\n  revert\ntag_41:\n    /* \"@openzeppelin/contracts/token/ERC20/ERC20.sol\":8718:8767  _beforeTokenTransfer(address(0), account, amount) */\n  tag_44\n    /* \"@openzeppelin/contracts/token/ERC20/ERC20.sol\":8747:8748  0 */\n  0x00\n    /* \"@openzeppelin/contracts/token/ERC20/ERC20.sol\":8751:8758  account */\n  dup4\n    /* \"@openzeppelin/contracts/token/ERC20/ERC20.sol\":8760:8766  amount */\n  dup4\n    /* \"@openzeppelin/contracts/token/ERC20/ERC20.sol\":8718:8738  _beforeTokenTransfer */\n  shl(0x20, tag_45)\n    /* \"@openzeppelin/contracts/token/ERC20/ERC20.sol\":8718:8767  _beforeTokenTransfer(address(0), account, amount) */\n  0x20\n  shr\n  jump\t// in\ntag_44:\n    /* \"@openzeppelin/contracts/token/ERC20/ERC20.sol\":8794:8800  amount */\n  dup1\n    /* \"@openzeppelin/contracts/token/ERC20/ERC20.sol\":8778:8790  _totalSupply */\n  0x02\n  0x00\n    /* \"@openzeppelin/contracts/token/ERC20/ERC20.sol\":8778:8800  _totalSupply += amount */\n  dup3\n  dup3\n  sload\n  tag_46\n  swap2\n  swap1\n  tag_47\n  jump\t// in\ntag_46:\n  swap3\n  pop\n  pop\n  dup2\n  swap1\n  sstore\n  pop\n    /* \"@openzeppelin/contracts/token/ERC20/ERC20.sol\":8968:8974  amount */\n  dup1\n    /* \"@openzeppelin/contracts/token/ERC20/ERC20.sol\":8946:8955  _balances */\n  0x00\n    /* \"@openzeppelin/contracts/token/ERC20/ERC20.sol\":8946:8964  _balances[account] */\n  dup1\n    /* \"@openzeppelin/contracts/token/ERC20/ERC20.sol\":8956:8963  account */\n  dup5\n    /* \"@openzeppelin/contracts/token/ERC20/ERC20.sol\":8946:8964  _balances[account] */\n  0xffffffffffffffffffffffffffffffffffffffff\n  and\n  0xffffffffffffffffffffffffffffffffffffffff\n  and\n  dup2\n  mstore\n  0x20\n  add\n  swap1\n  dup2\n  mstore\n  0x20\n  add\n  0x00\n  keccak256\n  0x00\n    /* \"@openzeppelin/contracts/token/ERC20/ERC20.sol\":8946:8974  _balances[account] += amount */\n  dup3\n  dup3\n  sload\n  add\n  swap3\n  pop\n  pop\n  dup2\n  swap1\n  sstore\n  pop\n    /* \"@openzeppelin/contracts/token/ERC20/ERC20.sol\":9020:9027  account */\n  dup2\n    /* \"@openzeppelin/contracts/token/ERC20/ERC20.sol\":8999:9036  Transfer(address(0), account, amount) */\n  0xffffffffffffffffffffffffffffffffffffffff\n  and\n    /* \"@openzeppelin/contracts/token/ERC20/ERC20.sol\":9016:9017  0 */\n  0x00\n    /* \"@openzeppelin/contracts/token/ERC20/ERC20.sol\":8999:9036  Transfer(address(0), account, amount) */\n  0xffffffffffffffffffffffffffffffffffffffff\n  and\n  0xddf252ad1be2c89b69c2b068fc378daa952ba7f163c4a11628f55a4df523b3ef\n    /* \"@openzeppelin/contracts/token/ERC20/ERC20.sol\":9029:9035  amount */\n  dup4\n    /* \"@openzeppelin/contracts/token/ERC20/ERC20.sol\":8999:9036  Transfer(address(0), account, amount) */\n  mload(0x40)\n  tag_48\n  swap2\n  swap1\n  tag_49\n  jump\t// in\ntag_48:\n  mload(0x40)\n  dup1\n  swap2\n  sub\n  swap1\n  log3\n    /* \"@openzeppelin/contracts/token/ERC20/ERC20.sol\":9047:9095  _afterTokenTransfer(address(0), account, amount) */\n  tag_50\n    /* \"@openzeppelin/contracts/token/ERC20/ERC20.sol\":9075:9076  0 */\n  0x00\n    /* \"@openzeppelin/contracts/token/ERC20/ERC20.sol\":9079:9086  account */\n  dup4\n    /* \"@openzeppelin/contracts/token/ERC20/ERC20.sol\":9088:9094  amount */\n  dup4\n    /* \"@openzeppelin/contracts/token/ERC20/ERC20.sol\":9047:9066  _afterTokenTransfer */\n  shl(0x20, tag_51)\n    /* \"@openzeppelin/contracts/token/ERC20/ERC20.sol\":9047:9095  _afterTokenTransfer(address(0), account, amount) */\n  0x20\n  shr\n  jump\t// in\ntag_50:\n    /* \"@openzeppelin/contracts/token/ERC20/ERC20.sol\":8567:9102  function _mint(address account, uint256 amount) internal virtual {... */\n  pop\n  pop\n  jump\t// out\n    /* \"@openzeppelin/contracts/token/ERC20/ERC20.sol\":12180:12301  function _beforeTokenTransfer(... */\ntag_45:\n  pop\n  pop\n  pop\n  jump\t// out\n    /* \"@openzeppelin/contracts/token/ERC20/ERC20.sol\":12889:13009  function _afterTokenTransfer(... */\ntag_51:\n  pop\n  pop\n  pop\n  jump\t// out\n    /* \"#utility.yul\":88:205   */\ntag_55:\n    /* \"#utility.yul\":197:198   */\n  0x00\n    /* \"#utility.yul\":194:195   */\n  dup1\n    /* \"#utility.yul\":187:199   */\n  revert\n    /* \"#utility.yul\":334:460   */\ntag_57:\n    /* \"#utility.yul\":371:378   */\n  0x00\n    /* \"#utility.yul\":411:453   */\n  0xffffffffffffffffffffffffffffffffffffffff\n    /* \"#utility.yul\":404:409   */\n  dup3\n    /* \"#utility.yul\":400:454   */\n  and\n    /* \"#utility.yul\":389:454   */\n  swap1\n  pop\n    /* \"#utility.yul\":334:460   */\n  swap2\n  swap1\n  pop\n  jump\t// out\n    /* \"#utility.yul\":466:562   */\ntag_58:\n    /* \"#utility.yul\":503:510   */\n  0x00\n    /* \"#utility.yul\":532:556   */\n  tag_93\n    /* \"#utility.yul\":550:555   */\n  dup3\n    /* \"#utility.yul\":532:556   */\n  tag_57\n  jump\t// in\ntag_93:\n    /* \"#utility.yul\":521:556   */\n  swap1\n  pop\n    /* \"#utility.yul\":466:562   */\n  swap2\n  swap1\n  pop\n  jump\t// out\n    /* \"#utility.yul\":568:690   */\ntag_59:\n    /* \"#utility.yul\":641:665   */\n  tag_95\n    /* \"#utility.yul\":659:664   */\n  dup2\n    /* \"#utility.yul\":641:665   */\n  tag_58\n  jump\t// in\ntag_95:\n    /* \"#utility.yul\":634:639   */\n  dup2\n    /* \"#utility.yul\":631:666   */\n  eq\n    /* \"#utility.yul\":621:684   */\n  tag_96\n  jumpi\n    /* \"#utility.yul\":680:681   */\n  0x00\n    /* \"#utility.yul\":677:678   */\n  dup1\n    /* \"#utility.yul\":670:682   */\n  revert\n    /* \"#utility.yul\":621:684   */\ntag_96:\n    /* \"#utility.yul\":568:690   */\n  pop\n  jump\t// out\n    /* \"#utility.yul\":696:839   */\ntag_60:\n    /* \"#utility.yul\":753:758   */\n  0x00\n    /* \"#utility.yul\":784:790   */\n  dup2\n    /* \"#utility.yul\":778:791   */\n  mload\n    /* \"#utility.yul\":769:791   */\n  swap1\n  pop\n    /* \"#utility.yul\":800:833   */\n  tag_98\n    /* \"#utility.yul\":827:832   */\n  dup2\n    /* \"#utility.yul\":800:833   */\n  tag_59\n  jump\t// in\ntag_98:\n    /* \"#utility.yul\":696:839   */\n  swap3\n  swap2\n  pop\n  pop\n  jump\t// out\n    /* \"#utility.yul\":845:1352   */\ntag_3:\n    /* \"#utility.yul\":924:930   */\n  0x00\n    /* \"#utility.yul\":932:938   */\n  dup1\n    /* \"#utility.yul\":981:983   */\n  0x40\n    /* \"#utility.yul\":969:978   */\n  dup4\n    /* \"#utility.yul\":960:967   */\n  dup6\n    /* \"#utility.yul\":956:979   */\n  sub\n    /* \"#utility.yul\":952:984   */\n  slt\n    /* \"#utility.yul\":949:1068   */\n  iszero\n  tag_100\n  jumpi\n    /* \"#utility.yul\":987:1066   */\n  tag_101\n  tag_55\n  jump\t// in\ntag_101:\n    /* \"#utility.yul\":949:1068   */\ntag_100:\n    /* \"#utility.yul\":1107:1108   */\n  0x00\n    /* \"#utility.yul\":1132:1196   */\n  tag_102\n    /* \"#utility.yul\":1188:1195   */\n  dup6\n    /* \"#utility.yul\":1179:1185   */\n  dup3\n    /* \"#utility.yul\":1168:1177   */\n  dup7\n    /* \"#utility.yul\":1164:1186   */\n  add\n    /* \"#utility.yul\":1132:1196   */\n  tag_60\n  jump\t// in\ntag_102:\n    /* \"#utility.yul\":1122:1196   */\n  swap3\n  pop\n    /* \"#utility.yul\":1078:1206   */\n  pop\n    /* \"#utility.yul\":1245:1247   */\n  0x20\n    /* \"#utility.yul\":1271:1335   */\n  tag_103\n    /* \"#utility.yul\":1327:1334   */\n  dup6\n    /* \"#utility.yul\":1318:1324   */\n  dup3\n    /* \"#utility.yul\":1307:1316   */\n  dup7\n    /* \"#utility.yul\":1303:1325   */\n  add\n    /* \"#utility.yul\":1271:1335   */\n  tag_60\n  jump\t// in\ntag_103:\n    /* \"#utility.yul\":1261:1335   */\n  swap2\n  pop\n    /* \"#utility.yul\":1216:1345   */\n  pop\n    /* \"#utility.yul\":845:1352   */\n  swap3\n  pop\n  swap3\n  swap1\n  pop\n  jump\t// out\n    /* \"#utility.yul\":1358:1457   */\ntag_61:\n    /* \"#utility.yul\":1410:1416   */\n  0x00\n    /* \"#utility.yul\":1444:1449   */\n  dup2\n    /* \"#utility.yul\":1438:1450   */\n  mload\n    /* \"#utility.yul\":1428:1450   */\n  swap1\n  pop\n    /* \"#utility.yul\":1358:1457   */\n  swap2\n  swap1\n  pop\n  jump\t// out\n    /* \"#utility.yul\":1463:1643   */\ntag_62:\n    /* \"#utility.yul\":1511:1588   */\n  0x4e487b7100000000000000000000000000000000000000000000000000000000\n    /* \"#utility.yul\":1508:1509   */\n  0x00\n    /* \"#utility.yul\":1501:1589   */\n  mstore\n    /* \"#utility.yul\":1608:1612   */\n  0x41\n    /* \"#utility.yul\":1605:1606   */\n  0x04\n    /* \"#utility.yul\":1598:1613   */\n  mstore\n    /* \"#utility.yul\":1632:1636   */\n  0x24\n    /* \"#utility.yul\":1629:1630   */\n  0x00\n    /* \"#utility.yul\":1622:1637   */\n  revert\n    /* \"#utility.yul\":1649:1829   */\ntag_63:\n    /* \"#utility.yul\":1697:1774   */\n  0x4e487b7100000000000000000000000000000000000000000000000000000000\n    /* \"#utility.yul\":1694:1695   */\n  0x00\n    /* \"#utility.yul\":1687:1775   */\n  mstore\n    /* \"#utility.yul\":1794:1798   */\n  0x22\n    /* \"#utility.yul\":1791:1792   */\n  0x04\n    /* \"#utility.yul\":1784:1799   */\n  mstore\n    /* \"#utility.yul\":1818:1822   */\n  0x24\n    /* \"#utility.yul\":1815:1816   */\n  0x00\n    /* \"#utility.yul\":1808:1823   */\n  revert\n    /* \"#utility.yul\":1835:2155   */\ntag_64:\n    /* \"#utility.yul\":1879:1885   */\n  0x00\n    /* \"#utility.yul\":1916:1917   */\n  0x02\n    /* \"#utility.yul\":1910:1914   */\n  dup3\n    /* \"#utility.yul\":1906:1918   */\n  div\n    /* \"#utility.yul\":1896:1918   */\n  swap1\n  pop\n    /* \"#utility.yul\":1963:1964   */\n  0x01\n    /* \"#utility.yul\":1957:1961   */\n  dup3\n    /* \"#utility.yul\":1953:1965   */\n  and\n    /* \"#utility.yul\":1984:2002   */\n  dup1\n    /* \"#utility.yul\":1974:2055   */\n  tag_108\n  jumpi\n    /* \"#utility.yul\":2040:2044   */\n  0x7f\n    /* \"#utility.yul\":2032:2038   */\n  dup3\n    /* \"#utility.yul\":2028:2045   */\n  and\n    /* \"#utility.yul\":2018:2045   */\n  swap2\n  pop\n    /* \"#utility.yul\":1974:2055   */\ntag_108:\n    /* \"#utility.yul\":2102:2104   */\n  0x20\n    /* \"#utility.yul\":2094:2100   */\n  dup3\n    /* \"#utility.yul\":2091:2105   */\n  lt\n    /* \"#utility.yul\":2071:2089   */\n  dup2\n    /* \"#utility.yul\":2068:2106   */\n  sub\n    /* \"#utility.yul\":2065:2149   */\n  tag_109\n  jumpi\n    /* \"#utility.yul\":2121:2139   */\n  tag_110\n  tag_63\n  jump\t// in\ntag_110:\n    /* \"#utility.yul\":2065:2149   */\ntag_109:\n    /* \"#utility.yul\":1886:2155   */\n  pop\n    /* \"#utility.yul\":1835:2155   */\n  swap2\n  swap1\n  pop\n  jump\t// out\n    /* \"#utility.yul\":2161:2302   */\ntag_65:\n    /* \"#utility.yul\":2210:2214   */\n  0x00\n    /* \"#utility.yul\":2233:2236   */\n  dup2\n    /* \"#utility.yul\":2225:2236   */\n  swap1\n  pop\n    /* \"#utility.yul\":2256:2259   */\n  dup2\n    /* \"#utility.yul\":2253:2254   */\n  0x00\n    /* \"#utility.yul\":2246:2260   */\n  mstore\n    /* \"#utility.yul\":2290:2294   */\n  0x20\n    /* \"#utility.yul\":2287:2288   */\n  0x00\n    /* \"#utility.yul\":2277:2295   */\n  keccak256\n    /* \"#utility.yul\":2269:2295   */\n  swap1\n  pop\n    /* \"#utility.yul\":2161:2302   */\n  swap2\n  swap1\n  pop\n  jump\t// out\n    /* \"#utility.yul\":2308:2401   */\ntag_66:\n    /* \"#utility.yul\":2345:2351   */\n  0x00\n    /* \"#utility.yul\":2392:2394   */\n  0x20\n    /* \"#utility.yul\":2387:2389   */\n  0x1f\n    /* \"#utility.yul\":2380:2385   */\n  dup4\n    /* \"#utility.yul\":2376:2390   */\n  add\n    /* \"#utility.yul\":2372:2395   */\n  div\n    /* \"#utility.yul\":2362:2395   */\n  swap1\n  pop\n    /* \"#utility.yul\":2308:2401   */\n  swap2\n  swap1\n  pop\n  jump\t// out\n    /* \"#utility.yul\":2407:2514   */\ntag_67:\n    /* \"#utility.yul\":2451:2459   */\n  0x00\n    /* \"#utility.yul\":2501:2506   */\n  dup3\n    /* \"#utility.yul\":2495:2499   */\n  dup3\n    /* \"#utility.yul\":2491:2507   */\n  shl\n    /* \"#utility.yul\":2470:2507   */\n  swap1\n  pop\n    /* \"#utility.yul\":2407:2514   */\n  swap3\n  swap2\n  pop\n  pop\n  jump\t// out\n    /* \"#utility.yul\":2520:2913   */\ntag_68:\n    /* \"#utility.yul\":2589:2595   */\n  0x00\n    /* \"#utility.yul\":2639:2640   */\n  0x08\n    /* \"#utility.yul\":2627:2637   */\n  dup4\n    /* \"#utility.yul\":2623:2641   */\n  mul\n    /* \"#utility.yul\":2662:2759   */\n  tag_115\n    /* \"#utility.yul\":2692:2758   */\n  0xffffffffffffffffffffffffffffffffffffffffffffffffffffffffffffffff\n    /* \"#utility.yul\":2681:2690   */\n  dup3\n    /* \"#utility.yul\":2662:2759   */\n  tag_67\n  jump\t// in\ntag_115:\n    /* \"#utility.yul\":2780:2819   */\n  tag_116\n    /* \"#utility.yul\":2810:2818   */\n  dup7\n    /* \"#utility.yul\":2799:2808   */\n  dup4\n    /* \"#utility.yul\":2780:2819   */\n  tag_67\n  jump\t// in\ntag_116:\n    /* \"#utility.yul\":2768:2819   */\n  swap6\n  pop\n    /* \"#utility.yul\":2852:2856   */\n  dup1\n    /* \"#utility.yul\":2848:2857   */\n  not\n    /* \"#utility.yul\":2841:2846   */\n  dup5\n    /* \"#utility.yul\":2837:2858   */\n  and\n    /* \"#utility.yul\":2828:2858   */\n  swap4\n  pop\n    /* \"#utility.yul\":2901:2905   */\n  dup1\n    /* \"#utility.yul\":2891:2899   */\n  dup7\n    /* \"#utility.yul\":2887:2906   */\n  and\n    /* \"#utility.yul\":2880:2885   */\n  dup5\n    /* \"#utility.yul\":2877:2907   */\n  or\n    /* \"#utility.yul\":2867:2907   */\n  swap3\n  pop\n    /* \"#utility.yul\":2596:2913   */\n  pop\n  pop\n    /* \"#utility.yul\":2520:2913   */\n  swap4\n  swap3\n  pop\n  pop\n  pop\n  jump\t// out\n    /* \"#utility.yul\":2919:2996   */\ntag_69:\n    /* \"#utility.yul\":2956:2963   */\n  0x00\n    /* \"#utility.yul\":2985:2990   */\n  dup2\n    /* \"#utility.yul\":2974:2990   */\n  swap1\n  pop\n    /* \"#utility.yul\":2919:2996   */\n  swap2\n  swap1\n  pop\n  jump\t// out\n    /* \"#utility.yul\":3002:3062   */\ntag_70:\n    /* \"#utility.yul\":3030:3033   */\n  0x00\n    /* \"#utility.yul\":3051:3056   */\n  dup2\n    /* \"#utility.yul\":3044:3056   */\n  swap1\n  pop\n    /* \"#utility.yul\":3002:3062   */\n  swap2\n  swap1\n  pop\n  jump\t// out\n    /* \"#utility.yul\":3068:3210   */\ntag_71:\n    /* \"#utility.yul\":3118:3127   */\n  0x00\n    /* \"#utility.yul\":3151:3204   */\n  tag_120\n    /* \"#utility.yul\":3169:3203   */\n  tag_121\n    /* \"#utility.yul\":3178:3202   */\n  tag_122\n    /* \"#utility.yul\":3196:3201   */\n  dup5\n    /* \"#utility.yul\":3178:3202   */\n  tag_69\n  jump\t// in\ntag_122:\n    /* \"#utility.yul\":3169:3203   */\n  tag_70\n  jump\t// in\ntag_121:\n    /* \"#utility.yul\":3151:3204   */\n  tag_69\n  jump\t// in\ntag_120:\n    /* \"#utility.yul\":3138:3204   */\n  swap1\n  pop\n    /* \"#utility.yul\":3068:3210   */\n  swap2\n  swap1\n  pop\n  jump\t// out\n    /* \"#utility.yul\":3216:3291   */\ntag_72:\n    /* \"#utility.yul\":3259:3262   */\n  0x00\n    /* \"#utility.yul\":3280:3285   */\n  dup2\n    /* \"#utility.yul\":3273:3285   */\n  swap1\n  pop\n    /* \"#utility.yul\":3216:3291   */\n  swap2\n  swap1\n  pop\n  jump\t// out\n    /* \"#utility.yul\":3297:3566   */\ntag_73:\n    /* \"#utility.yul\":3407:3446   */\n  tag_125\n    /* \"#utility.yul\":3438:3445   */\n  dup4\n    /* \"#utility.yul\":3407:3446   */\n  tag_71\n  jump\t// in\ntag_125:\n    /* \"#utility.yul\":3468:3559   */\n  tag_126\n    /* \"#utility.yul\":3517:3558   */\n  tag_127\n    /* \"#utility.yul\":3541:3557   */\n  dup3\n    /* \"#utility.yul\":3517:3558   */\n  tag_72\n  jump\t// in\ntag_127:\n    /* \"#utility.yul\":3509:3515   */\n  dup5\n    /* \"#utility.yul\":3502:3506   */\n  dup5\n    /* \"#utility.yul\":3496:3507   */\n  sload\n    /* \"#utility.yul\":3468:3559   */\n  tag_68\n  jump\t// in\ntag_126:\n    /* \"#utility.yul\":3462:3466   */\n  dup3\n    /* \"#utility.yul\":3455:3560   */\n  sstore\n    /* \"#utility.yul\":3373:3566   */\n  pop\n    /* \"#utility.yul\":3297:3566   */\n  pop\n  pop\n  pop\n  jump\t// out\n    /* \"#utility.yul\":3572:3645   */\ntag_74:\n    /* \"#utility.yul\":3617:3620   */\n  0x00\n    /* \"#utility.yul\":3572:3645   */\n  swap1\n  jump\t// out\n    /* \"#utility.yul\":3651:3840   */\ntag_75:\n    /* \"#utility.yul\":3728:3760   */\n  tag_130\n  tag_74\n  jump\t// in\ntag_130:\n    /* \"#utility.yul\":3769:3834   */\n  tag_131\n    /* \"#utility.yul\":3827:3833   */\n  dup2\n    /* \"#utility.yul\":3819:3825   */\n  dup5\n    /* \"#utility.yul\":3813:3817   */\n  dup5\n    /* \"#utility.yul\":3769:3834   */\n  tag_73\n  jump\t// in\ntag_131:\n    /* \"#utility.yul\":3704:3840   */\n  pop\n    /* \"#utility.yul\":3651:3840   */\n  pop\n  pop\n  jump\t// out\n    /* \"#utility.yul\":3846:4032   */\ntag_76:\n    /* \"#utility.yul\":3906:4026   */\ntag_133:\n    /* \"#utility.yul\":3923:3926   */\n  dup2\n    /* \"#utility.yul\":3916:3921   */\n  dup2\n    /* \"#utility.yul\":3913:3927   */\n  lt\n    /* \"#utility.yul\":3906:4026   */\n  iszero\n  tag_135\n  jumpi\n    /* \"#utility.yul\":3977:4016   */\n  tag_136\n    /* \"#utility.yul\":4014:4015   */\n  0x00\n    /* \"#utility.yul\":4007:4012   */\n  dup3\n    /* \"#utility.yul\":3977:4016   */\n  tag_75\n  jump\t// in\ntag_136:\n    /* \"#utility.yul\":3950:3951   */\n  0x01\n    /* \"#utility.yul\":3943:3948   */\n  dup2\n    /* \"#utility.yul\":3939:3952   */\n  add\n    /* \"#utility.yul\":3930:3952   */\n  swap1\n  pop\n    /* \"#utility.yul\":3906:4026   */\n  jump(tag_133)\ntag_135:\n    /* \"#utility.yul\":3846:4032   */\n  pop\n  pop\n  jump\t// out\n    /* \"#utility.yul\":4038:4581   */\ntag_77:\n    /* \"#utility.yul\":4139:4141   */\n  0x1f\n    /* \"#utility.yul\":4134:4137   */\n  dup3\n    /* \"#utility.yul\":4131:4142   */\n  gt\n    /* \"#utility.yul\":4128:4574   */\n  iszero\n  tag_138\n  jumpi\n    /* \"#utility.yul\":4173:4211   */\n  tag_139\n    /* \"#utility.yul\":4205:4210   */\n  dup2\n    /* \"#utility.yul\":4173:4211   */\n  tag_65\n  jump\t// in\ntag_139:\n    /* \"#utility.yul\":4257:4286   */\n  tag_140\n    /* \"#utility.yul\":4275:4285   */\n  dup5\n    /* \"#utility.yul\":4257:4286   */\n  tag_66\n  jump\t// in\ntag_140:\n    /* \"#utility.yul\":4247:4255   */\n  dup2\n    /* \"#utility.yul\":4243:4287   */\n  add\n    /* \"#utility.yul\":4440:4442   */\n  0x20\n    /* \"#utility.yul\":4428:4438   */\n  dup6\n    /* \"#utility.yul\":4425:4443   */\n  lt\n    /* \"#utility.yul\":4422:4471   */\n  iszero\n  tag_141\n  jumpi\n    /* \"#utility.yul\":4461:4469   */\n  dup2\n    /* \"#utility.yul\":4446:4469   */\n  swap1\n  pop\n    /* \"#utility.yul\":4422:4471   */\ntag_141:\n    /* \"#utility.yul\":4484:4564   */\n  tag_142\n    /* \"#utility.yul\":4540:4562   */\n  tag_143\n    /* \"#utility.yul\":4558:4561   */\n  dup6\n    /* \"#utility.yul\":4540:4562   */\n  tag_66\n  jump\t// in\ntag_143:\n    /* \"#utility.yul\":4530:4538   */\n  dup4\n    /* \"#utility.yul\":4526:4563   */\n  add\n    /* \"#utility.yul\":4513:4524   */\n  dup3\n    /* \"#utility.yul\":4484:4564   */\n  tag_76\n  jump\t// in\ntag_142:\n    /* \"#utility.yul\":4143:4574   */\n  pop\n  pop\n    /* \"#utility.yul\":4128:4574   */\ntag_138:\n    /* \"#utility.yul\":4038:4581   */\n  pop\n  pop\n  pop\n  jump\t// out\n    /* \"#utility.yul\":4587:4704   */\ntag_78:\n    /* \"#utility.yul\":4641:4649   */\n  0x00\n    /* \"#utility.yul\":4691:4696   */\n  dup3\n    /* \"#utility.yul\":4685:4689   */\n  dup3\n    /* \"#utility.yul\":4681:4697   */\n  shr\n    /* \"#utility.yul\":4660:4697   */\n  swap1\n  pop\n    /* \"#utility.yul\":4587:4704   */\n  swap3\n  swap2\n  pop\n  pop\n  jump\t// out\n    /* \"#utility.yul\":4710:4879   */\ntag_79:\n    /* \"#utility.yul\":4754:4760   */\n  0x00\n    /* \"#utility.yul\":4787:4838   */\n  tag_146\n    /* \"#utility.yul\":4835:4836   */\n  0x00\n    /* \"#utility.yul\":4831:4837   */\n  not\n    /* \"#utility.yul\":4823:4828   */\n  dup5\n    /* \"#utility.yul\":4820:4821   */\n  0x08\n    /* \"#utility.yul\":4816:4829   */\n  mul\n    /* \"#utility.yul\":4787:4838   */\n  tag_78\n  jump\t// in\ntag_146:\n    /* \"#utility.yul\":4783:4839   */\n  not\n    /* \"#utility.yul\":4868:4872   */\n  dup1\n    /* \"#utility.yul\":4862:4866   */\n  dup4\n    /* \"#utility.yul\":4858:4873   */\n  and\n    /* \"#utility.yul\":4848:4873   */\n  swap2\n  pop\n    /* \"#utility.yul\":4761:4879   */\n  pop\n    /* \"#utility.yul\":4710:4879   */\n  swap3\n  swap2\n  pop\n  pop\n  jump\t// out\n    /* \"#utility.yul\":4884:5179   */\ntag_80:\n    /* \"#utility.yul\":4960:4964   */\n  0x00\n    /* \"#utility.yul\":5106:5135   */\n  tag_148\n    /* \"#utility.yul\":5131:5134   */\n  dup4\n    /* \"#utility.yul\":5125:5129   */\n  dup4\n    /* \"#utility.yul\":5106:5135   */\n  tag_79\n  jump\t// in\ntag_148:\n    /* \"#utility.yul\":5098:5135   */\n  swap2\n  pop\n    /* \"#utility.yul\":5168:5171   */\n  dup3\n    /* \"#utility.yul\":5165:5166   */\n  0x02\n    /* \"#utility.yul\":5161:5172   */\n  mul\n    /* \"#utility.yul\":5155:5159   */\n  dup3\n    /* \"#utility.yul\":5152:5173   */\n  or\n    /* \"#utility.yul\":5144:5173   */\n  swap1\n  pop\n    /* \"#utility.yul\":4884:5179   */\n  swap3\n  swap2\n  pop\n  pop\n  jump\t// out\n    /* \"#utility.yul\":5184:6579   */\ntag_9:\n    /* \"#utility.yul\":5301:5338   */\n  tag_150\n    /* \"#utility.yul\":5334:5337   */\n  dup3\n    /* \"#utility.yul\":5301:5338   */\n  tag_61\n  jump\t// in\ntag_150:\n    /* \"#utility.yul\":5403:5421   */\n  0xffffffffffffffff\n    /* \"#utility.yul\":5395:5401   */\n  dup2\n    /* \"#utility.yul\":5392:5422   */\n  gt\n    /* \"#utility.yul\":5389:5445   */\n  iszero\n  tag_151\n  jumpi\n    /* \"#utility.yul\":5425:5443   */\n  tag_152\n  tag_62\n  jump\t// in\ntag_152:\n    /* \"#utility.yul\":5389:5445   */\ntag_151:\n    /* \"#utility.yul\":5469:5507   */\n  tag_153\n    /* \"#utility.yul\":5501:5505   */\n  dup3\n    /* \"#utility.yul\":5495:5506   */\n  sload\n    /* \"#utility.yul\":5469:5507   */\n  tag_64\n  jump\t// in\ntag_153:\n    /* \"#utility.yul\":5554:5621   */\n  tag_154\n    /* \"#utility.yul\":5614:5620   */\n  dup3\n    /* \"#utility.yul\":5606:5612   */\n  dup3\n    /* \"#utility.yul\":5600:5604   */\n  dup6\n    /* \"#utility.yul\":5554:5621   */\n  tag_77\n  jump\t// in\ntag_154:\n    /* \"#utility.yul\":5648:5649   */\n  0x00\n    /* \"#utility.yul\":5672:5676   */\n  0x20\n    /* \"#utility.yul\":5659:5676   */\n  swap1\n  pop\n    /* \"#utility.yul\":5704:5706   */\n  0x1f\n    /* \"#utility.yul\":5696:5702   */\n  dup4\n    /* \"#utility.yul\":5693:5707   */\n  gt\n    /* \"#utility.yul\":5721:5722   */\n  0x01\n    /* \"#utility.yul\":5716:6334   */\n  dup2\n  eq\n  tag_156\n  jumpi\n    /* \"#utility.yul\":6378:6379   */\n  0x00\n    /* \"#utility.yul\":6395:6401   */\n  dup5\n    /* \"#utility.yul\":6392:6469   */\n  iszero\n  tag_157\n  jumpi\n    /* \"#utility.yul\":6444:6453   */\n  dup3\n    /* \"#utility.yul\":6439:6442   */\n  dup8\n    /* \"#utility.yul\":6435:6454   */\n  add\n    /* \"#utility.yul\":6429:6455   */\n  mload\n    /* \"#utility.yul\":6420:6455   */\n  swap1\n  pop\n    /* \"#utility.yul\":6392:6469   */\ntag_157:\n    /* \"#utility.yul\":6495:6562   */\n  tag_158\n    /* \"#utility.yul\":6555:6561   */\n  dup6\n    /* \"#utility.yul\":6548:6553   */\n  dup3\n    /* \"#utility.yul\":6495:6562   */\n  tag_80\n  jump\t// in\ntag_158:\n    /* \"#utility.yul\":6489:6493   */\n  dup7\n    /* \"#utility.yul\":6482:6563   */\n  sstore\n    /* \"#utility.yul\":6351:6573   */\n  pop\n    /* \"#utility.yul\":5686:6573   */\n  jump(tag_155)\n    /* \"#utility.yul\":5716:6334   */\ntag_156:\n    /* \"#utility.yul\":5768:5772   */\n  0x1f\n    /* \"#utility.yul\":5764:5773   */\n  not\n    /* \"#utility.yul\":5756:5762   */\n  dup5\n    /* \"#utility.yul\":5752:5774   */\n  and\n    /* \"#utility.yul\":5802:5839   */\n  tag_159\n    /* \"#utility.yul\":5834:5838   */\n  dup7\n    /* \"#utility.yul\":5802:5839   */\n  tag_65\n  jump\t// in\ntag_159:\n    /* \"#utility.yul\":5861:5862   */\n  0x00\n    /* \"#utility.yul\":5875:6083   */\ntag_160:\n    /* \"#utility.yul\":5889:5896   */\n  dup3\n    /* \"#utility.yul\":5886:5887   */\n  dup2\n    /* \"#utility.yul\":5883:5897   */\n  lt\n    /* \"#utility.yul\":5875:6083   */\n  iszero\n  tag_162\n  jumpi\n    /* \"#utility.yul\":5968:5977   */\n  dup5\n    /* \"#utility.yul\":5963:5966   */\n  dup10\n    /* \"#utility.yul\":5959:5978   */\n  add\n    /* \"#utility.yul\":5953:5979   */\n  mload\n    /* \"#utility.yul\":5945:5951   */\n  dup3\n    /* \"#utility.yul\":5938:5980   */\n  sstore\n    /* \"#utility.yul\":6019:6020   */\n  0x01\n    /* \"#utility.yul\":6011:6017   */\n  dup3\n    /* \"#utility.yul\":6007:6021   */\n  add\n    /* \"#utility.yul\":5997:6021   */\n  swap2\n  pop\n    /* \"#utility.yul\":6066:6068   */\n  0x20\n    /* \"#utility.yul\":6055:6064   */\n  dup6\n    /* \"#utility.yul\":6051:6069   */\n  add\n    /* \"#utility.yul\":6038:6069   */\n  swap5\n  pop\n    /* \"#utility.yul\":5912:5916   */\n  0x20\n    /* \"#utility.yul\":5909:5910   */\n  dup2\n    /* \"#utility.yul\":5905:5917   */\n  add\n    /* \"#utility.yul\":5900:5917   */\n  swap1\n  pop\n    /* \"#utility.yul\":5875:6083   */\n  jump(tag_160)\ntag_162:\n    /* \"#utility.yul\":6111:6117   */\n  dup7\n    /* \"#utility.yul\":6102:6109   */\n  dup4\n    /* \"#utility.yul\":6099:6118   */\n  lt\n    /* \"#utility.yul\":6096:6275   */\n  iszero\n  tag_163\n  jumpi\n    /* \"#utility.yul\":6169:6178   */\n  dup5\n    /* \"#utility.yul\":6164:6167   */\n  dup10\n    /* \"#utility.yul\":6160:6179   */\n  add\n    /* \"#utility.yul\":6154:6180   */\n  mload\n    /* \"#utility.yul\":6212:6260   */\n  tag_164\n    /* \"#utility.yul\":6254:6258   */\n  0x1f\n    /* \"#utility.yul\":6246:6252   */\n  dup10\n    /* \"#utility.yul\":6242:6259   */\n  and\n    /* \"#utility.yul\":6231:6240   */\n  dup3\n    /* \"#utility.yul\":6212:6260   */\n  tag_79\n  jump\t// in\ntag_164:\n    /* \"#utility.yul\":6204:6210   */\n  dup4\n    /* \"#utility.yul\":6197:6261   */\n  sstore\n    /* \"#utility.yul\":6119:6275   */\n  pop\n    /* \"#utility.yul\":6096:6275   */\ntag_163:\n    /* \"#utility.yul\":6321:6322   */\n  0x01\n    /* \"#utility.yul\":6317:6318   */\n  0x02\n    /* \"#utility.yul\":6309:6315   */\n  dup9\n    /* \"#utility.yul\":6305:6319   */\n  mul\n    /* \"#utility.yul\":6301:6323   */\n  add\n    /* \"#utility.yul\":6295:6299   */\n  dup9\n    /* \"#utility.yul\":6288:6324   */\n  sstore\n    /* \"#utility.yul\":5723:6334   */\n  pop\n  pop\n  pop\n    /* \"#utility.yul\":5686:6573   */\ntag_155:\n  pop\n    /* \"#utility.yul\":5276:6579   */\n  pop\n  pop\n  pop\n    /* \"#utility.yul\":5184:6579   */\n  pop\n  pop\n  jump\t// out\n    /* \"#utility.yul\":6585:6936   */\ntag_20:\n    /* \"#utility.yul\":6655:6661   */\n  0x00\n    /* \"#utility.yul\":6704:6706   */\n  0x20\n    /* \"#utility.yul\":6692:6701   */\n  dup3\n    /* \"#utility.yul\":6683:6690   */\n  dup5\n    /* \"#utility.yul\":6679:6702   */\n  sub\n    /* \"#utility.yul\":6675:6707   */\n  slt\n    /* \"#utility.yul\":6672:6791   */\n  iszero\n  tag_166\n  jumpi\n    /* \"#utility.yul\":6710:6789   */\n  tag_167\n  tag_55\n  jump\t// in\ntag_167:\n    /* \"#utility.yul\":6672:6791   */\ntag_166:\n    /* \"#utility.yul\":6830:6831   */\n  0x00\n    /* \"#utility.yul\":6855:6919   */\n  tag_168\n    /* \"#utility.yul\":6911:6918   */\n  dup5\n    /* \"#utility.yul\":6902:6908   */\n  dup3\n    /* \"#utility.yul\":6891:6900   */\n  dup6\n    /* \"#utility.yul\":6887:6909   */\n  add\n    /* \"#utility.yul\":6855:6919   */\n  tag_60\n  jump\t// in\ntag_168:\n    /* \"#utility.yul\":6845:6919   */\n  swap2\n  pop\n    /* \"#utility.yul\":6801:6929   */\n  pop\n    /* \"#utility.yul\":6585:6936   */\n  swap3\n  swap2\n  pop\n  pop\n  jump\t// out\n    /* \"#utility.yul\":6942:7060   */\ntag_81:\n    /* \"#utility.yul\":7029:7053   */\n  tag_170\n    /* \"#utility.yul\":7047:7052   */\n  dup2\n    /* \"#utility.yul\":7029:7053   */\n  tag_58\n  jump\t// in\ntag_170:\n    /* \"#utility.yul\":7024:7027   */\n  dup3\n    /* \"#utility.yul\":7017:7054   */\n  mstore\n    /* \"#utility.yul\":6942:7060   */\n  pop\n  pop\n  jump\t// out\n    /* \"#utility.yul\":7066:7398   */\ntag_25:\n    /* \"#utility.yul\":7187:7191   */\n  0x00\n    /* \"#utility.yul\":7225:7227   */\n  0x40\n    /* \"#utility.yul\":7214:7223   */\n  dup3\n    /* \"#utility.yul\":7210:7228   */\n  add\n    /* \"#utility.yul\":7202:7228   */\n  swap1\n  pop\n    /* \"#utility.yul\":7238:7309   */\n  tag_172\n    /* \"#utility.yul\":7306:7307   */\n  0x00\n    /* \"#utility.yul\":7295:7304   */\n  dup4\n    /* \"#utility.yul\":7291:7308   */\n  add\n    /* \"#utility.yul\":7282:7288   */\n  dup6\n    /* \"#utility.yul\":7238:7309   */\n  tag_81\n  jump\t// in\ntag_172:\n    /* \"#utility.yul\":7319:7391   */\n  tag_173\n    /* \"#utility.yul\":7387:7389   */\n  0x20\n    /* \"#utility.yul\":7376:7385   */\n  dup4\n    /* \"#utility.yul\":7372:7390   */\n  add\n    /* \"#utility.yul\":7363:7369   */\n  dup5\n    /* \"#utility.yul\":7319:7391   */\n  tag_81\n  jump\t// in\ntag_173:\n    /* \"#utility.yul\":7066:7398   */\n  swap4\n  swap3\n  pop\n  pop\n  pop\n  jump\t// out\n    /* \"#utility.yul\":7404:7573   */\ntag_82:\n    /* \"#utility.yul\":7488:7499   */\n  0x00\n    /* \"#utility.yul\":7522:7528   */\n  dup3\n    /* \"#utility.yul\":7517:7520   */\n  dup3\n    /* \"#utility.yul\":7510:7529   */\n  mstore\n    /* \"#utility.yul\":7562:7566   */\n  0x20\n    /* \"#utility.yul\":7557:7560   */\n  dup3\n    /* \"#utility.yul\":7553:7567   */\n  add\n    /* \"#utility.yul\":7538:7567   */\n  swap1\n  pop\n    /* \"#utility.yul\":7404:7573   */\n  swap3\n  swap2\n  pop\n  pop\n  jump\t// out\n    /* \"#utility.yul\":7579:7760   */\ntag_83:\n    /* \"#utility.yul\":7719:7752   */\n  0x45524332303a206d696e7420746f20746865207a65726f206164647265737300\n    /* \"#utility.yul\":7715:7716   */\n  0x00\n    /* \"#utility.yul\":7707:7713   */\n  dup3\n    /* \"#utility.yul\":7703:7717   */\n  add\n    /* \"#utility.yul\":7696:7753   */\n  mstore\n    /* \"#utility.yul\":7579:7760   */\n  pop\n  jump\t// out\n    /* \"#utility.yul\":7766:8132   */\ntag_84:\n    /* \"#utility.yul\":7908:7911   */\n  0x00\n    /* \"#utility.yul\":7929:7996   */\n  tag_177\n    /* \"#utility.yul\":7993:7995   */\n  0x1f\n    /* \"#utility.yul\":7988:7991   */\n  dup4\n    /* \"#utility.yul\":7929:7996   */\n  tag_82\n  jump\t// in\ntag_177:\n    /* \"#utility.yul\":7922:7996   */\n  swap2\n  pop\n    /* \"#utility.yul\":8005:8098   */\n  tag_178\n    /* \"#utility.yul\":8094:8097   */\n  dup3\n    /* \"#utility.yul\":8005:8098   */\n  tag_83\n  jump\t// in\ntag_178:\n    /* \"#utility.yul\":8123:8125   */\n  0x20\n    /* \"#utility.yul\":8118:8121   */\n  dup3\n    /* \"#utility.yul\":8114:8126   */\n  add\n    /* \"#utility.yul\":8107:8126   */\n  swap1\n  pop\n    /* \"#utility.yul\":7766:8132   */\n  swap2\n  swap1\n  pop\n  jump\t// out\n    /* \"#utility.yul\":8138:8557   */\ntag_43:\n    /* \"#utility.yul\":8304:8308   */\n  0x00\n    /* \"#utility.yul\":8342:8344   */\n  0x20\n    /* \"#utility.yul\":8331:8340   */\n  dup3\n    /* \"#utility.yul\":8327:8345   */\n  add\n    /* \"#utility.yul\":8319:8345   */\n  swap1\n  pop\n    /* \"#utility.yul\":8391:8400   */\n  dup2\n    /* \"#utility.yul\":8385:8389   */\n  dup2\n    /* \"#utility.yul\":8381:8401   */\n  sub\n    /* \"#utility.yul\":8377:8378   */\n  0x00\n    /* \"#utility.yul\":8366:8375   */\n  dup4\n    /* \"#utility.yul\":8362:8379   */\n  add\n    /* \"#utility.yul\":8355:8402   */\n  mstore\n    /* \"#utility.yul\":8419:8550   */\n  tag_180\n    /* \"#utility.yul\":8545:8549   */\n  dup2\n    /* \"#utility.yul\":8419:8550   */\n  tag_84\n  jump\t// in\ntag_180:\n    /* \"#utility.yul\":8411:8550   */\n  swap1\n  pop\n    /* \"#utility.yul\":8138:8557   */\n  swap2\n  swap1\n  pop\n  jump\t// out\n    /* \"#utility.yul\":8563:8743   */\ntag_85:\n    /* \"#utility.yul\":8611:8688   */\n  0x4e487b7100000000000000000000000000000000000000000000000000000000\n    /* \"#utility.yul\":8608:8609   */\n  0x00\n    /* \"#utility.yul\":8601:8689   */\n  mstore\n    /* \"#utility.yul\":8708:8712   */\n  0x11\n    /* \"#utility.yul\":8705:8706   */\n  0x04\n    /* \"#utility.yul\":8698:8713   */\n  mstore\n    /* \"#utility.yul\":8732:8736   */\n  0x24\n    /* \"#utility.yul\":8729:8730   */\n  0x00\n    /* \"#utility.yul\":8722:8737   */\n  revert\n    /* \"#utility.yul\":8749:8940   */\ntag_47:\n    /* \"#utility.yul\":8789:8792   */\n  0x00\n    /* \"#utility.yul\":8808:8828   */\n  tag_183\n    /* \"#utility.yul\":8826:8827   */\n  dup3\n    /* \"#utility.yul\":8808:8828   */\n  tag_69\n  jump\t// in\ntag_183:\n    /* \"#utility.yul\":8803:8828   */\n  swap2\n  pop\n    /* \"#utility.yul\":8842:8862   */\n  tag_184\n    /* \"#utility.yul\":8860:8861   */\n  dup4\n    /* \"#utility.yul\":8842:8862   */\n  tag_69\n  jump\t// in\ntag_184:\n    /* \"#utility.yul\":8837:8862   */\n  swap3\n  pop\n    /* \"#utility.yul\":8885:8886   */\n  dup3\n    /* \"#utility.yul\":8882:8883   */\n  dup3\n    /* \"#utility.yul\":8878:8887   */\n  add\n    /* \"#utility.yul\":8871:8887   */\n  swap1\n  pop\n    /* \"#utility.yul\":8906:8909   */\n  dup1\n    /* \"#utility.yul\":8903:8904   */\n  dup3\n    /* \"#utility.yul\":8900:8910   */\n  gt\n    /* \"#utility.yul\":8897:8933   */\n  iszero\n  tag_185\n  jumpi\n    /* \"#utility.yul\":8913:8931   */\n  tag_186\n  tag_85\n  jump\t// in\ntag_186:\n    /* \"#utility.yul\":8897:8933   */\ntag_185:\n    /* \"#utility.yul\":8749:8940   */\n  swap3\n  swap2\n  pop\n  pop\n  jump\t// out\n    /* \"#utility.yul\":8946:9064   */\ntag_86:\n    /* \"#utility.yul\":9033:9057   */\n  tag_188\n    /* \"#utility.yul\":9051:9056   */\n  dup2\n    /* \"#utility.yul\":9033:9057   */\n  tag_69\n  jump\t// in\ntag_188:\n    /* \"#utility.yul\":9028:9031   */\n  dup3\n    /* \"#utility.yul\":9021:9058   */\n  mstore\n    /* \"#utility.yul\":8946:9064   */\n  pop\n  pop\n  jump\t// out\n    /* \"#utility.yul\":9070:9292   */\ntag_49:\n    /* \"#utility.yul\":9163:9167   */\n  0x00\n    /* \"#utility.yul\":9201:9203   */\n  0x20\n    /* \"#utility.yul\":9190:9199   */\n  dup3\n    /* \"#utility.yul\":9186:9204   */\n  add\n    /* \"#utility.yul\":9178:9204   */\n  swap1\n  pop\n    /* \"#utility.yul\":9214:9285   */\n  tag_190\n    /* \"#utility.yul\":9282:9283   */\n  0x00\n    /* \"#utility.yul\":9271:9280   */\n  dup4\n    /* \"#utility.yul\":9267:9284   */\n  add\n    /* \"#utility.yul\":9258:9264   */\n  dup5\n    /* \"#utility.yul\":9214:9285   */\n  tag_86\n  jump\t// in\ntag_190:\n    /* \"#utility.yul\":9070:9292   */\n  swap3\n  swap2\n  pop\n  pop\n  jump\t// out\n    /* \"contracts/lolo.sol\":402:5561  contract Lolo is ERC20, Ownable {... */\ntag_36:\n  dataSize(sub_0)\n  dup1\n  dataOffset(sub_0)\n  0x00\n  codecopy\n  0x00\n  return\nstop\n\nsub_0: assembly {\n        /* \"contracts/lolo.sol\":402:5561  contract Lolo is ERC20, Ownable {... */\n      mstore(0x40, 0x80)\n      callvalue\n      dup1\n      iszero\n      tag_1\n      jumpi\n      0x00\n      dup1\n      revert\n    tag_1:\n      pop\n      jumpi(tag_2, lt(calldatasize, 0x04))\n      shr(0xe0, calldataload(0x00))\n      dup1\n      0x70a08231\n      gt\n      tag_35\n      jumpi\n      dup1\n      0xa9059cbb\n      gt\n      tag_36\n      jumpi\n      dup1\n      0xdd62ed3e\n      gt\n      tag_37\n      jumpi\n      dup1\n      0xdd62ed3e\n      eq\n      tag_31\n      jumpi\n      dup1\n      0xf2fde38b\n      eq\n      tag_32\n      jumpi\n      dup1\n      0xf9d3d3e8\n      eq\n      tag_33\n      jumpi\n      dup1\n      0xfc9e0c94\n      eq\n      tag_34\n      jumpi\n      jump(tag_2)\n    tag_37:\n      dup1\n      0xa9059cbb\n      eq\n      tag_27\n      jumpi\n      dup1\n      0xc2ed286b\n      eq\n      tag_28\n      jumpi\n      dup1\n      0xcf49a5ef\n      eq\n      tag_29\n      jumpi\n      dup1\n      0xd80cbc8c\n      eq\n      tag_30\n      jumpi\n      jump(tag_2)\n    tag_36:\n      dup1\n      0x8da5cb5b\n      gt\n      tag_38\n      jumpi\n      dup1\n      0x8da5cb5b\n      eq\n      tag_23\n      jumpi\n      dup1\n      0x95d89b41\n      eq\n      tag_24\n      jumpi\n      dup1\n      0x989763ef\n      eq\n      tag_25\n      jumpi\n      dup1\n      0xa457c2d7\n      eq\n      tag_26\n      jumpi\n      jump(tag_2)\n    tag_38:\n      dup1\n      0x70a08231\n      eq\n      tag_19\n      jumpi\n      dup1\n      0x715018a6\n      eq\n      tag_20\n      jumpi\n      dup1\n      0x7c9e75c0\n      eq\n      tag_21\n      jumpi\n      dup1\n      0x7ea382c1\n      eq\n      tag_22\n      jumpi\n      jump(tag_2)\n    tag_35:\n      dup1\n      0x23b872dd\n      gt\n      tag_39\n      jumpi\n      dup1\n      0x39509351\n      gt\n      tag_40\n      jumpi\n      dup1\n      0x39509351\n      eq\n      tag_15\n      jumpi\n      dup1\n      0x49bd5a5e\n      eq\n      tag_16\n      jumpi\n      dup1\n      0x4b0dd0d6\n      eq\n      tag_17\n      jumpi\n      dup1\n      0x6e66f6e9\n      eq\n      tag_18\n      jumpi\n      jump(tag_2)\n    tag_40:\n      dup1\n      0x23b872dd\n      eq\n      tag_11\n      jumpi\n      dup1\n      0x2e1dc4b8\n      eq\n      tag_12\n      jumpi\n      dup1\n      0x313ce567\n      eq\n      tag_13\n      jumpi\n      dup1\n      0x32cb6b0c\n      eq\n      tag_14\n      jumpi\n      jump(tag_2)\n    tag_39:\n      dup1\n      0x1694505e\n      gt\n      tag_41\n      jumpi\n      dup1\n      0x1694505e\n      eq\n      tag_7\n      jumpi\n      dup1\n      0x18160ddd\n      eq\n      tag_8\n      jumpi\n      dup1\n      0x1af41e5d\n      eq\n      tag_9\n      jumpi\n      dup1\n      0x1d7c27d7\n      eq\n      tag_10\n      jumpi\n      jump(tag_2)\n    tag_41:\n      dup1\n      0x06fdde03\n      eq\n      tag_3\n      jumpi\n      dup1\n      0x095ea7b3\n      eq\n      tag_4\n      jumpi\n      dup1\n      0x0e88dad1\n      eq\n      tag_5\n      jumpi\n      dup1\n      0x13e46192\n      eq\n      tag_6\n      jumpi\n    tag_2:\n      0x00\n      dup1\n      revert\n        /* \"@openzeppelin/contracts/token/ERC20/ERC20.sol\":2154:2252  function name() public view virtual override returns (string memory) {... */\n    tag_3:\n      tag_42\n      tag_43\n      jump\t// in\n    tag_42:\n      mload(0x40)\n      tag_44\n      swap2\n      swap1\n      tag_45\n      jump\t// in\n    tag_44:\n      mload(0x40)\n      dup1\n      swap2\n      sub\n      swap1\n      return\n        /* \"@openzeppelin/contracts/token/ERC20/ERC20.sol\":4431:4628  function approve(address spender, uint256 amount) public virtual override returns (bool) {... */\n    tag_4:\n      tag_46\n      0x04\n      dup1\n      calldatasize\n      sub\n      dup2\n      add\n      swap1\n      tag_47\n      swap2\n      swap1\n      tag_48\n      jump\t// in\n    tag_47:\n      tag_49\n      jump\t// in\n    tag_46:\n      mload(0x40)\n      tag_50\n      swap2\n      swap1\n      tag_51\n      jump\t// in\n    tag_50:\n      mload(0x40)\n      dup1\n      swap2\n      sub\n      swap1\n      return\n        /* \"contracts/lolo.sol\":964:1012  mapping(address => bool) public excludedFromBurn */\n    tag_5:\n      tag_52\n      0x04\n      dup1\n      calldatasize\n      sub\n      dup2\n      add\n      swap1\n      tag_53\n      swap2\n      swap1\n      tag_54\n      jump\t// in\n    tag_53:\n      tag_55\n      jump\t// in\n    tag_52:\n      mload(0x40)\n      tag_56\n      swap2\n      swap1\n      tag_51\n      jump\t// in\n    tag_56:\n      mload(0x40)\n      dup1\n      swap2\n      sub\n      swap1\n      return\n        /* \"contracts/lolo.sol\":4237:4376  function setExcludedFromReward(address account, bool excluded) external onlyOwner {... */\n    tag_6:\n      tag_57\n      0x04\n      dup1\n      calldatasize\n      sub\n      dup2\n      add\n      swap1\n      tag_58\n      swap2\n      swap1\n      tag_59\n      jump\t// in\n    tag_58:\n      tag_60\n      jump\t// in\n    tag_57:\n      stop\n        /* \"contracts/lolo.sol\":441:482  IUniswapV2Router02 public uniswapV2Router */\n    tag_7:\n      tag_61\n      tag_62\n      jump\t// in\n    tag_61:\n      mload(0x40)\n      tag_63\n      swap2\n      swap1\n      tag_64\n      jump\t// in\n    tag_63:\n      mload(0x40)\n      dup1\n      swap2\n      sub\n      swap1\n      return\n        /* \"@openzeppelin/contracts/token/ERC20/ERC20.sol\":3242:3348  function totalSupply() public view virtual override returns (uint256) {... */\n    tag_8:\n      tag_65\n      tag_66\n      jump\t// in\n    tag_65:\n      mload(0x40)\n      tag_67\n      swap2\n      swap1\n      tag_68\n      jump\t// in\n    tag_67:\n      mload(0x40)\n      dup1\n      swap2\n      sub\n      swap1\n      return\n        /* \"contracts/lolo.sol\":907:957  mapping(address => bool) public excludedFromReward */\n    tag_9:\n      tag_69\n      0x04\n      dup1\n      calldatasize\n      sub\n      dup2\n      add\n      swap1\n      tag_70\n      swap2\n      swap1\n      tag_54\n      jump\t// in\n    tag_70:\n      tag_71\n      jump\t// in\n    tag_69:\n      mload(0x40)\n      tag_72\n      swap2\n      swap1\n      tag_51\n      jump\t// in\n    tag_72:\n      mload(0x40)\n      dup1\n      swap2\n      sub\n      swap1\n      return\n        /* \"contracts/lolo.sol\":811:844  uint256 public impuestoVenta = 10 */\n    tag_10:\n      tag_73\n      tag_74\n      jump\t// in\n    tag_73:\n      mload(0x40)\n      tag_75\n      swap2\n      swap1\n      tag_68\n      jump\t// in\n    tag_75:\n      mload(0x40)\n      dup1\n      swap2\n      sub\n      swap1\n      return\n        /* \"@openzeppelin/contracts/token/ERC20/ERC20.sol\":5190:5476  function transferFrom(... */\n    tag_11:\n      tag_76\n      0x04\n      dup1\n      calldatasize\n      sub\n      dup2\n      add\n      swap1\n      tag_77\n      swap2\n      swap1\n      tag_78\n      jump\t// in\n    tag_77:\n      tag_79\n      jump\t// in\n    tag_76:\n      mload(0x40)\n      tag_80\n      swap2\n      swap1\n      tag_51\n      jump\t// in\n    tag_80:\n      mload(0x40)\n      dup1\n      swap2\n      sub\n      swap1\n      return\n        /* \"contracts/lolo.sol\":4769:4883  function setTokenReward(address newTokenReward) external onlyOwner {... */\n    tag_12:\n      tag_81\n      0x04\n      dup1\n      calldatasize\n      sub\n      dup2\n      add\n      swap1\n      tag_82\n      swap2\n      swap1\n      tag_54\n      jump\t// in\n    tag_82:\n      tag_83\n      jump\t// in\n    tag_81:\n      stop\n        /* \"@openzeppelin/contracts/token/ERC20/ERC20.sol\":3091:3182  function decimals() public view virtual override returns (uint8) {... */\n    tag_13:\n      tag_84\n      tag_85\n      jump\t// in\n    tag_84:\n      mload(0x40)\n      tag_86\n      swap2\n      swap1\n      tag_87\n      jump\t// in\n    tag_86:\n      mload(0x40)\n      dup1\n      swap2\n      sub\n      swap1\n      return\n        /* \"contracts/lolo.sol\":671:727  uint256 public constant MAX_SUPPLY = 1 * 10**15 * 10**18 */\n    tag_14:\n      tag_88\n      tag_89\n      jump\t// in\n    tag_88:\n      mload(0x40)\n      tag_90\n      swap2\n      swap1\n      tag_68\n      jump\t// in\n    tag_90:\n      mload(0x40)\n      dup1\n      swap2\n      sub\n      swap1\n      return\n        /* \"@openzeppelin/contracts/token/ERC20/ERC20.sol\":5871:6105  function increaseAllowance(address spender, uint256 addedValue) public virtual returns (bool) {... */\n    tag_15:\n      tag_91\n      0x04\n      dup1\n      calldatasize\n      sub\n      dup2\n      add\n      swap1\n      tag_92\n      swap2\n      swap1\n      tag_48\n      jump\t// in\n    tag_92:\n      tag_93\n      jump\t// in\n    tag_91:\n      mload(0x40)\n      tag_94\n      swap2\n      swap1\n      tag_51\n      jump\t// in\n    tag_94:\n      mload(0x40)\n      dup1\n      swap2\n      sub\n      swap1\n      return\n        /* \"contracts/lolo.sol\":489:517  address public uniswapV2Pair */\n    tag_16:\n      tag_95\n      tag_96\n      jump\t// in\n    tag_95:\n      mload(0x40)\n      tag_97\n      swap2\n      swap1\n      tag_98\n      jump\t// in\n    tag_97:\n      mload(0x40)\n      dup1\n      swap2\n      sub\n      swap1\n      return\n        /* \"contracts/lolo.sol\":4527:4641  function setImpuestoCompra(uint256 newImpuesto) external onlyOwner {... */\n    tag_17:\n      tag_99\n      0x04\n      dup1\n      calldatasize\n      sub\n      dup2\n      add\n      swap1\n      tag_100\n      swap2\n      swap1\n      tag_101\n      jump\t// in\n    tag_100:\n      tag_102\n      jump\t// in\n    tag_99:\n      stop\n        /* \"contracts/lolo.sol\":526:552  address public tokenReward */\n    tag_18:\n      tag_103\n      tag_104\n      jump\t// in\n    tag_103:\n      mload(0x40)\n      tag_105\n      swap2\n      swap1\n      tag_98\n      jump\t// in\n    tag_105:\n      mload(0x40)\n      dup1\n      swap2\n      sub\n      swap1\n      return\n        /* \"@openzeppelin/contracts/token/ERC20/ERC20.sol\":3406:3531  function balanceOf(address account) public view virtual override returns (uint256) {... */\n    tag_19:\n      tag_106\n      0x04\n      dup1\n      calldatasize\n      sub\n      dup2\n      add\n      swap1\n      tag_107\n      swap2\n      swap1\n      tag_54\n      jump\t// in\n    tag_107:\n      tag_108\n      jump\t// in\n    tag_106:\n      mload(0x40)\n      tag_109\n      swap2\n      swap1\n      tag_68\n      jump\t// in\n    tag_109:\n      mload(0x40)\n      dup1\n      swap2\n      sub\n      swap1\n      return\n        /* \"@openzeppelin/contracts/access/Ownable.sol\":1831:1932  function renounceOwnership() public virtual onlyOwner {... */\n    tag_20:\n      tag_110\n      tag_111\n      jump\t// in\n    tag_110:\n      stop\n        /* \"contracts/lolo.sol\":559:583  address public tokenBurn */\n    tag_21:\n      tag_112\n      tag_113\n      jump\t// in\n    tag_112:\n      mload(0x40)\n      tag_114\n      swap2\n      swap1\n      tag_98\n      jump\t// in\n    tag_114:\n      mload(0x40)\n      dup1\n      swap2\n      sub\n      swap1\n      return\n        /* \"contracts/lolo.sol\":5003:5558  function withdrawLiquidity() external onlyOwner {... */\n    tag_22:\n      tag_115\n      tag_116\n      jump\t// in\n    tag_115:\n      stop\n        /* \"@openzeppelin/contracts/access/Ownable.sol\":1201:1286  function owner() public view virtual returns (address) {... */\n    tag_23:\n      tag_117\n      tag_118\n      jump\t// in\n    tag_117:\n      mload(0x40)\n      tag_119\n      swap2\n      swap1\n      tag_98\n      jump\t// in\n    tag_119:\n      mload(0x40)\n      dup1\n      swap2\n      sub\n      swap1\n      return\n        /* \"@openzeppelin/contracts/token/ERC20/ERC20.sol\":2365:2467  function symbol() public view virtual override returns (string memory) {... */\n    tag_24:\n      tag_120\n      tag_121\n      jump\t// in\n    tag_120:\n      mload(0x40)\n      tag_122\n      swap2\n      swap1\n      tag_45\n      jump\t// in\n    tag_122:\n      mload(0x40)\n      dup1\n      swap2\n      sub\n      swap1\n      return\n        /* \"contracts/lolo.sol\":853:900  mapping(address => bool) public excludedFromTax */\n    tag_25:\n      tag_123\n      0x04\n      dup1\n      calldatasize\n      sub\n      dup2\n      add\n      swap1\n      tag_124\n      swap2\n      swap1\n      tag_54\n      jump\t// in\n    tag_124:\n      tag_125\n      jump\t// in\n    tag_123:\n      mload(0x40)\n      tag_126\n      swap2\n      swap1\n      tag_51\n      jump\t// in\n    tag_126:\n      mload(0x40)\n      dup1\n      swap2\n      sub\n      swap1\n      return\n        /* \"@openzeppelin/contracts/token/ERC20/ERC20.sol\":6592:7019  function decreaseAllowance(address spender, uint256 subtractedValue) public virtual returns (bool) {... */\n    tag_26:\n      tag_127\n      0x04\n      dup1\n      calldatasize\n      sub\n      dup2\n      add\n      swap1\n      tag_128\n      swap2\n      swap1\n      tag_48\n      jump\t// in\n    tag_128:\n      tag_129\n      jump\t// in\n    tag_127:\n      mload(0x40)\n      tag_130\n      swap2\n      swap1\n      tag_51\n      jump\t// in\n    tag_130:\n      mload(0x40)\n      dup1\n      swap2\n      sub\n      swap1\n      return\n        /* \"contracts/lolo.sol\":2067:4088  function transfer(address recipient, uint256 amount) public override returns (bool) {... */\n    tag_27:\n      tag_131\n      0x04\n      dup1\n      calldatasize\n      sub\n      dup2\n      add\n      swap1\n      tag_132\n      swap2\n      swap1\n      tag_48\n      jump\t// in\n    tag_132:\n      tag_133\n      jump\t// in\n    tag_131:\n      mload(0x40)\n      tag_134\n      swap2\n      swap1\n      tag_51\n      jump\t// in\n    tag_134:\n      mload(0x40)\n      dup1\n      swap2\n      sub\n      swap1\n      return\n        /* \"contracts/lolo.sol\":4096:4229  function setExcludedFromTax(address account, bool excluded) external onlyOwner {... */\n    tag_28:\n      tag_135\n      0x04\n      dup1\n      calldatasize\n      sub\n      dup2\n      add\n      swap1\n      tag_136\n      swap2\n      swap1\n      tag_59\n      jump\t// in\n    tag_136:\n      tag_137\n      jump\t// in\n    tag_135:\n      stop\n        /* \"contracts/lolo.sol\":4649:4761  function setImpuestoVenta(uint256 newImpuesto) external onlyOwner {... */\n    tag_29:\n      tag_138\n      0x04\n      dup1\n      calldatasize\n      sub\n      dup2\n      add\n      swap1\n      tag_139\n      swap2\n      swap1\n      tag_101\n      jump\t// in\n    tag_139:\n      tag_140\n      jump\t// in\n    tag_138:\n      stop\n        /* \"contracts/lolo.sol\":4384:4519  function setExcludedFromBurn(address account, bool excluded) external onlyOwner {... */\n    tag_30:\n      tag_141\n      0x04\n      dup1\n      calldatasize\n      sub\n      dup2\n      add\n      swap1\n      tag_142\n      swap2\n      swap1\n      tag_59\n      jump\t// in\n    tag_142:\n      tag_143\n      jump\t// in\n    tag_141:\n      stop\n        /* \"@openzeppelin/contracts/token/ERC20/ERC20.sol\":3974:4123  function allowance(address owner, address spender) public view virtual override returns (uint256) {... */\n    tag_31:\n      tag_144\n      0x04\n      dup1\n      calldatasize\n      sub\n      dup2\n      add\n      swap1\n      tag_145\n      swap2\n      swap1\n      tag_146\n      jump\t// in\n    tag_145:\n      tag_147\n      jump\t// in\n    tag_144:\n      mload(0x40)\n      tag_148\n      swap2\n      swap1\n      tag_68\n      jump\t// in\n    tag_148:\n      mload(0x40)\n      dup1\n      swap2\n      sub\n      swap1\n      return\n        /* \"@openzeppelin/contracts/access/Ownable.sol\":2081:2279  function transferOwnership(address newOwner) public virtual onlyOwner {... */\n    tag_32:\n      tag_149\n      0x04\n      dup1\n      calldatasize\n      sub\n      dup2\n      add\n      swap1\n      tag_150\n      swap2\n      swap1\n      tag_54\n      jump\t// in\n    tag_150:\n      tag_151\n      jump\t// in\n    tag_149:\n      stop\n        /* \"contracts/lolo.sol\":4891:4997  function setTokenBurn(address newTokenBurn) external onlyOwner {... */\n    tag_33:\n      tag_152\n      0x04\n      dup1\n      calldatasize\n      sub\n      dup2\n      add\n      swap1\n      tag_153\n      swap2\n      swap1\n      tag_54\n      jump\t// in\n    tag_153:\n      tag_154\n      jump\t// in\n    tag_152:\n      stop\n        /* \"contracts/lolo.sol\":771:804  uint256 public impuestoCompra = 6 */\n    tag_34:\n      tag_155\n      tag_156\n      jump\t// in\n    tag_155:\n      mload(0x40)\n      tag_157\n      swap2\n      swap1\n      tag_68\n      jump\t// in\n    tag_157:\n      mload(0x40)\n      dup1\n      swap2\n      sub\n      swap1\n      return\n        /* \"@openzeppelin/contracts/token/ERC20/ERC20.sol\":2154:2252  function name() public view virtual override returns (string memory) {... */\n    tag_43:\n        /* \"@openzeppelin/contracts/token/ERC20/ERC20.sol\":2208:2221  string memory */\n      0x60\n        /* \"@openzeppelin/contracts/token/ERC20/ERC20.sol\":2240:2245  _name */\n      0x03\n        /* \"@openzeppelin/contracts/token/ERC20/ERC20.sol\":2233:2245  return _name */\n      dup1\n      sload\n      tag_159\n      swap1\n      tag_160\n      jump\t// in\n    tag_159:\n      dup1\n      0x1f\n      add\n      0x20\n      dup1\n      swap2\n      div\n      mul\n      0x20\n      add\n      mload(0x40)\n      swap1\n      dup2\n      add\n      0x40\n      mstore\n      dup1\n      swap3\n      swap2\n      swap1\n      dup2\n      dup2\n      mstore\n      0x20\n      add\n      dup3\n      dup1\n      sload\n      tag_161\n      swap1\n      tag_160\n      jump\t// in\n    tag_161:\n      dup1\n      iszero\n      tag_162\n      jumpi\n      dup1\n      0x1f\n      lt\n      tag_163\n      jumpi\n      0x0100\n      dup1\n      dup4\n      sload\n      div\n      mul\n      dup4\n      mstore\n      swap2\n      0x20\n      add\n      swap2\n      jump(tag_162)\n    tag_163:\n      dup3\n      add\n      swap2\n      swap1\n      0x00\n      mstore\n      keccak256(0x00, 0x20)\n      swap1\n    tag_164:\n      dup2\n      sload\n      dup2\n      mstore\n      swap1\n      0x01\n      add\n      swap1\n      0x20\n      add\n      dup1\n      dup4\n      gt\n      tag_164\n      jumpi\n      dup3\n      swap1\n      sub\n      0x1f\n      and\n      dup3\n      add\n      swap2\n    tag_162:\n      pop\n      pop\n      pop\n      pop\n      pop\n      swap1\n      pop\n        /* \"@openzeppelin/contracts/token/ERC20/ERC20.sol\":2154:2252  function name() public view virtual override returns (string memory) {... */\n      swap1\n      jump\t// out\n        /* \"@openzeppelin/contracts/token/ERC20/ERC20.sol\":4431:4628  function approve(address spender, uint256 amount) public virtual override returns (bool) {... */\n    tag_49:\n        /* \"@openzeppelin/contracts/token/ERC20/ERC20.sol\":4514:4518  bool */\n      0x00\n        /* \"@openzeppelin/contracts/token/ERC20/ERC20.sol\":4530:4543  address owner */\n      dup1\n        /* \"@openzeppelin/contracts/token/ERC20/ERC20.sol\":4546:4558  _msgSender() */\n      tag_166\n        /* \"@openzeppelin/contracts/token/ERC20/ERC20.sol\":4546:4556  _msgSender */\n      tag_167\n        /* \"@openzeppelin/contracts/token/ERC20/ERC20.sol\":4546:4558  _msgSender() */\n      jump\t// in\n    tag_166:\n        /* \"@openzeppelin/contracts/token/ERC20/ERC20.sol\":4530:4558  address owner = _msgSender() */\n      swap1\n      pop\n        /* \"@openzeppelin/contracts/token/ERC20/ERC20.sol\":4568:4600  _approve(owner, spender, amount) */\n      tag_168\n        /* \"@openzeppelin/contracts/token/ERC20/ERC20.sol\":4577:4582  owner */\n      dup2\n        /* \"@openzeppelin/contracts/token/ERC20/ERC20.sol\":4584:4591  spender */\n      dup6\n        /* \"@openzeppelin/contracts/token/ERC20/ERC20.sol\":4593:4599  amount */\n      dup6\n        /* \"@openzeppelin/contracts/token/ERC20/ERC20.sol\":4568:4576  _approve */\n      tag_169\n        /* \"@openzeppelin/contracts/token/ERC20/ERC20.sol\":4568:4600  _approve(owner, spender, amount) */\n      jump\t// in\n    tag_168:\n        /* \"@openzeppelin/contracts/token/ERC20/ERC20.sol\":4617:4621  true */\n      0x01\n        /* \"@openzeppelin/contracts/token/ERC20/ERC20.sol\":4610:4621  return true */\n      swap2\n      pop\n      pop\n        /* \"@openzeppelin/contracts/token/ERC20/ERC20.sol\":4431:4628  function approve(address spender, uint256 amount) public virtual override returns (bool) {... */\n      swap3\n      swap2\n      pop\n      pop\n      jump\t// out\n        /* \"contracts/lolo.sol\":964:1012  mapping(address => bool) public excludedFromBurn */\n    tag_55:\n      mstore(0x20, 0x0e)\n      dup1\n      0x00\n      mstore\n      keccak256(0x00, 0x40)\n      0x00\n      swap2\n      pop\n      sload\n      swap1\n      0x0100\n      exp\n      swap1\n      div\n      0xff\n      and\n      dup2\n      jump\t// out\n        /* \"contracts/lolo.sol\":4237:4376  function setExcludedFromReward(address account, bool excluded) external onlyOwner {... */\n    tag_60:\n        /* \"@openzeppelin/contracts/access/Ownable.sol\":1094:1107  _checkOwner() */\n      tag_171\n        /* \"@openzeppelin/contracts/access/Ownable.sol\":1094:1105  _checkOwner */\n      tag_172\n        /* \"@openzeppelin/contracts/access/Ownable.sol\":1094:1107  _checkOwner() */\n      jump\t// in\n    tag_171:\n        /* \"contracts/lolo.sol\":4360:4368  excluded */\n      dup1\n        /* \"contracts/lolo.sol\":4330:4348  excludedFromReward */\n      0x0d\n        /* \"contracts/lolo.sol\":4330:4357  excludedFromReward[account] */\n      0x00\n        /* \"contracts/lolo.sol\":4349:4356  account */\n      dup5\n        /* \"contracts/lolo.sol\":4330:4357  excludedFromReward[account] */\n      0xffffffffffffffffffffffffffffffffffffffff\n      and\n      0xffffffffffffffffffffffffffffffffffffffff\n      and\n      dup2\n      mstore\n      0x20\n      add\n      swap1\n      dup2\n      mstore\n      0x20\n      add\n      0x00\n      keccak256\n      0x00\n        /* \"contracts/lolo.sol\":4330:4368  excludedFromReward[account] = excluded */\n      0x0100\n      exp\n      dup2\n      sload\n      dup2\n      0xff\n      mul\n      not\n      and\n      swap1\n      dup4\n      iszero\n      iszero\n      mul\n      or\n      swap1\n      sstore\n      pop\n        /* \"contracts/lolo.sol\":4237:4376  function setExcludedFromReward(address account, bool excluded) external onlyOwner {... */\n      pop\n      pop\n      jump\t// out\n        /* \"contracts/lolo.sol\":441:482  IUniswapV2Router02 public uniswapV2Router */\n    tag_62:\n      0x06\n      0x00\n      swap1\n      sload\n      swap1\n      0x0100\n      exp\n      swap1\n      div\n      0xffffffffffffffffffffffffffffffffffffffff\n      and\n      dup2\n      jump\t// out\n        /* \"@openzeppelin/contracts/token/ERC20/ERC20.sol\":3242:3348  function totalSupply() public view virtual override returns (uint256) {... */\n    tag_66:\n        /* \"@openzeppelin/contracts/token/ERC20/ERC20.sol\":3303:3310  uint256 */\n      0x00\n        /* \"@openzeppelin/contracts/token/ERC20/ERC20.sol\":3329:3341  _totalSupply */\n      sload(0x02)\n        /* \"@openzeppelin/contracts/token/ERC20/ERC20.sol\":3322:3341  return _totalSupply */\n      swap1\n      pop\n        /* \"@openzeppelin/contracts/token/ERC20/ERC20.sol\":3242:3348  function totalSupply() public view virtual override returns (uint256) {... */\n      swap1\n      jump\t// out\n        /* \"contracts/lolo.sol\":907:957  mapping(address => bool) public excludedFromReward */\n    tag_71:\n      mstore(0x20, 0x0d)\n      dup1\n      0x00\n      mstore\n      keccak256(0x00, 0x40)\n      0x00\n      swap2\n      pop\n      sload\n      swap1\n      0x0100\n      exp\n      swap1\n      div\n      0xff\n      and\n      dup2\n      jump\t// out\n        /* \"contracts/lolo.sol\":811:844  uint256 public impuestoVenta = 10 */\n    tag_74:\n      sload(0x0b)\n      dup2\n      jump\t// out\n        /* \"@openzeppelin/contracts/token/ERC20/ERC20.sol\":5190:5476  function transferFrom(... */\n    tag_79:\n        /* \"@openzeppelin/contracts/token/ERC20/ERC20.sol\":5317:5321  bool */\n      0x00\n        /* \"@openzeppelin/contracts/token/ERC20/ERC20.sol\":5333:5348  address spender */\n      dup1\n        /* \"@openzeppelin/contracts/token/ERC20/ERC20.sol\":5351:5363  _msgSender() */\n      tag_176\n        /* \"@openzeppelin/contracts/token/ERC20/ERC20.sol\":5351:5361  _msgSender */\n      tag_167\n        /* \"@openzeppelin/contracts/token/ERC20/ERC20.sol\":5351:5363  _msgSender() */\n      jump\t// in\n    tag_176:\n        /* \"@openzeppelin/contracts/token/ERC20/ERC20.sol\":5333:5363  address spender = _msgSender() */\n      swap1\n      pop\n        /* \"@openzeppelin/contracts/token/ERC20/ERC20.sol\":5373:5411  _spendAllowance(from, spender, amount) */\n      tag_177\n        /* \"@openzeppelin/contracts/token/ERC20/ERC20.sol\":5389:5393  from */\n      dup6\n        /* \"@openzeppelin/contracts/token/ERC20/ERC20.sol\":5395:5402  spender */\n      dup3\n        /* \"@openzeppelin/contracts/token/ERC20/ERC20.sol\":5404:5410  amount */\n      dup6\n        /* \"@openzeppelin/contracts/token/ERC20/ERC20.sol\":5373:5388  _spendAllowance */\n      tag_178\n        /* \"@openzeppelin/contracts/token/ERC20/ERC20.sol\":5373:5411  _spendAllowance(from, spender, amount) */\n      jump\t// in\n    tag_177:\n        /* \"@openzeppelin/contracts/token/ERC20/ERC20.sol\":5421:5448  _transfer(from, to, amount) */\n      tag_179\n        /* \"@openzeppelin/contracts/token/ERC20/ERC20.sol\":5431:5435  from */\n      dup6\n        /* \"@openzeppelin/contracts/token/ERC20/ERC20.sol\":5437:5439  to */\n      dup6\n        /* \"@openzeppelin/contracts/token/ERC20/ERC20.sol\":5441:5447  amount */\n      dup6\n        /* \"@openzeppelin/contracts/token/ERC20/ERC20.sol\":5421:5430  _transfer */\n      tag_180\n        /* \"@openzeppelin/contracts/token/ERC20/ERC20.sol\":5421:5448  _transfer(from, to, amount) */\n      jump\t// in\n    tag_179:\n        /* \"@openzeppelin/contracts/token/ERC20/ERC20.sol\":5465:5469  true */\n      0x01\n        /* \"@openzeppelin/contracts/token/ERC20/ERC20.sol\":5458:5469  return true */\n      swap2\n      pop\n      pop\n        /* \"@openzeppelin/contracts/token/ERC20/ERC20.sol\":5190:5476  function transferFrom(... */\n      swap4\n      swap3\n      pop\n      pop\n      pop\n      jump\t// out\n        /* \"contracts/lolo.sol\":4769:4883  function setTokenReward(address newTokenReward) external onlyOwner {... */\n    tag_83:\n        /* \"@openzeppelin/contracts/access/Ownable.sol\":1094:1107  _checkOwner() */\n      tag_182\n        /* \"@openzeppelin/contracts/access/Ownable.sol\":1094:1105  _checkOwner */\n      tag_172\n        /* \"@openzeppelin/contracts/access/Ownable.sol\":1094:1107  _checkOwner() */\n      jump\t// in\n    tag_182:\n        /* \"contracts/lolo.sol\":4861:4875  newTokenReward */\n      dup1\n        /* \"contracts/lolo.sol\":4847:4858  tokenReward */\n      0x08\n      0x00\n        /* \"contracts/lolo.sol\":4847:4875  tokenReward = newTokenReward */\n      0x0100\n      exp\n      dup2\n      sload\n      dup2\n      0xffffffffffffffffffffffffffffffffffffffff\n      mul\n      not\n      and\n      swap1\n      dup4\n      0xffffffffffffffffffffffffffffffffffffffff\n      and\n      mul\n      or\n      swap1\n      sstore\n      pop\n        /* \"contracts/lolo.sol\":4769:4883  function setTokenReward(address newTokenReward) external onlyOwner {... */\n      pop\n      jump\t// out\n        /* \"@openzeppelin/contracts/token/ERC20/ERC20.sol\":3091:3182  function decimals() public view virtual override returns (uint8) {... */\n    tag_85:\n        /* \"@openzeppelin/contracts/token/ERC20/ERC20.sol\":3149:3154  uint8 */\n      0x00\n        /* \"@openzeppelin/contracts/token/ERC20/ERC20.sol\":3173:3175  18 */\n      0x12\n        /* \"@openzeppelin/contracts/token/ERC20/ERC20.sol\":3166:3175  return 18 */\n      swap1\n      pop\n        /* \"@openzeppelin/contracts/token/ERC20/ERC20.sol\":3091:3182  function decimals() public view virtual override returns (uint8) {... */\n      swap1\n      jump\t// out\n        /* \"contracts/lolo.sol\":671:727  uint256 public constant MAX_SUPPLY = 1 * 10**15 * 10**18 */\n    tag_89:\n        /* \"contracts/lolo.sol\":708:727  1 * 10**15 * 10**18 */\n      0x314dc6448d9338c15b0a00000000\n        /* \"contracts/lolo.sol\":671:727  uint256 public constant MAX_SUPPLY = 1 * 10**15 * 10**18 */\n      dup2\n      jump\t// out\n        /* \"@openzeppelin/contracts/token/ERC20/ERC20.sol\":5871:6105  function increaseAllowance(address spender, uint256 addedValue) public virtual returns (bool) {... */\n    tag_93:\n        /* \"@openzeppelin/contracts/token/ERC20/ERC20.sol\":5959:5963  bool */\n      0x00\n        /* \"@openzeppelin/contracts/token/ERC20/ERC20.sol\":5975:5988  address owner */\n      dup1\n        /* \"@openzeppelin/contracts/token/ERC20/ERC20.sol\":5991:6003  _msgSender() */\n      tag_186\n        /* \"@openzeppelin/contracts/token/ERC20/ERC20.sol\":5991:6001  _msgSender */\n      tag_167\n        /* \"@openzeppelin/contracts/token/ERC20/ERC20.sol\":5991:6003  _msgSender() */\n      jump\t// in\n    tag_186:\n        /* \"@openzeppelin/contracts/token/ERC20/ERC20.sol\":5975:6003  address owner = _msgSender() */\n      swap1\n      pop\n        /* \"@openzeppelin/contracts/token/ERC20/ERC20.sol\":6013:6077  _approve(owner, spender, allowance(owner, spender) + addedValue) */\n      tag_187\n        /* \"@openzeppelin/contracts/token/ERC20/ERC20.sol\":6022:6027  owner */\n      dup2\n        /* \"@openzeppelin/contracts/token/ERC20/ERC20.sol\":6029:6036  spender */\n      dup6\n        /* \"@openzeppelin/contracts/token/ERC20/ERC20.sol\":6066:6076  addedValue */\n      dup6\n        /* \"@openzeppelin/contracts/token/ERC20/ERC20.sol\":6038:6063  allowance(owner, spender) */\n      tag_188\n        /* \"@openzeppelin/contracts/token/ERC20/ERC20.sol\":6048:6053  owner */\n      dup6\n        /* \"@openzeppelin/contracts/token/ERC20/ERC20.sol\":6055:6062  spender */\n      dup10\n        /* \"@openzeppelin/contracts/token/ERC20/ERC20.sol\":6038:6047  allowance */\n      tag_147\n        /* \"@openzeppelin/contracts/token/ERC20/ERC20.sol\":6038:6063  allowance(owner, spender) */\n      jump\t// in\n    tag_188:\n        /* \"@openzeppelin/contracts/token/ERC20/ERC20.sol\":6038:6076  allowance(owner, spender) + addedValue */\n      tag_189\n      swap2\n      swap1\n      tag_190\n      jump\t// in\n    tag_189:\n        /* \"@openzeppelin/contracts/token/ERC20/ERC20.sol\":6013:6021  _approve */\n      tag_169\n        /* \"@openzeppelin/contracts/token/ERC20/ERC20.sol\":6013:6077  _approve(owner, spender, allowance(owner, spender) + addedValue) */\n      jump\t// in\n    tag_187:\n        /* \"@openzeppelin/contracts/token/ERC20/ERC20.sol\":6094:6098  true */\n      0x01\n        /* \"@openzeppelin/contracts/token/ERC20/ERC20.sol\":6087:6098  return true */\n      swap2\n      pop\n      pop\n        /* \"@openzeppelin/contracts/token/ERC20/ERC20.sol\":5871:6105  function increaseAllowance(address spender, uint256 addedValue) public virtual returns (bool) {... */\n      swap3\n      swap2\n      pop\n      pop\n      jump\t// out\n        /* \"contracts/lolo.sol\":489:517  address public uniswapV2Pair */\n    tag_96:\n      0x07\n      0x00\n      swap1\n      sload\n      swap1\n      0x0100\n      exp\n      swap1\n      div\n      0xffffffffffffffffffffffffffffffffffffffff\n      and\n      dup2\n      jump\t// out\n        /* \"contracts/lolo.sol\":4527:4641  function setImpuestoCompra(uint256 newImpuesto) external onlyOwner {... */\n    tag_102:\n        /* \"@openzeppelin/contracts/access/Ownable.sol\":1094:1107  _checkOwner() */\n      tag_192\n        /* \"@openzeppelin/contracts/access/Ownable.sol\":1094:1105  _checkOwner */\n      tag_172\n        /* \"@openzeppelin/contracts/access/Ownable.sol\":1094:1107  _checkOwner() */\n      jump\t// in\n    tag_192:\n        /* \"contracts/lolo.sol\":4622:4633  newImpuesto */\n      dup1\n        /* \"contracts/lolo.sol\":4605:4619  impuestoCompra */\n      0x0a\n        /* \"contracts/lolo.sol\":4605:4633  impuestoCompra = newImpuesto */\n      dup2\n      swap1\n      sstore\n      pop\n        /* \"contracts/lolo.sol\":4527:4641  function setImpuestoCompra(uint256 newImpuesto) external onlyOwner {... */\n      pop\n      jump\t// out\n        /* \"contracts/lolo.sol\":526:552  address public tokenReward */\n    tag_104:\n      0x08\n      0x00\n      swap1\n      sload\n      swap1\n      0x0100\n      exp\n      swap1\n      div\n      0xffffffffffffffffffffffffffffffffffffffff\n      and\n      dup2\n      jump\t// out\n        /* \"@openzeppelin/contracts/token/ERC20/ERC20.sol\":3406:3531  function balanceOf(address account) public view virtual override returns (uint256) {... */\n    tag_108:\n        /* \"@openzeppelin/contracts/token/ERC20/ERC20.sol\":3480:3487  uint256 */\n      0x00\n        /* \"@openzeppelin/contracts/token/ERC20/ERC20.sol\":3506:3515  _balances */\n      dup1\n        /* \"@openzeppelin/contracts/token/ERC20/ERC20.sol\":3506:3524  _balances[account] */\n      0x00\n        /* \"@openzeppelin/contracts/token/ERC20/ERC20.sol\":3516:3523  account */\n      dup4\n        /* \"@openzeppelin/contracts/token/ERC20/ERC20.sol\":3506:3524  _balances[account] */\n      0xffffffffffffffffffffffffffffffffffffffff\n      and\n      0xffffffffffffffffffffffffffffffffffffffff\n      and\n      dup2\n      mstore\n      0x20\n      add\n      swap1\n      dup2\n      mstore\n      0x20\n      add\n      0x00\n      keccak256\n      sload\n        /* \"@openzeppelin/contracts/token/ERC20/ERC20.sol\":3499:3524  return _balances[account] */\n      swap1\n      pop\n        /* \"@openzeppelin/contracts/token/ERC20/ERC20.sol\":3406:3531  function balanceOf(address account) public view virtual override returns (uint256) {... */\n      swap2\n      swap1\n      pop\n      jump\t// out\n        /* \"@openzeppelin/contracts/access/Ownable.sol\":1831:1932  function renounceOwnership() public virtual onlyOwner {... */\n    tag_111:\n        /* \"@openzeppelin/contracts/access/Ownable.sol\":1094:1107  _checkOwner() */\n      tag_196\n        /* \"@openzeppelin/contracts/access/Ownable.sol\":1094:1105  _checkOwner */\n      tag_172\n        /* \"@openzeppelin/contracts/access/Ownable.sol\":1094:1107  _checkOwner() */\n      jump\t// in\n    tag_196:\n        /* \"@openzeppelin/contracts/access/Ownable.sol\":1895:1925  _transferOwnership(address(0)) */\n      tag_198\n        /* \"@openzeppelin/contracts/access/Ownable.sol\":1922:1923  0 */\n      0x00\n        /* \"@openzeppelin/contracts/access/Ownable.sol\":1895:1913  _transferOwnership */\n      tag_199\n        /* \"@openzeppelin/contracts/access/Ownable.sol\":1895:1925  _transferOwnership(address(0)) */\n      jump\t// in\n    tag_198:\n        /* \"@openzeppelin/contracts/access/Ownable.sol\":1831:1932  function renounceOwnership() public virtual onlyOwner {... */\n      jump\t// out\n        /* \"contracts/lolo.sol\":559:583  address public tokenBurn */\n    tag_113:\n      0x09\n      0x00\n      swap1\n      sload\n      swap1\n      0x0100\n      exp\n      swap1\n      div\n      0xffffffffffffffffffffffffffffffffffffffff\n      and\n      dup2\n      jump\t// out\n        /* \"contracts/lolo.sol\":5003:5558  function withdrawLiquidity() external onlyOwner {... */\n    tag_116:\n        /* \"@openzeppelin/contracts/access/Ownable.sol\":1094:1107  _checkOwner() */\n      tag_201\n        /* \"@openzeppelin/contracts/access/Ownable.sol\":1094:1105  _checkOwner */\n      tag_172\n        /* \"@openzeppelin/contracts/access/Ownable.sol\":1094:1107  _checkOwner() */\n      jump\t// in\n    tag_201:\n        /* \"contracts/lolo.sol\":5126:5145  uint256 tokenAmount */\n      0x00\n        /* \"contracts/lolo.sol\":5147:5164  uint256 ethAmount */\n      dup1\n        /* \"contracts/lolo.sol\":5168:5183  uniswapV2Router */\n      0x06\n      0x00\n      swap1\n      sload\n      swap1\n      0x0100\n      exp\n      swap1\n      div\n      0xffffffffffffffffffffffffffffffffffffffff\n      and\n        /* \"contracts/lolo.sol\":5168:5202  uniswapV2Router.removeLiquidityETH */\n      0xffffffffffffffffffffffffffffffffffffffff\n      and\n      0x02751cec\n        /* \"contracts/lolo.sol\":5225:5229  this */\n      address\n        /* \"contracts/lolo.sol\":5245:5269  balanceOf(uniswapV2Pair) */\n      tag_203\n        /* \"contracts/lolo.sol\":5255:5268  uniswapV2Pair */\n      0x07\n      0x00\n      swap1\n      sload\n      swap1\n      0x0100\n      exp\n      swap1\n      div\n      0xffffffffffffffffffffffffffffffffffffffff\n      and\n        /* \"contracts/lolo.sol\":5245:5254  balanceOf */\n      tag_108\n        /* \"contracts/lolo.sol\":5245:5269  balanceOf(uniswapV2Pair) */\n      jump\t// in\n    tag_203:\n        /* \"contracts/lolo.sol\":5284:5285  0 */\n      0x00\n        /* \"contracts/lolo.sol\":5300:5301  0 */\n      dup1\n        /* \"contracts/lolo.sol\":5316:5323  owner() */\n      tag_204\n        /* \"contracts/lolo.sol\":5316:5321  owner */\n      tag_118\n        /* \"contracts/lolo.sol\":5316:5323  owner() */\n      jump\t// in\n    tag_204:\n        /* \"contracts/lolo.sol\":5338:5353  block.timestamp */\n      timestamp\n        /* \"contracts/lolo.sol\":5168:5364  uniswapV2Router.removeLiquidityETH(... */\n      mload(0x40)\n      dup8\n      0xffffffff\n      and\n      0xe0\n      shl\n      dup2\n      mstore\n      0x04\n      add\n      tag_205\n      swap7\n      swap6\n      swap5\n      swap4\n      swap3\n      swap2\n      swap1\n      tag_206\n      jump\t// in\n    tag_205:\n      0x40\n      dup1\n      mload\n      dup1\n      dup4\n      sub\n      dup2\n      0x00\n      dup8\n      gas\n      call\n      iszero\n      dup1\n      iszero\n      tag_208\n      jumpi\n      returndatasize\n      0x00\n      dup1\n      returndatacopy\n      revert(0x00, returndatasize)\n    tag_208:\n      pop\n      pop\n      pop\n      pop\n      mload(0x40)\n      returndatasize\n      not(0x1f)\n      0x1f\n      dup3\n      add\n      and\n      dup3\n      add\n      dup1\n      0x40\n      mstore\n      pop\n      dup2\n      add\n      swap1\n      tag_209\n      swap2\n      swap1\n      tag_210\n      jump\t// in\n    tag_209:\n        /* \"contracts/lolo.sol\":5125:5364  (uint256 tokenAmount, uint256 ethAmount) = uniswapV2Router.removeLiquidityETH(... */\n      swap2\n      pop\n      swap2\n      pop\n        /* \"contracts/lolo.sol\":5457:5503  _transfer(address(this), owner(), tokenAmount) */\n      tag_211\n        /* \"contracts/lolo.sol\":5475:5479  this */\n      address\n        /* \"contracts/lolo.sol\":5482:5489  owner() */\n      tag_212\n        /* \"contracts/lolo.sol\":5482:5487  owner */\n      tag_118\n        /* \"contracts/lolo.sol\":5482:5489  owner() */\n      jump\t// in\n    tag_212:\n        /* \"contracts/lolo.sol\":5491:5502  tokenAmount */\n      dup5\n        /* \"contracts/lolo.sol\":5457:5466  _transfer */\n      tag_180\n        /* \"contracts/lolo.sol\":5457:5503  _transfer(address(this), owner(), tokenAmount) */\n      jump\t// in\n    tag_211:\n        /* \"contracts/lolo.sol\":5522:5529  owner() */\n      tag_213\n        /* \"contracts/lolo.sol\":5522:5527  owner */\n      tag_118\n        /* \"contracts/lolo.sol\":5522:5529  owner() */\n      jump\t// in\n    tag_213:\n        /* \"contracts/lolo.sol\":5514:5539  payable(owner()).transfer */\n      0xffffffffffffffffffffffffffffffffffffffff\n      and\n        /* \"contracts/lolo.sol\":5514:5550  payable(owner()).transfer(ethAmount) */\n      0x08fc\n        /* \"contracts/lolo.sol\":5540:5549  ethAmount */\n      dup3\n        /* \"contracts/lolo.sol\":5514:5550  payable(owner()).transfer(ethAmount) */\n      swap1\n      dup2\n      iszero\n      mul\n      swap1\n      mload(0x40)\n      0x00\n      mload(0x40)\n      dup1\n      dup4\n      sub\n      dup2\n      dup6\n      dup9\n      dup9\n      call\n      swap4\n      pop\n      pop\n      pop\n      pop\n      iszero\n      dup1\n      iszero\n      tag_215\n      jumpi\n      returndatasize\n      0x00\n      dup1\n      returndatacopy\n      revert(0x00, returndatasize)\n    tag_215:\n      pop\n        /* \"contracts/lolo.sol\":5051:5558  {... */\n      pop\n      pop\n        /* \"contracts/lolo.sol\":5003:5558  function withdrawLiquidity() external onlyOwner {... */\n      jump\t// out\n        /* \"@openzeppelin/contracts/access/Ownable.sol\":1201:1286  function owner() public view virtual returns (address) {... */\n    tag_118:\n        /* \"@openzeppelin/contracts/access/Ownable.sol\":1247:1254  address */\n      0x00\n        /* \"@openzeppelin/contracts/access/Ownable.sol\":1273:1279  _owner */\n      0x05\n      0x00\n      swap1\n      sload\n      swap1\n      0x0100\n      exp\n      swap1\n      div\n      0xffffffffffffffffffffffffffffffffffffffff\n      and\n        /* \"@openzeppelin/contracts/access/Ownable.sol\":1266:1279  return _owner */\n      swap1\n      pop\n        /* \"@openzeppelin/contracts/access/Ownable.sol\":1201:1286  function owner() public view virtual returns (address) {... */\n      swap1\n      jump\t// out\n        /* \"@openzeppelin/contracts/token/ERC20/ERC20.sol\":2365:2467  function symbol() public view virtual override returns (string memory) {... */\n    tag_121:\n        /* \"@openzeppelin/contracts/token/ERC20/ERC20.sol\":2421:2434  string memory */\n      0x60\n        /* \"@openzeppelin/contracts/token/ERC20/ERC20.sol\":2453:2460  _symbol */\n      0x04\n        /* \"@openzeppelin/contracts/token/ERC20/ERC20.sol\":2446:2460  return _symbol */\n      dup1\n      sload\n      tag_218\n      swap1\n      tag_160\n      jump\t// in\n    tag_218:\n      dup1\n      0x1f\n      add\n      0x20\n      dup1\n      swap2\n      div\n      mul\n      0x20\n      add\n      mload(0x40)\n      swap1\n      dup2\n      add\n      0x40\n      mstore\n      dup1\n      swap3\n      swap2\n      swap1\n      dup2\n      dup2\n      mstore\n      0x20\n      add\n      dup3\n      dup1\n      sload\n      tag_219\n      swap1\n      tag_160\n      jump\t// in\n    tag_219:\n      dup1\n      iszero\n      tag_220\n      jumpi\n      dup1\n      0x1f\n      lt\n      tag_221\n      jumpi\n      0x0100\n      dup1\n      dup4\n      sload\n      div\n      mul\n      dup4\n      mstore\n      swap2\n      0x20\n      add\n      swap2\n      jump(tag_220)\n    tag_221:\n      dup3\n      add\n      swap2\n      swap1\n      0x00\n      mstore\n      keccak256(0x00, 0x20)\n      swap1\n    tag_222:\n      dup2\n      sload\n      dup2\n      mstore\n      swap1\n      0x01\n      add\n      swap1\n      0x20\n      add\n      dup1\n      dup4\n      gt\n      tag_222\n      jumpi\n      dup3\n      swap1\n      sub\n      0x1f\n      and\n      dup3\n      add\n      swap2\n    tag_220:\n      pop\n      pop\n      pop\n      pop\n      pop\n      swap1\n      pop\n        /* \"@openzeppelin/contracts/token/ERC20/ERC20.sol\":2365:2467  function symbol() public view virtual override returns (string memory) {... */\n      swap1\n      jump\t// out\n        /* \"contracts/lolo.sol\":853:900  mapping(address => bool) public excludedFromTax */\n    tag_125:\n      mstore(0x20, 0x0c)\n      dup1\n      0x00\n      mstore\n      keccak256(0x00, 0x40)\n      0x00\n      swap2\n      pop\n      sload\n      swap1\n      0x0100\n      exp\n      swap1\n      div\n      0xff\n      and\n      dup2\n      jump\t// out\n        /* \"@openzeppelin/contracts/token/ERC20/ERC20.sol\":6592:7019  function decreaseAllowance(address spender, uint256 subtractedValue) public virtual returns (bool) {... */\n    tag_129:\n        /* \"@openzeppelin/contracts/token/ERC20/ERC20.sol\":6685:6689  bool */\n      0x00\n        /* \"@openzeppelin/contracts/token/ERC20/ERC20.sol\":6701:6714  address owner */\n      dup1\n        /* \"@openzeppelin/contracts/token/ERC20/ERC20.sol\":6717:6729  _msgSender() */\n      tag_224\n        /* \"@openzeppelin/contracts/token/ERC20/ERC20.sol\":6717:6727  _msgSender */\n      tag_167\n        /* \"@openzeppelin/contracts/token/ERC20/ERC20.sol\":6717:6729  _msgSender() */\n      jump\t// in\n    tag_224:\n        /* \"@openzeppelin/contracts/token/ERC20/ERC20.sol\":6701:6729  address owner = _msgSender() */\n      swap1\n      pop\n        /* \"@openzeppelin/contracts/token/ERC20/ERC20.sol\":6739:6763  uint256 currentAllowance */\n      0x00\n        /* \"@openzeppelin/contracts/token/ERC20/ERC20.sol\":6766:6791  allowance(owner, spender) */\n      tag_225\n        /* \"@openzeppelin/contracts/token/ERC20/ERC20.sol\":6776:6781  owner */\n      dup3\n        /* \"@openzeppelin/contracts/token/ERC20/ERC20.sol\":6783:6790  spender */\n      dup7\n        /* \"@openzeppelin/contracts/token/ERC20/ERC20.sol\":6766:6775  allowance */\n      tag_147\n        /* \"@openzeppelin/contracts/token/ERC20/ERC20.sol\":6766:6791  allowance(owner, spender) */\n      jump\t// in\n    tag_225:\n        /* \"@openzeppelin/contracts/token/ERC20/ERC20.sol\":6739:6791  uint256 currentAllowance = allowance(owner, spender) */\n      swap1\n      pop\n        /* \"@openzeppelin/contracts/token/ERC20/ERC20.sol\":6829:6844  subtractedValue */\n      dup4\n        /* \"@openzeppelin/contracts/token/ERC20/ERC20.sol\":6809:6825  currentAllowance */\n      dup2\n        /* \"@openzeppelin/contracts/token/ERC20/ERC20.sol\":6809:6844  currentAllowance >= subtractedValue */\n      lt\n      iszero\n        /* \"@openzeppelin/contracts/token/ERC20/ERC20.sol\":6801:6886  require(currentAllowance >= subtractedValue, \"ERC20: decreased allowance below zero\") */\n      tag_226\n      jumpi\n      mload(0x40)\n      0x08c379a000000000000000000000000000000000000000000000000000000000\n      dup2\n      mstore\n      0x04\n      add\n      tag_227\n      swap1\n      tag_228\n      jump\t// in\n    tag_227:\n      mload(0x40)\n      dup1\n      swap2\n      sub\n      swap1\n      revert\n    tag_226:\n        /* \"@openzeppelin/contracts/token/ERC20/ERC20.sol\":6920:6980  _approve(owner, spender, currentAllowance - subtractedValue) */\n      tag_229\n        /* \"@openzeppelin/contracts/token/ERC20/ERC20.sol\":6929:6934  owner */\n      dup3\n        /* \"@openzeppelin/contracts/token/ERC20/ERC20.sol\":6936:6943  spender */\n      dup7\n        /* \"@openzeppelin/contracts/token/ERC20/ERC20.sol\":6964:6979  subtractedValue */\n      dup7\n        /* \"@openzeppelin/contracts/token/ERC20/ERC20.sol\":6945:6961  currentAllowance */\n      dup5\n        /* \"@openzeppelin/contracts/token/ERC20/ERC20.sol\":6945:6979  currentAllowance - subtractedValue */\n      sub\n        /* \"@openzeppelin/contracts/token/ERC20/ERC20.sol\":6920:6928  _approve */\n      tag_169\n        /* \"@openzeppelin/contracts/token/ERC20/ERC20.sol\":6920:6980  _approve(owner, spender, currentAllowance - subtractedValue) */\n      jump\t// in\n    tag_229:\n        /* \"@openzeppelin/contracts/token/ERC20/ERC20.sol\":7008:7012  true */\n      0x01\n        /* \"@openzeppelin/contracts/token/ERC20/ERC20.sol\":7001:7012  return true */\n      swap3\n      pop\n      pop\n      pop\n        /* \"@openzeppelin/contracts/token/ERC20/ERC20.sol\":6592:7019  function decreaseAllowance(address spender, uint256 subtractedValue) public virtual returns (bool) {... */\n      swap3\n      swap2\n      pop\n      pop\n      jump\t// out\n        /* \"contracts/lolo.sol\":2067:4088  function transfer(address recipient, uint256 amount) public override returns (bool) {... */\n    tag_133:\n        /* \"contracts/lolo.sol\":2145:2149  bool */\n      0x00\n        /* \"contracts/lolo.sol\":2179:2180  0 */\n      dup1\n        /* \"contracts/lolo.sol\":2170:2176  amount */\n      dup3\n        /* \"contracts/lolo.sol\":2170:2180  amount > 0 */\n      gt\n        /* \"contracts/lolo.sol\":2162:2218  require(amount > 0, \"Debe transferir al menos un token\") */\n      tag_231\n      jumpi\n      mload(0x40)\n      0x08c379a000000000000000000000000000000000000000000000000000000000\n      dup2\n      mstore\n      0x04\n      add\n      tag_232\n      swap1\n      tag_233\n      jump\t// in\n    tag_232:\n      mload(0x40)\n      dup1\n      swap2\n      sub\n      swap1\n      revert\n    tag_231:\n        /* \"contracts/lolo.sol\":2231:2247  uint256 impuesto */\n      0x00\n        /* \"contracts/lolo.sol\":2250:2264  impuestoCompra */\n      sload(0x0a)\n        /* \"contracts/lolo.sol\":2231:2264  uint256 impuesto = impuestoCompra */\n      swap1\n      pop\n        /* \"contracts/lolo.sol\":2275:2301  uint256 montoTransferencia */\n      0x00\n        /* \"contracts/lolo.sol\":2335:2338  100 */\n      0x64\n        /* \"contracts/lolo.sol\":2323:2331  impuesto */\n      dup3\n        /* \"contracts/lolo.sol\":2314:2320  amount */\n      dup6\n        /* \"contracts/lolo.sol\":2314:2331  amount * impuesto */\n      tag_234\n      swap2\n      swap1\n      tag_235\n      jump\t// in\n    tag_234:\n        /* \"contracts/lolo.sol\":2313:2338  (amount * impuesto) / 100 */\n      tag_236\n      swap2\n      swap1\n      tag_237\n      jump\t// in\n    tag_236:\n        /* \"contracts/lolo.sol\":2304:2310  amount */\n      dup5\n        /* \"contracts/lolo.sol\":2304:2338  amount - (amount * impuesto) / 100 */\n      tag_238\n      swap2\n      swap1\n      tag_239\n      jump\t// in\n    tag_238:\n        /* \"contracts/lolo.sol\":2275:2338  uint256 montoTransferencia = amount - (amount * impuesto) / 100 */\n      swap1\n      pop\n        /* \"contracts/lolo.sol\":2368:2381  uniswapV2Pair */\n      0x07\n      0x00\n      swap1\n      sload\n      swap1\n      0x0100\n      exp\n      swap1\n      div\n      0xffffffffffffffffffffffffffffffffffffffff\n      and\n        /* \"contracts/lolo.sol\":2355:2381  recipient == uniswapV2Pair */\n      0xffffffffffffffffffffffffffffffffffffffff\n      and\n        /* \"contracts/lolo.sol\":2355:2364  recipient */\n      dup6\n        /* \"contracts/lolo.sol\":2355:2381  recipient == uniswapV2Pair */\n      0xffffffffffffffffffffffffffffffffffffffff\n      and\n      sub\n        /* \"contracts/lolo.sol\":2351:2504  if (recipient == uniswapV2Pair) {... */\n      tag_240\n      jumpi\n        /* \"contracts/lolo.sol\":2409:2422  impuestoVenta */\n      sload(0x0b)\n        /* \"contracts/lolo.sol\":2398:2422  impuesto = impuestoVenta */\n      swap2\n      pop\n        /* \"contracts/lolo.sol\":2489:2492  100 */\n      0x64\n        /* \"contracts/lolo.sol\":2477:2485  impuesto */\n      dup3\n        /* \"contracts/lolo.sol\":2468:2474  amount */\n      dup6\n        /* \"contracts/lolo.sol\":2468:2485  amount * impuesto */\n      tag_241\n      swap2\n      swap1\n      tag_235\n      jump\t// in\n    tag_241:\n        /* \"contracts/lolo.sol\":2467:2492  (amount * impuesto) / 100 */\n      tag_242\n      swap2\n      swap1\n      tag_237\n      jump\t// in\n    tag_242:\n        /* \"contracts/lolo.sol\":2458:2464  amount */\n      dup5\n        /* \"contracts/lolo.sol\":2458:2492  amount - (amount * impuesto) / 100 */\n      tag_243\n      swap2\n      swap1\n      tag_239\n      jump\t// in\n    tag_243:\n        /* \"contracts/lolo.sol\":2437:2492  montoTransferencia = amount - (amount * impuesto) / 100 */\n      swap1\n      pop\n        /* \"contracts/lolo.sol\":2351:2504  if (recipient == uniswapV2Pair) {... */\n    tag_240:\n        /* \"contracts/lolo.sol\":2521:2536  excludedFromTax */\n      0x0c\n        /* \"contracts/lolo.sol\":2521:2550  excludedFromTax[_msgSender()] */\n      0x00\n        /* \"contracts/lolo.sol\":2537:2549  _msgSender() */\n      tag_244\n        /* \"contracts/lolo.sol\":2537:2547  _msgSender */\n      tag_167\n        /* \"contracts/lolo.sol\":2537:2549  _msgSender() */\n      jump\t// in\n    tag_244:\n        /* \"contracts/lolo.sol\":2521:2550  excludedFromTax[_msgSender()] */\n      0xffffffffffffffffffffffffffffffffffffffff\n      and\n      0xffffffffffffffffffffffffffffffffffffffff\n      and\n      dup2\n      mstore\n      0x20\n      add\n      swap1\n      dup2\n      mstore\n      0x20\n      add\n      0x00\n      keccak256\n      0x00\n      swap1\n      sload\n      swap1\n      0x0100\n      exp\n      swap1\n      div\n      0xff\n      and\n        /* \"contracts/lolo.sol\":2516:2690  if (!excludedFromTax[_msgSender()]) {... */\n      tag_245\n      jumpi\n        /* \"contracts/lolo.sol\":2567:2612  super.transfer(recipient, montoTransferencia) */\n      tag_246\n        /* \"contracts/lolo.sol\":2582:2591  recipient */\n      dup6\n        /* \"contracts/lolo.sol\":2593:2611  montoTransferencia */\n      dup3\n        /* \"contracts/lolo.sol\":2567:2581  super.transfer */\n      tag_247\n        /* \"contracts/lolo.sol\":2567:2612  super.transfer(recipient, montoTransferencia) */\n      jump\t// in\n    tag_246:\n      pop\n        /* \"contracts/lolo.sol\":2516:2690  if (!excludedFromTax[_msgSender()]) {... */\n      jump(tag_248)\n    tag_245:\n        /* \"contracts/lolo.sol\":2645:2678  super.transfer(recipient, amount) */\n      tag_249\n        /* \"contracts/lolo.sol\":2660:2669  recipient */\n      dup6\n        /* \"contracts/lolo.sol\":2671:2677  amount */\n      dup6\n        /* \"contracts/lolo.sol\":2645:2659  super.transfer */\n      tag_247\n        /* \"contracts/lolo.sol\":2645:2678  super.transfer(recipient, amount) */\n      jump\t// in\n    tag_249:\n      pop\n        /* \"contracts/lolo.sol\":2516:2690  if (!excludedFromTax[_msgSender()]) {... */\n    tag_248:\n        /* \"contracts/lolo.sol\":2746:2761  excludedFromTax */\n      0x0c\n        /* \"contracts/lolo.sol\":2746:2775  excludedFromTax[_msgSender()] */\n      0x00\n        /* \"contracts/lolo.sol\":2762:2774  _msgSender() */\n      tag_250\n        /* \"contracts/lolo.sol\":2762:2772  _msgSender */\n      tag_167\n        /* \"contracts/lolo.sol\":2762:2774  _msgSender() */\n      jump\t// in\n    tag_250:\n        /* \"contracts/lolo.sol\":2746:2775  excludedFromTax[_msgSender()] */\n      0xffffffffffffffffffffffffffffffffffffffff\n      and\n      0xffffffffffffffffffffffffffffffffffffffff\n      and\n      dup2\n      mstore\n      0x20\n      add\n      swap1\n      dup2\n      mstore\n      0x20\n      add\n      0x00\n      keccak256\n      0x00\n      swap1\n      sload\n      swap1\n      0x0100\n      exp\n      swap1\n      div\n      0xff\n      and\n        /* \"contracts/lolo.sol\":2741:4057  if (!excludedFromTax[_msgSender()]) {... */\n      tag_251\n      jumpi\n        /* \"contracts/lolo.sol\":2792:2812  uint256 impuestoBurn */\n      0x00\n        /* \"contracts/lolo.sol\":2837:2840  100 */\n      0x64\n        /* \"contracts/lolo.sol\":2825:2833  impuesto */\n      dup4\n        /* \"contracts/lolo.sol\":2816:2822  amount */\n      dup7\n        /* \"contracts/lolo.sol\":2816:2833  amount * impuesto */\n      tag_252\n      swap2\n      swap1\n      tag_235\n      jump\t// in\n    tag_252:\n        /* \"contracts/lolo.sol\":2815:2840  (amount * impuesto) / 100 */\n      tag_253\n      swap2\n      swap1\n      tag_237\n      jump\t// in\n    tag_253:\n        /* \"contracts/lolo.sol\":2792:2840  uint256 impuestoBurn = (amount * impuesto) / 100 */\n      swap1\n      pop\n        /* \"contracts/lolo.sol\":2855:2877  uint256 impuestoReward */\n      0x00\n        /* \"contracts/lolo.sol\":2902:2905  100 */\n      0x64\n        /* \"contracts/lolo.sol\":2890:2898  impuesto */\n      dup5\n        /* \"contracts/lolo.sol\":2881:2887  amount */\n      dup8\n        /* \"contracts/lolo.sol\":2881:2898  amount * impuesto */\n      tag_254\n      swap2\n      swap1\n      tag_235\n      jump\t// in\n    tag_254:\n        /* \"contracts/lolo.sol\":2880:2905  (amount * impuesto) / 100 */\n      tag_255\n      swap2\n      swap1\n      tag_237\n      jump\t// in\n    tag_255:\n        /* \"contracts/lolo.sol\":2855:2905  uint256 impuestoReward = (amount * impuesto) / 100 */\n      swap1\n      pop\n        /* \"contracts/lolo.sol\":2920:2944  uint256 impuestoLiquidez */\n      0x00\n        /* \"contracts/lolo.sol\":2969:2972  100 */\n      0x64\n        /* \"contracts/lolo.sol\":2957:2965  impuesto */\n      dup6\n        /* \"contracts/lolo.sol\":2948:2954  amount */\n      dup9\n        /* \"contracts/lolo.sol\":2948:2965  amount * impuesto */\n      tag_256\n      swap2\n      swap1\n      tag_235\n      jump\t// in\n    tag_256:\n        /* \"contracts/lolo.sol\":2947:2972  (amount * impuesto) / 100 */\n      tag_257\n      swap2\n      swap1\n      tag_237\n      jump\t// in\n    tag_257:\n        /* \"contracts/lolo.sol\":2920:2972  uint256 impuestoLiquidez = (amount * impuesto) / 100 */\n      swap1\n      pop\n        /* \"contracts/lolo.sol\":2987:3012  uint256 impuestoMarketing */\n      0x00\n        /* \"contracts/lolo.sol\":3037:3040  100 */\n      0x64\n        /* \"contracts/lolo.sol\":3025:3033  impuesto */\n      dup7\n        /* \"contracts/lolo.sol\":3016:3022  amount */\n      dup10\n        /* \"contracts/lolo.sol\":3016:3033  amount * impuesto */\n      tag_258\n      swap2\n      swap1\n      tag_235\n      jump\t// in\n    tag_258:\n        /* \"contracts/lolo.sol\":3015:3040  (amount * impuesto) / 100 */\n      tag_259\n      swap2\n      swap1\n      tag_237\n      jump\t// in\n    tag_259:\n        /* \"contracts/lolo.sol\":2987:3040  uint256 impuestoMarketing = (amount * impuesto) / 100 */\n      swap1\n      pop\n        /* \"contracts/lolo.sol\":3057:3097  super.transfer(burnWallet, impuestoBurn) */\n      tag_260\n        /* \"contracts/lolo.sol\":620:662  0x000000000000000000000000000000000000dEaD */\n      0xdead\n        /* \"contracts/lolo.sol\":3084:3096  impuestoBurn */\n      dup6\n        /* \"contracts/lolo.sol\":3057:3071  super.transfer */\n      tag_247\n        /* \"contracts/lolo.sol\":3057:3097  super.transfer(burnWallet, impuestoBurn) */\n      jump\t// in\n    tag_260:\n      pop\n        /* \"contracts/lolo.sol\":3112:3155  super.transfer(tokenReward, impuestoReward) */\n      tag_261\n        /* \"contracts/lolo.sol\":3127:3138  tokenReward */\n      0x08\n      0x00\n      swap1\n      sload\n      swap1\n      0x0100\n      exp\n      swap1\n      div\n      0xffffffffffffffffffffffffffffffffffffffff\n      and\n        /* \"contracts/lolo.sol\":3140:3154  impuestoReward */\n      dup5\n        /* \"contracts/lolo.sol\":3112:3126  super.transfer */\n      tag_247\n        /* \"contracts/lolo.sol\":3112:3155  super.transfer(tokenReward, impuestoReward) */\n      jump\t// in\n    tag_261:\n      pop\n        /* \"contracts/lolo.sol\":3170:3217  super.transfer(address(this), impuestoLiquidez) */\n      tag_262\n        /* \"contracts/lolo.sol\":3193:3197  this */\n      address\n        /* \"contracts/lolo.sol\":3200:3216  impuestoLiquidez */\n      dup4\n        /* \"contracts/lolo.sol\":3170:3184  super.transfer */\n      tag_247\n        /* \"contracts/lolo.sol\":3170:3217  super.transfer(address(this), impuestoLiquidez) */\n      jump\t// in\n    tag_262:\n      pop\n        /* \"contracts/lolo.sol\":3232:3274  super.transfer(owner(), impuestoMarketing) */\n      tag_263\n        /* \"contracts/lolo.sol\":3247:3254  owner() */\n      tag_264\n        /* \"contracts/lolo.sol\":3247:3252  owner */\n      tag_118\n        /* \"contracts/lolo.sol\":3247:3254  owner() */\n      jump\t// in\n    tag_264:\n        /* \"contracts/lolo.sol\":3256:3273  impuestoMarketing */\n      dup3\n        /* \"contracts/lolo.sol\":3232:3246  super.transfer */\n      tag_247\n        /* \"contracts/lolo.sol\":3232:3274  super.transfer(owner(), impuestoMarketing) */\n      jump\t// in\n    tag_263:\n      pop\n        /* \"contracts/lolo.sol\":3334:3359  uint256 tokenParaLiquidez */\n      0x00\n        /* \"contracts/lolo.sol\":3362:3386  balanceOf(address(this)) */\n      tag_265\n        /* \"contracts/lolo.sol\":3380:3384  this */\n      address\n        /* \"contracts/lolo.sol\":3362:3371  balanceOf */\n      tag_108\n        /* \"contracts/lolo.sol\":3362:3386  balanceOf(address(this)) */\n      jump\t// in\n    tag_265:\n        /* \"contracts/lolo.sol\":3334:3386  uint256 tokenParaLiquidez = balanceOf(address(this)) */\n      swap1\n      pop\n        /* \"contracts/lolo.sol\":3401:3421  uint256 tokenParaETH */\n      0x00\n        /* \"contracts/lolo.sol\":3465:3468  100 */\n      0x64\n        /* \"contracts/lolo.sol\":3445:3461  impuestoLiquidez */\n      dup5\n        /* \"contracts/lolo.sol\":3425:3442  tokenParaLiquidez */\n      dup4\n        /* \"contracts/lolo.sol\":3425:3461  tokenParaLiquidez * impuestoLiquidez */\n      tag_266\n      swap2\n      swap1\n      tag_235\n      jump\t// in\n    tag_266:\n        /* \"contracts/lolo.sol\":3424:3468  (tokenParaLiquidez * impuestoLiquidez) / 100 */\n      tag_267\n      swap2\n      swap1\n      tag_237\n      jump\t// in\n    tag_267:\n        /* \"contracts/lolo.sol\":3401:3468  uint256 tokenParaETH = (tokenParaLiquidez * impuestoLiquidez) / 100 */\n      swap1\n      pop\n        /* \"contracts/lolo.sol\":3483:3505  uint256 tokenParaToken */\n      0x00\n        /* \"contracts/lolo.sol\":3528:3540  tokenParaETH */\n      dup2\n        /* \"contracts/lolo.sol\":3508:3525  tokenParaLiquidez */\n      dup4\n        /* \"contracts/lolo.sol\":3508:3540  tokenParaLiquidez - tokenParaETH */\n      tag_268\n      swap2\n      swap1\n      tag_239\n      jump\t// in\n    tag_268:\n        /* \"contracts/lolo.sol\":3483:3540  uint256 tokenParaToken = tokenParaLiquidez - tokenParaETH */\n      swap1\n      pop\n        /* \"contracts/lolo.sol\":3576:3577  0 */\n      0x00\n        /* \"contracts/lolo.sol\":3561:3573  tokenParaETH */\n      dup3\n        /* \"contracts/lolo.sol\":3561:3577  tokenParaETH > 0 */\n      gt\n        /* \"contracts/lolo.sol\":3557:4046  if (tokenParaETH > 0) {... */\n      iszero\n      tag_269\n      jumpi\n        /* \"contracts/lolo.sol\":3649:3696  approve(address(uniswapV2Router), tokenParaETH) */\n      tag_270\n        /* \"contracts/lolo.sol\":3665:3680  uniswapV2Router */\n      0x06\n      0x00\n      swap1\n      sload\n      swap1\n      0x0100\n      exp\n      swap1\n      div\n      0xffffffffffffffffffffffffffffffffffffffff\n      and\n        /* \"contracts/lolo.sol\":3683:3695  tokenParaETH */\n      dup4\n        /* \"contracts/lolo.sol\":3649:3656  approve */\n      tag_49\n        /* \"contracts/lolo.sol\":3649:3696  approve(address(uniswapV2Router), tokenParaETH) */\n      jump\t// in\n    tag_270:\n      pop\n        /* \"contracts/lolo.sol\":3764:3779  uniswapV2Router */\n      0x06\n      0x00\n      swap1\n      sload\n      swap1\n      0x0100\n      exp\n      swap1\n      div\n      0xffffffffffffffffffffffffffffffffffffffff\n      and\n        /* \"contracts/lolo.sol\":3764:3795  uniswapV2Router.addLiquidityETH */\n      0xffffffffffffffffffffffffffffffffffffffff\n      and\n      0xf305d719\n        /* \"contracts/lolo.sol\":3803:3815  tokenParaETH */\n      dup4\n        /* \"contracts/lolo.sol\":3847:3851  this */\n      address\n        /* \"contracts/lolo.sol\":3875:3889  tokenParaToken */\n      dup5\n        /* \"contracts/lolo.sol\":3912:3913  0 */\n      0x00\n        /* \"contracts/lolo.sol\":3936:3937  0 */\n      dup1\n        /* \"contracts/lolo.sol\":3960:3967  owner() */\n      tag_271\n        /* \"contracts/lolo.sol\":3960:3965  owner */\n      tag_118\n        /* \"contracts/lolo.sol\":3960:3967  owner() */\n      jump\t// in\n    tag_271:\n        /* \"contracts/lolo.sol\":4008:4011  360 */\n      0x0168\n        /* \"contracts/lolo.sol\":3990:4005  block.timestamp */\n      timestamp\n        /* \"contracts/lolo.sol\":3990:4011  block.timestamp + 360 */\n      tag_272\n      swap2\n      swap1\n      tag_190\n      jump\t// in\n    tag_272:\n        /* \"contracts/lolo.sol\":3764:4030  uniswapV2Router.addLiquidityETH{value: tokenParaETH}(... */\n      mload(0x40)\n      dup9\n      0xffffffff\n      and\n      0xe0\n      shl\n      dup2\n      mstore\n      0x04\n      add\n      tag_273\n      swap7\n      swap6\n      swap5\n      swap4\n      swap3\n      swap2\n      swap1\n      tag_206\n      jump\t// in\n    tag_273:\n      0x60\n      mload(0x40)\n      dup1\n      dup4\n      sub\n      dup2\n      dup6\n      dup9\n      gas\n      call\n      iszero\n      dup1\n      iszero\n      tag_275\n      jumpi\n      returndatasize\n      0x00\n      dup1\n      returndatacopy\n      revert(0x00, returndatasize)\n    tag_275:\n      pop\n      pop\n      pop\n      pop\n      pop\n      mload(0x40)\n      returndatasize\n      not(0x1f)\n      0x1f\n      dup3\n      add\n      and\n      dup3\n      add\n      dup1\n      0x40\n      mstore\n      pop\n      dup2\n      add\n      swap1\n      tag_276\n      swap2\n      swap1\n      tag_277\n      jump\t// in\n    tag_276:\n      pop\n      pop\n      pop\n        /* \"contracts/lolo.sol\":3557:4046  if (tokenParaETH > 0) {... */\n    tag_269:\n        /* \"contracts/lolo.sol\":2777:4057  {... */\n      pop\n      pop\n      pop\n      pop\n      pop\n      pop\n      pop\n        /* \"contracts/lolo.sol\":2741:4057  if (!excludedFromTax[_msgSender()]) {... */\n    tag_251:\n        /* \"contracts/lolo.sol\":4076:4080  true */\n      0x01\n        /* \"contracts/lolo.sol\":4069:4080  return true */\n      swap3\n      pop\n      pop\n      pop\n        /* \"contracts/lolo.sol\":2067:4088  function transfer(address recipient, uint256 amount) public override returns (bool) {... */\n      swap3\n      swap2\n      pop\n      pop\n      jump\t// out\n        /* \"contracts/lolo.sol\":4096:4229  function setExcludedFromTax(address account, bool excluded) external onlyOwner {... */\n    tag_137:\n        /* \"@openzeppelin/contracts/access/Ownable.sol\":1094:1107  _checkOwner() */\n      tag_279\n        /* \"@openzeppelin/contracts/access/Ownable.sol\":1094:1105  _checkOwner */\n      tag_172\n        /* \"@openzeppelin/contracts/access/Ownable.sol\":1094:1107  _checkOwner() */\n      jump\t// in\n    tag_279:\n        /* \"contracts/lolo.sol\":4213:4221  excluded */\n      dup1\n        /* \"contracts/lolo.sol\":4186:4201  excludedFromTax */\n      0x0c\n        /* \"contracts/lolo.sol\":4186:4210  excludedFromTax[account] */\n      0x00\n        /* \"contracts/lolo.sol\":4202:4209  account */\n      dup5\n        /* \"contracts/lolo.sol\":4186:4210  excludedFromTax[account] */\n      0xffffffffffffffffffffffffffffffffffffffff\n      and\n      0xffffffffffffffffffffffffffffffffffffffff\n      and\n      dup2\n      mstore\n      0x20\n      add\n      swap1\n      dup2\n      mstore\n      0x20\n      add\n      0x00\n      keccak256\n      0x00\n        /* \"contracts/lolo.sol\":4186:4221  excludedFromTax[account] = excluded */\n      0x0100\n      exp\n      dup2\n      sload\n      dup2\n      0xff\n      mul\n      not\n      and\n      swap1\n      dup4\n      iszero\n      iszero\n      mul\n      or\n      swap1\n      sstore\n      pop\n        /* \"contracts/lolo.sol\":4096:4229  function setExcludedFromTax(address account, bool excluded) external onlyOwner {... */\n      pop\n      pop\n      jump\t// out\n        /* \"contracts/lolo.sol\":4649:4761  function setImpuestoVenta(uint256 newImpuesto) external onlyOwner {... */\n    tag_140:\n        /* \"@openzeppelin/contracts/access/Ownable.sol\":1094:1107  _checkOwner() */\n      tag_282\n        /* \"@openzeppelin/contracts/access/Ownable.sol\":1094:1105  _checkOwner */\n      tag_172\n        /* \"@openzeppelin/contracts/access/Ownable.sol\":1094:1107  _checkOwner() */\n      jump\t// in\n    tag_282:\n        /* \"contracts/lolo.sol\":4742:4753  newImpuesto */\n      dup1\n        /* \"contracts/lolo.sol\":4726:4739  impuestoVenta */\n      0x0b\n        /* \"contracts/lolo.sol\":4726:4753  impuestoVenta = newImpuesto */\n      dup2\n      swap1\n      sstore\n      pop\n        /* \"contracts/lolo.sol\":4649:4761  function setImpuestoVenta(uint256 newImpuesto) external onlyOwner {... */\n      pop\n      jump\t// out\n        /* \"contracts/lolo.sol\":4384:4519  function setExcludedFromBurn(address account, bool excluded) external onlyOwner {... */\n    tag_143:\n        /* \"@openzeppelin/contracts/access/Ownable.sol\":1094:1107  _checkOwner() */\n      tag_285\n        /* \"@openzeppelin/contracts/access/Ownable.sol\":1094:1105  _checkOwner */\n      tag_172\n        /* \"@openzeppelin/contracts/access/Ownable.sol\":1094:1107  _checkOwner() */\n      jump\t// in\n    tag_285:\n        /* \"contracts/lolo.sol\":4503:4511  excluded */\n      dup1\n        /* \"contracts/lolo.sol\":4475:4491  excludedFromBurn */\n      0x0e\n        /* \"contracts/lolo.sol\":4475:4500  excludedFromBurn[account] */\n      0x00\n        /* \"contracts/lolo.sol\":4492:4499  account */\n      dup5\n        /* \"contracts/lolo.sol\":4475:4500  excludedFromBurn[account] */\n      0xffffffffffffffffffffffffffffffffffffffff\n      and\n      0xffffffffffffffffffffffffffffffffffffffff\n      and\n      dup2\n      mstore\n      0x20\n      add\n      swap1\n      dup2\n      mstore\n      0x20\n      add\n      0x00\n      keccak256\n      0x00\n        /* \"contracts/lolo.sol\":4475:4511  excludedFromBurn[account] = excluded */\n      0x0100\n      exp\n      dup2\n      sload\n      dup2\n      0xff\n      mul\n      not\n      and\n      swap1\n      dup4\n      iszero\n      iszero\n      mul\n      or\n      swap1\n      sstore\n      pop\n        /* \"contracts/lolo.sol\":4384:4519  function setExcludedFromBurn(address account, bool excluded) external onlyOwner {... */\n      pop\n      pop\n      jump\t// out\n        /* \"@openzeppelin/contracts/token/ERC20/ERC20.sol\":3974:4123  function allowance(address owner, address spender) public view virtual override returns (uint256) {... */\n    tag_147:\n        /* \"@openzeppelin/contracts/token/ERC20/ERC20.sol\":4063:4070  uint256 */\n      0x00\n        /* \"@openzeppelin/contracts/token/ERC20/ERC20.sol\":4089:4100  _allowances */\n      0x01\n        /* \"@openzeppelin/contracts/token/ERC20/ERC20.sol\":4089:4107  _allowances[owner] */\n      0x00\n        /* \"@openzeppelin/contracts/token/ERC20/ERC20.sol\":4101:4106  owner */\n      dup5\n        /* \"@openzeppelin/contracts/token/ERC20/ERC20.sol\":4089:4107  _allowances[owner] */\n      0xffffffffffffffffffffffffffffffffffffffff\n      and\n      0xffffffffffffffffffffffffffffffffffffffff\n      and\n      dup2\n      mstore\n      0x20\n      add\n      swap1\n      dup2\n      mstore\n      0x20\n      add\n      0x00\n      keccak256\n        /* \"@openzeppelin/contracts/token/ERC20/ERC20.sol\":4089:4116  _allowances[owner][spender] */\n      0x00\n        /* \"@openzeppelin/contracts/token/ERC20/ERC20.sol\":4108:4115  spender */\n      dup4\n        /* \"@openzeppelin/contracts/token/ERC20/ERC20.sol\":4089:4116  _allowances[owner][spender] */\n      0xffffffffffffffffffffffffffffffffffffffff\n      and\n      0xffffffffffffffffffffffffffffffffffffffff\n      and\n      dup2\n      mstore\n      0x20\n      add\n      swap1\n      dup2\n      mstore\n      0x20\n      add\n      0x00\n      keccak256\n      sload\n        /* \"@openzeppelin/contracts/token/ERC20/ERC20.sol\":4082:4116  return _allowances[owner][spender] */\n      swap1\n      pop\n        /* \"@openzeppelin/contracts/token/ERC20/ERC20.sol\":3974:4123  function allowance(address owner, address spender) public view virtual override returns (uint256) {... */\n      swap3\n      swap2\n      pop\n      pop\n      jump\t// out\n        /* \"@openzeppelin/contracts/access/Ownable.sol\":2081:2279  function transferOwnership(address newOwner) public virtual onlyOwner {... */\n    tag_151:\n        /* \"@openzeppelin/contracts/access/Ownable.sol\":1094:1107  _checkOwner() */\n      tag_289\n        /* \"@openzeppelin/contracts/access/Ownable.sol\":1094:1105  _checkOwner */\n      tag_172\n        /* \"@openzeppelin/contracts/access/Ownable.sol\":1094:1107  _checkOwner() */\n      jump\t// in\n    tag_289:\n        /* \"@openzeppelin/contracts/access/Ownable.sol\":2189:2190  0 */\n      0x00\n        /* \"@openzeppelin/contracts/access/Ownable.sol\":2169:2191  newOwner != address(0) */\n      0xffffffffffffffffffffffffffffffffffffffff\n      and\n        /* \"@openzeppelin/contracts/access/Ownable.sol\":2169:2177  newOwner */\n      dup2\n        /* \"@openzeppelin/contracts/access/Ownable.sol\":2169:2191  newOwner != address(0) */\n      0xffffffffffffffffffffffffffffffffffffffff\n      and\n      sub\n        /* \"@openzeppelin/contracts/access/Ownable.sol\":2161:2234  require(newOwner != address(0), \"Ownable: new owner is the zero address\") */\n      tag_291\n      jumpi\n      mload(0x40)\n      0x08c379a000000000000000000000000000000000000000000000000000000000\n      dup2\n      mstore\n      0x04\n      add\n      tag_292\n      swap1\n      tag_293\n      jump\t// in\n    tag_292:\n      mload(0x40)\n      dup1\n      swap2\n      sub\n      swap1\n      revert\n    tag_291:\n        /* \"@openzeppelin/contracts/access/Ownable.sol\":2244:2272  _transferOwnership(newOwner) */\n      tag_294\n        /* \"@openzeppelin/contracts/access/Ownable.sol\":2263:2271  newOwner */\n      dup2\n        /* \"@openzeppelin/contracts/access/Ownable.sol\":2244:2262  _transferOwnership */\n      tag_199\n        /* \"@openzeppelin/contracts/access/Ownable.sol\":2244:2272  _transferOwnership(newOwner) */\n      jump\t// in\n    tag_294:\n        /* \"@openzeppelin/contracts/access/Ownable.sol\":2081:2279  function transferOwnership(address newOwner) public virtual onlyOwner {... */\n      pop\n      jump\t// out\n        /* \"contracts/lolo.sol\":4891:4997  function setTokenBurn(address newTokenBurn) external onlyOwner {... */\n    tag_154:\n        /* \"@openzeppelin/contracts/access/Ownable.sol\":1094:1107  _checkOwner() */\n      tag_296\n        /* \"@openzeppelin/contracts/access/Ownable.sol\":1094:1105  _checkOwner */\n      tag_172\n        /* \"@openzeppelin/contracts/access/Ownable.sol\":1094:1107  _checkOwner() */\n      jump\t// in\n    tag_296:\n        /* \"contracts/lolo.sol\":4977:4989  newTokenBurn */\n      dup1\n        /* \"contracts/lolo.sol\":4965:4974  tokenBurn */\n      0x09\n      0x00\n        /* \"contracts/lolo.sol\":4965:4989  tokenBurn = newTokenBurn */\n      0x0100\n      exp\n      dup2\n      sload\n      dup2\n      0xffffffffffffffffffffffffffffffffffffffff\n      mul\n      not\n      and\n      swap1\n      dup4\n      0xffffffffffffffffffffffffffffffffffffffff\n      and\n      mul\n      or\n      swap1\n      sstore\n      pop\n        /* \"contracts/lolo.sol\":4891:4997  function setTokenBurn(address newTokenBurn) external onlyOwner {... */\n      pop\n      jump\t// out\n        /* \"contracts/lolo.sol\":771:804  uint256 public impuestoCompra = 6 */\n    tag_156:\n      sload(0x0a)\n      dup2\n      jump\t// out\n        /* \"@openzeppelin/contracts/utils/Context.sol\":640:736  function _msgSender() internal view virtual returns (address) {... */\n    tag_167:\n        /* \"@openzeppelin/contracts/utils/Context.sol\":693:700  address */\n      0x00\n        /* \"@openzeppelin/contracts/utils/Context.sol\":719:729  msg.sender */\n      caller\n        /* \"@openzeppelin/contracts/utils/Context.sol\":712:729  return msg.sender */\n      swap1\n      pop\n        /* \"@openzeppelin/contracts/utils/Context.sol\":640:736  function _msgSender() internal view virtual returns (address) {... */\n      swap1\n      jump\t// out\n        /* \"@openzeppelin/contracts/token/ERC20/ERC20.sol\":10504:10874  function _approve(... */\n    tag_169:\n        /* \"@openzeppelin/contracts/token/ERC20/ERC20.sol\":10652:10653  0 */\n      0x00\n        /* \"@openzeppelin/contracts/token/ERC20/ERC20.sol\":10635:10654  owner != address(0) */\n      0xffffffffffffffffffffffffffffffffffffffff\n      and\n        /* \"@openzeppelin/contracts/token/ERC20/ERC20.sol\":10635:10640  owner */\n      dup4\n        /* \"@openzeppelin/contracts/token/ERC20/ERC20.sol\":10635:10654  owner != address(0) */\n      0xffffffffffffffffffffffffffffffffffffffff\n      and\n      sub\n        /* \"@openzeppelin/contracts/token/ERC20/ERC20.sol\":10627:10695  require(owner != address(0), \"ERC20: approve from the zero address\") */\n      tag_300\n      jumpi\n      mload(0x40)\n      0x08c379a000000000000000000000000000000000000000000000000000000000\n      dup2\n      mstore\n      0x04\n      add\n      tag_301\n      swap1\n      tag_302\n      jump\t// in\n    tag_301:\n      mload(0x40)\n      dup1\n      swap2\n      sub\n      swap1\n      revert\n    tag_300:\n        /* \"@openzeppelin/contracts/token/ERC20/ERC20.sol\":10732:10733  0 */\n      0x00\n        /* \"@openzeppelin/contracts/token/ERC20/ERC20.sol\":10713:10734  spender != address(0) */\n      0xffffffffffffffffffffffffffffffffffffffff\n      and\n        /* \"@openzeppelin/contracts/token/ERC20/ERC20.sol\":10713:10720  spender */\n      dup3\n        /* \"@openzeppelin/contracts/token/ERC20/ERC20.sol\":10713:10734  spender != address(0) */\n      0xffffffffffffffffffffffffffffffffffffffff\n      and\n      sub\n        /* \"@openzeppelin/contracts/token/ERC20/ERC20.sol\":10705:10773  require(spender != address(0), \"ERC20: approve to the zero address\") */\n      tag_303\n      jumpi\n      mload(0x40)\n      0x08c379a000000000000000000000000000000000000000000000000000000000\n      dup2\n      mstore\n      0x04\n      add\n      tag_304\n      swap1\n      tag_305\n      jump\t// in\n    tag_304:\n      mload(0x40)\n      dup1\n      swap2\n      sub\n      swap1\n      revert\n    tag_303:\n        /* \"@openzeppelin/contracts/token/ERC20/ERC20.sol\":10814:10820  amount */\n      dup1\n        /* \"@openzeppelin/contracts/token/ERC20/ERC20.sol\":10784:10795  _allowances */\n      0x01\n        /* \"@openzeppelin/contracts/token/ERC20/ERC20.sol\":10784:10802  _allowances[owner] */\n      0x00\n        /* \"@openzeppelin/contracts/token/ERC20/ERC20.sol\":10796:10801  owner */\n      dup6\n        /* \"@openzeppelin/contracts/token/ERC20/ERC20.sol\":10784:10802  _allowances[owner] */\n      0xffffffffffffffffffffffffffffffffffffffff\n      and\n      0xffffffffffffffffffffffffffffffffffffffff\n      and\n      dup2\n      mstore\n      0x20\n      add\n      swap1\n      dup2\n      mstore\n      0x20\n      add\n      0x00\n      keccak256\n        /* \"@openzeppelin/contracts/token/ERC20/ERC20.sol\":10784:10811  _allowances[owner][spender] */\n      0x00\n        /* \"@openzeppelin/contracts/token/ERC20/ERC20.sol\":10803:10810  spender */\n      dup5\n        /* \"@openzeppelin/contracts/token/ERC20/ERC20.sol\":10784:10811  _allowances[owner][spender] */\n      0xffffffffffffffffffffffffffffffffffffffff\n      and\n      0xffffffffffffffffffffffffffffffffffffffff\n      and\n      dup2\n      mstore\n      0x20\n      add\n      swap1\n      dup2\n      mstore\n      0x20\n      add\n      0x00\n      keccak256\n        /* \"@openzeppelin/contracts/token/ERC20/ERC20.sol\":10784:10820  _allowances[owner][spender] = amount */\n      dup2\n      swap1\n      sstore\n      pop\n        /* \"@openzeppelin/contracts/token/ERC20/ERC20.sol\":10851:10858  spender */\n      dup2\n        /* \"@openzeppelin/contracts/token/ERC20/ERC20.sol\":10835:10867  Approval(owner, spender, amount) */\n      0xffffffffffffffffffffffffffffffffffffffff\n      and\n        /* \"@openzeppelin/contracts/token/ERC20/ERC20.sol\":10844:10849  owner */\n      dup4\n        /* \"@openzeppelin/contracts/token/ERC20/ERC20.sol\":10835:10867  Approval(owner, spender, amount) */\n      0xffffffffffffffffffffffffffffffffffffffff\n      and\n      0x8c5be1e5ebec7d5bd14f71427d1e84f3dd0314c0f7b2291e5b200ac8c7c3b925\n        /* \"@openzeppelin/contracts/token/ERC20/ERC20.sol\":10860:10866  amount */\n      dup4\n        /* \"@openzeppelin/contracts/token/ERC20/ERC20.sol\":10835:10867  Approval(owner, spender, amount) */\n      mload(0x40)\n      tag_306\n      swap2\n      swap1\n      tag_68\n      jump\t// in\n    tag_306:\n      mload(0x40)\n      dup1\n      swap2\n      sub\n      swap1\n      log3\n        /* \"@openzeppelin/contracts/token/ERC20/ERC20.sol\":10504:10874  function _approve(... */\n      pop\n      pop\n      pop\n      jump\t// out\n        /* \"@openzeppelin/contracts/access/Ownable.sol\":1359:1489  function _checkOwner() internal view virtual {... */\n    tag_172:\n        /* \"@openzeppelin/contracts/access/Ownable.sol\":1433:1445  _msgSender() */\n      tag_308\n        /* \"@openzeppelin/contracts/access/Ownable.sol\":1433:1443  _msgSender */\n      tag_167\n        /* \"@openzeppelin/contracts/access/Ownable.sol\":1433:1445  _msgSender() */\n      jump\t// in\n    tag_308:\n        /* \"@openzeppelin/contracts/access/Ownable.sol\":1422:1445  owner() == _msgSender() */\n      0xffffffffffffffffffffffffffffffffffffffff\n      and\n        /* \"@openzeppelin/contracts/access/Ownable.sol\":1422:1429  owner() */\n      tag_309\n        /* \"@openzeppelin/contracts/access/Ownable.sol\":1422:1427  owner */\n      tag_118\n        /* \"@openzeppelin/contracts/access/Ownable.sol\":1422:1429  owner() */\n      jump\t// in\n    tag_309:\n        /* \"@openzeppelin/contracts/access/Ownable.sol\":1422:1445  owner() == _msgSender() */\n      0xffffffffffffffffffffffffffffffffffffffff\n      and\n      eq\n        /* \"@openzeppelin/contracts/access/Ownable.sol\":1414:1482  require(owner() == _msgSender(), \"Ownable: caller is not the owner\") */\n      tag_310\n      jumpi\n      mload(0x40)\n      0x08c379a000000000000000000000000000000000000000000000000000000000\n      dup2\n      mstore\n      0x04\n      add\n      tag_311\n      swap1\n      tag_312\n      jump\t// in\n    tag_311:\n      mload(0x40)\n      dup1\n      swap2\n      sub\n      swap1\n      revert\n    tag_310:\n        /* \"@openzeppelin/contracts/access/Ownable.sol\":1359:1489  function _checkOwner() internal view virtual {... */\n      jump\t// out\n        /* \"@openzeppelin/contracts/token/ERC20/ERC20.sol\":11155:11596  function _spendAllowance(... */\n    tag_178:\n        /* \"@openzeppelin/contracts/token/ERC20/ERC20.sol\":11285:11309  uint256 currentAllowance */\n      0x00\n        /* \"@openzeppelin/contracts/token/ERC20/ERC20.sol\":11312:11337  allowance(owner, spender) */\n      tag_314\n        /* \"@openzeppelin/contracts/token/ERC20/ERC20.sol\":11322:11327  owner */\n      dup5\n        /* \"@openzeppelin/contracts/token/ERC20/ERC20.sol\":11329:11336  spender */\n      dup5\n        /* \"@openzeppelin/contracts/token/ERC20/ERC20.sol\":11312:11321  allowance */\n      tag_147\n        /* \"@openzeppelin/contracts/token/ERC20/ERC20.sol\":11312:11337  allowance(owner, spender) */\n      jump\t// in\n    tag_314:\n        /* \"@openzeppelin/contracts/token/ERC20/ERC20.sol\":11285:11337  uint256 currentAllowance = allowance(owner, spender) */\n      swap1\n      pop\n        /* \"@openzeppelin/contracts/token/ERC20/ERC20.sol\":11371:11388  type(uint256).max */\n      0xffffffffffffffffffffffffffffffffffffffffffffffffffffffffffffffff\n        /* \"@openzeppelin/contracts/token/ERC20/ERC20.sol\":11351:11367  currentAllowance */\n      dup2\n        /* \"@openzeppelin/contracts/token/ERC20/ERC20.sol\":11351:11388  currentAllowance != type(uint256).max */\n      eq\n        /* \"@openzeppelin/contracts/token/ERC20/ERC20.sol\":11347:11590  if (currentAllowance != type(uint256).max) {... */\n      tag_315\n      jumpi\n        /* \"@openzeppelin/contracts/token/ERC20/ERC20.sol\":11432:11438  amount */\n      dup2\n        /* \"@openzeppelin/contracts/token/ERC20/ERC20.sol\":11412:11428  currentAllowance */\n      dup2\n        /* \"@openzeppelin/contracts/token/ERC20/ERC20.sol\":11412:11438  currentAllowance >= amount */\n      lt\n      iszero\n        /* \"@openzeppelin/contracts/token/ERC20/ERC20.sol\":11404:11472  require(currentAllowance >= amount, \"ERC20: insufficient allowance\") */\n      tag_316\n      jumpi\n      mload(0x40)\n      0x08c379a000000000000000000000000000000000000000000000000000000000\n      dup2\n      mstore\n      0x04\n      add\n      tag_317\n      swap1\n      tag_318\n      jump\t// in\n    tag_317:\n      mload(0x40)\n      dup1\n      swap2\n      sub\n      swap1\n      revert\n    tag_316:\n        /* \"@openzeppelin/contracts/token/ERC20/ERC20.sol\":11514:11565  _approve(owner, spender, currentAllowance - amount) */\n      tag_319\n        /* \"@openzeppelin/contracts/token/ERC20/ERC20.sol\":11523:11528  owner */\n      dup5\n        /* \"@openzeppelin/contracts/token/ERC20/ERC20.sol\":11530:11537  spender */\n      dup5\n        /* \"@openzeppelin/contracts/token/ERC20/ERC20.sol\":11558:11564  amount */\n      dup5\n        /* \"@openzeppelin/contracts/token/ERC20/ERC20.sol\":11539:11555  currentAllowance */\n      dup5\n        /* \"@openzeppelin/contracts/token/ERC20/ERC20.sol\":11539:11564  currentAllowance - amount */\n      sub\n        /* \"@openzeppelin/contracts/token/ERC20/ERC20.sol\":11514:11522  _approve */\n      tag_169\n        /* \"@openzeppelin/contracts/token/ERC20/ERC20.sol\":11514:11565  _approve(owner, spender, currentAllowance - amount) */\n      jump\t// in\n    tag_319:\n        /* \"@openzeppelin/contracts/token/ERC20/ERC20.sol\":11347:11590  if (currentAllowance != type(uint256).max) {... */\n    tag_315:\n        /* \"@openzeppelin/contracts/token/ERC20/ERC20.sol\":11275:11596  {... */\n      pop\n        /* \"@openzeppelin/contracts/token/ERC20/ERC20.sol\":11155:11596  function _spendAllowance(... */\n      pop\n      pop\n      pop\n      jump\t// out\n        /* \"@openzeppelin/contracts/token/ERC20/ERC20.sol\":7473:8291  function _transfer(... */\n    tag_180:\n        /* \"@openzeppelin/contracts/token/ERC20/ERC20.sol\":7615:7616  0 */\n      0x00\n        /* \"@openzeppelin/contracts/token/ERC20/ERC20.sol\":7599:7617  from != address(0) */\n      0xffffffffffffffffffffffffffffffffffffffff\n      and\n        /* \"@openzeppelin/contracts/token/ERC20/ERC20.sol\":7599:7603  from */\n      dup4\n        /* \"@openzeppelin/contracts/token/ERC20/ERC20.sol\":7599:7617  from != address(0) */\n      0xffffffffffffffffffffffffffffffffffffffff\n      and\n      sub\n        /* \"@openzeppelin/contracts/token/ERC20/ERC20.sol\":7591:7659  require(from != address(0), \"ERC20: transfer from the zero address\") */\n      tag_321\n      jumpi\n      mload(0x40)\n      0x08c379a000000000000000000000000000000000000000000000000000000000\n      dup2\n      mstore\n      0x04\n      add\n      tag_322\n      swap1\n      tag_323\n      jump\t// in\n    tag_322:\n      mload(0x40)\n      dup1\n      swap2\n      sub\n      swap1\n      revert\n    tag_321:\n        /* \"@openzeppelin/contracts/token/ERC20/ERC20.sol\":7691:7692  0 */\n      0x00\n        /* \"@openzeppelin/contracts/token/ERC20/ERC20.sol\":7677:7693  to != address(0) */\n      0xffffffffffffffffffffffffffffffffffffffff\n      and\n        /* \"@openzeppelin/contracts/token/ERC20/ERC20.sol\":7677:7679  to */\n      dup3\n        /* \"@openzeppelin/contracts/token/ERC20/ERC20.sol\":7677:7693  to != address(0) */\n      0xffffffffffffffffffffffffffffffffffffffff\n      and\n      sub\n        /* \"@openzeppelin/contracts/token/ERC20/ERC20.sol\":7669:7733  require(to != address(0), \"ERC20: transfer to the zero address\") */\n      tag_324\n      jumpi\n      mload(0x40)\n      0x08c379a000000000000000000000000000000000000000000000000000000000\n      dup2\n      mstore\n      0x04\n      add\n      tag_325\n      swap1\n      tag_326\n      jump\t// in\n    tag_325:\n      mload(0x40)\n      dup1\n      swap2\n      sub\n      swap1\n      revert\n    tag_324:\n        /* \"@openzeppelin/contracts/token/ERC20/ERC20.sol\":7744:7782  _beforeTokenTransfer(from, to, amount) */\n      tag_327\n        /* \"@openzeppelin/contracts/token/ERC20/ERC20.sol\":7765:7769  from */\n      dup4\n        /* \"@openzeppelin/contracts/token/ERC20/ERC20.sol\":7771:7773  to */\n      dup4\n        /* \"@openzeppelin/contracts/token/ERC20/ERC20.sol\":7775:7781  amount */\n      dup4\n        /* \"@openzeppelin/contracts/token/ERC20/ERC20.sol\":7744:7764  _beforeTokenTransfer */\n      tag_328\n        /* \"@openzeppelin/contracts/token/ERC20/ERC20.sol\":7744:7782  _beforeTokenTransfer(from, to, amount) */\n      jump\t// in\n    tag_327:\n        /* \"@openzeppelin/contracts/token/ERC20/ERC20.sol\":7793:7812  uint256 fromBalance */\n      0x00\n        /* \"@openzeppelin/contracts/token/ERC20/ERC20.sol\":7815:7824  _balances */\n      dup1\n        /* \"@openzeppelin/contracts/token/ERC20/ERC20.sol\":7815:7830  _balances[from] */\n      0x00\n        /* \"@openzeppelin/contracts/token/ERC20/ERC20.sol\":7825:7829  from */\n      dup6\n        /* \"@openzeppelin/contracts/token/ERC20/ERC20.sol\":7815:7830  _balances[from] */\n      0xffffffffffffffffffffffffffffffffffffffff\n      and\n      0xffffffffffffffffffffffffffffffffffffffff\n      and\n      dup2\n      mstore\n      0x20\n      add\n      swap1\n      dup2\n      mstore\n      0x20\n      add\n      0x00\n      keccak256\n      sload\n        /* \"@openzeppelin/contracts/token/ERC20/ERC20.sol\":7793:7830  uint256 fromBalance = _balances[from] */\n      swap1\n      pop\n        /* \"@openzeppelin/contracts/token/ERC20/ERC20.sol\":7863:7869  amount */\n      dup2\n        /* \"@openzeppelin/contracts/token/ERC20/ERC20.sol\":7848:7859  fromBalance */\n      dup2\n        /* \"@openzeppelin/contracts/token/ERC20/ERC20.sol\":7848:7869  fromBalance >= amount */\n      lt\n      iszero\n        /* \"@openzeppelin/contracts/token/ERC20/ERC20.sol\":7840:7912  require(fromBalance >= amount, \"ERC20: transfer amount exceeds balance\") */\n      tag_329\n      jumpi\n      mload(0x40)\n      0x08c379a000000000000000000000000000000000000000000000000000000000\n      dup2\n      mstore\n      0x04\n      add\n      tag_330\n      swap1\n      tag_331\n      jump\t// in\n    tag_330:\n      mload(0x40)\n      dup1\n      swap2\n      sub\n      swap1\n      revert\n    tag_329:\n        /* \"@openzeppelin/contracts/token/ERC20/ERC20.sol\":7978:7984  amount */\n      dup2\n        /* \"@openzeppelin/contracts/token/ERC20/ERC20.sol\":7964:7975  fromBalance */\n      dup2\n        /* \"@openzeppelin/contracts/token/ERC20/ERC20.sol\":7964:7984  fromBalance - amount */\n      sub\n        /* \"@openzeppelin/contracts/token/ERC20/ERC20.sol\":7946:7955  _balances */\n      0x00\n        /* \"@openzeppelin/contracts/token/ERC20/ERC20.sol\":7946:7961  _balances[from] */\n      dup1\n        /* \"@openzeppelin/contracts/token/ERC20/ERC20.sol\":7956:7960  from */\n      dup7\n        /* \"@openzeppelin/contracts/token/ERC20/ERC20.sol\":7946:7961  _balances[from] */\n      0xffffffffffffffffffffffffffffffffffffffff\n      and\n      0xffffffffffffffffffffffffffffffffffffffff\n      and\n      dup2\n      mstore\n      0x20\n      add\n      swap1\n      dup2\n      mstore\n      0x20\n      add\n      0x00\n      keccak256\n        /* \"@openzeppelin/contracts/token/ERC20/ERC20.sol\":7946:7984  _balances[from] = fromBalance - amount */\n      dup2\n      swap1\n      sstore\n      pop\n        /* \"@openzeppelin/contracts/token/ERC20/ERC20.sol\":8178:8184  amount */\n      dup2\n        /* \"@openzeppelin/contracts/token/ERC20/ERC20.sol\":8161:8170  _balances */\n      0x00\n        /* \"@openzeppelin/contracts/token/ERC20/ERC20.sol\":8161:8174  _balances[to] */\n      dup1\n        /* \"@openzeppelin/contracts/token/ERC20/ERC20.sol\":8171:8173  to */\n      dup6\n        /* \"@openzeppelin/contracts/token/ERC20/ERC20.sol\":8161:8174  _balances[to] */\n      0xffffffffffffffffffffffffffffffffffffffff\n      and\n      0xffffffffffffffffffffffffffffffffffffffff\n      and\n      dup2\n      mstore\n      0x20\n      add\n      swap1\n      dup2\n      mstore\n      0x20\n      add\n      0x00\n      keccak256\n      0x00\n        /* \"@openzeppelin/contracts/token/ERC20/ERC20.sol\":8161:8184  _balances[to] += amount */\n      dup3\n      dup3\n      sload\n      add\n      swap3\n      pop\n      pop\n      dup2\n      swap1\n      sstore\n      pop\n        /* \"@openzeppelin/contracts/token/ERC20/ERC20.sol\":8225:8227  to */\n      dup3\n        /* \"@openzeppelin/contracts/token/ERC20/ERC20.sol\":8210:8236  Transfer(from, to, amount) */\n      0xffffffffffffffffffffffffffffffffffffffff\n      and\n        /* \"@openzeppelin/contracts/token/ERC20/ERC20.sol\":8219:8223  from */\n      dup5\n        /* \"@openzeppelin/contracts/token/ERC20/ERC20.sol\":8210:8236  Transfer(from, to, amount) */\n      0xffffffffffffffffffffffffffffffffffffffff\n      and\n      0xddf252ad1be2c89b69c2b068fc378daa952ba7f163c4a11628f55a4df523b3ef\n        /* \"@openzeppelin/contracts/token/ERC20/ERC20.sol\":8229:8235  amount */\n      dup5\n        /* \"@openzeppelin/contracts/token/ERC20/ERC20.sol\":8210:8236  Transfer(from, to, amount) */\n      mload(0x40)\n      tag_332\n      swap2\n      swap1\n      tag_68\n      jump\t// in\n    tag_332:\n      mload(0x40)\n      dup1\n      swap2\n      sub\n      swap1\n      log3\n        /* \"@openzeppelin/contracts/token/ERC20/ERC20.sol\":8247:8284  _afterTokenTransfer(from, to, amount) */\n      tag_333\n        /* \"@openzeppelin/contracts/token/ERC20/ERC20.sol\":8267:8271  from */\n      dup5\n        /* \"@openzeppelin/contracts/token/ERC20/ERC20.sol\":8273:8275  to */\n      dup5\n        /* \"@openzeppelin/contracts/token/ERC20/ERC20.sol\":8277:8283  amount */\n      dup5\n        /* \"@openzeppelin/contracts/token/ERC20/ERC20.sol\":8247:8266  _afterTokenTransfer */\n      tag_334\n        /* \"@openzeppelin/contracts/token/ERC20/ERC20.sol\":8247:8284  _afterTokenTransfer(from, to, amount) */\n      jump\t// in\n    tag_333:\n        /* \"@openzeppelin/contracts/token/ERC20/ERC20.sol\":7581:8291  {... */\n      pop\n        /* \"@openzeppelin/contracts/token/ERC20/ERC20.sol\":7473:8291  function _transfer(... */\n      pop\n      pop\n      pop\n      jump\t// out\n        /* \"@openzeppelin/contracts/access/Ownable.sol\":2433:2620  function _transferOwnership(address newOwner) internal virtual {... */\n    tag_199:\n        /* \"@openzeppelin/contracts/access/Ownable.sol\":2506:2522  address oldOwner */\n      0x00\n        /* \"@openzeppelin/contracts/access/Ownable.sol\":2525:2531  _owner */\n      0x05\n      0x00\n      swap1\n      sload\n      swap1\n      0x0100\n      exp\n      swap1\n      div\n      0xffffffffffffffffffffffffffffffffffffffff\n      and\n        /* \"@openzeppelin/contracts/access/Ownable.sol\":2506:2531  address oldOwner = _owner */\n      swap1\n      pop\n        /* \"@openzeppelin/contracts/access/Ownable.sol\":2550:2558  newOwner */\n      dup2\n        /* \"@openzeppelin/contracts/access/Ownable.sol\":2541:2547  _owner */\n      0x05\n      0x00\n        /* \"@openzeppelin/contracts/access/Ownable.sol\":2541:2558  _owner = newOwner */\n      0x0100\n      exp\n      dup2\n      sload\n      dup2\n      0xffffffffffffffffffffffffffffffffffffffff\n      mul\n      not\n      and\n      swap1\n      dup4\n      0xffffffffffffffffffffffffffffffffffffffff\n      and\n      mul\n      or\n      swap1\n      sstore\n      pop\n        /* \"@openzeppelin/contracts/access/Ownable.sol\":2604:2612  newOwner */\n      dup2\n        /* \"@openzeppelin/contracts/access/Ownable.sol\":2573:2613  OwnershipTransferred(oldOwner, newOwner) */\n      0xffffffffffffffffffffffffffffffffffffffff\n      and\n        /* \"@openzeppelin/contracts/access/Ownable.sol\":2594:2602  oldOwner */\n      dup2\n        /* \"@openzeppelin/contracts/access/Ownable.sol\":2573:2613  OwnershipTransferred(oldOwner, newOwner) */\n      0xffffffffffffffffffffffffffffffffffffffff\n      and\n      0x8be0079c531659141344cd1fd0a4f28419497f9722a3daafe3b4186f6b6457e0\n      mload(0x40)\n      mload(0x40)\n      dup1\n      swap2\n      sub\n      swap1\n      log3\n        /* \"@openzeppelin/contracts/access/Ownable.sol\":2496:2620  {... */\n      pop\n        /* \"@openzeppelin/contracts/access/Ownable.sol\":2433:2620  function _transferOwnership(address newOwner) internal virtual {... */\n      pop\n      jump\t// out\n        /* \"@openzeppelin/contracts/token/ERC20/ERC20.sol\":3727:3916  function transfer(address to, uint256 amount) public virtual override returns (bool) {... */\n    tag_247:\n        /* \"@openzeppelin/contracts/token/ERC20/ERC20.sol\":3806:3810  bool */\n      0x00\n        /* \"@openzeppelin/contracts/token/ERC20/ERC20.sol\":3822:3835  address owner */\n      dup1\n        /* \"@openzeppelin/contracts/token/ERC20/ERC20.sol\":3838:3850  _msgSender() */\n      tag_337\n        /* \"@openzeppelin/contracts/token/ERC20/ERC20.sol\":3838:3848  _msgSender */\n      tag_167\n        /* \"@openzeppelin/contracts/token/ERC20/ERC20.sol\":3838:3850  _msgSender() */\n      jump\t// in\n    tag_337:\n        /* \"@openzeppelin/contracts/token/ERC20/ERC20.sol\":3822:3850  address owner = _msgSender() */\n      swap1\n      pop\n        /* \"@openzeppelin/contracts/token/ERC20/ERC20.sol\":3860:3888  _transfer(owner, to, amount) */\n      tag_338\n        /* \"@openzeppelin/contracts/token/ERC20/ERC20.sol\":3870:3875  owner */\n      dup2\n        /* \"@openzeppelin/contracts/token/ERC20/ERC20.sol\":3877:3879  to */\n      dup6\n        /* \"@openzeppelin/contracts/token/ERC20/ERC20.sol\":3881:3887  amount */\n      dup6\n        /* \"@openzeppelin/contracts/token/ERC20/ERC20.sol\":3860:3869  _transfer */\n      tag_180\n        /* \"@openzeppelin/contracts/token/ERC20/ERC20.sol\":3860:3888  _transfer(owner, to, amount) */\n      jump\t// in\n    tag_338:\n        /* \"@openzeppelin/contracts/token/ERC20/ERC20.sol\":3905:3909  true */\n      0x01\n        /* \"@openzeppelin/contracts/token/ERC20/ERC20.sol\":3898:3909  return true */\n      swap2\n      pop\n      pop\n        /* \"@openzeppelin/contracts/token/ERC20/ERC20.sol\":3727:3916  function transfer(address to, uint256 amount) public virtual override returns (bool) {... */\n      swap3\n      swap2\n      pop\n      pop\n      jump\t// out\n        /* \"@openzeppelin/contracts/token/ERC20/ERC20.sol\":12180:12301  function _beforeTokenTransfer(... */\n    tag_328:\n      pop\n      pop\n      pop\n      jump\t// out\n        /* \"@openzeppelin/contracts/token/ERC20/ERC20.sol\":12889:13009  function _afterTokenTransfer(... */\n    tag_334:\n      pop\n      pop\n      pop\n      jump\t// out\n        /* \"#utility.yul\":7:106   */\n    tag_341:\n        /* \"#utility.yul\":59:65   */\n      0x00\n        /* \"#utility.yul\":93:98   */\n      dup2\n        /* \"#utility.yul\":87:99   */\n      mload\n        /* \"#utility.yul\":77:99   */\n      swap1\n      pop\n        /* \"#utility.yul\":7:106   */\n      swap2\n      swap1\n      pop\n      jump\t// out\n        /* \"#utility.yul\":112:281   */\n    tag_342:\n        /* \"#utility.yul\":196:207   */\n      0x00\n        /* \"#utility.yul\":230:236   */\n      dup3\n        /* \"#utility.yul\":225:228   */\n      dup3\n        /* \"#utility.yul\":218:237   */\n      mstore\n        /* \"#utility.yul\":270:274   */\n      0x20\n        /* \"#utility.yul\":265:268   */\n      dup3\n        /* \"#utility.yul\":261:275   */\n      add\n        /* \"#utility.yul\":246:275   */\n      swap1\n      pop\n        /* \"#utility.yul\":112:281   */\n      swap3\n      swap2\n      pop\n      pop\n      jump\t// out\n        /* \"#utility.yul\":287:533   */\n    tag_343:\n        /* \"#utility.yul\":368:369   */\n      0x00\n        /* \"#utility.yul\":378:491   */\n    tag_400:\n        /* \"#utility.yul\":392:398   */\n      dup4\n        /* \"#utility.yul\":389:390   */\n      dup2\n        /* \"#utility.yul\":386:399   */\n      lt\n        /* \"#utility.yul\":378:491   */\n      iszero\n      tag_402\n      jumpi\n        /* \"#utility.yul\":477:478   */\n      dup1\n        /* \"#utility.yul\":472:475   */\n      dup3\n        /* \"#utility.yul\":468:479   */\n      add\n        /* \"#utility.yul\":462:480   */\n      mload\n        /* \"#utility.yul\":458:459   */\n      dup2\n        /* \"#utility.yul\":453:456   */\n      dup5\n        /* \"#utility.yul\":449:460   */\n      add\n        /* \"#utility.yul\":442:481   */\n      mstore\n        /* \"#utility.yul\":414:416   */\n      0x20\n        /* \"#utility.yul\":411:412   */\n      dup2\n        /* \"#utility.yul\":407:417   */\n      add\n        /* \"#utility.yul\":402:417   */\n      swap1\n      pop\n        /* \"#utility.yul\":378:491   */\n      jump(tag_400)\n    tag_402:\n        /* \"#utility.yul\":525:526   */\n      0x00\n        /* \"#utility.yul\":516:522   */\n      dup5\n        /* \"#utility.yul\":511:514   */\n      dup5\n        /* \"#utility.yul\":507:523   */\n      add\n        /* \"#utility.yul\":500:527   */\n      mstore\n        /* \"#utility.yul\":349:533   */\n      pop\n        /* \"#utility.yul\":287:533   */\n      pop\n      pop\n      pop\n      jump\t// out\n        /* \"#utility.yul\":539:641   */\n    tag_344:\n        /* \"#utility.yul\":580:586   */\n      0x00\n        /* \"#utility.yul\":631:633   */\n      0x1f\n        /* \"#utility.yul\":627:634   */\n      not\n        /* \"#utility.yul\":622:624   */\n      0x1f\n        /* \"#utility.yul\":615:620   */\n      dup4\n        /* \"#utility.yul\":611:625   */\n      add\n        /* \"#utility.yul\":607:635   */\n      and\n        /* \"#utility.yul\":597:635   */\n      swap1\n      pop\n        /* \"#utility.yul\":539:641   */\n      swap2\n      swap1\n      pop\n      jump\t// out\n        /* \"#utility.yul\":647:1024   */\n    tag_345:\n        /* \"#utility.yul\":735:738   */\n      0x00\n        /* \"#utility.yul\":763:802   */\n      tag_405\n        /* \"#utility.yul\":796:801   */\n      dup3\n        /* \"#utility.yul\":763:802   */\n      tag_341\n      jump\t// in\n    tag_405:\n        /* \"#utility.yul\":818:889   */\n      tag_406\n        /* \"#utility.yul\":882:888   */\n      dup2\n        /* \"#utility.yul\":877:880   */\n      dup6\n        /* \"#utility.yul\":818:889   */\n      tag_342\n      jump\t// in\n    tag_406:\n        /* \"#utility.yul\":811:889   */\n      swap4\n      pop\n        /* \"#utility.yul\":898:963   */\n      tag_407\n        /* \"#utility.yul\":956:962   */\n      dup2\n        /* \"#utility.yul\":951:954   */\n      dup6\n        /* \"#utility.yul\":944:948   */\n      0x20\n        /* \"#utility.yul\":937:942   */\n      dup7\n        /* \"#utility.yul\":933:949   */\n      add\n        /* \"#utility.yul\":898:963   */\n      tag_343\n      jump\t// in\n    tag_407:\n        /* \"#utility.yul\":988:1017   */\n      tag_408\n        /* \"#utility.yul\":1010:1016   */\n      dup2\n        /* \"#utility.yul\":988:1017   */\n      tag_344\n      jump\t// in\n    tag_408:\n        /* \"#utility.yul\":983:986   */\n      dup5\n        /* \"#utility.yul\":979:1018   */\n      add\n        /* \"#utility.yul\":972:1018   */\n      swap2\n      pop\n        /* \"#utility.yul\":739:1024   */\n      pop\n        /* \"#utility.yul\":647:1024   */\n      swap3\n      swap2\n      pop\n      pop\n      jump\t// out\n        /* \"#utility.yul\":1030:1343   */\n    tag_45:\n        /* \"#utility.yul\":1143:1147   */\n      0x00\n        /* \"#utility.yul\":1181:1183   */\n      0x20\n        /* \"#utility.yul\":1170:1179   */\n      dup3\n        /* \"#utility.yul\":1166:1184   */\n      add\n        /* \"#utility.yul\":1158:1184   */\n      swap1\n      pop\n        /* \"#utility.yul\":1230:1239   */\n      dup2\n        /* \"#utility.yul\":1224:1228   */\n      dup2\n        /* \"#utility.yul\":1220:1240   */\n      sub\n        /* \"#utility.yul\":1216:1217   */\n      0x00\n        /* \"#utility.yul\":1205:1214   */\n      dup4\n        /* \"#utility.yul\":1201:1218   */\n      add\n        /* \"#utility.yul\":1194:1241   */\n      mstore\n        /* \"#utility.yul\":1258:1336   */\n      tag_410\n        /* \"#utility.yul\":1331:1335   */\n      dup2\n        /* \"#utility.yul\":1322:1328   */\n      dup5\n        /* \"#utility.yul\":1258:1336   */\n      tag_345\n      jump\t// in\n    tag_410:\n        /* \"#utility.yul\":1250:1336   */\n      swap1\n      pop\n        /* \"#utility.yul\":1030:1343   */\n      swap3\n      swap2\n      pop\n      pop\n      jump\t// out\n        /* \"#utility.yul\":1430:1547   */\n    tag_347:\n        /* \"#utility.yul\":1539:1540   */\n      0x00\n        /* \"#utility.yul\":1536:1537   */\n      dup1\n        /* \"#utility.yul\":1529:1541   */\n      revert\n        /* \"#utility.yul\":1676:1802   */\n    tag_349:\n        /* \"#utility.yul\":1713:1720   */\n      0x00\n        /* \"#utility.yul\":1753:1795   */\n      0xffffffffffffffffffffffffffffffffffffffff\n        /* \"#utility.yul\":1746:1751   */\n      dup3\n        /* \"#utility.yul\":1742:1796   */\n      and\n        /* \"#utility.yul\":1731:1796   */\n      swap1\n      pop\n        /* \"#utility.yul\":1676:1802   */\n      swap2\n      swap1\n      pop\n      jump\t// out\n        /* \"#utility.yul\":1808:1904   */\n    tag_350:\n        /* \"#utility.yul\":1845:1852   */\n      0x00\n        /* \"#utility.yul\":1874:1898   */\n      tag_416\n        /* \"#utility.yul\":1892:1897   */\n      dup3\n        /* \"#utility.yul\":1874:1898   */\n      tag_349\n      jump\t// in\n    tag_416:\n        /* \"#utility.yul\":1863:1898   */\n      swap1\n      pop\n        /* \"#utility.yul\":1808:1904   */\n      swap2\n      swap1\n      pop\n      jump\t// out\n        /* \"#utility.yul\":1910:2032   */\n    tag_351:\n        /* \"#utility.yul\":1983:2007   */\n      tag_418\n        /* \"#utility.yul\":2001:2006   */\n      dup2\n        /* \"#utility.yul\":1983:2007   */\n      tag_350\n      jump\t// in\n    tag_418:\n        /* \"#utility.yul\":1976:1981   */\n      dup2\n        /* \"#utility.yul\":1973:2008   */\n      eq\n        /* \"#utility.yul\":1963:2026   */\n      tag_419\n      jumpi\n        /* \"#utility.yul\":2022:2023   */\n      0x00\n        /* \"#utility.yul\":2019:2020   */\n      dup1\n        /* \"#utility.yul\":2012:2024   */\n      revert\n        /* \"#utility.yul\":1963:2026   */\n    tag_419:\n        /* \"#utility.yul\":1910:2032   */\n      pop\n      jump\t// out\n        /* \"#utility.yul\":2038:2177   */\n    tag_352:\n        /* \"#utility.yul\":2084:2089   */\n      0x00\n        /* \"#utility.yul\":2122:2128   */\n      dup2\n        /* \"#utility.yul\":2109:2129   */\n      calldataload\n        /* \"#utility.yul\":2100:2129   */\n      swap1\n      pop\n        /* \"#utility.yul\":2138:2171   */\n      tag_421\n        /* \"#utility.yul\":2165:2170   */\n      dup2\n        /* \"#utility.yul\":2138:2171   */\n      tag_351\n      jump\t// in\n    tag_421:\n        /* \"#utility.yul\":2038:2177   */\n      swap3\n      swap2\n      pop\n      pop\n      jump\t// out\n        /* \"#utility.yul\":2183:2260   */\n    tag_353:\n        /* \"#utility.yul\":2220:2227   */\n      0x00\n        /* \"#utility.yul\":2249:2254   */\n      dup2\n        /* \"#utility.yul\":2238:2254   */\n      swap1\n      pop\n        /* \"#utility.yul\":2183:2260   */\n      swap2\n      swap1\n      pop\n      jump\t// out\n        /* \"#utility.yul\":2266:2388   */\n    tag_354:\n        /* \"#utility.yul\":2339:2363   */\n      tag_424\n        /* \"#utility.yul\":2357:2362   */\n      dup2\n        /* \"#utility.yul\":2339:2363   */\n      tag_353\n      jump\t// in\n    tag_424:\n        /* \"#utility.yul\":2332:2337   */\n      dup2\n        /* \"#utility.yul\":2329:2364   */\n      eq\n        /* \"#utility.yul\":2319:2382   */\n      tag_425\n      jumpi\n        /* \"#utility.yul\":2378:2379   */\n      0x00\n        /* \"#utility.yul\":2375:2376   */\n      dup1\n        /* \"#utility.yul\":2368:2380   */\n      revert\n        /* \"#utility.yul\":2319:2382   */\n    tag_425:\n        /* \"#utility.yul\":2266:2388   */\n      pop\n      jump\t// out\n        /* \"#utility.yul\":2394:2533   */\n    tag_355:\n        /* \"#utility.yul\":2440:2445   */\n      0x00\n        /* \"#utility.yul\":2478:2484   */\n      dup2\n        /* \"#utility.yul\":2465:2485   */\n      calldataload\n        /* \"#utility.yul\":2456:2485   */\n      swap1\n      pop\n        /* \"#utility.yul\":2494:2527   */\n      tag_427\n        /* \"#utility.yul\":2521:2526   */\n      dup2\n        /* \"#utility.yul\":2494:2527   */\n      tag_354\n      jump\t// in\n    tag_427:\n        /* \"#utility.yul\":2394:2533   */\n      swap3\n      swap2\n      pop\n      pop\n      jump\t// out\n        /* \"#utility.yul\":2539:3013   */\n    tag_48:\n        /* \"#utility.yul\":2607:2613   */\n      0x00\n        /* \"#utility.yul\":2615:2621   */\n      dup1\n        /* \"#utility.yul\":2664:2666   */\n      0x40\n        /* \"#utility.yul\":2652:2661   */\n      dup4\n        /* \"#utility.yul\":2643:2650   */\n      dup6\n        /* \"#utility.yul\":2639:2662   */\n      sub\n        /* \"#utility.yul\":2635:2667   */\n      slt\n        /* \"#utility.yul\":2632:2751   */\n      iszero\n      tag_429\n      jumpi\n        /* \"#utility.yul\":2670:2749   */\n      tag_430\n      tag_347\n      jump\t// in\n    tag_430:\n        /* \"#utility.yul\":2632:2751   */\n    tag_429:\n        /* \"#utility.yul\":2790:2791   */\n      0x00\n        /* \"#utility.yul\":2815:2868   */\n      tag_431\n        /* \"#utility.yul\":2860:2867   */\n      dup6\n        /* \"#utility.yul\":2851:2857   */\n      dup3\n        /* \"#utility.yul\":2840:2849   */\n      dup7\n        /* \"#utility.yul\":2836:2858   */\n      add\n        /* \"#utility.yul\":2815:2868   */\n      tag_352\n      jump\t// in\n    tag_431:\n        /* \"#utility.yul\":2805:2868   */\n      swap3\n      pop\n        /* \"#utility.yul\":2761:2878   */\n      pop\n        /* \"#utility.yul\":2917:2919   */\n      0x20\n        /* \"#utility.yul\":2943:2996   */\n      tag_432\n        /* \"#utility.yul\":2988:2995   */\n      dup6\n        /* \"#utility.yul\":2979:2985   */\n      dup3\n        /* \"#utility.yul\":2968:2977   */\n      dup7\n        /* \"#utility.yul\":2964:2986   */\n      add\n        /* \"#utility.yul\":2943:2996   */\n      tag_355\n      jump\t// in\n    tag_432:\n        /* \"#utility.yul\":2933:2996   */\n      swap2\n      pop\n        /* \"#utility.yul\":2888:3006   */\n      pop\n        /* \"#utility.yul\":2539:3013   */\n      swap3\n      pop\n      swap3\n      swap1\n      pop\n      jump\t// out\n        /* \"#utility.yul\":3019:3109   */\n    tag_356:\n        /* \"#utility.yul\":3053:3060   */\n      0x00\n        /* \"#utility.yul\":3096:3101   */\n      dup2\n        /* \"#utility.yul\":3089:3102   */\n      iszero\n        /* \"#utility.yul\":3082:3103   */\n      iszero\n        /* \"#utility.yul\":3071:3103   */\n      swap1\n      pop\n        /* \"#utility.yul\":3019:3109   */\n      swap2\n      swap1\n      pop\n      jump\t// out\n        /* \"#utility.yul\":3115:3224   */\n    tag_357:\n        /* \"#utility.yul\":3196:3217   */\n      tag_435\n        /* \"#utility.yul\":3211:3216   */\n      dup2\n        /* \"#utility.yul\":3196:3217   */\n      tag_356\n      jump\t// in\n    tag_435:\n        /* \"#utility.yul\":3191:3194   */\n      dup3\n        /* \"#utility.yul\":3184:3218   */\n      mstore\n        /* \"#utility.yul\":3115:3224   */\n      pop\n      pop\n      jump\t// out\n        /* \"#utility.yul\":3230:3440   */\n    tag_51:\n        /* \"#utility.yul\":3317:3321   */\n      0x00\n        /* \"#utility.yul\":3355:3357   */\n      0x20\n        /* \"#utility.yul\":3344:3353   */\n      dup3\n        /* \"#utility.yul\":3340:3358   */\n      add\n        /* \"#utility.yul\":3332:3358   */\n      swap1\n      pop\n        /* \"#utility.yul\":3368:3433   */\n      tag_437\n        /* \"#utility.yul\":3430:3431   */\n      0x00\n        /* \"#utility.yul\":3419:3428   */\n      dup4\n        /* \"#utility.yul\":3415:3432   */\n      add\n        /* \"#utility.yul\":3406:3412   */\n      dup5\n        /* \"#utility.yul\":3368:3433   */\n      tag_357\n      jump\t// in\n    tag_437:\n        /* \"#utility.yul\":3230:3440   */\n      swap3\n      swap2\n      pop\n      pop\n      jump\t// out\n        /* \"#utility.yul\":3446:3775   */\n    tag_54:\n        /* \"#utility.yul\":3505:3511   */\n      0x00\n        /* \"#utility.yul\":3554:3556   */\n      0x20\n        /* \"#utility.yul\":3542:3551   */\n      dup3\n        /* \"#utility.yul\":3533:3540   */\n      dup5\n        /* \"#utility.yul\":3529:3552   */\n      sub\n        /* \"#utility.yul\":3525:3557   */\n      slt\n        /* \"#utility.yul\":3522:3641   */\n      iszero\n      tag_439\n      jumpi\n        /* \"#utility.yul\":3560:3639   */\n      tag_440\n      tag_347\n      jump\t// in\n    tag_440:\n        /* \"#utility.yul\":3522:3641   */\n    tag_439:\n        /* \"#utility.yul\":3680:3681   */\n      0x00\n        /* \"#utility.yul\":3705:3758   */\n      tag_441\n        /* \"#utility.yul\":3750:3757   */\n      dup5\n        /* \"#utility.yul\":3741:3747   */\n      dup3\n        /* \"#utility.yul\":3730:3739   */\n      dup6\n        /* \"#utility.yul\":3726:3748   */\n      add\n        /* \"#utility.yul\":3705:3758   */\n      tag_352\n      jump\t// in\n    tag_441:\n        /* \"#utility.yul\":3695:3758   */\n      swap2\n      pop\n        /* \"#utility.yul\":3651:3768   */\n      pop\n        /* \"#utility.yul\":3446:3775   */\n      swap3\n      swap2\n      pop\n      pop\n      jump\t// out\n        /* \"#utility.yul\":3781:3897   */\n    tag_358:\n        /* \"#utility.yul\":3851:3872   */\n      tag_443\n        /* \"#utility.yul\":3866:3871   */\n      dup2\n        /* \"#utility.yul\":3851:3872   */\n      tag_356\n      jump\t// in\n    tag_443:\n        /* \"#utility.yul\":3844:3849   */\n      dup2\n        /* \"#utility.yul\":3841:3873   */\n      eq\n        /* \"#utility.yul\":3831:3891   */\n      tag_444\n      jumpi\n        /* \"#utility.yul\":3887:3888   */\n      0x00\n        /* \"#utility.yul\":3884:3885   */\n      dup1\n        /* \"#utility.yul\":3877:3889   */\n      revert\n        /* \"#utility.yul\":3831:3891   */\n    tag_444:\n        /* \"#utility.yul\":3781:3897   */\n      pop\n      jump\t// out\n        /* \"#utility.yul\":3903:4036   */\n    tag_359:\n        /* \"#utility.yul\":3946:3951   */\n      0x00\n        /* \"#utility.yul\":3984:3990   */\n      dup2\n        /* \"#utility.yul\":3971:3991   */\n      calldataload\n        /* \"#utility.yul\":3962:3991   */\n      swap1\n      pop\n        /* \"#utility.yul\":4000:4030   */\n      tag_446\n        /* \"#utility.yul\":4024:4029   */\n      dup2\n        /* \"#utility.yul\":4000:4030   */\n      tag_358\n      jump\t// in\n    tag_446:\n        /* \"#utility.yul\":3903:4036   */\n      swap3\n      swap2\n      pop\n      pop\n      jump\t// out\n        /* \"#utility.yul\":4042:4510   */\n    tag_59:\n        /* \"#utility.yul\":4107:4113   */\n      0x00\n        /* \"#utility.yul\":4115:4121   */\n      dup1\n        /* \"#utility.yul\":4164:4166   */\n      0x40\n        /* \"#utility.yul\":4152:4161   */\n      dup4\n        /* \"#utility.yul\":4143:4150   */\n      dup6\n        /* \"#utility.yul\":4139:4162   */\n      sub\n        /* \"#utility.yul\":4135:4167   */\n      slt\n        /* \"#utility.yul\":4132:4251   */\n      iszero\n      tag_448\n      jumpi\n        /* \"#utility.yul\":4170:4249   */\n      tag_449\n      tag_347\n      jump\t// in\n    tag_449:\n        /* \"#utility.yul\":4132:4251   */\n    tag_448:\n        /* \"#utility.yul\":4290:4291   */\n      0x00\n        /* \"#utility.yul\":4315:4368   */\n      tag_450\n        /* \"#utility.yul\":4360:4367   */\n      dup6\n        /* \"#utility.yul\":4351:4357   */\n      dup3\n        /* \"#utility.yul\":4340:4349   */\n      dup7\n        /* \"#utility.yul\":4336:4358   */\n      add\n        /* \"#utility.yul\":4315:4368   */\n      tag_352\n      jump\t// in\n    tag_450:\n        /* \"#utility.yul\":4305:4368   */\n      swap3\n      pop\n        /* \"#utility.yul\":4261:4378   */\n      pop\n        /* \"#utility.yul\":4417:4419   */\n      0x20\n        /* \"#utility.yul\":4443:4493   */\n      tag_451\n        /* \"#utility.yul\":4485:4492   */\n      dup6\n        /* \"#utility.yul\":4476:4482   */\n      dup3\n        /* \"#utility.yul\":4465:4474   */\n      dup7\n        /* \"#utility.yul\":4461:4483   */\n      add\n        /* \"#utility.yul\":4443:4493   */\n      tag_359\n      jump\t// in\n    tag_451:\n        /* \"#utility.yul\":4433:4493   */\n      swap2\n      pop\n        /* \"#utility.yul\":4388:4503   */\n      pop\n        /* \"#utility.yul\":4042:4510   */\n      swap3\n      pop\n      swap3\n      swap1\n      pop\n      jump\t// out\n        /* \"#utility.yul\":4516:4576   */\n    tag_360:\n        /* \"#utility.yul\":4544:4547   */\n      0x00\n        /* \"#utility.yul\":4565:4570   */\n      dup2\n        /* \"#utility.yul\":4558:4570   */\n      swap1\n      pop\n        /* \"#utility.yul\":4516:4576   */\n      swap2\n      swap1\n      pop\n      jump\t// out\n        /* \"#utility.yul\":4582:4724   */\n    tag_361:\n        /* \"#utility.yul\":4632:4641   */\n      0x00\n        /* \"#utility.yul\":4665:4718   */\n      tag_454\n        /* \"#utility.yul\":4683:4717   */\n      tag_455\n        /* \"#utility.yul\":4692:4716   */\n      tag_456\n        /* \"#utility.yul\":4710:4715   */\n      dup5\n        /* \"#utility.yul\":4692:4716   */\n      tag_349\n      jump\t// in\n    tag_456:\n        /* \"#utility.yul\":4683:4717   */\n      tag_360\n      jump\t// in\n    tag_455:\n        /* \"#utility.yul\":4665:4718   */\n      tag_349\n      jump\t// in\n    tag_454:\n        /* \"#utility.yul\":4652:4718   */\n      swap1\n      pop\n        /* \"#utility.yul\":4582:4724   */\n      swap2\n      swap1\n      pop\n      jump\t// out\n        /* \"#utility.yul\":4730:4856   */\n    tag_362:\n        /* \"#utility.yul\":4780:4789   */\n      0x00\n        /* \"#utility.yul\":4813:4850   */\n      tag_458\n        /* \"#utility.yul\":4844:4849   */\n      dup3\n        /* \"#utility.yul\":4813:4850   */\n      tag_361\n      jump\t// in\n    tag_458:\n        /* \"#utility.yul\":4800:4850   */\n      swap1\n      pop\n        /* \"#utility.yul\":4730:4856   */\n      swap2\n      swap1\n      pop\n      jump\t// out\n        /* \"#utility.yul\":4862:5015   */\n    tag_363:\n        /* \"#utility.yul\":4939:4948   */\n      0x00\n        /* \"#utility.yul\":4972:5009   */\n      tag_460\n        /* \"#utility.yul\":5003:5008   */\n      dup3\n        /* \"#utility.yul\":4972:5009   */\n      tag_362\n      jump\t// in\n    tag_460:\n        /* \"#utility.yul\":4959:5009   */\n      swap1\n      pop\n        /* \"#utility.yul\":4862:5015   */\n      swap2\n      swap1\n      pop\n      jump\t// out\n        /* \"#utility.yul\":5021:5206   */\n    tag_364:\n        /* \"#utility.yul\":5135:5199   */\n      tag_462\n        /* \"#utility.yul\":5193:5198   */\n      dup2\n        /* \"#utility.yul\":5135:5199   */\n      tag_363\n      jump\t// in\n    tag_462:\n        /* \"#utility.yul\":5130:5133   */\n      dup3\n        /* \"#utility.yul\":5123:5200   */\n      mstore\n        /* \"#utility.yul\":5021:5206   */\n      pop\n      pop\n      jump\t// out\n        /* \"#utility.yul\":5212:5488   */\n    tag_64:\n        /* \"#utility.yul\":5332:5336   */\n      0x00\n        /* \"#utility.yul\":5370:5372   */\n      0x20\n        /* \"#utility.yul\":5359:5368   */\n      dup3\n        /* \"#utility.yul\":5355:5373   */\n      add\n        /* \"#utility.yul\":5347:5373   */\n      swap1\n      pop\n        /* \"#utility.yul\":5383:5481   */\n      tag_464\n        /* \"#utility.yul\":5478:5479   */\n      0x00\n        /* \"#utility.yul\":5467:5476   */\n      dup4\n        /* \"#utility.yul\":5463:5480   */\n      add\n        /* \"#utility.yul\":5454:5460   */\n      dup5\n        /* \"#utility.yul\":5383:5481   */\n      tag_364\n      jump\t// in\n    tag_464:\n        /* \"#utility.yul\":5212:5488   */\n      swap3\n      swap2\n      pop\n      pop\n      jump\t// out\n        /* \"#utility.yul\":5494:5612   */\n    tag_365:\n        /* \"#utility.yul\":5581:5605   */\n      tag_466\n        /* \"#utility.yul\":5599:5604   */\n      dup2\n        /* \"#utility.yul\":5581:5605   */\n      tag_353\n      jump\t// in\n    tag_466:\n        /* \"#utility.yul\":5576:5579   */\n      dup3\n        /* \"#utility.yul\":5569:5606   */\n      mstore\n        /* \"#utility.yul\":5494:5612   */\n      pop\n      pop\n      jump\t// out\n        /* \"#utility.yul\":5618:5840   */\n    tag_68:\n        /* \"#utility.yul\":5711:5715   */\n      0x00\n        /* \"#utility.yul\":5749:5751   */\n      0x20\n        /* \"#utility.yul\":5738:5747   */\n      dup3\n        /* \"#utility.yul\":5734:5752   */\n      add\n        /* \"#utility.yul\":5726:5752   */\n      swap1\n      pop\n        /* \"#utility.yul\":5762:5833   */\n      tag_468\n        /* \"#utility.yul\":5830:5831   */\n      0x00\n        /* \"#utility.yul\":5819:5828   */\n      dup4\n        /* \"#utility.yul\":5815:5832   */\n      add\n        /* \"#utility.yul\":5806:5812   */\n      dup5\n        /* \"#utility.yul\":5762:5833   */\n      tag_365\n      jump\t// in\n    tag_468:\n        /* \"#utility.yul\":5618:5840   */\n      swap3\n      swap2\n      pop\n      pop\n      jump\t// out\n        /* \"#utility.yul\":5846:6465   */\n    tag_78:\n        /* \"#utility.yul\":5923:5929   */\n      0x00\n        /* \"#utility.yul\":5931:5937   */\n      dup1\n        /* \"#utility.yul\":5939:5945   */\n      0x00\n        /* \"#utility.yul\":5988:5990   */\n      0x60\n        /* \"#utility.yul\":5976:5985   */\n      dup5\n        /* \"#utility.yul\":5967:5974   */\n      dup7\n        /* \"#utility.yul\":5963:5986   */\n      sub\n        /* \"#utility.yul\":5959:5991   */\n      slt\n        /* \"#utility.yul\":5956:6075   */\n      iszero\n      tag_470\n      jumpi\n        /* \"#utility.yul\":5994:6073   */\n      tag_471\n      tag_347\n      jump\t// in\n    tag_471:\n        /* \"#utility.yul\":5956:6075   */\n    tag_470:\n        /* \"#utility.yul\":6114:6115   */\n      0x00\n        /* \"#utility.yul\":6139:6192   */\n      tag_472\n        /* \"#utility.yul\":6184:6191   */\n      dup7\n        /* \"#utility.yul\":6175:6181   */\n      dup3\n        /* \"#utility.yul\":6164:6173   */\n      dup8\n        /* \"#utility.yul\":6160:6182   */\n      add\n        /* \"#utility.yul\":6139:6192   */\n      tag_352\n      jump\t// in\n    tag_472:\n        /* \"#utility.yul\":6129:6192   */\n      swap4\n      pop\n        /* \"#utility.yul\":6085:6202   */\n      pop\n        /* \"#utility.yul\":6241:6243   */\n      0x20\n        /* \"#utility.yul\":6267:6320   */\n      tag_473\n        /* \"#utility.yul\":6312:6319   */\n      dup7\n        /* \"#utility.yul\":6303:6309   */\n      dup3\n        /* \"#utility.yul\":6292:6301   */\n      dup8\n        /* \"#utility.yul\":6288:6310   */\n      add\n        /* \"#utility.yul\":6267:6320   */\n      tag_352\n      jump\t// in\n    tag_473:\n        /* \"#utility.yul\":6257:6320   */\n      swap3\n      pop\n        /* \"#utility.yul\":6212:6330   */\n      pop\n        /* \"#utility.yul\":6369:6371   */\n      0x40\n        /* \"#utility.yul\":6395:6448   */\n      tag_474\n        /* \"#utility.yul\":6440:6447   */\n      dup7\n        /* \"#utility.yul\":6431:6437   */\n      dup3\n        /* \"#utility.yul\":6420:6429   */\n      dup8\n        /* \"#utility.yul\":6416:6438   */\n      add\n        /* \"#utility.yul\":6395:6448   */\n      tag_355\n      jump\t// in\n    tag_474:\n        /* \"#utility.yul\":6385:6448   */\n      swap2\n      pop\n        /* \"#utility.yul\":6340:6458   */\n      pop\n        /* \"#utility.yul\":5846:6465   */\n      swap3\n      pop\n      swap3\n      pop\n      swap3\n      jump\t// out\n        /* \"#utility.yul\":6471:6557   */\n    tag_366:\n        /* \"#utility.yul\":6506:6513   */\n      0x00\n        /* \"#utility.yul\":6546:6550   */\n      0xff\n        /* \"#utility.yul\":6539:6544   */\n      dup3\n        /* \"#utility.yul\":6535:6551   */\n      and\n        /* \"#utility.yul\":6524:6551   */\n      swap1\n      pop\n        /* \"#utility.yul\":6471:6557   */\n      swap2\n      swap1\n      pop\n      jump\t// out\n        /* \"#utility.yul\":6563:6675   */\n    tag_367:\n        /* \"#utility.yul\":6646:6668   */\n      tag_477\n        /* \"#utility.yul\":6662:6667   */\n      dup2\n        /* \"#utility.yul\":6646:6668   */\n      tag_366\n      jump\t// in\n    tag_477:\n        /* \"#utility.yul\":6641:6644   */\n      dup3\n        /* \"#utility.yul\":6634:6669   */\n      mstore\n        /* \"#utility.yul\":6563:6675   */\n      pop\n      pop\n      jump\t// out\n        /* \"#utility.yul\":6681:6895   */\n    tag_87:\n        /* \"#utility.yul\":6770:6774   */\n      0x00\n        /* \"#utility.yul\":6808:6810   */\n      0x20\n        /* \"#utility.yul\":6797:6806   */\n      dup3\n        /* \"#utility.yul\":6793:6811   */\n      add\n        /* \"#utility.yul\":6785:6811   */\n      swap1\n      pop\n        /* \"#utility.yul\":6821:6888   */\n      tag_479\n        /* \"#utility.yul\":6885:6886   */\n      0x00\n        /* \"#utility.yul\":6874:6883   */\n      dup4\n        /* \"#utility.yul\":6870:6887   */\n      add\n        /* \"#utility.yul\":6861:6867   */\n      dup5\n        /* \"#utility.yul\":6821:6888   */\n      tag_367\n      jump\t// in\n    tag_479:\n        /* \"#utility.yul\":6681:6895   */\n      swap3\n      swap2\n      pop\n      pop\n      jump\t// out\n        /* \"#utility.yul\":6901:7019   */\n    tag_368:\n        /* \"#utility.yul\":6988:7012   */\n      tag_481\n        /* \"#utility.yul\":7006:7011   */\n      dup2\n        /* \"#utility.yul\":6988:7012   */\n      tag_350\n      jump\t// in\n    tag_481:\n        /* \"#utility.yul\":6983:6986   */\n      dup3\n        /* \"#utility.yul\":6976:7013   */\n      mstore\n        /* \"#utility.yul\":6901:7019   */\n      pop\n      pop\n      jump\t// out\n        /* \"#utility.yul\":7025:7247   */\n    tag_98:\n        /* \"#utility.yul\":7118:7122   */\n      0x00\n        /* \"#utility.yul\":7156:7158   */\n      0x20\n        /* \"#utility.yul\":7145:7154   */\n      dup3\n        /* \"#utility.yul\":7141:7159   */\n      add\n        /* \"#utility.yul\":7133:7159   */\n      swap1\n      pop\n        /* \"#utility.yul\":7169:7240   */\n      tag_483\n        /* \"#utility.yul\":7237:7238   */\n      0x00\n        /* \"#utility.yul\":7226:7235   */\n      dup4\n        /* \"#utility.yul\":7222:7239   */\n      add\n        /* \"#utility.yul\":7213:7219   */\n      dup5\n        /* \"#utility.yul\":7169:7240   */\n      tag_368\n      jump\t// in\n    tag_483:\n        /* \"#utility.yul\":7025:7247   */\n      swap3\n      swap2\n      pop\n      pop\n      jump\t// out\n        /* \"#utility.yul\":7253:7582   */\n    tag_101:\n        /* \"#utility.yul\":7312:7318   */\n      0x00\n        /* \"#utility.yul\":7361:7363   */\n      0x20\n        /* \"#utility.yul\":7349:7358   */\n      dup3\n        /* \"#utility.yul\":7340:7347   */\n      dup5\n        /* \"#utility.yul\":7336:7359   */\n      sub\n        /* \"#utility.yul\":7332:7364   */\n      slt\n        /* \"#utility.yul\":7329:7448   */\n      iszero\n      tag_485\n      jumpi\n        /* \"#utility.yul\":7367:7446   */\n      tag_486\n      tag_347\n      jump\t// in\n    tag_486:\n        /* \"#utility.yul\":7329:7448   */\n    tag_485:\n        /* \"#utility.yul\":7487:7488   */\n      0x00\n        /* \"#utility.yul\":7512:7565   */\n      tag_487\n        /* \"#utility.yul\":7557:7564   */\n      dup5\n        /* \"#utility.yul\":7548:7554   */\n      dup3\n        /* \"#utility.yul\":7537:7546   */\n      dup6\n        /* \"#utility.yul\":7533:7555   */\n      add\n        /* \"#utility.yul\":7512:7565   */\n      tag_355\n      jump\t// in\n    tag_487:\n        /* \"#utility.yul\":7502:7565   */\n      swap2\n      pop\n        /* \"#utility.yul\":7458:7575   */\n      pop\n        /* \"#utility.yul\":7253:7582   */\n      swap3\n      swap2\n      pop\n      pop\n      jump\t// out\n        /* \"#utility.yul\":7588:8062   */\n    tag_146:\n        /* \"#utility.yul\":7656:7662   */\n      0x00\n        /* \"#utility.yul\":7664:7670   */\n      dup1\n        /* \"#utility.yul\":7713:7715   */\n      0x40\n        /* \"#utility.yul\":7701:7710   */\n      dup4\n        /* \"#utility.yul\":7692:7699   */\n      dup6\n        /* \"#utility.yul\":7688:7711   */\n      sub\n        /* \"#utility.yul\":7684:7716   */\n      slt\n        /* \"#utility.yul\":7681:7800   */\n      iszero\n      tag_489\n      jumpi\n        /* \"#utility.yul\":7719:7798   */\n      tag_490\n      tag_347\n      jump\t// in\n    tag_490:\n        /* \"#utility.yul\":7681:7800   */\n    tag_489:\n        /* \"#utility.yul\":7839:7840   */\n      0x00\n        /* \"#utility.yul\":7864:7917   */\n      tag_491\n        /* \"#utility.yul\":7909:7916   */\n      dup6\n        /* \"#utility.yul\":7900:7906   */\n      dup3\n        /* \"#utility.yul\":7889:7898   */\n      dup7\n        /* \"#utility.yul\":7885:7907   */\n      add\n        /* \"#utility.yul\":7864:7917   */\n      tag_352\n      jump\t// in\n    tag_491:\n        /* \"#utility.yul\":7854:7917   */\n      swap3\n      pop\n        /* \"#utility.yul\":7810:7927   */\n      pop\n        /* \"#utility.yul\":7966:7968   */\n      0x20\n        /* \"#utility.yul\":7992:8045   */\n      tag_492\n        /* \"#utility.yul\":8037:8044   */\n      dup6\n        /* \"#utility.yul\":8028:8034   */\n      dup3\n        /* \"#utility.yul\":8017:8026   */\n      dup7\n        /* \"#utility.yul\":8013:8035   */\n      add\n        /* \"#utility.yul\":7992:8045   */\n      tag_352\n      jump\t// in\n    tag_492:\n        /* \"#utility.yul\":7982:8045   */\n      swap2\n      pop\n        /* \"#utility.yul\":7937:8055   */\n      pop\n        /* \"#utility.yul\":7588:8062   */\n      swap3\n      pop\n      swap3\n      swap1\n      pop\n      jump\t// out\n        /* \"#utility.yul\":8068:8248   */\n    tag_369:\n        /* \"#utility.yul\":8116:8193   */\n      0x4e487b7100000000000000000000000000000000000000000000000000000000\n        /* \"#utility.yul\":8113:8114   */\n      0x00\n        /* \"#utility.yul\":8106:8194   */\n      mstore\n        /* \"#utility.yul\":8213:8217   */\n      0x22\n        /* \"#utility.yul\":8210:8211   */\n      0x04\n        /* \"#utility.yul\":8203:8218   */\n      mstore\n        /* \"#utility.yul\":8237:8241   */\n      0x24\n        /* \"#utility.yul\":8234:8235   */\n      0x00\n        /* \"#utility.yul\":8227:8242   */\n      revert\n        /* \"#utility.yul\":8254:8574   */\n    tag_160:\n        /* \"#utility.yul\":8298:8304   */\n      0x00\n        /* \"#utility.yul\":8335:8336   */\n      0x02\n        /* \"#utility.yul\":8329:8333   */\n      dup3\n        /* \"#utility.yul\":8325:8337   */\n      div\n        /* \"#utility.yul\":8315:8337   */\n      swap1\n      pop\n        /* \"#utility.yul\":8382:8383   */\n      0x01\n        /* \"#utility.yul\":8376:8380   */\n      dup3\n        /* \"#utility.yul\":8372:8384   */\n      and\n        /* \"#utility.yul\":8403:8421   */\n      dup1\n        /* \"#utility.yul\":8393:8474   */\n      tag_495\n      jumpi\n        /* \"#utility.yul\":8459:8463   */\n      0x7f\n        /* \"#utility.yul\":8451:8457   */\n      dup3\n        /* \"#utility.yul\":8447:8464   */\n      and\n        /* \"#utility.yul\":8437:8464   */\n      swap2\n      pop\n        /* \"#utility.yul\":8393:8474   */\n    tag_495:\n        /* \"#utility.yul\":8521:8523   */\n      0x20\n        /* \"#utility.yul\":8513:8519   */\n      dup3\n        /* \"#utility.yul\":8510:8524   */\n      lt\n        /* \"#utility.yul\":8490:8508   */\n      dup2\n        /* \"#utility.yul\":8487:8525   */\n      sub\n        /* \"#utility.yul\":8484:8568   */\n      tag_496\n      jumpi\n        /* \"#utility.yul\":8540:8558   */\n      tag_497\n      tag_369\n      jump\t// in\n    tag_497:\n        /* \"#utility.yul\":8484:8568   */\n    tag_496:\n        /* \"#utility.yul\":8305:8574   */\n      pop\n        /* \"#utility.yul\":8254:8574   */\n      swap2\n      swap1\n      pop\n      jump\t// out\n        /* \"#utility.yul\":8580:8760   */\n    tag_370:\n        /* \"#utility.yul\":8628:8705   */\n      0x4e487b7100000000000000000000000000000000000000000000000000000000\n        /* \"#utility.yul\":8625:8626   */\n      0x00\n        /* \"#utility.yul\":8618:8706   */\n      mstore\n        /* \"#utility.yul\":8725:8729   */\n      0x11\n        /* \"#utility.yul\":8722:8723   */\n      0x04\n        /* \"#utility.yul\":8715:8730   */\n      mstore\n        /* \"#utility.yul\":8749:8753   */\n      0x24\n        /* \"#utility.yul\":8746:8747   */\n      0x00\n        /* \"#utility.yul\":8739:8754   */\n      revert\n        /* \"#utility.yul\":8766:8957   */\n    tag_190:\n        /* \"#utility.yul\":8806:8809   */\n      0x00\n        /* \"#utility.yul\":8825:8845   */\n      tag_500\n        /* \"#utility.yul\":8843:8844   */\n      dup3\n        /* \"#utility.yul\":8825:8845   */\n      tag_353\n      jump\t// in\n    tag_500:\n        /* \"#utility.yul\":8820:8845   */\n      swap2\n      pop\n        /* \"#utility.yul\":8859:8879   */\n      tag_501\n        /* \"#utility.yul\":8877:8878   */\n      dup4\n        /* \"#utility.yul\":8859:8879   */\n      tag_353\n      jump\t// in\n    tag_501:\n        /* \"#utility.yul\":8854:8879   */\n      swap3\n      pop\n        /* \"#utility.yul\":8902:8903   */\n      dup3\n        /* \"#utility.yul\":8899:8900   */\n      dup3\n        /* \"#utility.yul\":8895:8904   */\n      add\n        /* \"#utility.yul\":8888:8904   */\n      swap1\n      pop\n        /* \"#utility.yul\":8923:8926   */\n      dup1\n        /* \"#utility.yul\":8920:8921   */\n      dup3\n        /* \"#utility.yul\":8917:8927   */\n      gt\n        /* \"#utility.yul\":8914:8950   */\n      iszero\n      tag_502\n      jumpi\n        /* \"#utility.yul\":8930:8948   */\n      tag_503\n      tag_370\n      jump\t// in\n    tag_503:\n        /* \"#utility.yul\":8914:8950   */\n    tag_502:\n        /* \"#utility.yul\":8766:8957   */\n      swap3\n      swap2\n      pop\n      pop\n      jump\t// out\n        /* \"#utility.yul\":8963:9048   */\n    tag_371:\n        /* \"#utility.yul\":9008:9015   */\n      0x00\n        /* \"#utility.yul\":9037:9042   */\n      dup2\n        /* \"#utility.yul\":9026:9042   */\n      swap1\n      pop\n        /* \"#utility.yul\":8963:9048   */\n      swap2\n      swap1\n      pop\n      jump\t// out\n        /* \"#utility.yul\":9054:9212   */\n    tag_372:\n        /* \"#utility.yul\":9112:9121   */\n      0x00\n        /* \"#utility.yul\":9145:9206   */\n      tag_506\n        /* \"#utility.yul\":9163:9205   */\n      tag_507\n        /* \"#utility.yul\":9172:9204   */\n      tag_508\n        /* \"#utility.yul\":9198:9203   */\n      dup5\n        /* \"#utility.yul\":9172:9204   */\n      tag_371\n      jump\t// in\n    tag_508:\n        /* \"#utility.yul\":9163:9205   */\n      tag_360\n      jump\t// in\n    tag_507:\n        /* \"#utility.yul\":9145:9206   */\n      tag_353\n      jump\t// in\n    tag_506:\n        /* \"#utility.yul\":9132:9206   */\n      swap1\n      pop\n        /* \"#utility.yul\":9054:9212   */\n      swap2\n      swap1\n      pop\n      jump\t// out\n        /* \"#utility.yul\":9218:9365   */\n    tag_373:\n        /* \"#utility.yul\":9313:9358   */\n      tag_510\n        /* \"#utility.yul\":9352:9357   */\n      dup2\n        /* \"#utility.yul\":9313:9358   */\n      tag_372\n      jump\t// in\n    tag_510:\n        /* \"#utility.yul\":9308:9311   */\n      dup3\n        /* \"#utility.yul\":9301:9359   */\n      mstore\n        /* \"#utility.yul\":9218:9365   */\n      pop\n      pop\n      jump\t// out\n        /* \"#utility.yul\":9371:10178   */\n    tag_206:\n        /* \"#utility.yul\":9620:9624   */\n      0x00\n        /* \"#utility.yul\":9658:9661   */\n      0xc0\n        /* \"#utility.yul\":9647:9656   */\n      dup3\n        /* \"#utility.yul\":9643:9662   */\n      add\n        /* \"#utility.yul\":9635:9662   */\n      swap1\n      pop\n        /* \"#utility.yul\":9672:9743   */\n      tag_512\n        /* \"#utility.yul\":9740:9741   */\n      0x00\n        /* \"#utility.yul\":9729:9738   */\n      dup4\n        /* \"#utility.yul\":9725:9742   */\n      add\n        /* \"#utility.yul\":9716:9722   */\n      dup10\n        /* \"#utility.yul\":9672:9743   */\n      tag_368\n      jump\t// in\n    tag_512:\n        /* \"#utility.yul\":9753:9825   */\n      tag_513\n        /* \"#utility.yul\":9821:9823   */\n      0x20\n        /* \"#utility.yul\":9810:9819   */\n      dup4\n        /* \"#utility.yul\":9806:9824   */\n      add\n        /* \"#utility.yul\":9797:9803   */\n      dup9\n        /* \"#utility.yul\":9753:9825   */\n      tag_365\n      jump\t// in\n    tag_513:\n        /* \"#utility.yul\":9835:9915   */\n      tag_514\n        /* \"#utility.yul\":9911:9913   */\n      0x40\n        /* \"#utility.yul\":9900:9909   */\n      dup4\n        /* \"#utility.yul\":9896:9914   */\n      add\n        /* \"#utility.yul\":9887:9893   */\n      dup8\n        /* \"#utility.yul\":9835:9915   */\n      tag_373\n      jump\t// in\n    tag_514:\n        /* \"#utility.yul\":9925:10005   */\n      tag_515\n        /* \"#utility.yul\":10001:10003   */\n      0x60\n        /* \"#utility.yul\":9990:9999   */\n      dup4\n        /* \"#utility.yul\":9986:10004   */\n      add\n        /* \"#utility.yul\":9977:9983   */\n      dup7\n        /* \"#utility.yul\":9925:10005   */\n      tag_373\n      jump\t// in\n    tag_515:\n        /* \"#utility.yul\":10015:10088   */\n      tag_516\n        /* \"#utility.yul\":10083:10086   */\n      0x80\n        /* \"#utility.yul\":10072:10081   */\n      dup4\n        /* \"#utility.yul\":10068:10087   */\n      add\n        /* \"#utility.yul\":10059:10065   */\n      dup6\n        /* \"#utility.yul\":10015:10088   */\n      tag_368\n      jump\t// in\n    tag_516:\n        /* \"#utility.yul\":10098:10171   */\n      tag_517\n        /* \"#utility.yul\":10166:10169   */\n      0xa0\n        /* \"#utility.yul\":10155:10164   */\n      dup4\n        /* \"#utility.yul\":10151:10170   */\n      add\n        /* \"#utility.yul\":10142:10148   */\n      dup5\n        /* \"#utility.yul\":10098:10171   */\n      tag_365\n      jump\t// in\n    tag_517:\n        /* \"#utility.yul\":9371:10178   */\n      swap8\n      swap7\n      pop\n      pop\n      pop\n      pop\n      pop\n      pop\n      pop\n      jump\t// out\n        /* \"#utility.yul\":10184:10327   */\n    tag_374:\n        /* \"#utility.yul\":10241:10246   */\n      0x00\n        /* \"#utility.yul\":10272:10278   */\n      dup2\n        /* \"#utility.yul\":10266:10279   */\n      mload\n        /* \"#utility.yul\":10257:10279   */\n      swap1\n      pop\n        /* \"#utility.yul\":10288:10321   */\n      tag_519\n        /* \"#utility.yul\":10315:10320   */\n      dup2\n        /* \"#utility.yul\":10288:10321   */\n      tag_354\n      jump\t// in\n    tag_519:\n        /* \"#utility.yul\":10184:10327   */\n      swap3\n      swap2\n      pop\n      pop\n      jump\t// out\n        /* \"#utility.yul\":10333:10840   */\n    tag_210:\n        /* \"#utility.yul\":10412:10418   */\n      0x00\n        /* \"#utility.yul\":10420:10426   */\n      dup1\n        /* \"#utility.yul\":10469:10471   */\n      0x40\n        /* \"#utility.yul\":10457:10466   */\n      dup4\n        /* \"#utility.yul\":10448:10455   */\n      dup6\n        /* \"#utility.yul\":10444:10467   */\n      sub\n        /* \"#utility.yul\":10440:10472   */\n      slt\n        /* \"#utility.yul\":10437:10556   */\n      iszero\n      tag_521\n      jumpi\n        /* \"#utility.yul\":10475:10554   */\n      tag_522\n      tag_347\n      jump\t// in\n    tag_522:\n        /* \"#utility.yul\":10437:10556   */\n    tag_521:\n        /* \"#utility.yul\":10595:10596   */\n      0x00\n        /* \"#utility.yul\":10620:10684   */\n      tag_523\n        /* \"#utility.yul\":10676:10683   */\n      dup6\n        /* \"#utility.yul\":10667:10673   */\n      dup3\n        /* \"#utility.yul\":10656:10665   */\n      dup7\n        /* \"#utility.yul\":10652:10674   */\n      add\n        /* \"#utility.yul\":10620:10684   */\n      tag_374\n      jump\t// in\n    tag_523:\n        /* \"#utility.yul\":10610:10684   */\n      swap3\n      pop\n        /* \"#utility.yul\":10566:10694   */\n      pop\n        /* \"#utility.yul\":10733:10735   */\n      0x20\n        /* \"#utility.yul\":10759:10823   */\n      tag_524\n        /* \"#utility.yul\":10815:10822   */\n      dup6\n        /* \"#utility.yul\":10806:10812   */\n      dup3\n        /* \"#utility.yul\":10795:10804   */\n      dup7\n        /* \"#utility.yul\":10791:10813   */\n      add\n        /* \"#utility.yul\":10759:10823   */\n      tag_374\n      jump\t// in\n    tag_524:\n        /* \"#utility.yul\":10749:10823   */\n      swap2\n      pop\n        /* \"#utility.yul\":10704:10833   */\n      pop\n        /* \"#utility.yul\":10333:10840   */\n      swap3\n      pop\n      swap3\n      swap1\n      pop\n      jump\t// out\n        /* \"#utility.yul\":10846:11070   */\n    tag_375:\n        /* \"#utility.yul\":10986:11020   */\n      0x45524332303a2064656372656173656420616c6c6f77616e63652062656c6f77\n        /* \"#utility.yul\":10982:10983   */\n      0x00\n        /* \"#utility.yul\":10974:10980   */\n      dup3\n        /* \"#utility.yul\":10970:10984   */\n      add\n        /* \"#utility.yul\":10963:11021   */\n      mstore\n        /* \"#utility.yul\":11055:11062   */\n      0x207a65726f000000000000000000000000000000000000000000000000000000\n        /* \"#utility.yul\":11050:11052   */\n      0x20\n        /* \"#utility.yul\":11042:11048   */\n      dup3\n        /* \"#utility.yul\":11038:11053   */\n      add\n        /* \"#utility.yul\":11031:11063   */\n      mstore\n        /* \"#utility.yul\":10846:11070   */\n      pop\n      jump\t// out\n        /* \"#utility.yul\":11076:11442   */\n    tag_376:\n        /* \"#utility.yul\":11218:11221   */\n      0x00\n        /* \"#utility.yul\":11239:11306   */\n      tag_527\n        /* \"#utility.yul\":11303:11305   */\n      0x25\n        /* \"#utility.yul\":11298:11301   */\n      dup4\n        /* \"#utility.yul\":11239:11306   */\n      tag_342\n      jump\t// in\n    tag_527:\n        /* \"#utility.yul\":11232:11306   */\n      swap2\n      pop\n        /* \"#utility.yul\":11315:11408   */\n      tag_528\n        /* \"#utility.yul\":11404:11407   */\n      dup3\n        /* \"#utility.yul\":11315:11408   */\n      tag_375\n      jump\t// in\n    tag_528:\n        /* \"#utility.yul\":11433:11435   */\n      0x40\n        /* \"#utility.yul\":11428:11431   */\n      dup3\n        /* \"#utility.yul\":11424:11436   */\n      add\n        /* \"#utility.yul\":11417:11436   */\n      swap1\n      pop\n        /* \"#utility.yul\":11076:11442   */\n      swap2\n      swap1\n      pop\n      jump\t// out\n        /* \"#utility.yul\":11448:11867   */\n    tag_228:\n        /* \"#utility.yul\":11614:11618   */\n      0x00\n        /* \"#utility.yul\":11652:11654   */\n      0x20\n        /* \"#utility.yul\":11641:11650   */\n      dup3\n        /* \"#utility.yul\":11637:11655   */\n      add\n        /* \"#utility.yul\":11629:11655   */\n      swap1\n      pop\n        /* \"#utility.yul\":11701:11710   */\n      dup2\n        /* \"#utility.yul\":11695:11699   */\n      dup2\n        /* \"#utility.yul\":11691:11711   */\n      sub\n        /* \"#utility.yul\":11687:11688   */\n      0x00\n        /* \"#utility.yul\":11676:11685   */\n      dup4\n        /* \"#utility.yul\":11672:11689   */\n      add\n        /* \"#utility.yul\":11665:11712   */\n      mstore\n        /* \"#utility.yul\":11729:11860   */\n      tag_530\n        /* \"#utility.yul\":11855:11859   */\n      dup2\n        /* \"#utility.yul\":11729:11860   */\n      tag_376\n      jump\t// in\n    tag_530:\n        /* \"#utility.yul\":11721:11860   */\n      swap1\n      pop\n        /* \"#utility.yul\":11448:11867   */\n      swap2\n      swap1\n      pop\n      jump\t// out\n        /* \"#utility.yul\":11873:12093   */\n    tag_377:\n        /* \"#utility.yul\":12013:12047   */\n      0x44656265207472616e73666572697220616c206d656e6f7320756e20746f6b65\n        /* \"#utility.yul\":12009:12010   */\n      0x00\n        /* \"#utility.yul\":12001:12007   */\n      dup3\n        /* \"#utility.yul\":11997:12011   */\n      add\n        /* \"#utility.yul\":11990:12048   */\n      mstore\n        /* \"#utility.yul\":12082:12085   */\n      0x6e00000000000000000000000000000000000000000000000000000000000000\n        /* \"#utility.yul\":12077:12079   */\n      0x20\n        /* \"#utility.yul\":12069:12075   */\n      dup3\n        /* \"#utility.yul\":12065:12080   */\n      add\n        /* \"#utility.yul\":12058:12086   */\n      mstore\n        /* \"#utility.yul\":11873:12093   */\n      pop\n      jump\t// out\n        /* \"#utility.yul\":12099:12465   */\n    tag_378:\n        /* \"#utility.yul\":12241:12244   */\n      0x00\n        /* \"#utility.yul\":12262:12329   */\n      tag_533\n        /* \"#utility.yul\":12326:12328   */\n      0x21\n        /* \"#utility.yul\":12321:12324   */\n      dup4\n        /* \"#utility.yul\":12262:12329   */\n      tag_342\n      jump\t// in\n    tag_533:\n        /* \"#utility.yul\":12255:12329   */\n      swap2\n      pop\n        /* \"#utility.yul\":12338:12431   */\n      tag_534\n        /* \"#utility.yul\":12427:12430   */\n      dup3\n        /* \"#utility.yul\":12338:12431   */\n      tag_377\n      jump\t// in\n    tag_534:\n        /* \"#utility.yul\":12456:12458   */\n      0x40\n        /* \"#utility.yul\":12451:12454   */\n      dup3\n        /* \"#utility.yul\":12447:12459   */\n      add\n        /* \"#utility.yul\":12440:12459   */\n      swap1\n      pop\n        /* \"#utility.yul\":12099:12465   */\n      swap2\n      swap1\n      pop\n      jump\t// out\n        /* \"#utility.yul\":12471:12890   */\n    tag_233:\n        /* \"#utility.yul\":12637:12641   */\n      0x00\n        /* \"#utility.yul\":12675:12677   */\n      0x20\n        /* \"#utility.yul\":12664:12673   */\n      dup3\n        /* \"#utility.yul\":12660:12678   */\n      add\n        /* \"#utility.yul\":12652:12678   */\n      swap1\n      pop\n        /* \"#utility.yul\":12724:12733   */\n      dup2\n        /* \"#utility.yul\":12718:12722   */\n      dup2\n        /* \"#utility.yul\":12714:12734   */\n      sub\n        /* \"#utility.yul\":12710:12711   */\n      0x00\n        /* \"#utility.yul\":12699:12708   */\n      dup4\n        /* \"#utility.yul\":12695:12712   */\n      add\n        /* \"#utility.yul\":12688:12735   */\n      mstore\n        /* \"#utility.yul\":12752:12883   */\n      tag_536\n        /* \"#utility.yul\":12878:12882   */\n      dup2\n        /* \"#utility.yul\":12752:12883   */\n      tag_378\n      jump\t// in\n    tag_536:\n        /* \"#utility.yul\":12744:12883   */\n      swap1\n      pop\n        /* \"#utility.yul\":12471:12890   */\n      swap2\n      swap1\n      pop\n      jump\t// out\n        /* \"#utility.yul\":12896:13306   */\n    tag_235:\n        /* \"#utility.yul\":12936:12943   */\n      0x00\n        /* \"#utility.yul\":12959:12979   */\n      tag_538\n        /* \"#utility.yul\":12977:12978   */\n      dup3\n        /* \"#utility.yul\":12959:12979   */\n      tag_353\n      jump\t// in\n    tag_538:\n        /* \"#utility.yul\":12954:12979   */\n      swap2\n      pop\n        /* \"#utility.yul\":12993:13013   */\n      tag_539\n        /* \"#utility.yul\":13011:13012   */\n      dup4\n        /* \"#utility.yul\":12993:13013   */\n      tag_353\n      jump\t// in\n    tag_539:\n        /* \"#utility.yul\":12988:13013   */\n      swap3\n      pop\n        /* \"#utility.yul\":13048:13049   */\n      dup3\n        /* \"#utility.yul\":13045:13046   */\n      dup3\n        /* \"#utility.yul\":13041:13050   */\n      mul\n        /* \"#utility.yul\":13070:13100   */\n      tag_540\n        /* \"#utility.yul\":13088:13099   */\n      dup2\n        /* \"#utility.yul\":13070:13100   */\n      tag_353\n      jump\t// in\n    tag_540:\n        /* \"#utility.yul\":13059:13100   */\n      swap2\n      pop\n        /* \"#utility.yul\":13249:13250   */\n      dup3\n        /* \"#utility.yul\":13240:13247   */\n      dup3\n        /* \"#utility.yul\":13236:13251   */\n      div\n        /* \"#utility.yul\":13233:13234   */\n      dup5\n        /* \"#utility.yul\":13230:13252   */\n      eq\n        /* \"#utility.yul\":13210:13211   */\n      dup4\n        /* \"#utility.yul\":13203:13212   */\n      iszero\n        /* \"#utility.yul\":13183:13266   */\n      or\n        /* \"#utility.yul\":13160:13299   */\n      tag_541\n      jumpi\n        /* \"#utility.yul\":13279:13297   */\n      tag_542\n      tag_370\n      jump\t// in\n    tag_542:\n        /* \"#utility.yul\":13160:13299   */\n    tag_541:\n        /* \"#utility.yul\":12944:13306   */\n      pop\n        /* \"#utility.yul\":12896:13306   */\n      swap3\n      swap2\n      pop\n      pop\n      jump\t// out\n        /* \"#utility.yul\":13312:13492   */\n    tag_379:\n        /* \"#utility.yul\":13360:13437   */\n      0x4e487b7100000000000000000000000000000000000000000000000000000000\n        /* \"#utility.yul\":13357:13358   */\n      0x00\n        /* \"#utility.yul\":13350:13438   */\n      mstore\n        /* \"#utility.yul\":13457:13461   */\n      0x12\n        /* \"#utility.yul\":13454:13455   */\n      0x04\n        /* \"#utility.yul\":13447:13462   */\n      mstore\n        /* \"#utility.yul\":13481:13485   */\n      0x24\n        /* \"#utility.yul\":13478:13479   */\n      0x00\n        /* \"#utility.yul\":13471:13486   */\n      revert\n        /* \"#utility.yul\":13498:13683   */\n    tag_237:\n        /* \"#utility.yul\":13538:13539   */\n      0x00\n        /* \"#utility.yul\":13555:13575   */\n      tag_545\n        /* \"#utility.yul\":13573:13574   */\n      dup3\n        /* \"#utility.yul\":13555:13575   */\n      tag_353\n      jump\t// in\n    tag_545:\n        /* \"#utility.yul\":13550:13575   */\n      swap2\n      pop\n        /* \"#utility.yul\":13589:13609   */\n      tag_546\n        /* \"#utility.yul\":13607:13608   */\n      dup4\n        /* \"#utility.yul\":13589:13609   */\n      tag_353\n      jump\t// in\n    tag_546:\n        /* \"#utility.yul\":13584:13609   */\n      swap3\n      pop\n        /* \"#utility.yul\":13628:13629   */\n      dup3\n        /* \"#utility.yul\":13618:13653   */\n      tag_547\n      jumpi\n        /* \"#utility.yul\":13633:13651   */\n      tag_548\n      tag_379\n      jump\t// in\n    tag_548:\n        /* \"#utility.yul\":13618:13653   */\n    tag_547:\n        /* \"#utility.yul\":13675:13676   */\n      dup3\n        /* \"#utility.yul\":13672:13673   */\n      dup3\n        /* \"#utility.yul\":13668:13677   */\n      div\n        /* \"#utility.yul\":13663:13677   */\n      swap1\n      pop\n        /* \"#utility.yul\":13498:13683   */\n      swap3\n      swap2\n      pop\n      pop\n      jump\t// out\n        /* \"#utility.yul\":13689:13883   */\n    tag_239:\n        /* \"#utility.yul\":13729:13733   */\n      0x00\n        /* \"#utility.yul\":13749:13769   */\n      tag_550\n        /* \"#utility.yul\":13767:13768   */\n      dup3\n        /* \"#utility.yul\":13749:13769   */\n      tag_353\n      jump\t// in\n    tag_550:\n        /* \"#utility.yul\":13744:13769   */\n      swap2\n      pop\n        /* \"#utility.yul\":13783:13803   */\n      tag_551\n        /* \"#utility.yul\":13801:13802   */\n      dup4\n        /* \"#utility.yul\":13783:13803   */\n      tag_353\n      jump\t// in\n    tag_551:\n        /* \"#utility.yul\":13778:13803   */\n      swap3\n      pop\n        /* \"#utility.yul\":13827:13828   */\n      dup3\n        /* \"#utility.yul\":13824:13825   */\n      dup3\n        /* \"#utility.yul\":13820:13829   */\n      sub\n        /* \"#utility.yul\":13812:13829   */\n      swap1\n      pop\n        /* \"#utility.yul\":13851:13852   */\n      dup2\n        /* \"#utility.yul\":13845:13849   */\n      dup2\n        /* \"#utility.yul\":13842:13853   */\n      gt\n        /* \"#utility.yul\":13839:13876   */\n      iszero\n      tag_552\n      jumpi\n        /* \"#utility.yul\":13856:13874   */\n      tag_553\n      tag_370\n      jump\t// in\n    tag_553:\n        /* \"#utility.yul\":13839:13876   */\n    tag_552:\n        /* \"#utility.yul\":13689:13883   */\n      swap3\n      swap2\n      pop\n      pop\n      jump\t// out\n        /* \"#utility.yul\":13889:14552   */\n    tag_277:\n        /* \"#utility.yul\":13977:13983   */\n      0x00\n        /* \"#utility.yul\":13985:13991   */\n      dup1\n        /* \"#utility.yul\":13993:13999   */\n      0x00\n        /* \"#utility.yul\":14042:14044   */\n      0x60\n        /* \"#utility.yul\":14030:14039   */\n      dup5\n        /* \"#utility.yul\":14021:14028   */\n      dup7\n        /* \"#utility.yul\":14017:14040   */\n      sub\n        /* \"#utility.yul\":14013:14045   */\n      slt\n        /* \"#utility.yul\":14010:14129   */\n      iszero\n      tag_555\n      jumpi\n        /* \"#utility.yul\":14048:14127   */\n      tag_556\n      tag_347\n      jump\t// in\n    tag_556:\n        /* \"#utility.yul\":14010:14129   */\n    tag_555:\n        /* \"#utility.yul\":14168:14169   */\n      0x00\n        /* \"#utility.yul\":14193:14257   */\n      tag_557\n        /* \"#utility.yul\":14249:14256   */\n      dup7\n        /* \"#utility.yul\":14240:14246   */\n      dup3\n        /* \"#utility.yul\":14229:14238   */\n      dup8\n        /* \"#utility.yul\":14225:14247   */\n      add\n        /* \"#utility.yul\":14193:14257   */\n      tag_374\n      jump\t// in\n    tag_557:\n        /* \"#utility.yul\":14183:14257   */\n      swap4\n      pop\n        /* \"#utility.yul\":14139:14267   */\n      pop\n        /* \"#utility.yul\":14306:14308   */\n      0x20\n        /* \"#utility.yul\":14332:14396   */\n      tag_558\n        /* \"#utility.yul\":14388:14395   */\n      dup7\n        /* \"#utility.yul\":14379:14385   */\n      dup3\n        /* \"#utility.yul\":14368:14377   */\n      dup8\n        /* \"#utility.yul\":14364:14386   */\n      add\n        /* \"#utility.yul\":14332:14396   */\n      tag_374\n      jump\t// in\n    tag_558:\n        /* \"#utility.yul\":14322:14396   */\n      swap3\n      pop\n        /* \"#utility.yul\":14277:14406   */\n      pop\n        /* \"#utility.yul\":14445:14447   */\n      0x40\n        /* \"#utility.yul\":14471:14535   */\n      tag_559\n        /* \"#utility.yul\":14527:14534   */\n      dup7\n        /* \"#utility.yul\":14518:14524   */\n      dup3\n        /* \"#utility.yul\":14507:14516   */\n      dup8\n        /* \"#utility.yul\":14503:14525   */\n      add\n        /* \"#utility.yul\":14471:14535   */\n      tag_374\n      jump\t// in\n    tag_559:\n        /* \"#utility.yul\":14461:14535   */\n      swap2\n      pop\n        /* \"#utility.yul\":14416:14545   */\n      pop\n        /* \"#utility.yul\":13889:14552   */\n      swap3\n      pop\n      swap3\n      pop\n      swap3\n      jump\t// out\n        /* \"#utility.yul\":14558:14783   */\n    tag_380:\n        /* \"#utility.yul\":14698:14732   */\n      0x4f776e61626c653a206e6577206f776e657220697320746865207a65726f2061\n        /* \"#utility.yul\":14694:14695   */\n      0x00\n        /* \"#utility.yul\":14686:14692   */\n      dup3\n        /* \"#utility.yul\":14682:14696   */\n      add\n        /* \"#utility.yul\":14675:14733   */\n      mstore\n        /* \"#utility.yul\":14767:14775   */\n      0x6464726573730000000000000000000000000000000000000000000000000000\n        /* \"#utility.yul\":14762:14764   */\n      0x20\n        /* \"#utility.yul\":14754:14760   */\n      dup3\n        /* \"#utility.yul\":14750:14765   */\n      add\n        /* \"#utility.yul\":14743:14776   */\n      mstore\n        /* \"#utility.yul\":14558:14783   */\n      pop\n      jump\t// out\n        /* \"#utility.yul\":14789:15155   */\n    tag_381:\n        /* \"#utility.yul\":14931:14934   */\n      0x00\n        /* \"#utility.yul\":14952:15019   */\n      tag_562\n        /* \"#utility.yul\":15016:15018   */\n      0x26\n        /* \"#utility.yul\":15011:15014   */\n      dup4\n        /* \"#utility.yul\":14952:15019   */\n      tag_342\n      jump\t// in\n    tag_562:\n        /* \"#utility.yul\":14945:15019   */\n      swap2\n      pop\n        /* \"#utility.yul\":15028:15121   */\n      tag_563\n        /* \"#utility.yul\":15117:15120   */\n      dup3\n        /* \"#utility.yul\":15028:15121   */\n      tag_380\n      jump\t// in\n    tag_563:\n        /* \"#utility.yul\":15146:15148   */\n      0x40\n        /* \"#utility.yul\":15141:15144   */\n      dup3\n        /* \"#utility.yul\":15137:15149   */\n      add\n        /* \"#utility.yul\":15130:15149   */\n      swap1\n      pop\n        /* \"#utility.yul\":14789:15155   */\n      swap2\n      swap1\n      pop\n      jump\t// out\n        /* \"#utility.yul\":15161:15580   */\n    tag_293:\n        /* \"#utility.yul\":15327:15331   */\n      0x00\n        /* \"#utility.yul\":15365:15367   */\n      0x20\n        /* \"#utility.yul\":15354:15363   */\n      dup3\n        /* \"#utility.yul\":15350:15368   */\n      add\n        /* \"#utility.yul\":15342:15368   */\n      swap1\n      pop\n        /* \"#utility.yul\":15414:15423   */\n      dup2\n        /* \"#utility.yul\":15408:15412   */\n      dup2\n        /* \"#utility.yul\":15404:15424   */\n      sub\n        /* \"#utility.yul\":15400:15401   */\n      0x00\n        /* \"#utility.yul\":15389:15398   */\n      dup4\n        /* \"#utility.yul\":15385:15402   */\n      add\n        /* \"#utility.yul\":15378:15425   */\n      mstore\n        /* \"#utility.yul\":15442:15573   */\n      tag_565\n        /* \"#utility.yul\":15568:15572   */\n      dup2\n        /* \"#utility.yul\":15442:15573   */\n      tag_381\n      jump\t// in\n    tag_565:\n        /* \"#utility.yul\":15434:15573   */\n      swap1\n      pop\n        /* \"#utility.yul\":15161:15580   */\n      swap2\n      swap1\n      pop\n      jump\t// out\n        /* \"#utility.yul\":15586:15809   */\n    tag_382:\n        /* \"#utility.yul\":15726:15760   */\n      0x45524332303a20617070726f76652066726f6d20746865207a65726f20616464\n        /* \"#utility.yul\":15722:15723   */\n      0x00\n        /* \"#utility.yul\":15714:15720   */\n      dup3\n        /* \"#utility.yul\":15710:15724   */\n      add\n        /* \"#utility.yul\":15703:15761   */\n      mstore\n        /* \"#utility.yul\":15795:15801   */\n      0x7265737300000000000000000000000000000000000000000000000000000000\n        /* \"#utility.yul\":15790:15792   */\n      0x20\n        /* \"#utility.yul\":15782:15788   */\n      dup3\n        /* \"#utility.yul\":15778:15793   */\n      add\n        /* \"#utility.yul\":15771:15802   */\n      mstore\n        /* \"#utility.yul\":15586:15809   */\n      pop\n      jump\t// out\n        /* \"#utility.yul\":15815:16181   */\n    tag_383:\n        /* \"#utility.yul\":15957:15960   */\n      0x00\n        /* \"#utility.yul\":15978:16045   */\n      tag_568\n        /* \"#utility.yul\":16042:16044   */\n      0x24\n        /* \"#utility.yul\":16037:16040   */\n      dup4\n        /* \"#utility.yul\":15978:16045   */\n      tag_342\n      jump\t// in\n    tag_568:\n        /* \"#utility.yul\":15971:16045   */\n      swap2\n      pop\n        /* \"#utility.yul\":16054:16147   */\n      tag_569\n        /* \"#utility.yul\":16143:16146   */\n      dup3\n        /* \"#utility.yul\":16054:16147   */\n      tag_382\n      jump\t// in\n    tag_569:\n        /* \"#utility.yul\":16172:16174   */\n      0x40\n        /* \"#utility.yul\":16167:16170   */\n      dup3\n        /* \"#utility.yul\":16163:16175   */\n      add\n        /* \"#utility.yul\":16156:16175   */\n      swap1\n      pop\n        /* \"#utility.yul\":15815:16181   */\n      swap2\n      swap1\n      pop\n      jump\t// out\n        /* \"#utility.yul\":16187:16606   */\n    tag_302:\n        /* \"#utility.yul\":16353:16357   */\n      0x00\n        /* \"#utility.yul\":16391:16393   */\n      0x20\n        /* \"#utility.yul\":16380:16389   */\n      dup3\n        /* \"#utility.yul\":16376:16394   */\n      add\n        /* \"#utility.yul\":16368:16394   */\n      swap1\n      pop\n        /* \"#utility.yul\":16440:16449   */\n      dup2\n        /* \"#utility.yul\":16434:16438   */\n      dup2\n        /* \"#utility.yul\":16430:16450   */\n      sub\n        /* \"#utility.yul\":16426:16427   */\n      0x00\n        /* \"#utility.yul\":16415:16424   */\n      dup4\n        /* \"#utility.yul\":16411:16428   */\n      add\n        /* \"#utility.yul\":16404:16451   */\n      mstore\n        /* \"#utility.yul\":16468:16599   */\n      tag_571\n        /* \"#utility.yul\":16594:16598   */\n      dup2\n        /* \"#utility.yul\":16468:16599   */\n      tag_383\n      jump\t// in\n    tag_571:\n        /* \"#utility.yul\":16460:16599   */\n      swap1\n      pop\n        /* \"#utility.yul\":16187:16606   */\n      swap2\n      swap1\n      pop\n      jump\t// out\n        /* \"#utility.yul\":16612:16833   */\n    tag_384:\n        /* \"#utility.yul\":16752:16786   */\n      0x45524332303a20617070726f766520746f20746865207a65726f206164647265\n        /* \"#utility.yul\":16748:16749   */\n      0x00\n        /* \"#utility.yul\":16740:16746   */\n      dup3\n        /* \"#utility.yul\":16736:16750   */\n      add\n        /* \"#utility.yul\":16729:16787   */\n      mstore\n        /* \"#utility.yul\":16821:16825   */\n      0x7373000000000000000000000000000000000000000000000000000000000000\n        /* \"#utility.yul\":16816:16818   */\n      0x20\n        /* \"#utility.yul\":16808:16814   */\n      dup3\n        /* \"#utility.yul\":16804:16819   */\n      add\n        /* \"#utility.yul\":16797:16826   */\n      mstore\n        /* \"#utility.yul\":16612:16833   */\n      pop\n      jump\t// out\n        /* \"#utility.yul\":16839:17205   */\n    tag_385:\n        /* \"#utility.yul\":16981:16984   */\n      0x00\n        /* \"#utility.yul\":17002:17069   */\n      tag_574\n        /* \"#utility.yul\":17066:17068   */\n      0x22\n        /* \"#utility.yul\":17061:17064   */\n      dup4\n        /* \"#utility.yul\":17002:17069   */\n      tag_342\n      jump\t// in\n    tag_574:\n        /* \"#utility.yul\":16995:17069   */\n      swap2\n      pop\n        /* \"#utility.yul\":17078:17171   */\n      tag_575\n        /* \"#utility.yul\":17167:17170   */\n      dup3\n        /* \"#utility.yul\":17078:17171   */\n      tag_384\n      jump\t// in\n    tag_575:\n        /* \"#utility.yul\":17196:17198   */\n      0x40\n        /* \"#utility.yul\":17191:17194   */\n      dup3\n        /* \"#utility.yul\":17187:17199   */\n      add\n        /* \"#utility.yul\":17180:17199   */\n      swap1\n      pop\n        /* \"#utility.yul\":16839:17205   */\n      swap2\n      swap1\n      pop\n      jump\t// out\n        /* \"#utility.yul\":17211:17630   */\n    tag_305:\n        /* \"#utility.yul\":17377:17381   */\n      0x00\n        /* \"#utility.yul\":17415:17417   */\n      0x20\n        /* \"#utility.yul\":17404:17413   */\n      dup3\n        /* \"#utility.yul\":17400:17418   */\n      add\n        /* \"#utility.yul\":17392:17418   */\n      swap1\n      pop\n        /* \"#utility.yul\":17464:17473   */\n      dup2\n        /* \"#utility.yul\":17458:17462   */\n      dup2\n        /* \"#utility.yul\":17454:17474   */\n      sub\n        /* \"#utility.yul\":17450:17451   */\n      0x00\n        /* \"#utility.yul\":17439:17448   */\n      dup4\n        /* \"#utility.yul\":17435:17452   */\n      add\n        /* \"#utility.yul\":17428:17475   */\n      mstore\n        /* \"#utility.yul\":17492:17623   */\n      tag_577\n        /* \"#utility.yul\":17618:17622   */\n      dup2\n        /* \"#utility.yul\":17492:17623   */\n      tag_385\n      jump\t// in\n    tag_577:\n        /* \"#utility.yul\":17484:17623   */\n      swap1\n      pop\n        /* \"#utility.yul\":17211:17630   */\n      swap2\n      swap1\n      pop\n      jump\t// out\n        /* \"#utility.yul\":17636:17818   */\n    tag_386:\n        /* \"#utility.yul\":17776:17810   */\n      0x4f776e61626c653a2063616c6c6572206973206e6f7420746865206f776e6572\n        /* \"#utility.yul\":17772:17773   */\n      0x00\n        /* \"#utility.yul\":17764:17770   */\n      dup3\n        /* \"#utility.yul\":17760:17774   */\n      add\n        /* \"#utility.yul\":17753:17811   */\n      mstore\n        /* \"#utility.yul\":17636:17818   */\n      pop\n      jump\t// out\n        /* \"#utility.yul\":17824:18190   */\n    tag_387:\n        /* \"#utility.yul\":17966:17969   */\n      0x00\n        /* \"#utility.yul\":17987:18054   */\n      tag_580\n        /* \"#utility.yul\":18051:18053   */\n      0x20\n        /* \"#utility.yul\":18046:18049   */\n      dup4\n        /* \"#utility.yul\":17987:18054   */\n      tag_342\n      jump\t// in\n    tag_580:\n        /* \"#utility.yul\":17980:18054   */\n      swap2\n      pop\n        /* \"#utility.yul\":18063:18156   */\n      tag_581\n        /* \"#utility.yul\":18152:18155   */\n      dup3\n        /* \"#utility.yul\":18063:18156   */\n      tag_386\n      jump\t// in\n    tag_581:\n        /* \"#utility.yul\":18181:18183   */\n      0x20\n        /* \"#utility.yul\":18176:18179   */\n      dup3\n        /* \"#utility.yul\":18172:18184   */\n      add\n        /* \"#utility.yul\":18165:18184   */\n      swap1\n      pop\n        /* \"#utility.yul\":17824:18190   */\n      swap2\n      swap1\n      pop\n      jump\t// out\n        /* \"#utility.yul\":18196:18615   */\n    tag_312:\n        /* \"#utility.yul\":18362:18366   */\n      0x00\n        /* \"#utility.yul\":18400:18402   */\n      0x20\n        /* \"#utility.yul\":18389:18398   */\n      dup3\n        /* \"#utility.yul\":18385:18403   */\n      add\n        /* \"#utility.yul\":18377:18403   */\n      swap1\n      pop\n        /* \"#utility.yul\":18449:18458   */\n      dup2\n        /* \"#utility.yul\":18443:18447   */\n      dup2\n        /* \"#utility.yul\":18439:18459   */\n      sub\n        /* \"#utility.yul\":18435:18436   */\n      0x00\n        /* \"#utility.yul\":18424:18433   */\n      dup4\n        /* \"#utility.yul\":18420:18437   */\n      add\n        /* \"#utility.yul\":18413:18460   */\n      mstore\n        /* \"#utility.yul\":18477:18608   */\n      tag_583\n        /* \"#utility.yul\":18603:18607   */\n      dup2\n        /* \"#utility.yul\":18477:18608   */\n      tag_387\n      jump\t// in\n    tag_583:\n        /* \"#utility.yul\":18469:18608   */\n      swap1\n      pop\n        /* \"#utility.yul\":18196:18615   */\n      swap2\n      swap1\n      pop\n      jump\t// out\n        /* \"#utility.yul\":18621:18800   */\n    tag_388:\n        /* \"#utility.yul\":18761:18792   */\n      0x45524332303a20696e73756666696369656e7420616c6c6f77616e6365000000\n        /* \"#utility.yul\":18757:18758   */\n      0x00\n        /* \"#utility.yul\":18749:18755   */\n      dup3\n        /* \"#utility.yul\":18745:18759   */\n      add\n        /* \"#utility.yul\":18738:18793   */\n      mstore\n        /* \"#utility.yul\":18621:18800   */\n      pop\n      jump\t// out\n        /* \"#utility.yul\":18806:19172   */\n    tag_389:\n        /* \"#utility.yul\":18948:18951   */\n      0x00\n        /* \"#utility.yul\":18969:19036   */\n      tag_586\n        /* \"#utility.yul\":19033:19035   */\n      0x1d\n        /* \"#utility.yul\":19028:19031   */\n      dup4\n        /* \"#utility.yul\":18969:19036   */\n      tag_342\n      jump\t// in\n    tag_586:\n        /* \"#utility.yul\":18962:19036   */\n      swap2\n      pop\n        /* \"#utility.yul\":19045:19138   */\n      tag_587\n        /* \"#utility.yul\":19134:19137   */\n      dup3\n        /* \"#utility.yul\":19045:19138   */\n      tag_388\n      jump\t// in\n    tag_587:\n        /* \"#utility.yul\":19163:19165   */\n      0x20\n        /* \"#utility.yul\":19158:19161   */\n      dup3\n        /* \"#utility.yul\":19154:19166   */\n      add\n        /* \"#utility.yul\":19147:19166   */\n      swap1\n      pop\n        /* \"#utility.yul\":18806:19172   */\n      swap2\n      swap1\n      pop\n      jump\t// out\n        /* \"#utility.yul\":19178:19597   */\n    tag_318:\n        /* \"#utility.yul\":19344:19348   */\n      0x00\n        /* \"#utility.yul\":19382:19384   */\n      0x20\n        /* \"#utility.yul\":19371:19380   */\n      dup3\n        /* \"#utility.yul\":19367:19385   */\n      add\n        /* \"#utility.yul\":19359:19385   */\n      swap1\n      pop\n        /* \"#utility.yul\":19431:19440   */\n      dup2\n        /* \"#utility.yul\":19425:19429   */\n      dup2\n        /* \"#utility.yul\":19421:19441   */\n      sub\n        /* \"#utility.yul\":19417:19418   */\n      0x00\n        /* \"#utility.yul\":19406:19415   */\n      dup4\n        /* \"#utility.yul\":19402:19419   */\n      add\n        /* \"#utility.yul\":19395:19442   */\n      mstore\n        /* \"#utility.yul\":19459:19590   */\n      tag_589\n        /* \"#utility.yul\":19585:19589   */\n      dup2\n        /* \"#utility.yul\":19459:19590   */\n      tag_389\n      jump\t// in\n    tag_589:\n        /* \"#utility.yul\":19451:19590   */\n      swap1\n      pop\n        /* \"#utility.yul\":19178:19597   */\n      swap2\n      swap1\n      pop\n      jump\t// out\n        /* \"#utility.yul\":19603:19827   */\n    tag_390:\n        /* \"#utility.yul\":19743:19777   */\n      0x45524332303a207472616e736665722066726f6d20746865207a65726f206164\n        /* \"#utility.yul\":19739:19740   */\n      0x00\n        /* \"#utility.yul\":19731:19737   */\n      dup3\n        /* \"#utility.yul\":19727:19741   */\n      add\n        /* \"#utility.yul\":19720:19778   */\n      mstore\n        /* \"#utility.yul\":19812:19819   */\n      0x6472657373000000000000000000000000000000000000000000000000000000\n        /* \"#utility.yul\":19807:19809   */\n      0x20\n        /* \"#utility.yul\":19799:19805   */\n      dup3\n        /* \"#utility.yul\":19795:19810   */\n      add\n        /* \"#utility.yul\":19788:19820   */\n      mstore\n        /* \"#utility.yul\":19603:19827   */\n      pop\n      jump\t// out\n        /* \"#utility.yul\":19833:20199   */\n    tag_391:\n        /* \"#utility.yul\":19975:19978   */\n      0x00\n        /* \"#utility.yul\":19996:20063   */\n      tag_592\n        /* \"#utility.yul\":20060:20062   */\n      0x25\n        /* \"#utility.yul\":20055:20058   */\n      dup4\n        /* \"#utility.yul\":19996:20063   */\n      tag_342\n      jump\t// in\n    tag_592:\n        /* \"#utility.yul\":19989:20063   */\n      swap2\n      pop\n        /* \"#utility.yul\":20072:20165   */\n      tag_593\n        /* \"#utility.yul\":20161:20164   */\n      dup3\n        /* \"#utility.yul\":20072:20165   */\n      tag_390\n      jump\t// in\n    tag_593:\n        /* \"#utility.yul\":20190:20192   */\n      0x40\n        /* \"#utility.yul\":20185:20188   */\n      dup3\n        /* \"#utility.yul\":20181:20193   */\n      add\n        /* \"#utility.yul\":20174:20193   */\n      swap1\n      pop\n        /* \"#utility.yul\":19833:20199   */\n      swap2\n      swap1\n      pop\n      jump\t// out\n        /* \"#utility.yul\":20205:20624   */\n    tag_323:\n        /* \"#utility.yul\":20371:20375   */\n      0x00\n        /* \"#utility.yul\":20409:20411   */\n      0x20\n        /* \"#utility.yul\":20398:20407   */\n      dup3\n        /* \"#utility.yul\":20394:20412   */\n      add\n        /* \"#utility.yul\":20386:20412   */\n      swap1\n      pop\n        /* \"#utility.yul\":20458:20467   */\n      dup2\n        /* \"#utility.yul\":20452:20456   */\n      dup2\n        /* \"#utility.yul\":20448:20468   */\n      sub\n        /* \"#utility.yul\":20444:20445   */\n      0x00\n        /* \"#utility.yul\":20433:20442   */\n      dup4\n        /* \"#utility.yul\":20429:20446   */\n      add\n        /* \"#utility.yul\":20422:20469   */\n      mstore\n        /* \"#utility.yul\":20486:20617   */\n      tag_595\n        /* \"#utility.yul\":20612:20616   */\n      dup2\n        /* \"#utility.yul\":20486:20617   */\n      tag_391\n      jump\t// in\n    tag_595:\n        /* \"#utility.yul\":20478:20617   */\n      swap1\n      pop\n        /* \"#utility.yul\":20205:20624   */\n      swap2\n      swap1\n      pop\n      jump\t// out\n        /* \"#utility.yul\":20630:20852   */\n    tag_392:\n        /* \"#utility.yul\":20770:20804   */\n      0x45524332303a207472616e7366657220746f20746865207a65726f2061646472\n        /* \"#utility.yul\":20766:20767   */\n      0x00\n        /* \"#utility.yul\":20758:20764   */\n      dup3\n        /* \"#utility.yul\":20754:20768   */\n      add\n        /* \"#utility.yul\":20747:20805   */\n      mstore\n        /* \"#utility.yul\":20839:20844   */\n      0x6573730000000000000000000000000000000000000000000000000000000000\n        /* \"#utility.yul\":20834:20836   */\n      0x20\n        /* \"#utility.yul\":20826:20832   */\n      dup3\n        /* \"#utility.yul\":20822:20837   */\n      add\n        /* \"#utility.yul\":20815:20845   */\n      mstore\n        /* \"#utility.yul\":20630:20852   */\n      pop\n      jump\t// out\n        /* \"#utility.yul\":20858:21224   */\n    tag_393:\n        /* \"#utility.yul\":21000:21003   */\n      0x00\n        /* \"#utility.yul\":21021:21088   */\n      tag_598\n        /* \"#utility.yul\":21085:21087   */\n      0x23\n        /* \"#utility.yul\":21080:21083   */\n      dup4\n        /* \"#utility.yul\":21021:21088   */\n      tag_342\n      jump\t// in\n    tag_598:\n        /* \"#utility.yul\":21014:21088   */\n      swap2\n      pop\n        /* \"#utility.yul\":21097:21190   */\n      tag_599\n        /* \"#utility.yul\":21186:21189   */\n      dup3\n        /* \"#utility.yul\":21097:21190   */\n      tag_392\n      jump\t// in\n    tag_599:\n        /* \"#utility.yul\":21215:21217   */\n      0x40\n        /* \"#utility.yul\":21210:21213   */\n      dup3\n        /* \"#utility.yul\":21206:21218   */\n      add\n        /* \"#utility.yul\":21199:21218   */\n      swap1\n      pop\n        /* \"#utility.yul\":20858:21224   */\n      swap2\n      swap1\n      pop\n      jump\t// out\n        /* \"#utility.yul\":21230:21649   */\n    tag_326:\n        /* \"#utility.yul\":21396:21400   */\n      0x00\n        /* \"#utility.yul\":21434:21436   */\n      0x20\n        /* \"#utility.yul\":21423:21432   */\n      dup3\n        /* \"#utility.yul\":21419:21437   */\n      add\n        /* \"#utility.yul\":21411:21437   */\n      swap1\n      pop\n        /* \"#utility.yul\":21483:21492   */\n      dup2\n        /* \"#utility.yul\":21477:21481   */\n      dup2\n        /* \"#utility.yul\":21473:21493   */\n      sub\n        /* \"#utility.yul\":21469:21470   */\n      0x00\n        /* \"#utility.yul\":21458:21467   */\n      dup4\n        /* \"#utility.yul\":21454:21471   */\n      add\n        /* \"#utility.yul\":21447:21494   */\n      mstore\n        /* \"#utility.yul\":21511:21642   */\n      tag_601\n        /* \"#utility.yul\":21637:21641   */\n      dup2\n        /* \"#utility.yul\":21511:21642   */\n      tag_393\n      jump\t// in\n    tag_601:\n        /* \"#utility.yul\":21503:21642   */\n      swap1\n      pop\n        /* \"#utility.yul\":21230:21649   */\n      swap2\n      swap1\n      pop\n      jump\t// out\n        /* \"#utility.yul\":21655:21880   */\n    tag_394:\n        /* \"#utility.yul\":21795:21829   */\n      0x45524332303a207472616e7366657220616d6f756e7420657863656564732062\n        /* \"#utility.yul\":21791:21792   */\n      0x00\n        /* \"#utility.yul\":21783:21789   */\n      dup3\n        /* \"#utility.yul\":21779:21793   */\n      add\n        /* \"#utility.yul\":21772:21830   */\n      mstore\n        /* \"#utility.yul\":21864:21872   */\n      0x616c616e63650000000000000000000000000000000000000000000000000000\n        /* \"#utility.yul\":21859:21861   */\n      0x20\n        /* \"#utility.yul\":21851:21857   */\n      dup3\n        /* \"#utility.yul\":21847:21862   */\n      add\n        /* \"#utility.yul\":21840:21873   */\n      mstore\n        /* \"#utility.yul\":21655:21880   */\n      pop\n      jump\t// out\n        /* \"#utility.yul\":21886:22252   */\n    tag_395:\n        /* \"#utility.yul\":22028:22031   */\n      0x00\n        /* \"#utility.yul\":22049:22116   */\n      tag_604\n        /* \"#utility.yul\":22113:22115   */\n      0x26\n        /* \"#utility.yul\":22108:22111   */\n      dup4\n        /* \"#utility.yul\":22049:22116   */\n      tag_342\n      jump\t// in\n    tag_604:\n        /* \"#utility.yul\":22042:22116   */\n      swap2\n      pop\n        /* \"#utility.yul\":22125:22218   */\n      tag_605\n        /* \"#utility.yul\":22214:22217   */\n      dup3\n        /* \"#utility.yul\":22125:22218   */\n      tag_394\n      jump\t// in\n    tag_605:\n        /* \"#utility.yul\":22243:22245   */\n      0x40\n        /* \"#utility.yul\":22238:22241   */\n      dup3\n        /* \"#utility.yul\":22234:22246   */\n      add\n        /* \"#utility.yul\":22227:22246   */\n      swap1\n      pop\n        /* \"#utility.yul\":21886:22252   */\n      swap2\n      swap1\n      pop\n      jump\t// out\n        /* \"#utility.yul\":22258:22677   */\n    tag_331:\n        /* \"#utility.yul\":22424:22428   */\n      0x00\n        /* \"#utility.yul\":22462:22464   */\n      0x20\n        /* \"#utility.yul\":22451:22460   */\n      dup3\n        /* \"#utility.yul\":22447:22465   */\n      add\n        /* \"#utility.yul\":22439:22465   */\n      swap1\n      pop\n        /* \"#utility.yul\":22511:22520   */\n      dup2\n        /* \"#utility.yul\":22505:22509   */\n      dup2\n        /* \"#utility.yul\":22501:22521   */\n      sub\n        /* \"#utility.yul\":22497:22498   */\n      0x00\n        /* \"#utility.yul\":22486:22495   */\n      dup4\n        /* \"#utility.yul\":22482:22499   */\n      add\n        /* \"#utility.yul\":22475:22522   */\n      mstore\n        /* \"#utility.yul\":22539:22670   */\n      tag_607\n        /* \"#utility.yul\":22665:22669   */\n      dup2\n        /* \"#utility.yul\":22539:22670   */\n      tag_395\n      jump\t// in\n    tag_607:\n        /* \"#utility.yul\":22531:22670   */\n      swap1\n      pop\n        /* \"#utility.yul\":22258:22677   */\n      swap2\n      swap1\n      pop\n      jump\t// out\n\n    auxdata: 0xa26469706673582212204e38164fab767050a85ffe613c4157e7442ad1420846c8b7381cd7967f21732664736f6c63430008120033\n}\n",
				"bytecode": {
					"linkReferences": {},
					"object": "60806040526006600a55600a600b553480156200001b57600080fd5b5060405162003300380380620033008339818101604052810190620000419190620008d6565b6040518060400160405280600481526020017f4c6f6c6f000000000000000000000000000000000000000000000000000000008152506040518060400160405280600481526020017f4c4f4c4f000000000000000000000000000000000000000000000000000000008152508160039081620000be919062000b97565b508060049081620000d0919062000b97565b505050620000f3620000e7620005fd60201b60201c565b6200060560201b60201c565b81600860006101000a81548173ffffffffffffffffffffffffffffffffffffffff021916908373ffffffffffffffffffffffffffffffffffffffff16021790555080600960006101000a81548173ffffffffffffffffffffffffffffffffffffffff021916908373ffffffffffffffffffffffffffffffffffffffff1602179055506000737a250d5630b4cf539739df2c5dacb4c659f2488d90508073ffffffffffffffffffffffffffffffffffffffff1663c45a01556040518163ffffffff1660e01b8152600401602060405180830381865afa158015620001da573d6000803e3d6000fd5b505050506040513d601f19601f8201168201806040525081019062000200919062000c7e565b73ffffffffffffffffffffffffffffffffffffffff1663c9c65396308373ffffffffffffffffffffffffffffffffffffffff1663ad5c46486040518163ffffffff1660e01b8152600401602060405180830381865afa15801562000268573d6000803e3d6000fd5b505050506040513d601f19601f820116820180604052508101906200028e919062000c7e565b6040518363ffffffff1660e01b8152600401620002ad92919062000cc1565b6020604051808303816000875af1158015620002cd573d6000803e3d6000fd5b505050506040513d601f19601f82011682018060405250810190620002f3919062000c7e565b600760006101000a81548173ffffffffffffffffffffffffffffffffffffffff021916908373ffffffffffffffffffffffffffffffffffffffff160217905550737a250d5630b4cf539739df2c5dacb4c659f2488d600660006101000a81548173ffffffffffffffffffffffffffffffffffffffff021916908373ffffffffffffffffffffffffffffffffffffffff160217905550620003b76200039c620006cb60201b60201c565b6d314dc6448d9338c15b0a00000000620006f560201b60201c565b6001600c60003073ffffffffffffffffffffffffffffffffffffffff1673ffffffffffffffffffffffffffffffffffffffff16815260200190815260200160002060006101000a81548160ff0219169083151502179055506001600c600062000425620006cb60201b60201c565b73ffffffffffffffffffffffffffffffffffffffff1673ffffffffffffffffffffffffffffffffffffffff16815260200190815260200160002060006101000a81548160ff0219169083151502179055506001600d60003073ffffffffffffffffffffffffffffffffffffffff1673ffffffffffffffffffffffffffffffffffffffff16815260200190815260200160002060006101000a81548160ff0219169083151502179055506001600d6000620004e4620006cb60201b60201c565b73ffffffffffffffffffffffffffffffffffffffff1673ffffffffffffffffffffffffffffffffffffffff16815260200190815260200160002060006101000a81548160ff0219169083151502179055506001600e60003073ffffffffffffffffffffffffffffffffffffffff1673ffffffffffffffffffffffffffffffffffffffff16815260200190815260200160002060006101000a81548160ff0219169083151502179055506001600e6000620005a3620006cb60201b60201c565b73ffffffffffffffffffffffffffffffffffffffff1673ffffffffffffffffffffffffffffffffffffffff16815260200190815260200160002060006101000a81548160ff02191690831515021790555050505062000e09565b600033905090565b6000600560009054906101000a900473ffffffffffffffffffffffffffffffffffffffff16905081600560006101000a81548173ffffffffffffffffffffffffffffffffffffffff021916908373ffffffffffffffffffffffffffffffffffffffff1602179055508173ffffffffffffffffffffffffffffffffffffffff168173ffffffffffffffffffffffffffffffffffffffff167f8be0079c531659141344cd1fd0a4f28419497f9722a3daafe3b4186f6b6457e060405160405180910390a35050565b6000600560009054906101000a900473ffffffffffffffffffffffffffffffffffffffff16905090565b600073ffffffffffffffffffffffffffffffffffffffff168273ffffffffffffffffffffffffffffffffffffffff160362000767576040517f08c379a00000000000000000000000000000000000000000000000000000000081526004016200075e9062000d4f565b60405180910390fd5b6200077b600083836200086260201b60201c565b80600260008282546200078f919062000da0565b92505081905550806000808473ffffffffffffffffffffffffffffffffffffffff1673ffffffffffffffffffffffffffffffffffffffff168152602001908152602001600020600082825401925050819055508173ffffffffffffffffffffffffffffffffffffffff16600073ffffffffffffffffffffffffffffffffffffffff167fddf252ad1be2c89b69c2b068fc378daa952ba7f163c4a11628f55a4df523b3ef8360405162000842919062000dec565b60405180910390a36200085e600083836200086760201b60201c565b5050565b505050565b505050565b600080fd5b600073ffffffffffffffffffffffffffffffffffffffff82169050919050565b60006200089e8262000871565b9050919050565b620008b08162000891565b8114620008bc57600080fd5b50565b600081519050620008d081620008a5565b92915050565b60008060408385031215620008f057620008ef6200086c565b5b60006200090085828601620008bf565b92505060206200091385828601620008bf565b9150509250929050565b600081519050919050565b7f4e487b7100000000000000000000000000000000000000000000000000000000600052604160045260246000fd5b7f4e487b7100000000000000000000000000000000000000000000000000000000600052602260045260246000fd5b600060028204905060018216806200099f57607f821691505b602082108103620009b557620009b462000957565b5b50919050565b60008190508160005260206000209050919050565b60006020601f8301049050919050565b600082821b905092915050565b60006008830262000a1f7fffffffffffffffffffffffffffffffffffffffffffffffffffffffffffffffff82620009e0565b62000a2b8683620009e0565b95508019841693508086168417925050509392505050565b6000819050919050565b6000819050919050565b600062000a7862000a7262000a6c8462000a43565b62000a4d565b62000a43565b9050919050565b6000819050919050565b62000a948362000a57565b62000aac62000aa38262000a7f565b848454620009ed565b825550505050565b600090565b62000ac362000ab4565b62000ad081848462000a89565b505050565b5b8181101562000af85762000aec60008262000ab9565b60018101905062000ad6565b5050565b601f82111562000b475762000b1181620009bb565b62000b1c84620009d0565b8101602085101562000b2c578190505b62000b4462000b3b85620009d0565b83018262000ad5565b50505b505050565b600082821c905092915050565b600062000b6c6000198460080262000b4c565b1980831691505092915050565b600062000b87838362000b59565b9150826002028217905092915050565b62000ba2826200091d565b67ffffffffffffffff81111562000bbe5762000bbd62000928565b5b62000bca825462000986565b62000bd782828562000afc565b600060209050601f83116001811462000c0f576000841562000bfa578287015190505b62000c06858262000b79565b86555062000c76565b601f19841662000c1f86620009bb565b60005b8281101562000c495784890151825560018201915060208501945060208101905062000c22565b8683101562000c69578489015162000c65601f89168262000b59565b8355505b6001600288020188555050505b505050505050565b60006020828403121562000c975762000c966200086c565b5b600062000ca784828501620008bf565b91505092915050565b62000cbb8162000891565b82525050565b600060408201905062000cd8600083018562000cb0565b62000ce7602083018462000cb0565b9392505050565b600082825260208201905092915050565b7f45524332303a206d696e7420746f20746865207a65726f206164647265737300600082015250565b600062000d37601f8362000cee565b915062000d448262000cff565b602082019050919050565b6000602082019050818103600083015262000d6a8162000d28565b9050919050565b7f4e487b7100000000000000000000000000000000000000000000000000000000600052601160045260246000fd5b600062000dad8262000a43565b915062000dba8362000a43565b925082820190508082111562000dd55762000dd462000d71565b5b92915050565b62000de68162000a43565b82525050565b600060208201905062000e03600083018462000ddb565b92915050565b6124e78062000e196000396000f3fe608060405234801561001057600080fd5b50600436106101f05760003560e01c806370a082311161010f578063a9059cbb116100a2578063dd62ed3e11610071578063dd62ed3e146105ab578063f2fde38b146105db578063f9d3d3e8146105f7578063fc9e0c9414610613576101f0565b8063a9059cbb14610527578063c2ed286b14610557578063cf49a5ef14610573578063d80cbc8c1461058f576101f0565b80638da5cb5b116100de5780638da5cb5b1461048b57806395d89b41146104a9578063989763ef146104c7578063a457c2d7146104f7576101f0565b806370a0823114610429578063715018a6146104595780637c9e75c0146104635780637ea382c114610481576101f0565b806323b872dd11610187578063395093511161015657806339509351146103a157806349bd5a5e146103d15780634b0dd0d6146103ef5780636e66f6e91461040b576101f0565b806323b872dd146103195780632e1dc4b814610349578063313ce5671461036557806332cb6b0c14610383576101f0565b80631694505e116101c35780631694505e1461028f57806318160ddd146102ad5780631af41e5d146102cb5780631d7c27d7146102fb576101f0565b806306fdde03146101f5578063095ea7b3146102135780630e88dad11461024357806313e4619214610273575b600080fd5b6101fd610631565b60405161020a91906118dd565b60405180910390f35b61022d60048036038101906102289190611998565b6106c3565b60405161023a91906119f3565b60405180910390f35b61025d60048036038101906102589190611a0e565b6106e6565b60405161026a91906119f3565b60405180910390f35b61028d60048036038101906102889190611a67565b610706565b005b610297610769565b6040516102a49190611b06565b60405180910390f35b6102b561078f565b6040516102c29190611b30565b60405180910390f35b6102e560048036038101906102e09190611a0e565b610799565b6040516102f291906119f3565b60405180910390f35b6103036107b9565b6040516103109190611b30565b60405180910390f35b610333600480360381019061032e9190611b4b565b6107bf565b60405161034091906119f3565b60405180910390f35b610363600480360381019061035e9190611a0e565b6107ee565b005b61036d61083a565b60405161037a9190611bba565b60405180910390f35b61038b610843565b6040516103989190611b30565b60405180910390f35b6103bb60048036038101906103b69190611998565b610855565b6040516103c891906119f3565b60405180910390f35b6103d961088c565b6040516103e69190611be4565b60405180910390f35b61040960048036038101906104049190611bff565b6108b2565b005b6104136108c4565b6040516104209190611be4565b60405180910390f35b610443600480360381019061043e9190611a0e565b6108ea565b6040516104509190611b30565b60405180910390f35b610461610932565b005b61046b610946565b6040516104789190611be4565b60405180910390f35b61048961096c565b005b610493610ab8565b6040516104a09190611be4565b60405180910390f35b6104b1610ae2565b6040516104be91906118dd565b60405180910390f35b6104e160048036038101906104dc9190611a0e565b610b74565b6040516104ee91906119f3565b60405180910390f35b610511600480360381019061050c9190611998565b610b94565b60405161051e91906119f3565b60405180910390f35b610541600480360381019061053c9190611998565b610c0b565b60405161054e91906119f3565b60405180910390f35b610571600480360381019061056c9190611a67565b610fd5565b005b61058d60048036038101906105889190611bff565b611038565b005b6105a960048036038101906105a49190611a67565b61104a565b005b6105c560048036038101906105c09190611c2c565b6110ad565b6040516105d29190611b30565b60405180910390f35b6105f560048036038101906105f09190611a0e565b611134565b005b610611600480360381019061060c9190611a0e565b6111b7565b005b61061b611203565b6040516106289190611b30565b60405180910390f35b60606003805461064090611c9b565b80601f016020809104026020016040519081016040528092919081815260200182805461066c90611c9b565b80156106b95780601f1061068e576101008083540402835291602001916106b9565b820191906000526020600020905b81548152906001019060200180831161069c57829003601f168201915b5050505050905090565b6000806106ce611209565b90506106db818585611211565b600191505092915050565b600e6020528060005260406000206000915054906101000a900460ff1681565b61070e6113da565b80600d60008473ffffffffffffffffffffffffffffffffffffffff1673ffffffffffffffffffffffffffffffffffffffff16815260200190815260200160002060006101000a81548160ff0219169083151502179055505050565b600660009054906101000a900473ffffffffffffffffffffffffffffffffffffffff1681565b6000600254905090565b600d6020528060005260406000206000915054906101000a900460ff1681565b600b5481565b6000806107ca611209565b90506107d7858285611458565b6107e28585856114e4565b60019150509392505050565b6107f66113da565b80600860006101000a81548173ffffffffffffffffffffffffffffffffffffffff021916908373ffffffffffffffffffffffffffffffffffffffff16021790555050565b60006012905090565b6d314dc6448d9338c15b0a0000000081565b600080610860611209565b905061088181858561087285896110ad565b61087c9190611cfb565b611211565b600191505092915050565b600760009054906101000a900473ffffffffffffffffffffffffffffffffffffffff1681565b6108ba6113da565b80600a8190555050565b600860009054906101000a900473ffffffffffffffffffffffffffffffffffffffff1681565b60008060008373ffffffffffffffffffffffffffffffffffffffff1673ffffffffffffffffffffffffffffffffffffffff168152602001908152602001600020549050919050565b61093a6113da565b610944600061175a565b565b600960009054906101000a900473ffffffffffffffffffffffffffffffffffffffff1681565b6109746113da565b600080600660009054906101000a900473ffffffffffffffffffffffffffffffffffffffff1673ffffffffffffffffffffffffffffffffffffffff166302751cec306109e1600760009054906101000a900473ffffffffffffffffffffffffffffffffffffffff166108ea565b6000806109ec610ab8565b426040518763ffffffff1660e01b8152600401610a0e96959493929190611d6a565b60408051808303816000875af1158015610a2c573d6000803e3d6000fd5b505050506040513d601f19601f82011682018060405250810190610a509190611de0565b91509150610a6630610a60610ab8565b846114e4565b610a6e610ab8565b73ffffffffffffffffffffffffffffffffffffffff166108fc829081150290604051600060405180830381858888f19350505050158015610ab3573d6000803e3d6000fd5b505050565b6000600560009054906101000a900473ffffffffffffffffffffffffffffffffffffffff16905090565b606060048054610af190611c9b565b80601f0160208091040260200160405190810160405280929190818152602001828054610b1d90611c9b565b8015610b6a5780601f10610b3f57610100808354040283529160200191610b6a565b820191906000526020600020905b815481529060010190602001808311610b4d57829003601f168201915b5050505050905090565b600c6020528060005260406000206000915054906101000a900460ff1681565b600080610b9f611209565b90506000610bad82866110ad565b905083811015610bf2576040517f08c379a0000000000000000000000000000000000000000000000000000000008152600401610be990611e92565b60405180910390fd5b610bff8286868403611211565b60019250505092915050565b6000808211610c4f576040517f08c379a0000000000000000000000000000000000000000000000000000000008152600401610c4690611f24565b60405180910390fd5b6000600a549050600060648285610c669190611f44565b610c709190611fb5565b84610c7b9190611fe6565b9050600760009054906101000a900473ffffffffffffffffffffffffffffffffffffffff1673ffffffffffffffffffffffffffffffffffffffff168573ffffffffffffffffffffffffffffffffffffffff1603610cfd57600b54915060648285610ce59190611f44565b610cef9190611fb5565b84610cfa9190611fe6565b90505b600c6000610d09611209565b73ffffffffffffffffffffffffffffffffffffffff1673ffffffffffffffffffffffffffffffffffffffff16815260200190815260200160002060009054906101000a900460ff16610d6557610d5f8582611820565b50610d71565b610d6f8585611820565b505b600c6000610d7d611209565b73ffffffffffffffffffffffffffffffffffffffff1673ffffffffffffffffffffffffffffffffffffffff16815260200190815260200160002060009054906101000a900460ff16610fc957600060648386610dd99190611f44565b610de39190611fb5565b9050600060648487610df59190611f44565b610dff9190611fb5565b9050600060648588610e119190611f44565b610e1b9190611fb5565b9050600060648689610e2d9190611f44565b610e379190611fb5565b9050610e4561dead85611820565b50610e72600860009054906101000a900473ffffffffffffffffffffffffffffffffffffffff1684611820565b50610e7d3083611820565b50610e8f610e89610ab8565b82611820565b506000610e9b306108ea565b9050600060648483610ead9190611f44565b610eb79190611fb5565b905060008183610ec79190611fe6565b90506000821115610fc157610efe600660009054906101000a900473ffffffffffffffffffffffffffffffffffffffff16836106c3565b50600660009054906101000a900473ffffffffffffffffffffffffffffffffffffffff1673ffffffffffffffffffffffffffffffffffffffff1663f305d719833084600080610f4b610ab8565b61016842610f599190611cfb565b6040518863ffffffff1660e01b8152600401610f7a96959493929190611d6a565b60606040518083038185885af1158015610f98573d6000803e3d6000fd5b50505050506040513d601f19601f82011682018060405250810190610fbd919061201a565b5050505b505050505050505b60019250505092915050565b610fdd6113da565b80600c60008473ffffffffffffffffffffffffffffffffffffffff1673ffffffffffffffffffffffffffffffffffffffff16815260200190815260200160002060006101000a81548160ff0219169083151502179055505050565b6110406113da565b80600b8190555050565b6110526113da565b80600e60008473ffffffffffffffffffffffffffffffffffffffff1673ffffffffffffffffffffffffffffffffffffffff16815260200190815260200160002060006101000a81548160ff0219169083151502179055505050565b6000600160008473ffffffffffffffffffffffffffffffffffffffff1673ffffffffffffffffffffffffffffffffffffffff16815260200190815260200160002060008373ffffffffffffffffffffffffffffffffffffffff1673ffffffffffffffffffffffffffffffffffffffff16815260200190815260200160002054905092915050565b61113c6113da565b600073ffffffffffffffffffffffffffffffffffffffff168173ffffffffffffffffffffffffffffffffffffffff16036111ab576040517f08c379a00000000000000000000000000000000000000000000000000000000081526004016111a2906120df565b60405180910390fd5b6111b48161175a565b50565b6111bf6113da565b80600960006101000a81548173ffffffffffffffffffffffffffffffffffffffff021916908373ffffffffffffffffffffffffffffffffffffffff16021790555050565b600a5481565b600033905090565b600073ffffffffffffffffffffffffffffffffffffffff168373ffffffffffffffffffffffffffffffffffffffff1603611280576040517f08c379a000000000000000000000000000000000000000000000000000000000815260040161127790612171565b60405180910390fd5b600073ffffffffffffffffffffffffffffffffffffffff168273ffffffffffffffffffffffffffffffffffffffff16036112ef576040517f08c379a00000000000000000000000000000000000000000000000000000000081526004016112e690612203565b60405180910390fd5b80600160008573ffffffffffffffffffffffffffffffffffffffff1673ffffffffffffffffffffffffffffffffffffffff16815260200190815260200160002060008473ffffffffffffffffffffffffffffffffffffffff1673ffffffffffffffffffffffffffffffffffffffff168152602001908152602001600020819055508173ffffffffffffffffffffffffffffffffffffffff168373ffffffffffffffffffffffffffffffffffffffff167f8c5be1e5ebec7d5bd14f71427d1e84f3dd0314c0f7b2291e5b200ac8c7c3b925836040516113cd9190611b30565b60405180910390a3505050565b6113e2611209565b73ffffffffffffffffffffffffffffffffffffffff16611400610ab8565b73ffffffffffffffffffffffffffffffffffffffff1614611456576040517f08c379a000000000000000000000000000000000000000000000000000000000815260040161144d9061226f565b60405180910390fd5b565b600061146484846110ad565b90507fffffffffffffffffffffffffffffffffffffffffffffffffffffffffffffffff81146114de57818110156114d0576040517f08c379a00000000000000000000000000000000000000000000000000000000081526004016114c7906122db565b60405180910390fd5b6114dd8484848403611211565b5b50505050565b600073ffffffffffffffffffffffffffffffffffffffff168373ffffffffffffffffffffffffffffffffffffffff1603611553576040517f08c379a000000000000000000000000000000000000000000000000000000000815260040161154a9061236d565b60405180910390fd5b600073ffffffffffffffffffffffffffffffffffffffff168273ffffffffffffffffffffffffffffffffffffffff16036115c2576040517f08c379a00000000000000000000000000000000000000000000000000000000081526004016115b9906123ff565b60405180910390fd5b6115cd838383611843565b60008060008573ffffffffffffffffffffffffffffffffffffffff1673ffffffffffffffffffffffffffffffffffffffff16815260200190815260200160002054905081811015611653576040517f08c379a000000000000000000000000000000000000000000000000000000000815260040161164a90612491565b60405180910390fd5b8181036000808673ffffffffffffffffffffffffffffffffffffffff1673ffffffffffffffffffffffffffffffffffffffff16815260200190815260200160002081905550816000808573ffffffffffffffffffffffffffffffffffffffff1673ffffffffffffffffffffffffffffffffffffffff168152602001908152602001600020600082825401925050819055508273ffffffffffffffffffffffffffffffffffffffff168473ffffffffffffffffffffffffffffffffffffffff167fddf252ad1be2c89b69c2b068fc378daa952ba7f163c4a11628f55a4df523b3ef846040516117419190611b30565b60405180910390a3611754848484611848565b50505050565b6000600560009054906101000a900473ffffffffffffffffffffffffffffffffffffffff16905081600560006101000a81548173ffffffffffffffffffffffffffffffffffffffff021916908373ffffffffffffffffffffffffffffffffffffffff1602179055508173ffffffffffffffffffffffffffffffffffffffff168173ffffffffffffffffffffffffffffffffffffffff167f8be0079c531659141344cd1fd0a4f28419497f9722a3daafe3b4186f6b6457e060405160405180910390a35050565b60008061182b611209565b90506118388185856114e4565b600191505092915050565b505050565b505050565b600081519050919050565b600082825260208201905092915050565b60005b8381101561188757808201518184015260208101905061186c565b60008484015250505050565b6000601f19601f8301169050919050565b60006118af8261184d565b6118b98185611858565b93506118c9818560208601611869565b6118d281611893565b840191505092915050565b600060208201905081810360008301526118f781846118a4565b905092915050565b600080fd5b600073ffffffffffffffffffffffffffffffffffffffff82169050919050565b600061192f82611904565b9050919050565b61193f81611924565b811461194a57600080fd5b50565b60008135905061195c81611936565b92915050565b6000819050919050565b61197581611962565b811461198057600080fd5b50565b6000813590506119928161196c565b92915050565b600080604083850312156119af576119ae6118ff565b5b60006119bd8582860161194d565b92505060206119ce85828601611983565b9150509250929050565b60008115159050919050565b6119ed816119d8565b82525050565b6000602082019050611a0860008301846119e4565b92915050565b600060208284031215611a2457611a236118ff565b5b6000611a328482850161194d565b91505092915050565b611a44816119d8565b8114611a4f57600080fd5b50565b600081359050611a6181611a3b565b92915050565b60008060408385031215611a7e57611a7d6118ff565b5b6000611a8c8582860161194d565b9250506020611a9d85828601611a52565b9150509250929050565b6000819050919050565b6000611acc611ac7611ac284611904565b611aa7565b611904565b9050919050565b6000611ade82611ab1565b9050919050565b6000611af082611ad3565b9050919050565b611b0081611ae5565b82525050565b6000602082019050611b1b6000830184611af7565b92915050565b611b2a81611962565b82525050565b6000602082019050611b456000830184611b21565b92915050565b600080600060608486031215611b6457611b636118ff565b5b6000611b728682870161194d565b9350506020611b838682870161194d565b9250506040611b9486828701611983565b9150509250925092565b600060ff82169050919050565b611bb481611b9e565b82525050565b6000602082019050611bcf6000830184611bab565b92915050565b611bde81611924565b82525050565b6000602082019050611bf96000830184611bd5565b92915050565b600060208284031215611c1557611c146118ff565b5b6000611c2384828501611983565b91505092915050565b60008060408385031215611c4357611c426118ff565b5b6000611c518582860161194d565b9250506020611c628582860161194d565b9150509250929050565b7f4e487b7100000000000000000000000000000000000000000000000000000000600052602260045260246000fd5b60006002820490506001821680611cb357607f821691505b602082108103611cc657611cc5611c6c565b5b50919050565b7f4e487b7100000000000000000000000000000000000000000000000000000000600052601160045260246000fd5b6000611d0682611962565b9150611d1183611962565b9250828201905080821115611d2957611d28611ccc565b5b92915050565b6000819050919050565b6000611d54611d4f611d4a84611d2f565b611aa7565b611962565b9050919050565b611d6481611d39565b82525050565b600060c082019050611d7f6000830189611bd5565b611d8c6020830188611b21565b611d996040830187611d5b565b611da66060830186611d5b565b611db36080830185611bd5565b611dc060a0830184611b21565b979650505050505050565b600081519050611dda8161196c565b92915050565b60008060408385031215611df757611df66118ff565b5b6000611e0585828601611dcb565b9250506020611e1685828601611dcb565b9150509250929050565b7f45524332303a2064656372656173656420616c6c6f77616e63652062656c6f7760008201527f207a65726f000000000000000000000000000000000000000000000000000000602082015250565b6000611e7c602583611858565b9150611e8782611e20565b604082019050919050565b60006020820190508181036000830152611eab81611e6f565b9050919050565b7f44656265207472616e73666572697220616c206d656e6f7320756e20746f6b6560008201527f6e00000000000000000000000000000000000000000000000000000000000000602082015250565b6000611f0e602183611858565b9150611f1982611eb2565b604082019050919050565b60006020820190508181036000830152611f3d81611f01565b9050919050565b6000611f4f82611962565b9150611f5a83611962565b9250828202611f6881611962565b91508282048414831517611f7f57611f7e611ccc565b5b5092915050565b7f4e487b7100000000000000000000000000000000000000000000000000000000600052601260045260246000fd5b6000611fc082611962565b9150611fcb83611962565b925082611fdb57611fda611f86565b5b828204905092915050565b6000611ff182611962565b9150611ffc83611962565b925082820390508181111561201457612013611ccc565b5b92915050565b600080600060608486031215612033576120326118ff565b5b600061204186828701611dcb565b935050602061205286828701611dcb565b925050604061206386828701611dcb565b9150509250925092565b7f4f776e61626c653a206e6577206f776e657220697320746865207a65726f206160008201527f6464726573730000000000000000000000000000000000000000000000000000602082015250565b60006120c9602683611858565b91506120d48261206d565b604082019050919050565b600060208201905081810360008301526120f8816120bc565b9050919050565b7f45524332303a20617070726f76652066726f6d20746865207a65726f2061646460008201527f7265737300000000000000000000000000000000000000000000000000000000602082015250565b600061215b602483611858565b9150612166826120ff565b604082019050919050565b6000602082019050818103600083015261218a8161214e565b9050919050565b7f45524332303a20617070726f766520746f20746865207a65726f20616464726560008201527f7373000000000000000000000000000000000000000000000000000000000000602082015250565b60006121ed602283611858565b91506121f882612191565b604082019050919050565b6000602082019050818103600083015261221c816121e0565b9050919050565b7f4f776e61626c653a2063616c6c6572206973206e6f7420746865206f776e6572600082015250565b6000612259602083611858565b915061226482612223565b602082019050919050565b600060208201905081810360008301526122888161224c565b9050919050565b7f45524332303a20696e73756666696369656e7420616c6c6f77616e6365000000600082015250565b60006122c5601d83611858565b91506122d08261228f565b602082019050919050565b600060208201905081810360008301526122f4816122b8565b9050919050565b7f45524332303a207472616e736665722066726f6d20746865207a65726f20616460008201527f6472657373000000000000000000000000000000000000000000000000000000602082015250565b6000612357602583611858565b9150612362826122fb565b604082019050919050565b600060208201905081810360008301526123868161234a565b9050919050565b7f45524332303a207472616e7366657220746f20746865207a65726f206164647260008201527f6573730000000000000000000000000000000000000000000000000000000000602082015250565b60006123e9602383611858565b91506123f48261238d565b604082019050919050565b60006020820190508181036000830152612418816123dc565b9050919050565b7f45524332303a207472616e7366657220616d6f756e742065786365656473206260008201527f616c616e63650000000000000000000000000000000000000000000000000000602082015250565b600061247b602683611858565b91506124868261241f565b604082019050919050565b600060208201905081810360008301526124aa8161246e565b905091905056fea26469706673582212204e38164fab767050a85ffe613c4157e7442ad1420846c8b7381cd7967f21732664736f6c63430008120033",
					"opcodes": "PUSH1 0x80 PUSH1 0x40 MSTORE PUSH1 0x6 PUSH1 0xA SSTORE PUSH1 0xA PUSH1 0xB SSTORE CALLVALUE DUP1 ISZERO PUSH3 0x1B JUMPI PUSH1 0x0 DUP1 REVERT JUMPDEST POP PUSH1 0x40 MLOAD PUSH3 0x3300 CODESIZE SUB DUP1 PUSH3 0x3300 DUP4 CODECOPY DUP2 DUP2 ADD PUSH1 0x40 MSTORE DUP2 ADD SWAP1 PUSH3 0x41 SWAP2 SWAP1 PUSH3 0x8D6 JUMP JUMPDEST PUSH1 0x40 MLOAD DUP1 PUSH1 0x40 ADD PUSH1 0x40 MSTORE DUP1 PUSH1 0x4 DUP2 MSTORE PUSH1 0x20 ADD PUSH32 0x4C6F6C6F00000000000000000000000000000000000000000000000000000000 DUP2 MSTORE POP PUSH1 0x40 MLOAD DUP1 PUSH1 0x40 ADD PUSH1 0x40 MSTORE DUP1 PUSH1 0x4 DUP2 MSTORE PUSH1 0x20 ADD PUSH32 0x4C4F4C4F00000000000000000000000000000000000000000000000000000000 DUP2 MSTORE POP DUP2 PUSH1 0x3 SWAP1 DUP2 PUSH3 0xBE SWAP2 SWAP1 PUSH3 0xB97 JUMP JUMPDEST POP DUP1 PUSH1 0x4 SWAP1 DUP2 PUSH3 0xD0 SWAP2 SWAP1 PUSH3 0xB97 JUMP JUMPDEST POP POP POP PUSH3 0xF3 PUSH3 0xE7 PUSH3 0x5FD PUSH1 0x20 SHL PUSH1 0x20 SHR JUMP JUMPDEST PUSH3 0x605 PUSH1 0x20 SHL PUSH1 0x20 SHR JUMP JUMPDEST DUP2 PUSH1 0x8 PUSH1 0x0 PUSH2 0x100 EXP DUP2 SLOAD DUP2 PUSH20 0xFFFFFFFFFFFFFFFFFFFFFFFFFFFFFFFFFFFFFFFF MUL NOT AND SWAP1 DUP4 PUSH20 0xFFFFFFFFFFFFFFFFFFFFFFFFFFFFFFFFFFFFFFFF AND MUL OR SWAP1 SSTORE POP DUP1 PUSH1 0x9 PUSH1 0x0 PUSH2 0x100 EXP DUP2 SLOAD DUP2 PUSH20 0xFFFFFFFFFFFFFFFFFFFFFFFFFFFFFFFFFFFFFFFF MUL NOT AND SWAP1 DUP4 PUSH20 0xFFFFFFFFFFFFFFFFFFFFFFFFFFFFFFFFFFFFFFFF AND MUL OR SWAP1 SSTORE POP PUSH1 0x0 PUSH20 0x7A250D5630B4CF539739DF2C5DACB4C659F2488D SWAP1 POP DUP1 PUSH20 0xFFFFFFFFFFFFFFFFFFFFFFFFFFFFFFFFFFFFFFFF AND PUSH4 0xC45A0155 PUSH1 0x40 MLOAD DUP2 PUSH4 0xFFFFFFFF AND PUSH1 0xE0 SHL DUP2 MSTORE PUSH1 0x4 ADD PUSH1 0x20 PUSH1 0x40 MLOAD DUP1 DUP4 SUB DUP2 DUP7 GAS STATICCALL ISZERO DUP1 ISZERO PUSH3 0x1DA JUMPI RETURNDATASIZE PUSH1 0x0 DUP1 RETURNDATACOPY RETURNDATASIZE PUSH1 0x0 REVERT JUMPDEST POP POP POP POP PUSH1 0x40 MLOAD RETURNDATASIZE PUSH1 0x1F NOT PUSH1 0x1F DUP3 ADD AND DUP3 ADD DUP1 PUSH1 0x40 MSTORE POP DUP2 ADD SWAP1 PUSH3 0x200 SWAP2 SWAP1 PUSH3 0xC7E JUMP JUMPDEST PUSH20 0xFFFFFFFFFFFFFFFFFFFFFFFFFFFFFFFFFFFFFFFF AND PUSH4 0xC9C65396 ADDRESS DUP4 PUSH20 0xFFFFFFFFFFFFFFFFFFFFFFFFFFFFFFFFFFFFFFFF AND PUSH4 0xAD5C4648 PUSH1 0x40 MLOAD DUP2 PUSH4 0xFFFFFFFF AND PUSH1 0xE0 SHL DUP2 MSTORE PUSH1 0x4 ADD PUSH1 0x20 PUSH1 0x40 MLOAD DUP1 DUP4 SUB DUP2 DUP7 GAS STATICCALL ISZERO DUP1 ISZERO PUSH3 0x268 JUMPI RETURNDATASIZE PUSH1 0x0 DUP1 RETURNDATACOPY RETURNDATASIZE PUSH1 0x0 REVERT JUMPDEST POP POP POP POP PUSH1 0x40 MLOAD RETURNDATASIZE PUSH1 0x1F NOT PUSH1 0x1F DUP3 ADD AND DUP3 ADD DUP1 PUSH1 0x40 MSTORE POP DUP2 ADD SWAP1 PUSH3 0x28E SWAP2 SWAP1 PUSH3 0xC7E JUMP JUMPDEST PUSH1 0x40 MLOAD DUP4 PUSH4 0xFFFFFFFF AND PUSH1 0xE0 SHL DUP2 MSTORE PUSH1 0x4 ADD PUSH3 0x2AD SWAP3 SWAP2 SWAP1 PUSH3 0xCC1 JUMP JUMPDEST PUSH1 0x20 PUSH1 0x40 MLOAD DUP1 DUP4 SUB DUP2 PUSH1 0x0 DUP8 GAS CALL ISZERO DUP1 ISZERO PUSH3 0x2CD JUMPI RETURNDATASIZE PUSH1 0x0 DUP1 RETURNDATACOPY RETURNDATASIZE PUSH1 0x0 REVERT JUMPDEST POP POP POP POP PUSH1 0x40 MLOAD RETURNDATASIZE PUSH1 0x1F NOT PUSH1 0x1F DUP3 ADD AND DUP3 ADD DUP1 PUSH1 0x40 MSTORE POP DUP2 ADD SWAP1 PUSH3 0x2F3 SWAP2 SWAP1 PUSH3 0xC7E JUMP JUMPDEST PUSH1 0x7 PUSH1 0x0 PUSH2 0x100 EXP DUP2 SLOAD DUP2 PUSH20 0xFFFFFFFFFFFFFFFFFFFFFFFFFFFFFFFFFFFFFFFF MUL NOT AND SWAP1 DUP4 PUSH20 0xFFFFFFFFFFFFFFFFFFFFFFFFFFFFFFFFFFFFFFFF AND MUL OR SWAP1 SSTORE POP PUSH20 0x7A250D5630B4CF539739DF2C5DACB4C659F2488D PUSH1 0x6 PUSH1 0x0 PUSH2 0x100 EXP DUP2 SLOAD DUP2 PUSH20 0xFFFFFFFFFFFFFFFFFFFFFFFFFFFFFFFFFFFFFFFF MUL NOT AND SWAP1 DUP4 PUSH20 0xFFFFFFFFFFFFFFFFFFFFFFFFFFFFFFFFFFFFFFFF AND MUL OR SWAP1 SSTORE POP PUSH3 0x3B7 PUSH3 0x39C PUSH3 0x6CB PUSH1 0x20 SHL PUSH1 0x20 SHR JUMP JUMPDEST PUSH14 0x314DC6448D9338C15B0A00000000 PUSH3 0x6F5 PUSH1 0x20 SHL PUSH1 0x20 SHR JUMP JUMPDEST PUSH1 0x1 PUSH1 0xC PUSH1 0x0 ADDRESS PUSH20 0xFFFFFFFFFFFFFFFFFFFFFFFFFFFFFFFFFFFFFFFF AND PUSH20 0xFFFFFFFFFFFFFFFFFFFFFFFFFFFFFFFFFFFFFFFF AND DUP2 MSTORE PUSH1 0x20 ADD SWAP1 DUP2 MSTORE PUSH1 0x20 ADD PUSH1 0x0 KECCAK256 PUSH1 0x0 PUSH2 0x100 EXP DUP2 SLOAD DUP2 PUSH1 0xFF MUL NOT AND SWAP1 DUP4 ISZERO ISZERO MUL OR SWAP1 SSTORE POP PUSH1 0x1 PUSH1 0xC PUSH1 0x0 PUSH3 0x425 PUSH3 0x6CB PUSH1 0x20 SHL PUSH1 0x20 SHR JUMP JUMPDEST PUSH20 0xFFFFFFFFFFFFFFFFFFFFFFFFFFFFFFFFFFFFFFFF AND PUSH20 0xFFFFFFFFFFFFFFFFFFFFFFFFFFFFFFFFFFFFFFFF AND DUP2 MSTORE PUSH1 0x20 ADD SWAP1 DUP2 MSTORE PUSH1 0x20 ADD PUSH1 0x0 KECCAK256 PUSH1 0x0 PUSH2 0x100 EXP DUP2 SLOAD DUP2 PUSH1 0xFF MUL NOT AND SWAP1 DUP4 ISZERO ISZERO MUL OR SWAP1 SSTORE POP PUSH1 0x1 PUSH1 0xD PUSH1 0x0 ADDRESS PUSH20 0xFFFFFFFFFFFFFFFFFFFFFFFFFFFFFFFFFFFFFFFF AND PUSH20 0xFFFFFFFFFFFFFFFFFFFFFFFFFFFFFFFFFFFFFFFF AND DUP2 MSTORE PUSH1 0x20 ADD SWAP1 DUP2 MSTORE PUSH1 0x20 ADD PUSH1 0x0 KECCAK256 PUSH1 0x0 PUSH2 0x100 EXP DUP2 SLOAD DUP2 PUSH1 0xFF MUL NOT AND SWAP1 DUP4 ISZERO ISZERO MUL OR SWAP1 SSTORE POP PUSH1 0x1 PUSH1 0xD PUSH1 0x0 PUSH3 0x4E4 PUSH3 0x6CB PUSH1 0x20 SHL PUSH1 0x20 SHR JUMP JUMPDEST PUSH20 0xFFFFFFFFFFFFFFFFFFFFFFFFFFFFFFFFFFFFFFFF AND PUSH20 0xFFFFFFFFFFFFFFFFFFFFFFFFFFFFFFFFFFFFFFFF AND DUP2 MSTORE PUSH1 0x20 ADD SWAP1 DUP2 MSTORE PUSH1 0x20 ADD PUSH1 0x0 KECCAK256 PUSH1 0x0 PUSH2 0x100 EXP DUP2 SLOAD DUP2 PUSH1 0xFF MUL NOT AND SWAP1 DUP4 ISZERO ISZERO MUL OR SWAP1 SSTORE POP PUSH1 0x1 PUSH1 0xE PUSH1 0x0 ADDRESS PUSH20 0xFFFFFFFFFFFFFFFFFFFFFFFFFFFFFFFFFFFFFFFF AND PUSH20 0xFFFFFFFFFFFFFFFFFFFFFFFFFFFFFFFFFFFFFFFF AND DUP2 MSTORE PUSH1 0x20 ADD SWAP1 DUP2 MSTORE PUSH1 0x20 ADD PUSH1 0x0 KECCAK256 PUSH1 0x0 PUSH2 0x100 EXP DUP2 SLOAD DUP2 PUSH1 0xFF MUL NOT AND SWAP1 DUP4 ISZERO ISZERO MUL OR SWAP1 SSTORE POP PUSH1 0x1 PUSH1 0xE PUSH1 0x0 PUSH3 0x5A3 PUSH3 0x6CB PUSH1 0x20 SHL PUSH1 0x20 SHR JUMP JUMPDEST PUSH20 0xFFFFFFFFFFFFFFFFFFFFFFFFFFFFFFFFFFFFFFFF AND PUSH20 0xFFFFFFFFFFFFFFFFFFFFFFFFFFFFFFFFFFFFFFFF AND DUP2 MSTORE PUSH1 0x20 ADD SWAP1 DUP2 MSTORE PUSH1 0x20 ADD PUSH1 0x0 KECCAK256 PUSH1 0x0 PUSH2 0x100 EXP DUP2 SLOAD DUP2 PUSH1 0xFF MUL NOT AND SWAP1 DUP4 ISZERO ISZERO MUL OR SWAP1 SSTORE POP POP POP POP PUSH3 0xE09 JUMP JUMPDEST PUSH1 0x0 CALLER SWAP1 POP SWAP1 JUMP JUMPDEST PUSH1 0x0 PUSH1 0x5 PUSH1 0x0 SWAP1 SLOAD SWAP1 PUSH2 0x100 EXP SWAP1 DIV PUSH20 0xFFFFFFFFFFFFFFFFFFFFFFFFFFFFFFFFFFFFFFFF AND SWAP1 POP DUP2 PUSH1 0x5 PUSH1 0x0 PUSH2 0x100 EXP DUP2 SLOAD DUP2 PUSH20 0xFFFFFFFFFFFFFFFFFFFFFFFFFFFFFFFFFFFFFFFF MUL NOT AND SWAP1 DUP4 PUSH20 0xFFFFFFFFFFFFFFFFFFFFFFFFFFFFFFFFFFFFFFFF AND MUL OR SWAP1 SSTORE POP DUP2 PUSH20 0xFFFFFFFFFFFFFFFFFFFFFFFFFFFFFFFFFFFFFFFF AND DUP2 PUSH20 0xFFFFFFFFFFFFFFFFFFFFFFFFFFFFFFFFFFFFFFFF AND PUSH32 0x8BE0079C531659141344CD1FD0A4F28419497F9722A3DAAFE3B4186F6B6457E0 PUSH1 0x40 MLOAD PUSH1 0x40 MLOAD DUP1 SWAP2 SUB SWAP1 LOG3 POP POP JUMP JUMPDEST PUSH1 0x0 PUSH1 0x5 PUSH1 0x0 SWAP1 SLOAD SWAP1 PUSH2 0x100 EXP SWAP1 DIV PUSH20 0xFFFFFFFFFFFFFFFFFFFFFFFFFFFFFFFFFFFFFFFF AND SWAP1 POP SWAP1 JUMP JUMPDEST PUSH1 0x0 PUSH20 0xFFFFFFFFFFFFFFFFFFFFFFFFFFFFFFFFFFFFFFFF AND DUP3 PUSH20 0xFFFFFFFFFFFFFFFFFFFFFFFFFFFFFFFFFFFFFFFF AND SUB PUSH3 0x767 JUMPI PUSH1 0x40 MLOAD PUSH32 0x8C379A000000000000000000000000000000000000000000000000000000000 DUP2 MSTORE PUSH1 0x4 ADD PUSH3 0x75E SWAP1 PUSH3 0xD4F JUMP JUMPDEST PUSH1 0x40 MLOAD DUP1 SWAP2 SUB SWAP1 REVERT JUMPDEST PUSH3 0x77B PUSH1 0x0 DUP4 DUP4 PUSH3 0x862 PUSH1 0x20 SHL PUSH1 0x20 SHR JUMP JUMPDEST DUP1 PUSH1 0x2 PUSH1 0x0 DUP3 DUP3 SLOAD PUSH3 0x78F SWAP2 SWAP1 PUSH3 0xDA0 JUMP JUMPDEST SWAP3 POP POP DUP2 SWAP1 SSTORE POP DUP1 PUSH1 0x0 DUP1 DUP5 PUSH20 0xFFFFFFFFFFFFFFFFFFFFFFFFFFFFFFFFFFFFFFFF AND PUSH20 0xFFFFFFFFFFFFFFFFFFFFFFFFFFFFFFFFFFFFFFFF AND DUP2 MSTORE PUSH1 0x20 ADD SWAP1 DUP2 MSTORE PUSH1 0x20 ADD PUSH1 0x0 KECCAK256 PUSH1 0x0 DUP3 DUP3 SLOAD ADD SWAP3 POP POP DUP2 SWAP1 SSTORE POP DUP2 PUSH20 0xFFFFFFFFFFFFFFFFFFFFFFFFFFFFFFFFFFFFFFFF AND PUSH1 0x0 PUSH20 0xFFFFFFFFFFFFFFFFFFFFFFFFFFFFFFFFFFFFFFFF AND PUSH32 0xDDF252AD1BE2C89B69C2B068FC378DAA952BA7F163C4A11628F55A4DF523B3EF DUP4 PUSH1 0x40 MLOAD PUSH3 0x842 SWAP2 SWAP1 PUSH3 0xDEC JUMP JUMPDEST PUSH1 0x40 MLOAD DUP1 SWAP2 SUB SWAP1 LOG3 PUSH3 0x85E PUSH1 0x0 DUP4 DUP4 PUSH3 0x867 PUSH1 0x20 SHL PUSH1 0x20 SHR JUMP JUMPDEST POP POP JUMP JUMPDEST POP POP POP JUMP JUMPDEST POP POP POP JUMP JUMPDEST PUSH1 0x0 DUP1 REVERT JUMPDEST PUSH1 0x0 PUSH20 0xFFFFFFFFFFFFFFFFFFFFFFFFFFFFFFFFFFFFFFFF DUP3 AND SWAP1 POP SWAP2 SWAP1 POP JUMP JUMPDEST PUSH1 0x0 PUSH3 0x89E DUP3 PUSH3 0x871 JUMP JUMPDEST SWAP1 POP SWAP2 SWAP1 POP JUMP JUMPDEST PUSH3 0x8B0 DUP2 PUSH3 0x891 JUMP JUMPDEST DUP2 EQ PUSH3 0x8BC JUMPI PUSH1 0x0 DUP1 REVERT JUMPDEST POP JUMP JUMPDEST PUSH1 0x0 DUP2 MLOAD SWAP1 POP PUSH3 0x8D0 DUP2 PUSH3 0x8A5 JUMP JUMPDEST SWAP3 SWAP2 POP POP JUMP JUMPDEST PUSH1 0x0 DUP1 PUSH1 0x40 DUP4 DUP6 SUB SLT ISZERO PUSH3 0x8F0 JUMPI PUSH3 0x8EF PUSH3 0x86C JUMP JUMPDEST JUMPDEST PUSH1 0x0 PUSH3 0x900 DUP6 DUP3 DUP7 ADD PUSH3 0x8BF JUMP JUMPDEST SWAP3 POP POP PUSH1 0x20 PUSH3 0x913 DUP6 DUP3 DUP7 ADD PUSH3 0x8BF JUMP JUMPDEST SWAP2 POP POP SWAP3 POP SWAP3 SWAP1 POP JUMP JUMPDEST PUSH1 0x0 DUP2 MLOAD SWAP1 POP SWAP2 SWAP1 POP JUMP JUMPDEST PUSH32 0x4E487B7100000000000000000000000000000000000000000000000000000000 PUSH1 0x0 MSTORE PUSH1 0x41 PUSH1 0x4 MSTORE PUSH1 0x24 PUSH1 0x0 REVERT JUMPDEST PUSH32 0x4E487B7100000000000000000000000000000000000000000000000000000000 PUSH1 0x0 MSTORE PUSH1 0x22 PUSH1 0x4 MSTORE PUSH1 0x24 PUSH1 0x0 REVERT JUMPDEST PUSH1 0x0 PUSH1 0x2 DUP3 DIV SWAP1 POP PUSH1 0x1 DUP3 AND DUP1 PUSH3 0x99F JUMPI PUSH1 0x7F DUP3 AND SWAP2 POP JUMPDEST PUSH1 0x20 DUP3 LT DUP2 SUB PUSH3 0x9B5 JUMPI PUSH3 0x9B4 PUSH3 0x957 JUMP JUMPDEST JUMPDEST POP SWAP2 SWAP1 POP JUMP JUMPDEST PUSH1 0x0 DUP2 SWAP1 POP DUP2 PUSH1 0x0 MSTORE PUSH1 0x20 PUSH1 0x0 KECCAK256 SWAP1 POP SWAP2 SWAP1 POP JUMP JUMPDEST PUSH1 0x0 PUSH1 0x20 PUSH1 0x1F DUP4 ADD DIV SWAP1 POP SWAP2 SWAP1 POP JUMP JUMPDEST PUSH1 0x0 DUP3 DUP3 SHL SWAP1 POP SWAP3 SWAP2 POP POP JUMP JUMPDEST PUSH1 0x0 PUSH1 0x8 DUP4 MUL PUSH3 0xA1F PUSH32 0xFFFFFFFFFFFFFFFFFFFFFFFFFFFFFFFFFFFFFFFFFFFFFFFFFFFFFFFFFFFFFFFF DUP3 PUSH3 0x9E0 JUMP JUMPDEST PUSH3 0xA2B DUP7 DUP4 PUSH3 0x9E0 JUMP JUMPDEST SWAP6 POP DUP1 NOT DUP5 AND SWAP4 POP DUP1 DUP7 AND DUP5 OR SWAP3 POP POP POP SWAP4 SWAP3 POP POP POP JUMP JUMPDEST PUSH1 0x0 DUP2 SWAP1 POP SWAP2 SWAP1 POP JUMP JUMPDEST PUSH1 0x0 DUP2 SWAP1 POP SWAP2 SWAP1 POP JUMP JUMPDEST PUSH1 0x0 PUSH3 0xA78 PUSH3 0xA72 PUSH3 0xA6C DUP5 PUSH3 0xA43 JUMP JUMPDEST PUSH3 0xA4D JUMP JUMPDEST PUSH3 0xA43 JUMP JUMPDEST SWAP1 POP SWAP2 SWAP1 POP JUMP JUMPDEST PUSH1 0x0 DUP2 SWAP1 POP SWAP2 SWAP1 POP JUMP JUMPDEST PUSH3 0xA94 DUP4 PUSH3 0xA57 JUMP JUMPDEST PUSH3 0xAAC PUSH3 0xAA3 DUP3 PUSH3 0xA7F JUMP JUMPDEST DUP5 DUP5 SLOAD PUSH3 0x9ED JUMP JUMPDEST DUP3 SSTORE POP POP POP POP JUMP JUMPDEST PUSH1 0x0 SWAP1 JUMP JUMPDEST PUSH3 0xAC3 PUSH3 0xAB4 JUMP JUMPDEST PUSH3 0xAD0 DUP2 DUP5 DUP5 PUSH3 0xA89 JUMP JUMPDEST POP POP POP JUMP JUMPDEST JUMPDEST DUP2 DUP2 LT ISZERO PUSH3 0xAF8 JUMPI PUSH3 0xAEC PUSH1 0x0 DUP3 PUSH3 0xAB9 JUMP JUMPDEST PUSH1 0x1 DUP2 ADD SWAP1 POP PUSH3 0xAD6 JUMP JUMPDEST POP POP JUMP JUMPDEST PUSH1 0x1F DUP3 GT ISZERO PUSH3 0xB47 JUMPI PUSH3 0xB11 DUP2 PUSH3 0x9BB JUMP JUMPDEST PUSH3 0xB1C DUP5 PUSH3 0x9D0 JUMP JUMPDEST DUP2 ADD PUSH1 0x20 DUP6 LT ISZERO PUSH3 0xB2C JUMPI DUP2 SWAP1 POP JUMPDEST PUSH3 0xB44 PUSH3 0xB3B DUP6 PUSH3 0x9D0 JUMP JUMPDEST DUP4 ADD DUP3 PUSH3 0xAD5 JUMP JUMPDEST POP POP JUMPDEST POP POP POP JUMP JUMPDEST PUSH1 0x0 DUP3 DUP3 SHR SWAP1 POP SWAP3 SWAP2 POP POP JUMP JUMPDEST PUSH1 0x0 PUSH3 0xB6C PUSH1 0x0 NOT DUP5 PUSH1 0x8 MUL PUSH3 0xB4C JUMP JUMPDEST NOT DUP1 DUP4 AND SWAP2 POP POP SWAP3 SWAP2 POP POP JUMP JUMPDEST PUSH1 0x0 PUSH3 0xB87 DUP4 DUP4 PUSH3 0xB59 JUMP JUMPDEST SWAP2 POP DUP3 PUSH1 0x2 MUL DUP3 OR SWAP1 POP SWAP3 SWAP2 POP POP JUMP JUMPDEST PUSH3 0xBA2 DUP3 PUSH3 0x91D JUMP JUMPDEST PUSH8 0xFFFFFFFFFFFFFFFF DUP2 GT ISZERO PUSH3 0xBBE JUMPI PUSH3 0xBBD PUSH3 0x928 JUMP JUMPDEST JUMPDEST PUSH3 0xBCA DUP3 SLOAD PUSH3 0x986 JUMP JUMPDEST PUSH3 0xBD7 DUP3 DUP3 DUP6 PUSH3 0xAFC JUMP JUMPDEST PUSH1 0x0 PUSH1 0x20 SWAP1 POP PUSH1 0x1F DUP4 GT PUSH1 0x1 DUP2 EQ PUSH3 0xC0F JUMPI PUSH1 0x0 DUP5 ISZERO PUSH3 0xBFA JUMPI DUP3 DUP8 ADD MLOAD SWAP1 POP JUMPDEST PUSH3 0xC06 DUP6 DUP3 PUSH3 0xB79 JUMP JUMPDEST DUP7 SSTORE POP PUSH3 0xC76 JUMP JUMPDEST PUSH1 0x1F NOT DUP5 AND PUSH3 0xC1F DUP7 PUSH3 0x9BB JUMP JUMPDEST PUSH1 0x0 JUMPDEST DUP3 DUP2 LT ISZERO PUSH3 0xC49 JUMPI DUP5 DUP10 ADD MLOAD DUP3 SSTORE PUSH1 0x1 DUP3 ADD SWAP2 POP PUSH1 0x20 DUP6 ADD SWAP5 POP PUSH1 0x20 DUP2 ADD SWAP1 POP PUSH3 0xC22 JUMP JUMPDEST DUP7 DUP4 LT ISZERO PUSH3 0xC69 JUMPI DUP5 DUP10 ADD MLOAD PUSH3 0xC65 PUSH1 0x1F DUP10 AND DUP3 PUSH3 0xB59 JUMP JUMPDEST DUP4 SSTORE POP JUMPDEST PUSH1 0x1 PUSH1 0x2 DUP9 MUL ADD DUP9 SSTORE POP POP POP JUMPDEST POP POP POP POP POP POP JUMP JUMPDEST PUSH1 0x0 PUSH1 0x20 DUP3 DUP5 SUB SLT ISZERO PUSH3 0xC97 JUMPI PUSH3 0xC96 PUSH3 0x86C JUMP JUMPDEST JUMPDEST PUSH1 0x0 PUSH3 0xCA7 DUP5 DUP3 DUP6 ADD PUSH3 0x8BF JUMP JUMPDEST SWAP2 POP POP SWAP3 SWAP2 POP POP JUMP JUMPDEST PUSH3 0xCBB DUP2 PUSH3 0x891 JUMP JUMPDEST DUP3 MSTORE POP POP JUMP JUMPDEST PUSH1 0x0 PUSH1 0x40 DUP3 ADD SWAP1 POP PUSH3 0xCD8 PUSH1 0x0 DUP4 ADD DUP6 PUSH3 0xCB0 JUMP JUMPDEST PUSH3 0xCE7 PUSH1 0x20 DUP4 ADD DUP5 PUSH3 0xCB0 JUMP JUMPDEST SWAP4 SWAP3 POP POP POP JUMP JUMPDEST PUSH1 0x0 DUP3 DUP3 MSTORE PUSH1 0x20 DUP3 ADD SWAP1 POP SWAP3 SWAP2 POP POP JUMP JUMPDEST PUSH32 0x45524332303A206D696E7420746F20746865207A65726F206164647265737300 PUSH1 0x0 DUP3 ADD MSTORE POP JUMP JUMPDEST PUSH1 0x0 PUSH3 0xD37 PUSH1 0x1F DUP4 PUSH3 0xCEE JUMP JUMPDEST SWAP2 POP PUSH3 0xD44 DUP3 PUSH3 0xCFF JUMP JUMPDEST PUSH1 0x20 DUP3 ADD SWAP1 POP SWAP2 SWAP1 POP JUMP JUMPDEST PUSH1 0x0 PUSH1 0x20 DUP3 ADD SWAP1 POP DUP2 DUP2 SUB PUSH1 0x0 DUP4 ADD MSTORE PUSH3 0xD6A DUP2 PUSH3 0xD28 JUMP JUMPDEST SWAP1 POP SWAP2 SWAP1 POP JUMP JUMPDEST PUSH32 0x4E487B7100000000000000000000000000000000000000000000000000000000 PUSH1 0x0 MSTORE PUSH1 0x11 PUSH1 0x4 MSTORE PUSH1 0x24 PUSH1 0x0 REVERT JUMPDEST PUSH1 0x0 PUSH3 0xDAD DUP3 PUSH3 0xA43 JUMP JUMPDEST SWAP2 POP PUSH3 0xDBA DUP4 PUSH3 0xA43 JUMP JUMPDEST SWAP3 POP DUP3 DUP3 ADD SWAP1 POP DUP1 DUP3 GT ISZERO PUSH3 0xDD5 JUMPI PUSH3 0xDD4 PUSH3 0xD71 JUMP JUMPDEST JUMPDEST SWAP3 SWAP2 POP POP JUMP JUMPDEST PUSH3 0xDE6 DUP2 PUSH3 0xA43 JUMP JUMPDEST DUP3 MSTORE POP POP JUMP JUMPDEST PUSH1 0x0 PUSH1 0x20 DUP3 ADD SWAP1 POP PUSH3 0xE03 PUSH1 0x0 DUP4 ADD DUP5 PUSH3 0xDDB JUMP JUMPDEST SWAP3 SWAP2 POP POP JUMP JUMPDEST PUSH2 0x24E7 DUP1 PUSH3 0xE19 PUSH1 0x0 CODECOPY PUSH1 0x0 RETURN INVALID PUSH1 0x80 PUSH1 0x40 MSTORE CALLVALUE DUP1 ISZERO PUSH2 0x10 JUMPI PUSH1 0x0 DUP1 REVERT JUMPDEST POP PUSH1 0x4 CALLDATASIZE LT PUSH2 0x1F0 JUMPI PUSH1 0x0 CALLDATALOAD PUSH1 0xE0 SHR DUP1 PUSH4 0x70A08231 GT PUSH2 0x10F JUMPI DUP1 PUSH4 0xA9059CBB GT PUSH2 0xA2 JUMPI DUP1 PUSH4 0xDD62ED3E GT PUSH2 0x71 JUMPI DUP1 PUSH4 0xDD62ED3E EQ PUSH2 0x5AB JUMPI DUP1 PUSH4 0xF2FDE38B EQ PUSH2 0x5DB JUMPI DUP1 PUSH4 0xF9D3D3E8 EQ PUSH2 0x5F7 JUMPI DUP1 PUSH4 0xFC9E0C94 EQ PUSH2 0x613 JUMPI PUSH2 0x1F0 JUMP JUMPDEST DUP1 PUSH4 0xA9059CBB EQ PUSH2 0x527 JUMPI DUP1 PUSH4 0xC2ED286B EQ PUSH2 0x557 JUMPI DUP1 PUSH4 0xCF49A5EF EQ PUSH2 0x573 JUMPI DUP1 PUSH4 0xD80CBC8C EQ PUSH2 0x58F JUMPI PUSH2 0x1F0 JUMP JUMPDEST DUP1 PUSH4 0x8DA5CB5B GT PUSH2 0xDE JUMPI DUP1 PUSH4 0x8DA5CB5B EQ PUSH2 0x48B JUMPI DUP1 PUSH4 0x95D89B41 EQ PUSH2 0x4A9 JUMPI DUP1 PUSH4 0x989763EF EQ PUSH2 0x4C7 JUMPI DUP1 PUSH4 0xA457C2D7 EQ PUSH2 0x4F7 JUMPI PUSH2 0x1F0 JUMP JUMPDEST DUP1 PUSH4 0x70A08231 EQ PUSH2 0x429 JUMPI DUP1 PUSH4 0x715018A6 EQ PUSH2 0x459 JUMPI DUP1 PUSH4 0x7C9E75C0 EQ PUSH2 0x463 JUMPI DUP1 PUSH4 0x7EA382C1 EQ PUSH2 0x481 JUMPI PUSH2 0x1F0 JUMP JUMPDEST DUP1 PUSH4 0x23B872DD GT PUSH2 0x187 JUMPI DUP1 PUSH4 0x39509351 GT PUSH2 0x156 JUMPI DUP1 PUSH4 0x39509351 EQ PUSH2 0x3A1 JUMPI DUP1 PUSH4 0x49BD5A5E EQ PUSH2 0x3D1 JUMPI DUP1 PUSH4 0x4B0DD0D6 EQ PUSH2 0x3EF JUMPI DUP1 PUSH4 0x6E66F6E9 EQ PUSH2 0x40B JUMPI PUSH2 0x1F0 JUMP JUMPDEST DUP1 PUSH4 0x23B872DD EQ PUSH2 0x319 JUMPI DUP1 PUSH4 0x2E1DC4B8 EQ PUSH2 0x349 JUMPI DUP1 PUSH4 0x313CE567 EQ PUSH2 0x365 JUMPI DUP1 PUSH4 0x32CB6B0C EQ PUSH2 0x383 JUMPI PUSH2 0x1F0 JUMP JUMPDEST DUP1 PUSH4 0x1694505E GT PUSH2 0x1C3 JUMPI DUP1 PUSH4 0x1694505E EQ PUSH2 0x28F JUMPI DUP1 PUSH4 0x18160DDD EQ PUSH2 0x2AD JUMPI DUP1 PUSH4 0x1AF41E5D EQ PUSH2 0x2CB JUMPI DUP1 PUSH4 0x1D7C27D7 EQ PUSH2 0x2FB JUMPI PUSH2 0x1F0 JUMP JUMPDEST DUP1 PUSH4 0x6FDDE03 EQ PUSH2 0x1F5 JUMPI DUP1 PUSH4 0x95EA7B3 EQ PUSH2 0x213 JUMPI DUP1 PUSH4 0xE88DAD1 EQ PUSH2 0x243 JUMPI DUP1 PUSH4 0x13E46192 EQ PUSH2 0x273 JUMPI JUMPDEST PUSH1 0x0 DUP1 REVERT JUMPDEST PUSH2 0x1FD PUSH2 0x631 JUMP JUMPDEST PUSH1 0x40 MLOAD PUSH2 0x20A SWAP2 SWAP1 PUSH2 0x18DD JUMP JUMPDEST PUSH1 0x40 MLOAD DUP1 SWAP2 SUB SWAP1 RETURN JUMPDEST PUSH2 0x22D PUSH1 0x4 DUP1 CALLDATASIZE SUB DUP2 ADD SWAP1 PUSH2 0x228 SWAP2 SWAP1 PUSH2 0x1998 JUMP JUMPDEST PUSH2 0x6C3 JUMP JUMPDEST PUSH1 0x40 MLOAD PUSH2 0x23A SWAP2 SWAP1 PUSH2 0x19F3 JUMP JUMPDEST PUSH1 0x40 MLOAD DUP1 SWAP2 SUB SWAP1 RETURN JUMPDEST PUSH2 0x25D PUSH1 0x4 DUP1 CALLDATASIZE SUB DUP2 ADD SWAP1 PUSH2 0x258 SWAP2 SWAP1 PUSH2 0x1A0E JUMP JUMPDEST PUSH2 0x6E6 JUMP JUMPDEST PUSH1 0x40 MLOAD PUSH2 0x26A SWAP2 SWAP1 PUSH2 0x19F3 JUMP JUMPDEST PUSH1 0x40 MLOAD DUP1 SWAP2 SUB SWAP1 RETURN JUMPDEST PUSH2 0x28D PUSH1 0x4 DUP1 CALLDATASIZE SUB DUP2 ADD SWAP1 PUSH2 0x288 SWAP2 SWAP1 PUSH2 0x1A67 JUMP JUMPDEST PUSH2 0x706 JUMP JUMPDEST STOP JUMPDEST PUSH2 0x297 PUSH2 0x769 JUMP JUMPDEST PUSH1 0x40 MLOAD PUSH2 0x2A4 SWAP2 SWAP1 PUSH2 0x1B06 JUMP JUMPDEST PUSH1 0x40 MLOAD DUP1 SWAP2 SUB SWAP1 RETURN JUMPDEST PUSH2 0x2B5 PUSH2 0x78F JUMP JUMPDEST PUSH1 0x40 MLOAD PUSH2 0x2C2 SWAP2 SWAP1 PUSH2 0x1B30 JUMP JUMPDEST PUSH1 0x40 MLOAD DUP1 SWAP2 SUB SWAP1 RETURN JUMPDEST PUSH2 0x2E5 PUSH1 0x4 DUP1 CALLDATASIZE SUB DUP2 ADD SWAP1 PUSH2 0x2E0 SWAP2 SWAP1 PUSH2 0x1A0E JUMP JUMPDEST PUSH2 0x799 JUMP JUMPDEST PUSH1 0x40 MLOAD PUSH2 0x2F2 SWAP2 SWAP1 PUSH2 0x19F3 JUMP JUMPDEST PUSH1 0x40 MLOAD DUP1 SWAP2 SUB SWAP1 RETURN JUMPDEST PUSH2 0x303 PUSH2 0x7B9 JUMP JUMPDEST PUSH1 0x40 MLOAD PUSH2 0x310 SWAP2 SWAP1 PUSH2 0x1B30 JUMP JUMPDEST PUSH1 0x40 MLOAD DUP1 SWAP2 SUB SWAP1 RETURN JUMPDEST PUSH2 0x333 PUSH1 0x4 DUP1 CALLDATASIZE SUB DUP2 ADD SWAP1 PUSH2 0x32E SWAP2 SWAP1 PUSH2 0x1B4B JUMP JUMPDEST PUSH2 0x7BF JUMP JUMPDEST PUSH1 0x40 MLOAD PUSH2 0x340 SWAP2 SWAP1 PUSH2 0x19F3 JUMP JUMPDEST PUSH1 0x40 MLOAD DUP1 SWAP2 SUB SWAP1 RETURN JUMPDEST PUSH2 0x363 PUSH1 0x4 DUP1 CALLDATASIZE SUB DUP2 ADD SWAP1 PUSH2 0x35E SWAP2 SWAP1 PUSH2 0x1A0E JUMP JUMPDEST PUSH2 0x7EE JUMP JUMPDEST STOP JUMPDEST PUSH2 0x36D PUSH2 0x83A JUMP JUMPDEST PUSH1 0x40 MLOAD PUSH2 0x37A SWAP2 SWAP1 PUSH2 0x1BBA JUMP JUMPDEST PUSH1 0x40 MLOAD DUP1 SWAP2 SUB SWAP1 RETURN JUMPDEST PUSH2 0x38B PUSH2 0x843 JUMP JUMPDEST PUSH1 0x40 MLOAD PUSH2 0x398 SWAP2 SWAP1 PUSH2 0x1B30 JUMP JUMPDEST PUSH1 0x40 MLOAD DUP1 SWAP2 SUB SWAP1 RETURN JUMPDEST PUSH2 0x3BB PUSH1 0x4 DUP1 CALLDATASIZE SUB DUP2 ADD SWAP1 PUSH2 0x3B6 SWAP2 SWAP1 PUSH2 0x1998 JUMP JUMPDEST PUSH2 0x855 JUMP JUMPDEST PUSH1 0x40 MLOAD PUSH2 0x3C8 SWAP2 SWAP1 PUSH2 0x19F3 JUMP JUMPDEST PUSH1 0x40 MLOAD DUP1 SWAP2 SUB SWAP1 RETURN JUMPDEST PUSH2 0x3D9 PUSH2 0x88C JUMP JUMPDEST PUSH1 0x40 MLOAD PUSH2 0x3E6 SWAP2 SWAP1 PUSH2 0x1BE4 JUMP JUMPDEST PUSH1 0x40 MLOAD DUP1 SWAP2 SUB SWAP1 RETURN JUMPDEST PUSH2 0x409 PUSH1 0x4 DUP1 CALLDATASIZE SUB DUP2 ADD SWAP1 PUSH2 0x404 SWAP2 SWAP1 PUSH2 0x1BFF JUMP JUMPDEST PUSH2 0x8B2 JUMP JUMPDEST STOP JUMPDEST PUSH2 0x413 PUSH2 0x8C4 JUMP JUMPDEST PUSH1 0x40 MLOAD PUSH2 0x420 SWAP2 SWAP1 PUSH2 0x1BE4 JUMP JUMPDEST PUSH1 0x40 MLOAD DUP1 SWAP2 SUB SWAP1 RETURN JUMPDEST PUSH2 0x443 PUSH1 0x4 DUP1 CALLDATASIZE SUB DUP2 ADD SWAP1 PUSH2 0x43E SWAP2 SWAP1 PUSH2 0x1A0E JUMP JUMPDEST PUSH2 0x8EA JUMP JUMPDEST PUSH1 0x40 MLOAD PUSH2 0x450 SWAP2 SWAP1 PUSH2 0x1B30 JUMP JUMPDEST PUSH1 0x40 MLOAD DUP1 SWAP2 SUB SWAP1 RETURN JUMPDEST PUSH2 0x461 PUSH2 0x932 JUMP JUMPDEST STOP JUMPDEST PUSH2 0x46B PUSH2 0x946 JUMP JUMPDEST PUSH1 0x40 MLOAD PUSH2 0x478 SWAP2 SWAP1 PUSH2 0x1BE4 JUMP JUMPDEST PUSH1 0x40 MLOAD DUP1 SWAP2 SUB SWAP1 RETURN JUMPDEST PUSH2 0x489 PUSH2 0x96C JUMP JUMPDEST STOP JUMPDEST PUSH2 0x493 PUSH2 0xAB8 JUMP JUMPDEST PUSH1 0x40 MLOAD PUSH2 0x4A0 SWAP2 SWAP1 PUSH2 0x1BE4 JUMP JUMPDEST PUSH1 0x40 MLOAD DUP1 SWAP2 SUB SWAP1 RETURN JUMPDEST PUSH2 0x4B1 PUSH2 0xAE2 JUMP JUMPDEST PUSH1 0x40 MLOAD PUSH2 0x4BE SWAP2 SWAP1 PUSH2 0x18DD JUMP JUMPDEST PUSH1 0x40 MLOAD DUP1 SWAP2 SUB SWAP1 RETURN JUMPDEST PUSH2 0x4E1 PUSH1 0x4 DUP1 CALLDATASIZE SUB DUP2 ADD SWAP1 PUSH2 0x4DC SWAP2 SWAP1 PUSH2 0x1A0E JUMP JUMPDEST PUSH2 0xB74 JUMP JUMPDEST PUSH1 0x40 MLOAD PUSH2 0x4EE SWAP2 SWAP1 PUSH2 0x19F3 JUMP JUMPDEST PUSH1 0x40 MLOAD DUP1 SWAP2 SUB SWAP1 RETURN JUMPDEST PUSH2 0x511 PUSH1 0x4 DUP1 CALLDATASIZE SUB DUP2 ADD SWAP1 PUSH2 0x50C SWAP2 SWAP1 PUSH2 0x1998 JUMP JUMPDEST PUSH2 0xB94 JUMP JUMPDEST PUSH1 0x40 MLOAD PUSH2 0x51E SWAP2 SWAP1 PUSH2 0x19F3 JUMP JUMPDEST PUSH1 0x40 MLOAD DUP1 SWAP2 SUB SWAP1 RETURN JUMPDEST PUSH2 0x541 PUSH1 0x4 DUP1 CALLDATASIZE SUB DUP2 ADD SWAP1 PUSH2 0x53C SWAP2 SWAP1 PUSH2 0x1998 JUMP JUMPDEST PUSH2 0xC0B JUMP JUMPDEST PUSH1 0x40 MLOAD PUSH2 0x54E SWAP2 SWAP1 PUSH2 0x19F3 JUMP JUMPDEST PUSH1 0x40 MLOAD DUP1 SWAP2 SUB SWAP1 RETURN JUMPDEST PUSH2 0x571 PUSH1 0x4 DUP1 CALLDATASIZE SUB DUP2 ADD SWAP1 PUSH2 0x56C SWAP2 SWAP1 PUSH2 0x1A67 JUMP JUMPDEST PUSH2 0xFD5 JUMP JUMPDEST STOP JUMPDEST PUSH2 0x58D PUSH1 0x4 DUP1 CALLDATASIZE SUB DUP2 ADD SWAP1 PUSH2 0x588 SWAP2 SWAP1 PUSH2 0x1BFF JUMP JUMPDEST PUSH2 0x1038 JUMP JUMPDEST STOP JUMPDEST PUSH2 0x5A9 PUSH1 0x4 DUP1 CALLDATASIZE SUB DUP2 ADD SWAP1 PUSH2 0x5A4 SWAP2 SWAP1 PUSH2 0x1A67 JUMP JUMPDEST PUSH2 0x104A JUMP JUMPDEST STOP JUMPDEST PUSH2 0x5C5 PUSH1 0x4 DUP1 CALLDATASIZE SUB DUP2 ADD SWAP1 PUSH2 0x5C0 SWAP2 SWAP1 PUSH2 0x1C2C JUMP JUMPDEST PUSH2 0x10AD JUMP JUMPDEST PUSH1 0x40 MLOAD PUSH2 0x5D2 SWAP2 SWAP1 PUSH2 0x1B30 JUMP JUMPDEST PUSH1 0x40 MLOAD DUP1 SWAP2 SUB SWAP1 RETURN JUMPDEST PUSH2 0x5F5 PUSH1 0x4 DUP1 CALLDATASIZE SUB DUP2 ADD SWAP1 PUSH2 0x5F0 SWAP2 SWAP1 PUSH2 0x1A0E JUMP JUMPDEST PUSH2 0x1134 JUMP JUMPDEST STOP JUMPDEST PUSH2 0x611 PUSH1 0x4 DUP1 CALLDATASIZE SUB DUP2 ADD SWAP1 PUSH2 0x60C SWAP2 SWAP1 PUSH2 0x1A0E JUMP JUMPDEST PUSH2 0x11B7 JUMP JUMPDEST STOP JUMPDEST PUSH2 0x61B PUSH2 0x1203 JUMP JUMPDEST PUSH1 0x40 MLOAD PUSH2 0x628 SWAP2 SWAP1 PUSH2 0x1B30 JUMP JUMPDEST PUSH1 0x40 MLOAD DUP1 SWAP2 SUB SWAP1 RETURN JUMPDEST PUSH1 0x60 PUSH1 0x3 DUP1 SLOAD PUSH2 0x640 SWAP1 PUSH2 0x1C9B JUMP JUMPDEST DUP1 PUSH1 0x1F ADD PUSH1 0x20 DUP1 SWAP2 DIV MUL PUSH1 0x20 ADD PUSH1 0x40 MLOAD SWAP1 DUP2 ADD PUSH1 0x40 MSTORE DUP1 SWAP3 SWAP2 SWAP1 DUP2 DUP2 MSTORE PUSH1 0x20 ADD DUP3 DUP1 SLOAD PUSH2 0x66C SWAP1 PUSH2 0x1C9B JUMP JUMPDEST DUP1 ISZERO PUSH2 0x6B9 JUMPI DUP1 PUSH1 0x1F LT PUSH2 0x68E JUMPI PUSH2 0x100 DUP1 DUP4 SLOAD DIV MUL DUP4 MSTORE SWAP2 PUSH1 0x20 ADD SWAP2 PUSH2 0x6B9 JUMP JUMPDEST DUP3 ADD SWAP2 SWAP1 PUSH1 0x0 MSTORE PUSH1 0x20 PUSH1 0x0 KECCAK256 SWAP1 JUMPDEST DUP2 SLOAD DUP2 MSTORE SWAP1 PUSH1 0x1 ADD SWAP1 PUSH1 0x20 ADD DUP1 DUP4 GT PUSH2 0x69C JUMPI DUP3 SWAP1 SUB PUSH1 0x1F AND DUP3 ADD SWAP2 JUMPDEST POP POP POP POP POP SWAP1 POP SWAP1 JUMP JUMPDEST PUSH1 0x0 DUP1 PUSH2 0x6CE PUSH2 0x1209 JUMP JUMPDEST SWAP1 POP PUSH2 0x6DB DUP2 DUP6 DUP6 PUSH2 0x1211 JUMP JUMPDEST PUSH1 0x1 SWAP2 POP POP SWAP3 SWAP2 POP POP JUMP JUMPDEST PUSH1 0xE PUSH1 0x20 MSTORE DUP1 PUSH1 0x0 MSTORE PUSH1 0x40 PUSH1 0x0 KECCAK256 PUSH1 0x0 SWAP2 POP SLOAD SWAP1 PUSH2 0x100 EXP SWAP1 DIV PUSH1 0xFF AND DUP2 JUMP JUMPDEST PUSH2 0x70E PUSH2 0x13DA JUMP JUMPDEST DUP1 PUSH1 0xD PUSH1 0x0 DUP5 PUSH20 0xFFFFFFFFFFFFFFFFFFFFFFFFFFFFFFFFFFFFFFFF AND PUSH20 0xFFFFFFFFFFFFFFFFFFFFFFFFFFFFFFFFFFFFFFFF AND DUP2 MSTORE PUSH1 0x20 ADD SWAP1 DUP2 MSTORE PUSH1 0x20 ADD PUSH1 0x0 KECCAK256 PUSH1 0x0 PUSH2 0x100 EXP DUP2 SLOAD DUP2 PUSH1 0xFF MUL NOT AND SWAP1 DUP4 ISZERO ISZERO MUL OR SWAP1 SSTORE POP POP POP JUMP JUMPDEST PUSH1 0x6 PUSH1 0x0 SWAP1 SLOAD SWAP1 PUSH2 0x100 EXP SWAP1 DIV PUSH20 0xFFFFFFFFFFFFFFFFFFFFFFFFFFFFFFFFFFFFFFFF AND DUP2 JUMP JUMPDEST PUSH1 0x0 PUSH1 0x2 SLOAD SWAP1 POP SWAP1 JUMP JUMPDEST PUSH1 0xD PUSH1 0x20 MSTORE DUP1 PUSH1 0x0 MSTORE PUSH1 0x40 PUSH1 0x0 KECCAK256 PUSH1 0x0 SWAP2 POP SLOAD SWAP1 PUSH2 0x100 EXP SWAP1 DIV PUSH1 0xFF AND DUP2 JUMP JUMPDEST PUSH1 0xB SLOAD DUP2 JUMP JUMPDEST PUSH1 0x0 DUP1 PUSH2 0x7CA PUSH2 0x1209 JUMP JUMPDEST SWAP1 POP PUSH2 0x7D7 DUP6 DUP3 DUP6 PUSH2 0x1458 JUMP JUMPDEST PUSH2 0x7E2 DUP6 DUP6 DUP6 PUSH2 0x14E4 JUMP JUMPDEST PUSH1 0x1 SWAP2 POP POP SWAP4 SWAP3 POP POP POP JUMP JUMPDEST PUSH2 0x7F6 PUSH2 0x13DA JUMP JUMPDEST DUP1 PUSH1 0x8 PUSH1 0x0 PUSH2 0x100 EXP DUP2 SLOAD DUP2 PUSH20 0xFFFFFFFFFFFFFFFFFFFFFFFFFFFFFFFFFFFFFFFF MUL NOT AND SWAP1 DUP4 PUSH20 0xFFFFFFFFFFFFFFFFFFFFFFFFFFFFFFFFFFFFFFFF AND MUL OR SWAP1 SSTORE POP POP JUMP JUMPDEST PUSH1 0x0 PUSH1 0x12 SWAP1 POP SWAP1 JUMP JUMPDEST PUSH14 0x314DC6448D9338C15B0A00000000 DUP2 JUMP JUMPDEST PUSH1 0x0 DUP1 PUSH2 0x860 PUSH2 0x1209 JUMP JUMPDEST SWAP1 POP PUSH2 0x881 DUP2 DUP6 DUP6 PUSH2 0x872 DUP6 DUP10 PUSH2 0x10AD JUMP JUMPDEST PUSH2 0x87C SWAP2 SWAP1 PUSH2 0x1CFB JUMP JUMPDEST PUSH2 0x1211 JUMP JUMPDEST PUSH1 0x1 SWAP2 POP POP SWAP3 SWAP2 POP POP JUMP JUMPDEST PUSH1 0x7 PUSH1 0x0 SWAP1 SLOAD SWAP1 PUSH2 0x100 EXP SWAP1 DIV PUSH20 0xFFFFFFFFFFFFFFFFFFFFFFFFFFFFFFFFFFFFFFFF AND DUP2 JUMP JUMPDEST PUSH2 0x8BA PUSH2 0x13DA JUMP JUMPDEST DUP1 PUSH1 0xA DUP2 SWAP1 SSTORE POP POP JUMP JUMPDEST PUSH1 0x8 PUSH1 0x0 SWAP1 SLOAD SWAP1 PUSH2 0x100 EXP SWAP1 DIV PUSH20 0xFFFFFFFFFFFFFFFFFFFFFFFFFFFFFFFFFFFFFFFF AND DUP2 JUMP JUMPDEST PUSH1 0x0 DUP1 PUSH1 0x0 DUP4 PUSH20 0xFFFFFFFFFFFFFFFFFFFFFFFFFFFFFFFFFFFFFFFF AND PUSH20 0xFFFFFFFFFFFFFFFFFFFFFFFFFFFFFFFFFFFFFFFF AND DUP2 MSTORE PUSH1 0x20 ADD SWAP1 DUP2 MSTORE PUSH1 0x20 ADD PUSH1 0x0 KECCAK256 SLOAD SWAP1 POP SWAP2 SWAP1 POP JUMP JUMPDEST PUSH2 0x93A PUSH2 0x13DA JUMP JUMPDEST PUSH2 0x944 PUSH1 0x0 PUSH2 0x175A JUMP JUMPDEST JUMP JUMPDEST PUSH1 0x9 PUSH1 0x0 SWAP1 SLOAD SWAP1 PUSH2 0x100 EXP SWAP1 DIV PUSH20 0xFFFFFFFFFFFFFFFFFFFFFFFFFFFFFFFFFFFFFFFF AND DUP2 JUMP JUMPDEST PUSH2 0x974 PUSH2 0x13DA JUMP JUMPDEST PUSH1 0x0 DUP1 PUSH1 0x6 PUSH1 0x0 SWAP1 SLOAD SWAP1 PUSH2 0x100 EXP SWAP1 DIV PUSH20 0xFFFFFFFFFFFFFFFFFFFFFFFFFFFFFFFFFFFFFFFF AND PUSH20 0xFFFFFFFFFFFFFFFFFFFFFFFFFFFFFFFFFFFFFFFF AND PUSH4 0x2751CEC ADDRESS PUSH2 0x9E1 PUSH1 0x7 PUSH1 0x0 SWAP1 SLOAD SWAP1 PUSH2 0x100 EXP SWAP1 DIV PUSH20 0xFFFFFFFFFFFFFFFFFFFFFFFFFFFFFFFFFFFFFFFF AND PUSH2 0x8EA JUMP JUMPDEST PUSH1 0x0 DUP1 PUSH2 0x9EC PUSH2 0xAB8 JUMP JUMPDEST TIMESTAMP PUSH1 0x40 MLOAD DUP8 PUSH4 0xFFFFFFFF AND PUSH1 0xE0 SHL DUP2 MSTORE PUSH1 0x4 ADD PUSH2 0xA0E SWAP7 SWAP6 SWAP5 SWAP4 SWAP3 SWAP2 SWAP1 PUSH2 0x1D6A JUMP JUMPDEST PUSH1 0x40 DUP1 MLOAD DUP1 DUP4 SUB DUP2 PUSH1 0x0 DUP8 GAS CALL ISZERO DUP1 ISZERO PUSH2 0xA2C JUMPI RETURNDATASIZE PUSH1 0x0 DUP1 RETURNDATACOPY RETURNDATASIZE PUSH1 0x0 REVERT JUMPDEST POP POP POP POP PUSH1 0x40 MLOAD RETURNDATASIZE PUSH1 0x1F NOT PUSH1 0x1F DUP3 ADD AND DUP3 ADD DUP1 PUSH1 0x40 MSTORE POP DUP2 ADD SWAP1 PUSH2 0xA50 SWAP2 SWAP1 PUSH2 0x1DE0 JUMP JUMPDEST SWAP2 POP SWAP2 POP PUSH2 0xA66 ADDRESS PUSH2 0xA60 PUSH2 0xAB8 JUMP JUMPDEST DUP5 PUSH2 0x14E4 JUMP JUMPDEST PUSH2 0xA6E PUSH2 0xAB8 JUMP JUMPDEST PUSH20 0xFFFFFFFFFFFFFFFFFFFFFFFFFFFFFFFFFFFFFFFF AND PUSH2 0x8FC DUP3 SWAP1 DUP2 ISZERO MUL SWAP1 PUSH1 0x40 MLOAD PUSH1 0x0 PUSH1 0x40 MLOAD DUP1 DUP4 SUB DUP2 DUP6 DUP9 DUP9 CALL SWAP4 POP POP POP POP ISZERO DUP1 ISZERO PUSH2 0xAB3 JUMPI RETURNDATASIZE PUSH1 0x0 DUP1 RETURNDATACOPY RETURNDATASIZE PUSH1 0x0 REVERT JUMPDEST POP POP POP JUMP JUMPDEST PUSH1 0x0 PUSH1 0x5 PUSH1 0x0 SWAP1 SLOAD SWAP1 PUSH2 0x100 EXP SWAP1 DIV PUSH20 0xFFFFFFFFFFFFFFFFFFFFFFFFFFFFFFFFFFFFFFFF AND SWAP1 POP SWAP1 JUMP JUMPDEST PUSH1 0x60 PUSH1 0x4 DUP1 SLOAD PUSH2 0xAF1 SWAP1 PUSH2 0x1C9B JUMP JUMPDEST DUP1 PUSH1 0x1F ADD PUSH1 0x20 DUP1 SWAP2 DIV MUL PUSH1 0x20 ADD PUSH1 0x40 MLOAD SWAP1 DUP2 ADD PUSH1 0x40 MSTORE DUP1 SWAP3 SWAP2 SWAP1 DUP2 DUP2 MSTORE PUSH1 0x20 ADD DUP3 DUP1 SLOAD PUSH2 0xB1D SWAP1 PUSH2 0x1C9B JUMP JUMPDEST DUP1 ISZERO PUSH2 0xB6A JUMPI DUP1 PUSH1 0x1F LT PUSH2 0xB3F JUMPI PUSH2 0x100 DUP1 DUP4 SLOAD DIV MUL DUP4 MSTORE SWAP2 PUSH1 0x20 ADD SWAP2 PUSH2 0xB6A JUMP JUMPDEST DUP3 ADD SWAP2 SWAP1 PUSH1 0x0 MSTORE PUSH1 0x20 PUSH1 0x0 KECCAK256 SWAP1 JUMPDEST DUP2 SLOAD DUP2 MSTORE SWAP1 PUSH1 0x1 ADD SWAP1 PUSH1 0x20 ADD DUP1 DUP4 GT PUSH2 0xB4D JUMPI DUP3 SWAP1 SUB PUSH1 0x1F AND DUP3 ADD SWAP2 JUMPDEST POP POP POP POP POP SWAP1 POP SWAP1 JUMP JUMPDEST PUSH1 0xC PUSH1 0x20 MSTORE DUP1 PUSH1 0x0 MSTORE PUSH1 0x40 PUSH1 0x0 KECCAK256 PUSH1 0x0 SWAP2 POP SLOAD SWAP1 PUSH2 0x100 EXP SWAP1 DIV PUSH1 0xFF AND DUP2 JUMP JUMPDEST PUSH1 0x0 DUP1 PUSH2 0xB9F PUSH2 0x1209 JUMP JUMPDEST SWAP1 POP PUSH1 0x0 PUSH2 0xBAD DUP3 DUP7 PUSH2 0x10AD JUMP JUMPDEST SWAP1 POP DUP4 DUP2 LT ISZERO PUSH2 0xBF2 JUMPI PUSH1 0x40 MLOAD PUSH32 0x8C379A000000000000000000000000000000000000000000000000000000000 DUP2 MSTORE PUSH1 0x4 ADD PUSH2 0xBE9 SWAP1 PUSH2 0x1E92 JUMP JUMPDEST PUSH1 0x40 MLOAD DUP1 SWAP2 SUB SWAP1 REVERT JUMPDEST PUSH2 0xBFF DUP3 DUP7 DUP7 DUP5 SUB PUSH2 0x1211 JUMP JUMPDEST PUSH1 0x1 SWAP3 POP POP POP SWAP3 SWAP2 POP POP JUMP JUMPDEST PUSH1 0x0 DUP1 DUP3 GT PUSH2 0xC4F JUMPI PUSH1 0x40 MLOAD PUSH32 0x8C379A000000000000000000000000000000000000000000000000000000000 DUP2 MSTORE PUSH1 0x4 ADD PUSH2 0xC46 SWAP1 PUSH2 0x1F24 JUMP JUMPDEST PUSH1 0x40 MLOAD DUP1 SWAP2 SUB SWAP1 REVERT JUMPDEST PUSH1 0x0 PUSH1 0xA SLOAD SWAP1 POP PUSH1 0x0 PUSH1 0x64 DUP3 DUP6 PUSH2 0xC66 SWAP2 SWAP1 PUSH2 0x1F44 JUMP JUMPDEST PUSH2 0xC70 SWAP2 SWAP1 PUSH2 0x1FB5 JUMP JUMPDEST DUP5 PUSH2 0xC7B SWAP2 SWAP1 PUSH2 0x1FE6 JUMP JUMPDEST SWAP1 POP PUSH1 0x7 PUSH1 0x0 SWAP1 SLOAD SWAP1 PUSH2 0x100 EXP SWAP1 DIV PUSH20 0xFFFFFFFFFFFFFFFFFFFFFFFFFFFFFFFFFFFFFFFF AND PUSH20 0xFFFFFFFFFFFFFFFFFFFFFFFFFFFFFFFFFFFFFFFF AND DUP6 PUSH20 0xFFFFFFFFFFFFFFFFFFFFFFFFFFFFFFFFFFFFFFFF AND SUB PUSH2 0xCFD JUMPI PUSH1 0xB SLOAD SWAP2 POP PUSH1 0x64 DUP3 DUP6 PUSH2 0xCE5 SWAP2 SWAP1 PUSH2 0x1F44 JUMP JUMPDEST PUSH2 0xCEF SWAP2 SWAP1 PUSH2 0x1FB5 JUMP JUMPDEST DUP5 PUSH2 0xCFA SWAP2 SWAP1 PUSH2 0x1FE6 JUMP JUMPDEST SWAP1 POP JUMPDEST PUSH1 0xC PUSH1 0x0 PUSH2 0xD09 PUSH2 0x1209 JUMP JUMPDEST PUSH20 0xFFFFFFFFFFFFFFFFFFFFFFFFFFFFFFFFFFFFFFFF AND PUSH20 0xFFFFFFFFFFFFFFFFFFFFFFFFFFFFFFFFFFFFFFFF AND DUP2 MSTORE PUSH1 0x20 ADD SWAP1 DUP2 MSTORE PUSH1 0x20 ADD PUSH1 0x0 KECCAK256 PUSH1 0x0 SWAP1 SLOAD SWAP1 PUSH2 0x100 EXP SWAP1 DIV PUSH1 0xFF AND PUSH2 0xD65 JUMPI PUSH2 0xD5F DUP6 DUP3 PUSH2 0x1820 JUMP JUMPDEST POP PUSH2 0xD71 JUMP JUMPDEST PUSH2 0xD6F DUP6 DUP6 PUSH2 0x1820 JUMP JUMPDEST POP JUMPDEST PUSH1 0xC PUSH1 0x0 PUSH2 0xD7D PUSH2 0x1209 JUMP JUMPDEST PUSH20 0xFFFFFFFFFFFFFFFFFFFFFFFFFFFFFFFFFFFFFFFF AND PUSH20 0xFFFFFFFFFFFFFFFFFFFFFFFFFFFFFFFFFFFFFFFF AND DUP2 MSTORE PUSH1 0x20 ADD SWAP1 DUP2 MSTORE PUSH1 0x20 ADD PUSH1 0x0 KECCAK256 PUSH1 0x0 SWAP1 SLOAD SWAP1 PUSH2 0x100 EXP SWAP1 DIV PUSH1 0xFF AND PUSH2 0xFC9 JUMPI PUSH1 0x0 PUSH1 0x64 DUP4 DUP7 PUSH2 0xDD9 SWAP2 SWAP1 PUSH2 0x1F44 JUMP JUMPDEST PUSH2 0xDE3 SWAP2 SWAP1 PUSH2 0x1FB5 JUMP JUMPDEST SWAP1 POP PUSH1 0x0 PUSH1 0x64 DUP5 DUP8 PUSH2 0xDF5 SWAP2 SWAP1 PUSH2 0x1F44 JUMP JUMPDEST PUSH2 0xDFF SWAP2 SWAP1 PUSH2 0x1FB5 JUMP JUMPDEST SWAP1 POP PUSH1 0x0 PUSH1 0x64 DUP6 DUP9 PUSH2 0xE11 SWAP2 SWAP1 PUSH2 0x1F44 JUMP JUMPDEST PUSH2 0xE1B SWAP2 SWAP1 PUSH2 0x1FB5 JUMP JUMPDEST SWAP1 POP PUSH1 0x0 PUSH1 0x64 DUP7 DUP10 PUSH2 0xE2D SWAP2 SWAP1 PUSH2 0x1F44 JUMP JUMPDEST PUSH2 0xE37 SWAP2 SWAP1 PUSH2 0x1FB5 JUMP JUMPDEST SWAP1 POP PUSH2 0xE45 PUSH2 0xDEAD DUP6 PUSH2 0x1820 JUMP JUMPDEST POP PUSH2 0xE72 PUSH1 0x8 PUSH1 0x0 SWAP1 SLOAD SWAP1 PUSH2 0x100 EXP SWAP1 DIV PUSH20 0xFFFFFFFFFFFFFFFFFFFFFFFFFFFFFFFFFFFFFFFF AND DUP5 PUSH2 0x1820 JUMP JUMPDEST POP PUSH2 0xE7D ADDRESS DUP4 PUSH2 0x1820 JUMP JUMPDEST POP PUSH2 0xE8F PUSH2 0xE89 PUSH2 0xAB8 JUMP JUMPDEST DUP3 PUSH2 0x1820 JUMP JUMPDEST POP PUSH1 0x0 PUSH2 0xE9B ADDRESS PUSH2 0x8EA JUMP JUMPDEST SWAP1 POP PUSH1 0x0 PUSH1 0x64 DUP5 DUP4 PUSH2 0xEAD SWAP2 SWAP1 PUSH2 0x1F44 JUMP JUMPDEST PUSH2 0xEB7 SWAP2 SWAP1 PUSH2 0x1FB5 JUMP JUMPDEST SWAP1 POP PUSH1 0x0 DUP2 DUP4 PUSH2 0xEC7 SWAP2 SWAP1 PUSH2 0x1FE6 JUMP JUMPDEST SWAP1 POP PUSH1 0x0 DUP3 GT ISZERO PUSH2 0xFC1 JUMPI PUSH2 0xEFE PUSH1 0x6 PUSH1 0x0 SWAP1 SLOAD SWAP1 PUSH2 0x100 EXP SWAP1 DIV PUSH20 0xFFFFFFFFFFFFFFFFFFFFFFFFFFFFFFFFFFFFFFFF AND DUP4 PUSH2 0x6C3 JUMP JUMPDEST POP PUSH1 0x6 PUSH1 0x0 SWAP1 SLOAD SWAP1 PUSH2 0x100 EXP SWAP1 DIV PUSH20 0xFFFFFFFFFFFFFFFFFFFFFFFFFFFFFFFFFFFFFFFF AND PUSH20 0xFFFFFFFFFFFFFFFFFFFFFFFFFFFFFFFFFFFFFFFF AND PUSH4 0xF305D719 DUP4 ADDRESS DUP5 PUSH1 0x0 DUP1 PUSH2 0xF4B PUSH2 0xAB8 JUMP JUMPDEST PUSH2 0x168 TIMESTAMP PUSH2 0xF59 SWAP2 SWAP1 PUSH2 0x1CFB JUMP JUMPDEST PUSH1 0x40 MLOAD DUP9 PUSH4 0xFFFFFFFF AND PUSH1 0xE0 SHL DUP2 MSTORE PUSH1 0x4 ADD PUSH2 0xF7A SWAP7 SWAP6 SWAP5 SWAP4 SWAP3 SWAP2 SWAP1 PUSH2 0x1D6A JUMP JUMPDEST PUSH1 0x60 PUSH1 0x40 MLOAD DUP1 DUP4 SUB DUP2 DUP6 DUP9 GAS CALL ISZERO DUP1 ISZERO PUSH2 0xF98 JUMPI RETURNDATASIZE PUSH1 0x0 DUP1 RETURNDATACOPY RETURNDATASIZE PUSH1 0x0 REVERT JUMPDEST POP POP POP POP POP PUSH1 0x40 MLOAD RETURNDATASIZE PUSH1 0x1F NOT PUSH1 0x1F DUP3 ADD AND DUP3 ADD DUP1 PUSH1 0x40 MSTORE POP DUP2 ADD SWAP1 PUSH2 0xFBD SWAP2 SWAP1 PUSH2 0x201A JUMP JUMPDEST POP POP POP JUMPDEST POP POP POP POP POP POP POP JUMPDEST PUSH1 0x1 SWAP3 POP POP POP SWAP3 SWAP2 POP POP JUMP JUMPDEST PUSH2 0xFDD PUSH2 0x13DA JUMP JUMPDEST DUP1 PUSH1 0xC PUSH1 0x0 DUP5 PUSH20 0xFFFFFFFFFFFFFFFFFFFFFFFFFFFFFFFFFFFFFFFF AND PUSH20 0xFFFFFFFFFFFFFFFFFFFFFFFFFFFFFFFFFFFFFFFF AND DUP2 MSTORE PUSH1 0x20 ADD SWAP1 DUP2 MSTORE PUSH1 0x20 ADD PUSH1 0x0 KECCAK256 PUSH1 0x0 PUSH2 0x100 EXP DUP2 SLOAD DUP2 PUSH1 0xFF MUL NOT AND SWAP1 DUP4 ISZERO ISZERO MUL OR SWAP1 SSTORE POP POP POP JUMP JUMPDEST PUSH2 0x1040 PUSH2 0x13DA JUMP JUMPDEST DUP1 PUSH1 0xB DUP2 SWAP1 SSTORE POP POP JUMP JUMPDEST PUSH2 0x1052 PUSH2 0x13DA JUMP JUMPDEST DUP1 PUSH1 0xE PUSH1 0x0 DUP5 PUSH20 0xFFFFFFFFFFFFFFFFFFFFFFFFFFFFFFFFFFFFFFFF AND PUSH20 0xFFFFFFFFFFFFFFFFFFFFFFFFFFFFFFFFFFFFFFFF AND DUP2 MSTORE PUSH1 0x20 ADD SWAP1 DUP2 MSTORE PUSH1 0x20 ADD PUSH1 0x0 KECCAK256 PUSH1 0x0 PUSH2 0x100 EXP DUP2 SLOAD DUP2 PUSH1 0xFF MUL NOT AND SWAP1 DUP4 ISZERO ISZERO MUL OR SWAP1 SSTORE POP POP POP JUMP JUMPDEST PUSH1 0x0 PUSH1 0x1 PUSH1 0x0 DUP5 PUSH20 0xFFFFFFFFFFFFFFFFFFFFFFFFFFFFFFFFFFFFFFFF AND PUSH20 0xFFFFFFFFFFFFFFFFFFFFFFFFFFFFFFFFFFFFFFFF AND DUP2 MSTORE PUSH1 0x20 ADD SWAP1 DUP2 MSTORE PUSH1 0x20 ADD PUSH1 0x0 KECCAK256 PUSH1 0x0 DUP4 PUSH20 0xFFFFFFFFFFFFFFFFFFFFFFFFFFFFFFFFFFFFFFFF AND PUSH20 0xFFFFFFFFFFFFFFFFFFFFFFFFFFFFFFFFFFFFFFFF AND DUP2 MSTORE PUSH1 0x20 ADD SWAP1 DUP2 MSTORE PUSH1 0x20 ADD PUSH1 0x0 KECCAK256 SLOAD SWAP1 POP SWAP3 SWAP2 POP POP JUMP JUMPDEST PUSH2 0x113C PUSH2 0x13DA JUMP JUMPDEST PUSH1 0x0 PUSH20 0xFFFFFFFFFFFFFFFFFFFFFFFFFFFFFFFFFFFFFFFF AND DUP2 PUSH20 0xFFFFFFFFFFFFFFFFFFFFFFFFFFFFFFFFFFFFFFFF AND SUB PUSH2 0x11AB JUMPI PUSH1 0x40 MLOAD PUSH32 0x8C379A000000000000000000000000000000000000000000000000000000000 DUP2 MSTORE PUSH1 0x4 ADD PUSH2 0x11A2 SWAP1 PUSH2 0x20DF JUMP JUMPDEST PUSH1 0x40 MLOAD DUP1 SWAP2 SUB SWAP1 REVERT JUMPDEST PUSH2 0x11B4 DUP2 PUSH2 0x175A JUMP JUMPDEST POP JUMP JUMPDEST PUSH2 0x11BF PUSH2 0x13DA JUMP JUMPDEST DUP1 PUSH1 0x9 PUSH1 0x0 PUSH2 0x100 EXP DUP2 SLOAD DUP2 PUSH20 0xFFFFFFFFFFFFFFFFFFFFFFFFFFFFFFFFFFFFFFFF MUL NOT AND SWAP1 DUP4 PUSH20 0xFFFFFFFFFFFFFFFFFFFFFFFFFFFFFFFFFFFFFFFF AND MUL OR SWAP1 SSTORE POP POP JUMP JUMPDEST PUSH1 0xA SLOAD DUP2 JUMP JUMPDEST PUSH1 0x0 CALLER SWAP1 POP SWAP1 JUMP JUMPDEST PUSH1 0x0 PUSH20 0xFFFFFFFFFFFFFFFFFFFFFFFFFFFFFFFFFFFFFFFF AND DUP4 PUSH20 0xFFFFFFFFFFFFFFFFFFFFFFFFFFFFFFFFFFFFFFFF AND SUB PUSH2 0x1280 JUMPI PUSH1 0x40 MLOAD PUSH32 0x8C379A000000000000000000000000000000000000000000000000000000000 DUP2 MSTORE PUSH1 0x4 ADD PUSH2 0x1277 SWAP1 PUSH2 0x2171 JUMP JUMPDEST PUSH1 0x40 MLOAD DUP1 SWAP2 SUB SWAP1 REVERT JUMPDEST PUSH1 0x0 PUSH20 0xFFFFFFFFFFFFFFFFFFFFFFFFFFFFFFFFFFFFFFFF AND DUP3 PUSH20 0xFFFFFFFFFFFFFFFFFFFFFFFFFFFFFFFFFFFFFFFF AND SUB PUSH2 0x12EF JUMPI PUSH1 0x40 MLOAD PUSH32 0x8C379A000000000000000000000000000000000000000000000000000000000 DUP2 MSTORE PUSH1 0x4 ADD PUSH2 0x12E6 SWAP1 PUSH2 0x2203 JUMP JUMPDEST PUSH1 0x40 MLOAD DUP1 SWAP2 SUB SWAP1 REVERT JUMPDEST DUP1 PUSH1 0x1 PUSH1 0x0 DUP6 PUSH20 0xFFFFFFFFFFFFFFFFFFFFFFFFFFFFFFFFFFFFFFFF AND PUSH20 0xFFFFFFFFFFFFFFFFFFFFFFFFFFFFFFFFFFFFFFFF AND DUP2 MSTORE PUSH1 0x20 ADD SWAP1 DUP2 MSTORE PUSH1 0x20 ADD PUSH1 0x0 KECCAK256 PUSH1 0x0 DUP5 PUSH20 0xFFFFFFFFFFFFFFFFFFFFFFFFFFFFFFFFFFFFFFFF AND PUSH20 0xFFFFFFFFFFFFFFFFFFFFFFFFFFFFFFFFFFFFFFFF AND DUP2 MSTORE PUSH1 0x20 ADD SWAP1 DUP2 MSTORE PUSH1 0x20 ADD PUSH1 0x0 KECCAK256 DUP2 SWAP1 SSTORE POP DUP2 PUSH20 0xFFFFFFFFFFFFFFFFFFFFFFFFFFFFFFFFFFFFFFFF AND DUP4 PUSH20 0xFFFFFFFFFFFFFFFFFFFFFFFFFFFFFFFFFFFFFFFF AND PUSH32 0x8C5BE1E5EBEC7D5BD14F71427D1E84F3DD0314C0F7B2291E5B200AC8C7C3B925 DUP4 PUSH1 0x40 MLOAD PUSH2 0x13CD SWAP2 SWAP1 PUSH2 0x1B30 JUMP JUMPDEST PUSH1 0x40 MLOAD DUP1 SWAP2 SUB SWAP1 LOG3 POP POP POP JUMP JUMPDEST PUSH2 0x13E2 PUSH2 0x1209 JUMP JUMPDEST PUSH20 0xFFFFFFFFFFFFFFFFFFFFFFFFFFFFFFFFFFFFFFFF AND PUSH2 0x1400 PUSH2 0xAB8 JUMP JUMPDEST PUSH20 0xFFFFFFFFFFFFFFFFFFFFFFFFFFFFFFFFFFFFFFFF AND EQ PUSH2 0x1456 JUMPI PUSH1 0x40 MLOAD PUSH32 0x8C379A000000000000000000000000000000000000000000000000000000000 DUP2 MSTORE PUSH1 0x4 ADD PUSH2 0x144D SWAP1 PUSH2 0x226F JUMP JUMPDEST PUSH1 0x40 MLOAD DUP1 SWAP2 SUB SWAP1 REVERT JUMPDEST JUMP JUMPDEST PUSH1 0x0 PUSH2 0x1464 DUP5 DUP5 PUSH2 0x10AD JUMP JUMPDEST SWAP1 POP PUSH32 0xFFFFFFFFFFFFFFFFFFFFFFFFFFFFFFFFFFFFFFFFFFFFFFFFFFFFFFFFFFFFFFFF DUP2 EQ PUSH2 0x14DE JUMPI DUP2 DUP2 LT ISZERO PUSH2 0x14D0 JUMPI PUSH1 0x40 MLOAD PUSH32 0x8C379A000000000000000000000000000000000000000000000000000000000 DUP2 MSTORE PUSH1 0x4 ADD PUSH2 0x14C7 SWAP1 PUSH2 0x22DB JUMP JUMPDEST PUSH1 0x40 MLOAD DUP1 SWAP2 SUB SWAP1 REVERT JUMPDEST PUSH2 0x14DD DUP5 DUP5 DUP5 DUP5 SUB PUSH2 0x1211 JUMP JUMPDEST JUMPDEST POP POP POP POP JUMP JUMPDEST PUSH1 0x0 PUSH20 0xFFFFFFFFFFFFFFFFFFFFFFFFFFFFFFFFFFFFFFFF AND DUP4 PUSH20 0xFFFFFFFFFFFFFFFFFFFFFFFFFFFFFFFFFFFFFFFF AND SUB PUSH2 0x1553 JUMPI PUSH1 0x40 MLOAD PUSH32 0x8C379A000000000000000000000000000000000000000000000000000000000 DUP2 MSTORE PUSH1 0x4 ADD PUSH2 0x154A SWAP1 PUSH2 0x236D JUMP JUMPDEST PUSH1 0x40 MLOAD DUP1 SWAP2 SUB SWAP1 REVERT JUMPDEST PUSH1 0x0 PUSH20 0xFFFFFFFFFFFFFFFFFFFFFFFFFFFFFFFFFFFFFFFF AND DUP3 PUSH20 0xFFFFFFFFFFFFFFFFFFFFFFFFFFFFFFFFFFFFFFFF AND SUB PUSH2 0x15C2 JUMPI PUSH1 0x40 MLOAD PUSH32 0x8C379A000000000000000000000000000000000000000000000000000000000 DUP2 MSTORE PUSH1 0x4 ADD PUSH2 0x15B9 SWAP1 PUSH2 0x23FF JUMP JUMPDEST PUSH1 0x40 MLOAD DUP1 SWAP2 SUB SWAP1 REVERT JUMPDEST PUSH2 0x15CD DUP4 DUP4 DUP4 PUSH2 0x1843 JUMP JUMPDEST PUSH1 0x0 DUP1 PUSH1 0x0 DUP6 PUSH20 0xFFFFFFFFFFFFFFFFFFFFFFFFFFFFFFFFFFFFFFFF AND PUSH20 0xFFFFFFFFFFFFFFFFFFFFFFFFFFFFFFFFFFFFFFFF AND DUP2 MSTORE PUSH1 0x20 ADD SWAP1 DUP2 MSTORE PUSH1 0x20 ADD PUSH1 0x0 KECCAK256 SLOAD SWAP1 POP DUP2 DUP2 LT ISZERO PUSH2 0x1653 JUMPI PUSH1 0x40 MLOAD PUSH32 0x8C379A000000000000000000000000000000000000000000000000000000000 DUP2 MSTORE PUSH1 0x4 ADD PUSH2 0x164A SWAP1 PUSH2 0x2491 JUMP JUMPDEST PUSH1 0x40 MLOAD DUP1 SWAP2 SUB SWAP1 REVERT JUMPDEST DUP2 DUP2 SUB PUSH1 0x0 DUP1 DUP7 PUSH20 0xFFFFFFFFFFFFFFFFFFFFFFFFFFFFFFFFFFFFFFFF AND PUSH20 0xFFFFFFFFFFFFFFFFFFFFFFFFFFFFFFFFFFFFFFFF AND DUP2 MSTORE PUSH1 0x20 ADD SWAP1 DUP2 MSTORE PUSH1 0x20 ADD PUSH1 0x0 KECCAK256 DUP2 SWAP1 SSTORE POP DUP2 PUSH1 0x0 DUP1 DUP6 PUSH20 0xFFFFFFFFFFFFFFFFFFFFFFFFFFFFFFFFFFFFFFFF AND PUSH20 0xFFFFFFFFFFFFFFFFFFFFFFFFFFFFFFFFFFFFFFFF AND DUP2 MSTORE PUSH1 0x20 ADD SWAP1 DUP2 MSTORE PUSH1 0x20 ADD PUSH1 0x0 KECCAK256 PUSH1 0x0 DUP3 DUP3 SLOAD ADD SWAP3 POP POP DUP2 SWAP1 SSTORE POP DUP3 PUSH20 0xFFFFFFFFFFFFFFFFFFFFFFFFFFFFFFFFFFFFFFFF AND DUP5 PUSH20 0xFFFFFFFFFFFFFFFFFFFFFFFFFFFFFFFFFFFFFFFF AND PUSH32 0xDDF252AD1BE2C89B69C2B068FC378DAA952BA7F163C4A11628F55A4DF523B3EF DUP5 PUSH1 0x40 MLOAD PUSH2 0x1741 SWAP2 SWAP1 PUSH2 0x1B30 JUMP JUMPDEST PUSH1 0x40 MLOAD DUP1 SWAP2 SUB SWAP1 LOG3 PUSH2 0x1754 DUP5 DUP5 DUP5 PUSH2 0x1848 JUMP JUMPDEST POP POP POP POP JUMP JUMPDEST PUSH1 0x0 PUSH1 0x5 PUSH1 0x0 SWAP1 SLOAD SWAP1 PUSH2 0x100 EXP SWAP1 DIV PUSH20 0xFFFFFFFFFFFFFFFFFFFFFFFFFFFFFFFFFFFFFFFF AND SWAP1 POP DUP2 PUSH1 0x5 PUSH1 0x0 PUSH2 0x100 EXP DUP2 SLOAD DUP2 PUSH20 0xFFFFFFFFFFFFFFFFFFFFFFFFFFFFFFFFFFFFFFFF MUL NOT AND SWAP1 DUP4 PUSH20 0xFFFFFFFFFFFFFFFFFFFFFFFFFFFFFFFFFFFFFFFF AND MUL OR SWAP1 SSTORE POP DUP2 PUSH20 0xFFFFFFFFFFFFFFFFFFFFFFFFFFFFFFFFFFFFFFFF AND DUP2 PUSH20 0xFFFFFFFFFFFFFFFFFFFFFFFFFFFFFFFFFFFFFFFF AND PUSH32 0x8BE0079C531659141344CD1FD0A4F28419497F9722A3DAAFE3B4186F6B6457E0 PUSH1 0x40 MLOAD PUSH1 0x40 MLOAD DUP1 SWAP2 SUB SWAP1 LOG3 POP POP JUMP JUMPDEST PUSH1 0x0 DUP1 PUSH2 0x182B PUSH2 0x1209 JUMP JUMPDEST SWAP1 POP PUSH2 0x1838 DUP2 DUP6 DUP6 PUSH2 0x14E4 JUMP JUMPDEST PUSH1 0x1 SWAP2 POP POP SWAP3 SWAP2 POP POP JUMP JUMPDEST POP POP POP JUMP JUMPDEST POP POP POP JUMP JUMPDEST PUSH1 0x0 DUP2 MLOAD SWAP1 POP SWAP2 SWAP1 POP JUMP JUMPDEST PUSH1 0x0 DUP3 DUP3 MSTORE PUSH1 0x20 DUP3 ADD SWAP1 POP SWAP3 SWAP2 POP POP JUMP JUMPDEST PUSH1 0x0 JUMPDEST DUP4 DUP2 LT ISZERO PUSH2 0x1887 JUMPI DUP1 DUP3 ADD MLOAD DUP2 DUP5 ADD MSTORE PUSH1 0x20 DUP2 ADD SWAP1 POP PUSH2 0x186C JUMP JUMPDEST PUSH1 0x0 DUP5 DUP5 ADD MSTORE POP POP POP POP JUMP JUMPDEST PUSH1 0x0 PUSH1 0x1F NOT PUSH1 0x1F DUP4 ADD AND SWAP1 POP SWAP2 SWAP1 POP JUMP JUMPDEST PUSH1 0x0 PUSH2 0x18AF DUP3 PUSH2 0x184D JUMP JUMPDEST PUSH2 0x18B9 DUP2 DUP6 PUSH2 0x1858 JUMP JUMPDEST SWAP4 POP PUSH2 0x18C9 DUP2 DUP6 PUSH1 0x20 DUP7 ADD PUSH2 0x1869 JUMP JUMPDEST PUSH2 0x18D2 DUP2 PUSH2 0x1893 JUMP JUMPDEST DUP5 ADD SWAP2 POP POP SWAP3 SWAP2 POP POP JUMP JUMPDEST PUSH1 0x0 PUSH1 0x20 DUP3 ADD SWAP1 POP DUP2 DUP2 SUB PUSH1 0x0 DUP4 ADD MSTORE PUSH2 0x18F7 DUP2 DUP5 PUSH2 0x18A4 JUMP JUMPDEST SWAP1 POP SWAP3 SWAP2 POP POP JUMP JUMPDEST PUSH1 0x0 DUP1 REVERT JUMPDEST PUSH1 0x0 PUSH20 0xFFFFFFFFFFFFFFFFFFFFFFFFFFFFFFFFFFFFFFFF DUP3 AND SWAP1 POP SWAP2 SWAP1 POP JUMP JUMPDEST PUSH1 0x0 PUSH2 0x192F DUP3 PUSH2 0x1904 JUMP JUMPDEST SWAP1 POP SWAP2 SWAP1 POP JUMP JUMPDEST PUSH2 0x193F DUP2 PUSH2 0x1924 JUMP JUMPDEST DUP2 EQ PUSH2 0x194A JUMPI PUSH1 0x0 DUP1 REVERT JUMPDEST POP JUMP JUMPDEST PUSH1 0x0 DUP2 CALLDATALOAD SWAP1 POP PUSH2 0x195C DUP2 PUSH2 0x1936 JUMP JUMPDEST SWAP3 SWAP2 POP POP JUMP JUMPDEST PUSH1 0x0 DUP2 SWAP1 POP SWAP2 SWAP1 POP JUMP JUMPDEST PUSH2 0x1975 DUP2 PUSH2 0x1962 JUMP JUMPDEST DUP2 EQ PUSH2 0x1980 JUMPI PUSH1 0x0 DUP1 REVERT JUMPDEST POP JUMP JUMPDEST PUSH1 0x0 DUP2 CALLDATALOAD SWAP1 POP PUSH2 0x1992 DUP2 PUSH2 0x196C JUMP JUMPDEST SWAP3 SWAP2 POP POP JUMP JUMPDEST PUSH1 0x0 DUP1 PUSH1 0x40 DUP4 DUP6 SUB SLT ISZERO PUSH2 0x19AF JUMPI PUSH2 0x19AE PUSH2 0x18FF JUMP JUMPDEST JUMPDEST PUSH1 0x0 PUSH2 0x19BD DUP6 DUP3 DUP7 ADD PUSH2 0x194D JUMP JUMPDEST SWAP3 POP POP PUSH1 0x20 PUSH2 0x19CE DUP6 DUP3 DUP7 ADD PUSH2 0x1983 JUMP JUMPDEST SWAP2 POP POP SWAP3 POP SWAP3 SWAP1 POP JUMP JUMPDEST PUSH1 0x0 DUP2 ISZERO ISZERO SWAP1 POP SWAP2 SWAP1 POP JUMP JUMPDEST PUSH2 0x19ED DUP2 PUSH2 0x19D8 JUMP JUMPDEST DUP3 MSTORE POP POP JUMP JUMPDEST PUSH1 0x0 PUSH1 0x20 DUP3 ADD SWAP1 POP PUSH2 0x1A08 PUSH1 0x0 DUP4 ADD DUP5 PUSH2 0x19E4 JUMP JUMPDEST SWAP3 SWAP2 POP POP JUMP JUMPDEST PUSH1 0x0 PUSH1 0x20 DUP3 DUP5 SUB SLT ISZERO PUSH2 0x1A24 JUMPI PUSH2 0x1A23 PUSH2 0x18FF JUMP JUMPDEST JUMPDEST PUSH1 0x0 PUSH2 0x1A32 DUP5 DUP3 DUP6 ADD PUSH2 0x194D JUMP JUMPDEST SWAP2 POP POP SWAP3 SWAP2 POP POP JUMP JUMPDEST PUSH2 0x1A44 DUP2 PUSH2 0x19D8 JUMP JUMPDEST DUP2 EQ PUSH2 0x1A4F JUMPI PUSH1 0x0 DUP1 REVERT JUMPDEST POP JUMP JUMPDEST PUSH1 0x0 DUP2 CALLDATALOAD SWAP1 POP PUSH2 0x1A61 DUP2 PUSH2 0x1A3B JUMP JUMPDEST SWAP3 SWAP2 POP POP JUMP JUMPDEST PUSH1 0x0 DUP1 PUSH1 0x40 DUP4 DUP6 SUB SLT ISZERO PUSH2 0x1A7E JUMPI PUSH2 0x1A7D PUSH2 0x18FF JUMP JUMPDEST JUMPDEST PUSH1 0x0 PUSH2 0x1A8C DUP6 DUP3 DUP7 ADD PUSH2 0x194D JUMP JUMPDEST SWAP3 POP POP PUSH1 0x20 PUSH2 0x1A9D DUP6 DUP3 DUP7 ADD PUSH2 0x1A52 JUMP JUMPDEST SWAP2 POP POP SWAP3 POP SWAP3 SWAP1 POP JUMP JUMPDEST PUSH1 0x0 DUP2 SWAP1 POP SWAP2 SWAP1 POP JUMP JUMPDEST PUSH1 0x0 PUSH2 0x1ACC PUSH2 0x1AC7 PUSH2 0x1AC2 DUP5 PUSH2 0x1904 JUMP JUMPDEST PUSH2 0x1AA7 JUMP JUMPDEST PUSH2 0x1904 JUMP JUMPDEST SWAP1 POP SWAP2 SWAP1 POP JUMP JUMPDEST PUSH1 0x0 PUSH2 0x1ADE DUP3 PUSH2 0x1AB1 JUMP JUMPDEST SWAP1 POP SWAP2 SWAP1 POP JUMP JUMPDEST PUSH1 0x0 PUSH2 0x1AF0 DUP3 PUSH2 0x1AD3 JUMP JUMPDEST SWAP1 POP SWAP2 SWAP1 POP JUMP JUMPDEST PUSH2 0x1B00 DUP2 PUSH2 0x1AE5 JUMP JUMPDEST DUP3 MSTORE POP POP JUMP JUMPDEST PUSH1 0x0 PUSH1 0x20 DUP3 ADD SWAP1 POP PUSH2 0x1B1B PUSH1 0x0 DUP4 ADD DUP5 PUSH2 0x1AF7 JUMP JUMPDEST SWAP3 SWAP2 POP POP JUMP JUMPDEST PUSH2 0x1B2A DUP2 PUSH2 0x1962 JUMP JUMPDEST DUP3 MSTORE POP POP JUMP JUMPDEST PUSH1 0x0 PUSH1 0x20 DUP3 ADD SWAP1 POP PUSH2 0x1B45 PUSH1 0x0 DUP4 ADD DUP5 PUSH2 0x1B21 JUMP JUMPDEST SWAP3 SWAP2 POP POP JUMP JUMPDEST PUSH1 0x0 DUP1 PUSH1 0x0 PUSH1 0x60 DUP5 DUP7 SUB SLT ISZERO PUSH2 0x1B64 JUMPI PUSH2 0x1B63 PUSH2 0x18FF JUMP JUMPDEST JUMPDEST PUSH1 0x0 PUSH2 0x1B72 DUP7 DUP3 DUP8 ADD PUSH2 0x194D JUMP JUMPDEST SWAP4 POP POP PUSH1 0x20 PUSH2 0x1B83 DUP7 DUP3 DUP8 ADD PUSH2 0x194D JUMP JUMPDEST SWAP3 POP POP PUSH1 0x40 PUSH2 0x1B94 DUP7 DUP3 DUP8 ADD PUSH2 0x1983 JUMP JUMPDEST SWAP2 POP POP SWAP3 POP SWAP3 POP SWAP3 JUMP JUMPDEST PUSH1 0x0 PUSH1 0xFF DUP3 AND SWAP1 POP SWAP2 SWAP1 POP JUMP JUMPDEST PUSH2 0x1BB4 DUP2 PUSH2 0x1B9E JUMP JUMPDEST DUP3 MSTORE POP POP JUMP JUMPDEST PUSH1 0x0 PUSH1 0x20 DUP3 ADD SWAP1 POP PUSH2 0x1BCF PUSH1 0x0 DUP4 ADD DUP5 PUSH2 0x1BAB JUMP JUMPDEST SWAP3 SWAP2 POP POP JUMP JUMPDEST PUSH2 0x1BDE DUP2 PUSH2 0x1924 JUMP JUMPDEST DUP3 MSTORE POP POP JUMP JUMPDEST PUSH1 0x0 PUSH1 0x20 DUP3 ADD SWAP1 POP PUSH2 0x1BF9 PUSH1 0x0 DUP4 ADD DUP5 PUSH2 0x1BD5 JUMP JUMPDEST SWAP3 SWAP2 POP POP JUMP JUMPDEST PUSH1 0x0 PUSH1 0x20 DUP3 DUP5 SUB SLT ISZERO PUSH2 0x1C15 JUMPI PUSH2 0x1C14 PUSH2 0x18FF JUMP JUMPDEST JUMPDEST PUSH1 0x0 PUSH2 0x1C23 DUP5 DUP3 DUP6 ADD PUSH2 0x1983 JUMP JUMPDEST SWAP2 POP POP SWAP3 SWAP2 POP POP JUMP JUMPDEST PUSH1 0x0 DUP1 PUSH1 0x40 DUP4 DUP6 SUB SLT ISZERO PUSH2 0x1C43 JUMPI PUSH2 0x1C42 PUSH2 0x18FF JUMP JUMPDEST JUMPDEST PUSH1 0x0 PUSH2 0x1C51 DUP6 DUP3 DUP7 ADD PUSH2 0x194D JUMP JUMPDEST SWAP3 POP POP PUSH1 0x20 PUSH2 0x1C62 DUP6 DUP3 DUP7 ADD PUSH2 0x194D JUMP JUMPDEST SWAP2 POP POP SWAP3 POP SWAP3 SWAP1 POP JUMP JUMPDEST PUSH32 0x4E487B7100000000000000000000000000000000000000000000000000000000 PUSH1 0x0 MSTORE PUSH1 0x22 PUSH1 0x4 MSTORE PUSH1 0x24 PUSH1 0x0 REVERT JUMPDEST PUSH1 0x0 PUSH1 0x2 DUP3 DIV SWAP1 POP PUSH1 0x1 DUP3 AND DUP1 PUSH2 0x1CB3 JUMPI PUSH1 0x7F DUP3 AND SWAP2 POP JUMPDEST PUSH1 0x20 DUP3 LT DUP2 SUB PUSH2 0x1CC6 JUMPI PUSH2 0x1CC5 PUSH2 0x1C6C JUMP JUMPDEST JUMPDEST POP SWAP2 SWAP1 POP JUMP JUMPDEST PUSH32 0x4E487B7100000000000000000000000000000000000000000000000000000000 PUSH1 0x0 MSTORE PUSH1 0x11 PUSH1 0x4 MSTORE PUSH1 0x24 PUSH1 0x0 REVERT JUMPDEST PUSH1 0x0 PUSH2 0x1D06 DUP3 PUSH2 0x1962 JUMP JUMPDEST SWAP2 POP PUSH2 0x1D11 DUP4 PUSH2 0x1962 JUMP JUMPDEST SWAP3 POP DUP3 DUP3 ADD SWAP1 POP DUP1 DUP3 GT ISZERO PUSH2 0x1D29 JUMPI PUSH2 0x1D28 PUSH2 0x1CCC JUMP JUMPDEST JUMPDEST SWAP3 SWAP2 POP POP JUMP JUMPDEST PUSH1 0x0 DUP2 SWAP1 POP SWAP2 SWAP1 POP JUMP JUMPDEST PUSH1 0x0 PUSH2 0x1D54 PUSH2 0x1D4F PUSH2 0x1D4A DUP5 PUSH2 0x1D2F JUMP JUMPDEST PUSH2 0x1AA7 JUMP JUMPDEST PUSH2 0x1962 JUMP JUMPDEST SWAP1 POP SWAP2 SWAP1 POP JUMP JUMPDEST PUSH2 0x1D64 DUP2 PUSH2 0x1D39 JUMP JUMPDEST DUP3 MSTORE POP POP JUMP JUMPDEST PUSH1 0x0 PUSH1 0xC0 DUP3 ADD SWAP1 POP PUSH2 0x1D7F PUSH1 0x0 DUP4 ADD DUP10 PUSH2 0x1BD5 JUMP JUMPDEST PUSH2 0x1D8C PUSH1 0x20 DUP4 ADD DUP9 PUSH2 0x1B21 JUMP JUMPDEST PUSH2 0x1D99 PUSH1 0x40 DUP4 ADD DUP8 PUSH2 0x1D5B JUMP JUMPDEST PUSH2 0x1DA6 PUSH1 0x60 DUP4 ADD DUP7 PUSH2 0x1D5B JUMP JUMPDEST PUSH2 0x1DB3 PUSH1 0x80 DUP4 ADD DUP6 PUSH2 0x1BD5 JUMP JUMPDEST PUSH2 0x1DC0 PUSH1 0xA0 DUP4 ADD DUP5 PUSH2 0x1B21 JUMP JUMPDEST SWAP8 SWAP7 POP POP POP POP POP POP POP JUMP JUMPDEST PUSH1 0x0 DUP2 MLOAD SWAP1 POP PUSH2 0x1DDA DUP2 PUSH2 0x196C JUMP JUMPDEST SWAP3 SWAP2 POP POP JUMP JUMPDEST PUSH1 0x0 DUP1 PUSH1 0x40 DUP4 DUP6 SUB SLT ISZERO PUSH2 0x1DF7 JUMPI PUSH2 0x1DF6 PUSH2 0x18FF JUMP JUMPDEST JUMPDEST PUSH1 0x0 PUSH2 0x1E05 DUP6 DUP3 DUP7 ADD PUSH2 0x1DCB JUMP JUMPDEST SWAP3 POP POP PUSH1 0x20 PUSH2 0x1E16 DUP6 DUP3 DUP7 ADD PUSH2 0x1DCB JUMP JUMPDEST SWAP2 POP POP SWAP3 POP SWAP3 SWAP1 POP JUMP JUMPDEST PUSH32 0x45524332303A2064656372656173656420616C6C6F77616E63652062656C6F77 PUSH1 0x0 DUP3 ADD MSTORE PUSH32 0x207A65726F000000000000000000000000000000000000000000000000000000 PUSH1 0x20 DUP3 ADD MSTORE POP JUMP JUMPDEST PUSH1 0x0 PUSH2 0x1E7C PUSH1 0x25 DUP4 PUSH2 0x1858 JUMP JUMPDEST SWAP2 POP PUSH2 0x1E87 DUP3 PUSH2 0x1E20 JUMP JUMPDEST PUSH1 0x40 DUP3 ADD SWAP1 POP SWAP2 SWAP1 POP JUMP JUMPDEST PUSH1 0x0 PUSH1 0x20 DUP3 ADD SWAP1 POP DUP2 DUP2 SUB PUSH1 0x0 DUP4 ADD MSTORE PUSH2 0x1EAB DUP2 PUSH2 0x1E6F JUMP JUMPDEST SWAP1 POP SWAP2 SWAP1 POP JUMP JUMPDEST PUSH32 0x44656265207472616E73666572697220616C206D656E6F7320756E20746F6B65 PUSH1 0x0 DUP3 ADD MSTORE PUSH32 0x6E00000000000000000000000000000000000000000000000000000000000000 PUSH1 0x20 DUP3 ADD MSTORE POP JUMP JUMPDEST PUSH1 0x0 PUSH2 0x1F0E PUSH1 0x21 DUP4 PUSH2 0x1858 JUMP JUMPDEST SWAP2 POP PUSH2 0x1F19 DUP3 PUSH2 0x1EB2 JUMP JUMPDEST PUSH1 0x40 DUP3 ADD SWAP1 POP SWAP2 SWAP1 POP JUMP JUMPDEST PUSH1 0x0 PUSH1 0x20 DUP3 ADD SWAP1 POP DUP2 DUP2 SUB PUSH1 0x0 DUP4 ADD MSTORE PUSH2 0x1F3D DUP2 PUSH2 0x1F01 JUMP JUMPDEST SWAP1 POP SWAP2 SWAP1 POP JUMP JUMPDEST PUSH1 0x0 PUSH2 0x1F4F DUP3 PUSH2 0x1962 JUMP JUMPDEST SWAP2 POP PUSH2 0x1F5A DUP4 PUSH2 0x1962 JUMP JUMPDEST SWAP3 POP DUP3 DUP3 MUL PUSH2 0x1F68 DUP2 PUSH2 0x1962 JUMP JUMPDEST SWAP2 POP DUP3 DUP3 DIV DUP5 EQ DUP4 ISZERO OR PUSH2 0x1F7F JUMPI PUSH2 0x1F7E PUSH2 0x1CCC JUMP JUMPDEST JUMPDEST POP SWAP3 SWAP2 POP POP JUMP JUMPDEST PUSH32 0x4E487B7100000000000000000000000000000000000000000000000000000000 PUSH1 0x0 MSTORE PUSH1 0x12 PUSH1 0x4 MSTORE PUSH1 0x24 PUSH1 0x0 REVERT JUMPDEST PUSH1 0x0 PUSH2 0x1FC0 DUP3 PUSH2 0x1962 JUMP JUMPDEST SWAP2 POP PUSH2 0x1FCB DUP4 PUSH2 0x1962 JUMP JUMPDEST SWAP3 POP DUP3 PUSH2 0x1FDB JUMPI PUSH2 0x1FDA PUSH2 0x1F86 JUMP JUMPDEST JUMPDEST DUP3 DUP3 DIV SWAP1 POP SWAP3 SWAP2 POP POP JUMP JUMPDEST PUSH1 0x0 PUSH2 0x1FF1 DUP3 PUSH2 0x1962 JUMP JUMPDEST SWAP2 POP PUSH2 0x1FFC DUP4 PUSH2 0x1962 JUMP JUMPDEST SWAP3 POP DUP3 DUP3 SUB SWAP1 POP DUP2 DUP2 GT ISZERO PUSH2 0x2014 JUMPI PUSH2 0x2013 PUSH2 0x1CCC JUMP JUMPDEST JUMPDEST SWAP3 SWAP2 POP POP JUMP JUMPDEST PUSH1 0x0 DUP1 PUSH1 0x0 PUSH1 0x60 DUP5 DUP7 SUB SLT ISZERO PUSH2 0x2033 JUMPI PUSH2 0x2032 PUSH2 0x18FF JUMP JUMPDEST JUMPDEST PUSH1 0x0 PUSH2 0x2041 DUP7 DUP3 DUP8 ADD PUSH2 0x1DCB JUMP JUMPDEST SWAP4 POP POP PUSH1 0x20 PUSH2 0x2052 DUP7 DUP3 DUP8 ADD PUSH2 0x1DCB JUMP JUMPDEST SWAP3 POP POP PUSH1 0x40 PUSH2 0x2063 DUP7 DUP3 DUP8 ADD PUSH2 0x1DCB JUMP JUMPDEST SWAP2 POP POP SWAP3 POP SWAP3 POP SWAP3 JUMP JUMPDEST PUSH32 0x4F776E61626C653A206E6577206F776E657220697320746865207A65726F2061 PUSH1 0x0 DUP3 ADD MSTORE PUSH32 0x6464726573730000000000000000000000000000000000000000000000000000 PUSH1 0x20 DUP3 ADD MSTORE POP JUMP JUMPDEST PUSH1 0x0 PUSH2 0x20C9 PUSH1 0x26 DUP4 PUSH2 0x1858 JUMP JUMPDEST SWAP2 POP PUSH2 0x20D4 DUP3 PUSH2 0x206D JUMP JUMPDEST PUSH1 0x40 DUP3 ADD SWAP1 POP SWAP2 SWAP1 POP JUMP JUMPDEST PUSH1 0x0 PUSH1 0x20 DUP3 ADD SWAP1 POP DUP2 DUP2 SUB PUSH1 0x0 DUP4 ADD MSTORE PUSH2 0x20F8 DUP2 PUSH2 0x20BC JUMP JUMPDEST SWAP1 POP SWAP2 SWAP1 POP JUMP JUMPDEST PUSH32 0x45524332303A20617070726F76652066726F6D20746865207A65726F20616464 PUSH1 0x0 DUP3 ADD MSTORE PUSH32 0x7265737300000000000000000000000000000000000000000000000000000000 PUSH1 0x20 DUP3 ADD MSTORE POP JUMP JUMPDEST PUSH1 0x0 PUSH2 0x215B PUSH1 0x24 DUP4 PUSH2 0x1858 JUMP JUMPDEST SWAP2 POP PUSH2 0x2166 DUP3 PUSH2 0x20FF JUMP JUMPDEST PUSH1 0x40 DUP3 ADD SWAP1 POP SWAP2 SWAP1 POP JUMP JUMPDEST PUSH1 0x0 PUSH1 0x20 DUP3 ADD SWAP1 POP DUP2 DUP2 SUB PUSH1 0x0 DUP4 ADD MSTORE PUSH2 0x218A DUP2 PUSH2 0x214E JUMP JUMPDEST SWAP1 POP SWAP2 SWAP1 POP JUMP JUMPDEST PUSH32 0x45524332303A20617070726F766520746F20746865207A65726F206164647265 PUSH1 0x0 DUP3 ADD MSTORE PUSH32 0x7373000000000000000000000000000000000000000000000000000000000000 PUSH1 0x20 DUP3 ADD MSTORE POP JUMP JUMPDEST PUSH1 0x0 PUSH2 0x21ED PUSH1 0x22 DUP4 PUSH2 0x1858 JUMP JUMPDEST SWAP2 POP PUSH2 0x21F8 DUP3 PUSH2 0x2191 JUMP JUMPDEST PUSH1 0x40 DUP3 ADD SWAP1 POP SWAP2 SWAP1 POP JUMP JUMPDEST PUSH1 0x0 PUSH1 0x20 DUP3 ADD SWAP1 POP DUP2 DUP2 SUB PUSH1 0x0 DUP4 ADD MSTORE PUSH2 0x221C DUP2 PUSH2 0x21E0 JUMP JUMPDEST SWAP1 POP SWAP2 SWAP1 POP JUMP JUMPDEST PUSH32 0x4F776E61626C653A2063616C6C6572206973206E6F7420746865206F776E6572 PUSH1 0x0 DUP3 ADD MSTORE POP JUMP JUMPDEST PUSH1 0x0 PUSH2 0x2259 PUSH1 0x20 DUP4 PUSH2 0x1858 JUMP JUMPDEST SWAP2 POP PUSH2 0x2264 DUP3 PUSH2 0x2223 JUMP JUMPDEST PUSH1 0x20 DUP3 ADD SWAP1 POP SWAP2 SWAP1 POP JUMP JUMPDEST PUSH1 0x0 PUSH1 0x20 DUP3 ADD SWAP1 POP DUP2 DUP2 SUB PUSH1 0x0 DUP4 ADD MSTORE PUSH2 0x2288 DUP2 PUSH2 0x224C JUMP JUMPDEST SWAP1 POP SWAP2 SWAP1 POP JUMP JUMPDEST PUSH32 0x45524332303A20696E73756666696369656E7420616C6C6F77616E6365000000 PUSH1 0x0 DUP3 ADD MSTORE POP JUMP JUMPDEST PUSH1 0x0 PUSH2 0x22C5 PUSH1 0x1D DUP4 PUSH2 0x1858 JUMP JUMPDEST SWAP2 POP PUSH2 0x22D0 DUP3 PUSH2 0x228F JUMP JUMPDEST PUSH1 0x20 DUP3 ADD SWAP1 POP SWAP2 SWAP1 POP JUMP JUMPDEST PUSH1 0x0 PUSH1 0x20 DUP3 ADD SWAP1 POP DUP2 DUP2 SUB PUSH1 0x0 DUP4 ADD MSTORE PUSH2 0x22F4 DUP2 PUSH2 0x22B8 JUMP JUMPDEST SWAP1 POP SWAP2 SWAP1 POP JUMP JUMPDEST PUSH32 0x45524332303A207472616E736665722066726F6D20746865207A65726F206164 PUSH1 0x0 DUP3 ADD MSTORE PUSH32 0x6472657373000000000000000000000000000000000000000000000000000000 PUSH1 0x20 DUP3 ADD MSTORE POP JUMP JUMPDEST PUSH1 0x0 PUSH2 0x2357 PUSH1 0x25 DUP4 PUSH2 0x1858 JUMP JUMPDEST SWAP2 POP PUSH2 0x2362 DUP3 PUSH2 0x22FB JUMP JUMPDEST PUSH1 0x40 DUP3 ADD SWAP1 POP SWAP2 SWAP1 POP JUMP JUMPDEST PUSH1 0x0 PUSH1 0x20 DUP3 ADD SWAP1 POP DUP2 DUP2 SUB PUSH1 0x0 DUP4 ADD MSTORE PUSH2 0x2386 DUP2 PUSH2 0x234A JUMP JUMPDEST SWAP1 POP SWAP2 SWAP1 POP JUMP JUMPDEST PUSH32 0x45524332303A207472616E7366657220746F20746865207A65726F2061646472 PUSH1 0x0 DUP3 ADD MSTORE PUSH32 0x6573730000000000000000000000000000000000000000000000000000000000 PUSH1 0x20 DUP3 ADD MSTORE POP JUMP JUMPDEST PUSH1 0x0 PUSH2 0x23E9 PUSH1 0x23 DUP4 PUSH2 0x1858 JUMP JUMPDEST SWAP2 POP PUSH2 0x23F4 DUP3 PUSH2 0x238D JUMP JUMPDEST PUSH1 0x40 DUP3 ADD SWAP1 POP SWAP2 SWAP1 POP JUMP JUMPDEST PUSH1 0x0 PUSH1 0x20 DUP3 ADD SWAP1 POP DUP2 DUP2 SUB PUSH1 0x0 DUP4 ADD MSTORE PUSH2 0x2418 DUP2 PUSH2 0x23DC JUMP JUMPDEST SWAP1 POP SWAP2 SWAP1 POP JUMP JUMPDEST PUSH32 0x45524332303A207472616E7366657220616D6F756E7420657863656564732062 PUSH1 0x0 DUP3 ADD MSTORE PUSH32 0x616C616E63650000000000000000000000000000000000000000000000000000 PUSH1 0x20 DUP3 ADD MSTORE POP JUMP JUMPDEST PUSH1 0x0 PUSH2 0x247B PUSH1 0x26 DUP4 PUSH2 0x1858 JUMP JUMPDEST SWAP2 POP PUSH2 0x2486 DUP3 PUSH2 0x241F JUMP JUMPDEST PUSH1 0x40 DUP3 ADD SWAP1 POP SWAP2 SWAP1 POP JUMP JUMPDEST PUSH1 0x0 PUSH1 0x20 DUP3 ADD SWAP1 POP DUP2 DUP2 SUB PUSH1 0x0 DUP4 ADD MSTORE PUSH2 0x24AA DUP2 PUSH2 0x246E JUMP JUMPDEST SWAP1 POP SWAP2 SWAP1 POP JUMP INVALID LOG2 PUSH5 0x6970667358 0x22 SLT KECCAK256 0x4E CODESIZE AND 0x4F 0xAB PUSH23 0x7050A85FFE613C4157E7442AD1420846C8B7381CD7967F 0x21 PUSH20 0x2664736F6C634300081200330000000000000000 "
				},
				"gasEstimates": {
					"creation": {
						"codeDepositCost": "1889400",
						"executionCost": "infinite",
						"totalCost": "infinite"
					},
					"external": {
						"MAX_SUPPLY()": "441",
						"allowance(address,address)": "infinite",
						"approve(address,uint256)": "infinite",
						"balanceOf(address)": "2887",
						"decimals()": "433",
						"decreaseAllowance(address,uint256)": "infinite",
						"excludedFromBurn(address)": "2936",
						"excludedFromReward(address)": "2935",
						"excludedFromTax(address)": "2934",
						"impuestoCompra()": "2539",
						"impuestoVenta()": "2541",
						"increaseAllowance(address,uint256)": "infinite",
						"name()": "infinite",
						"owner()": "2567",
						"renounceOwnership()": "30466",
						"setExcludedFromBurn(address,bool)": "27366",
						"setExcludedFromReward(address,bool)": "27368",
						"setExcludedFromTax(address,bool)": "27322",
						"setImpuestoCompra(uint256)": "24873",
						"setImpuestoVenta(uint256)": "24873",
						"setTokenBurn(address)": "27074",
						"setTokenReward(address)": "27054",
						"symbol()": "infinite",
						"tokenBurn()": "2604",
						"tokenReward()": "2625",
						"totalSupply()": "2505",
						"transfer(address,uint256)": "infinite",
						"transferFrom(address,address,uint256)": "infinite",
						"transferOwnership(address)": "30810",
						"uniswapV2Pair()": "2581",
						"uniswapV2Router()": "infinite",
						"withdrawLiquidity()": "infinite"
					}
				},
				"methodIdentifiers": {
					"MAX_SUPPLY()": "32cb6b0c",
					"allowance(address,address)": "dd62ed3e",
					"approve(address,uint256)": "095ea7b3",
					"balanceOf(address)": "70a08231",
					"decimals()": "313ce567",
					"decreaseAllowance(address,uint256)": "a457c2d7",
					"excludedFromBurn(address)": "0e88dad1",
					"excludedFromReward(address)": "1af41e5d",
					"excludedFromTax(address)": "989763ef",
					"impuestoCompra()": "fc9e0c94",
					"impuestoVenta()": "1d7c27d7",
					"increaseAllowance(address,uint256)": "39509351",
					"name()": "06fdde03",
					"owner()": "8da5cb5b",
					"renounceOwnership()": "715018a6",
					"setExcludedFromBurn(address,bool)": "d80cbc8c",
					"setExcludedFromReward(address,bool)": "13e46192",
					"setExcludedFromTax(address,bool)": "c2ed286b",
					"setImpuestoCompra(uint256)": "4b0dd0d6",
					"setImpuestoVenta(uint256)": "cf49a5ef",
					"setTokenBurn(address)": "f9d3d3e8",
					"setTokenReward(address)": "2e1dc4b8",
					"symbol()": "95d89b41",
					"tokenBurn()": "7c9e75c0",
					"tokenReward()": "6e66f6e9",
					"totalSupply()": "18160ddd",
					"transfer(address,uint256)": "a9059cbb",
					"transferFrom(address,address,uint256)": "23b872dd",
					"transferOwnership(address)": "f2fde38b",
					"uniswapV2Pair()": "49bd5a5e",
					"uniswapV2Router()": "1694505e",
					"withdrawLiquidity()": "7ea382c1"
				}
			},
			"storageLayout": {
				"storage": [
					{
						"astId": 128,
						"contract": "contracts/lolo.sol:Lolo",
						"label": "_balances",
						"offset": 0,
						"slot": "0",
						"type": "t_mapping(t_address,t_uint256)"
					},
					{
						"astId": 134,
						"contract": "contracts/lolo.sol:Lolo",
						"label": "_allowances",
						"offset": 0,
						"slot": "1",
						"type": "t_mapping(t_address,t_mapping(t_address,t_uint256))"
					},
					{
						"astId": 136,
						"contract": "contracts/lolo.sol:Lolo",
						"label": "_totalSupply",
						"offset": 0,
						"slot": "2",
						"type": "t_uint256"
					},
					{
						"astId": 138,
						"contract": "contracts/lolo.sol:Lolo",
						"label": "_name",
						"offset": 0,
						"slot": "3",
						"type": "t_string_storage"
					},
					{
						"astId": 140,
						"contract": "contracts/lolo.sol:Lolo",
						"label": "_symbol",
						"offset": 0,
						"slot": "4",
						"type": "t_string_storage"
					},
					{
						"astId": 7,
						"contract": "contracts/lolo.sol:Lolo",
						"label": "_owner",
						"offset": 0,
						"slot": "5",
						"type": "t_address"
					},
					{
						"astId": 1297,
						"contract": "contracts/lolo.sol:Lolo",
						"label": "uniswapV2Router",
						"offset": 0,
						"slot": "6",
						"type": "t_contract(IUniswapV2Router02)1283"
					},
					{
						"astId": 1299,
						"contract": "contracts/lolo.sol:Lolo",
						"label": "uniswapV2Pair",
						"offset": 0,
						"slot": "7",
						"type": "t_address"
					},
					{
						"astId": 1301,
						"contract": "contracts/lolo.sol:Lolo",
						"label": "tokenReward",
						"offset": 0,
						"slot": "8",
						"type": "t_address"
					},
					{
						"astId": 1303,
						"contract": "contracts/lolo.sol:Lolo",
						"label": "tokenBurn",
						"offset": 0,
						"slot": "9",
						"type": "t_address"
					},
					{
						"astId": 1320,
						"contract": "contracts/lolo.sol:Lolo",
						"label": "impuestoCompra",
						"offset": 0,
						"slot": "10",
						"type": "t_uint256"
					},
					{
						"astId": 1323,
						"contract": "contracts/lolo.sol:Lolo",
						"label": "impuestoVenta",
						"offset": 0,
						"slot": "11",
						"type": "t_uint256"
					},
					{
						"astId": 1327,
						"contract": "contracts/lolo.sol:Lolo",
						"label": "excludedFromTax",
						"offset": 0,
						"slot": "12",
						"type": "t_mapping(t_address,t_bool)"
					},
					{
						"astId": 1331,
						"contract": "contracts/lolo.sol:Lolo",
						"label": "excludedFromReward",
						"offset": 0,
						"slot": "13",
						"type": "t_mapping(t_address,t_bool)"
					},
					{
						"astId": 1335,
						"contract": "contracts/lolo.sol:Lolo",
						"label": "excludedFromBurn",
						"offset": 0,
						"slot": "14",
						"type": "t_mapping(t_address,t_bool)"
					}
				],
				"types": {
					"t_address": {
						"encoding": "inplace",
						"label": "address",
						"numberOfBytes": "20"
					},
					"t_bool": {
						"encoding": "inplace",
						"label": "bool",
						"numberOfBytes": "1"
					},
					"t_contract(IUniswapV2Router02)1283": {
						"encoding": "inplace",
						"label": "contract IUniswapV2Router02",
						"numberOfBytes": "20"
					},
					"t_mapping(t_address,t_bool)": {
						"encoding": "mapping",
						"key": "t_address",
						"label": "mapping(address => bool)",
						"numberOfBytes": "32",
						"value": "t_bool"
					},
					"t_mapping(t_address,t_mapping(t_address,t_uint256))": {
						"encoding": "mapping",
						"key": "t_address",
						"label": "mapping(address => mapping(address => uint256))",
						"numberOfBytes": "32",
						"value": "t_mapping(t_address,t_uint256)"
					},
					"t_mapping(t_address,t_uint256)": {
						"encoding": "mapping",
						"key": "t_address",
						"label": "mapping(address => uint256)",
						"numberOfBytes": "32",
						"value": "t_uint256"
					},
					"t_string_storage": {
						"encoding": "bytes",
						"label": "string",
						"numberOfBytes": "32"
					},
					"t_uint256": {
						"encoding": "inplace",
						"label": "uint256",
						"numberOfBytes": "32"
					}
				}
			},
			"userdoc": {
				"kind": "user",
				"methods": {},
				"version": 1
			}
		}
	}
}