{
	"data": {
		"bytecode": {
			"linkReferences": {},
			"object": "60806040526006600a55600a600b553480156200001b57600080fd5b5060405162003300380380620033008339818101604052810190620000419190620008d6565b6040518060400160405280600481526020017f4c6f6c6f000000000000000000000000000000000000000000000000000000008152506040518060400160405280600481526020017f4c4f4c4f000000000000000000000000000000000000000000000000000000008152508160039081620000be919062000b97565b508060049081620000d0919062000b97565b505050620000f3620000e7620005fd60201b60201c565b6200060560201b60201c565b81600860006101000a81548173ffffffffffffffffffffffffffffffffffffffff021916908373ffffffffffffffffffffffffffffffffffffffff16021790555080600960006101000a81548173ffffffffffffffffffffffffffffffffffffffff021916908373ffffffffffffffffffffffffffffffffffffffff1602179055506000737a250d5630b4cf539739df2c5dacb4c659f2488d90508073ffffffffffffffffffffffffffffffffffffffff1663c45a01556040518163ffffffff1660e01b8152600401602060405180830381865afa158015620001da573d6000803e3d6000fd5b505050506040513d601f19601f8201168201806040525081019062000200919062000c7e565b73ffffffffffffffffffffffffffffffffffffffff1663c9c65396308373ffffffffffffffffffffffffffffffffffffffff1663ad5c46486040518163ffffffff1660e01b8152600401602060405180830381865afa15801562000268573d6000803e3d6000fd5b505050506040513d601f19601f820116820180604052508101906200028e919062000c7e565b6040518363ffffffff1660e01b8152600401620002ad92919062000cc1565b6020604051808303816000875af1158015620002cd573d6000803e3d6000fd5b505050506040513d601f19601f82011682018060405250810190620002f3919062000c7e565b600760006101000a81548173ffffffffffffffffffffffffffffffffffffffff021916908373ffffffffffffffffffffffffffffffffffffffff160217905550737a250d5630b4cf539739df2c5dacb4c659f2488d600660006101000a81548173ffffffffffffffffffffffffffffffffffffffff021916908373ffffffffffffffffffffffffffffffffffffffff160217905550620003b76200039c620006cb60201b60201c565b6d314dc6448d9338c15b0a00000000620006f560201b60201c565b6001600c60003073ffffffffffffffffffffffffffffffffffffffff1673ffffffffffffffffffffffffffffffffffffffff16815260200190815260200160002060006101000a81548160ff0219169083151502179055506001600c600062000425620006cb60201b60201c565b73ffffffffffffffffffffffffffffffffffffffff1673ffffffffffffffffffffffffffffffffffffffff16815260200190815260200160002060006101000a81548160ff0219169083151502179055506001600d60003073ffffffffffffffffffffffffffffffffffffffff1673ffffffffffffffffffffffffffffffffffffffff16815260200190815260200160002060006101000a81548160ff0219169083151502179055506001600d6000620004e4620006cb60201b60201c565b73ffffffffffffffffffffffffffffffffffffffff1673ffffffffffffffffffffffffffffffffffffffff16815260200190815260200160002060006101000a81548160ff0219169083151502179055506001600e60003073ffffffffffffffffffffffffffffffffffffffff1673ffffffffffffffffffffffffffffffffffffffff16815260200190815260200160002060006101000a81548160ff0219169083151502179055506001600e6000620005a3620006cb60201b60201c565b73ffffffffffffffffffffffffffffffffffffffff1673ffffffffffffffffffffffffffffffffffffffff16815260200190815260200160002060006101000a81548160ff02191690831515021790555050505062000e09565b600033905090565b6000600560009054906101000a900473ffffffffffffffffffffffffffffffffffffffff16905081600560006101000a81548173ffffffffffffffffffffffffffffffffffffffff021916908373ffffffffffffffffffffffffffffffffffffffff1602179055508173ffffffffffffffffffffffffffffffffffffffff168173ffffffffffffffffffffffffffffffffffffffff167f8be0079c531659141344cd1fd0a4f28419497f9722a3daafe3b4186f6b6457e060405160405180910390a35050565b6000600560009054906101000a900473ffffffffffffffffffffffffffffffffffffffff16905090565b600073ffffffffffffffffffffffffffffffffffffffff168273ffffffffffffffffffffffffffffffffffffffff160362000767576040517f08c379a00000000000000000000000000000000000000000000000000000000081526004016200075e9062000d4f565b60405180910390fd5b6200077b600083836200086260201b60201c565b80600260008282546200078f919062000da0565b92505081905550806000808473ffffffffffffffffffffffffffffffffffffffff1673ffffffffffffffffffffffffffffffffffffffff168152602001908152602001600020600082825401925050819055508173ffffffffffffffffffffffffffffffffffffffff16600073ffffffffffffffffffffffffffffffffffffffff167fddf252ad1be2c89b69c2b068fc378daa952ba7f163c4a11628f55a4df523b3ef8360405162000842919062000dec565b60405180910390a36200085e600083836200086760201b60201c565b5050565b505050565b505050565b600080fd5b600073ffffffffffffffffffffffffffffffffffffffff82169050919050565b60006200089e8262000871565b9050919050565b620008b08162000891565b8114620008bc57600080fd5b50565b600081519050620008d081620008a5565b92915050565b60008060408385031215620008f057620008ef6200086c565b5b60006200090085828601620008bf565b92505060206200091385828601620008bf565b9150509250929050565b600081519050919050565b7f4e487b7100000000000000000000000000000000000000000000000000000000600052604160045260246000fd5b7f4e487b7100000000000000000000000000000000000000000000000000000000600052602260045260246000fd5b600060028204905060018216806200099f57607f821691505b602082108103620009b557620009b462000957565b5b50919050565b60008190508160005260206000209050919050565b60006020601f8301049050919050565b600082821b905092915050565b60006008830262000a1f7fffffffffffffffffffffffffffffffffffffffffffffffffffffffffffffffff82620009e0565b62000a2b8683620009e0565b95508019841693508086168417925050509392505050565b6000819050919050565b6000819050919050565b600062000a7862000a7262000a6c8462000a43565b62000a4d565b62000a43565b9050919050565b6000819050919050565b62000a948362000a57565b62000aac62000aa38262000a7f565b848454620009ed565b825550505050565b600090565b62000ac362000ab4565b62000ad081848462000a89565b505050565b5b8181101562000af85762000aec60008262000ab9565b60018101905062000ad6565b5050565b601f82111562000b475762000b1181620009bb565b62000b1c84620009d0565b8101602085101562000b2c578190505b62000b4462000b3b85620009d0565b83018262000ad5565b50505b505050565b600082821c905092915050565b600062000b6c6000198460080262000b4c565b1980831691505092915050565b600062000b87838362000b59565b9150826002028217905092915050565b62000ba2826200091d565b67ffffffffffffffff81111562000bbe5762000bbd62000928565b5b62000bca825462000986565b62000bd782828562000afc565b600060209050601f83116001811462000c0f576000841562000bfa578287015190505b62000c06858262000b79565b86555062000c76565b601f19841662000c1f86620009bb565b60005b8281101562000c495784890151825560018201915060208501945060208101905062000c22565b8683101562000c69578489015162000c65601f89168262000b59565b8355505b6001600288020188555050505b505050505050565b60006020828403121562000c975762000c966200086c565b5b600062000ca784828501620008bf565b91505092915050565b62000cbb8162000891565b82525050565b600060408201905062000cd8600083018562000cb0565b62000ce7602083018462000cb0565b9392505050565b600082825260208201905092915050565b7f45524332303a206d696e7420746f20746865207a65726f206164647265737300600082015250565b600062000d37601f8362000cee565b915062000d448262000cff565b602082019050919050565b6000602082019050818103600083015262000d6a8162000d28565b9050919050565b7f4e487b7100000000000000000000000000000000000000000000000000000000600052601160045260246000fd5b600062000dad8262000a43565b915062000dba8362000a43565b925082820190508082111562000dd55762000dd462000d71565b5b92915050565b62000de68162000a43565b82525050565b600060208201905062000e03600083018462000ddb565b92915050565b6124e78062000e196000396000f3fe608060405234801561001057600080fd5b50600436106101f05760003560e01c806370a082311161010f578063a9059cbb116100a2578063dd62ed3e11610071578063dd62ed3e146105ab578063f2fde38b146105db578063f9d3d3e8146105f7578063fc9e0c9414610613576101f0565b8063a9059cbb14610527578063c2ed286b14610557578063cf49a5ef14610573578063d80cbc8c1461058f576101f0565b80638da5cb5b116100de5780638da5cb5b1461048b57806395d89b41146104a9578063989763ef146104c7578063a457c2d7146104f7576101f0565b806370a0823114610429578063715018a6146104595780637c9e75c0146104635780637ea382c114610481576101f0565b806323b872dd11610187578063395093511161015657806339509351146103a157806349bd5a5e146103d15780634b0dd0d6146103ef5780636e66f6e91461040b576101f0565b806323b872dd146103195780632e1dc4b814610349578063313ce5671461036557806332cb6b0c14610383576101f0565b80631694505e116101c35780631694505e1461028f57806318160ddd146102ad5780631af41e5d146102cb5780631d7c27d7146102fb576101f0565b806306fdde03146101f5578063095ea7b3146102135780630e88dad11461024357806313e4619214610273575b600080fd5b6101fd610631565b60405161020a91906118dd565b60405180910390f35b61022d60048036038101906102289190611998565b6106c3565b60405161023a91906119f3565b60405180910390f35b61025d60048036038101906102589190611a0e565b6106e6565b60405161026a91906119f3565b60405180910390f35b61028d60048036038101906102889190611a67565b610706565b005b610297610769565b6040516102a49190611b06565b60405180910390f35b6102b561078f565b6040516102c29190611b30565b60405180910390f35b6102e560048036038101906102e09190611a0e565b610799565b6040516102f291906119f3565b60405180910390f35b6103036107b9565b6040516103109190611b30565b60405180910390f35b610333600480360381019061032e9190611b4b565b6107bf565b60405161034091906119f3565b60405180910390f35b610363600480360381019061035e9190611a0e565b6107ee565b005b61036d61083a565b60405161037a9190611bba565b60405180910390f35b61038b610843565b6040516103989190611b30565b60405180910390f35b6103bb60048036038101906103b69190611998565b610855565b6040516103c891906119f3565b60405180910390f35b6103d961088c565b6040516103e69190611be4565b60405180910390f35b61040960048036038101906104049190611bff565b6108b2565b005b6104136108c4565b6040516104209190611be4565b60405180910390f35b610443600480360381019061043e9190611a0e565b6108ea565b6040516104509190611b30565b60405180910390f35b610461610932565b005b61046b610946565b6040516104789190611be4565b60405180910390f35b61048961096c565b005b610493610ab8565b6040516104a09190611be4565b60405180910390f35b6104b1610ae2565b6040516104be91906118dd565b60405180910390f35b6104e160048036038101906104dc9190611a0e565b610b74565b6040516104ee91906119f3565b60405180910390f35b610511600480360381019061050c9190611998565b610b94565b60405161051e91906119f3565b60405180910390f35b610541600480360381019061053c9190611998565b610c0b565b60405161054e91906119f3565b60405180910390f35b610571600480360381019061056c9190611a67565b610fd5565b005b61058d60048036038101906105889190611bff565b611038565b005b6105a960048036038101906105a49190611a67565b61104a565b005b6105c560048036038101906105c09190611c2c565b6110ad565b6040516105d29190611b30565b60405180910390f35b6105f560048036038101906105f09190611a0e565b611134565b005b610611600480360381019061060c9190611a0e565b6111b7565b005b61061b611203565b6040516106289190611b30565b60405180910390f35b60606003805461064090611c9b565b80601f016020809104026020016040519081016040528092919081815260200182805461066c90611c9b565b80156106b95780601f1061068e576101008083540402835291602001916106b9565b820191906000526020600020905b81548152906001019060200180831161069c57829003601f168201915b5050505050905090565b6000806106ce611209565b90506106db818585611211565b600191505092915050565b600e6020528060005260406000206000915054906101000a900460ff1681565b61070e6113da565b80600d60008473ffffffffffffffffffffffffffffffffffffffff1673ffffffffffffffffffffffffffffffffffffffff16815260200190815260200160002060006101000a81548160ff0219169083151502179055505050565b600660009054906101000a900473ffffffffffffffffffffffffffffffffffffffff1681565b6000600254905090565b600d6020528060005260406000206000915054906101000a900460ff1681565b600b5481565b6000806107ca611209565b90506107d7858285611458565b6107e28585856114e4565b60019150509392505050565b6107f66113da565b80600860006101000a81548173ffffffffffffffffffffffffffffffffffffffff021916908373ffffffffffffffffffffffffffffffffffffffff16021790555050565b60006012905090565b6d314dc6448d9338c15b0a0000000081565b600080610860611209565b905061088181858561087285896110ad565b61087c9190611cfb565b611211565b600191505092915050565b600760009054906101000a900473ffffffffffffffffffffffffffffffffffffffff1681565b6108ba6113da565b80600a8190555050565b600860009054906101000a900473ffffffffffffffffffffffffffffffffffffffff1681565b60008060008373ffffffffffffffffffffffffffffffffffffffff1673ffffffffffffffffffffffffffffffffffffffff168152602001908152602001600020549050919050565b61093a6113da565b610944600061175a565b565b600960009054906101000a900473ffffffffffffffffffffffffffffffffffffffff1681565b6109746113da565b600080600660009054906101000a900473ffffffffffffffffffffffffffffffffffffffff1673ffffffffffffffffffffffffffffffffffffffff166302751cec306109e1600760009054906101000a900473ffffffffffffffffffffffffffffffffffffffff166108ea565b6000806109ec610ab8565b426040518763ffffffff1660e01b8152600401610a0e96959493929190611d6a565b60408051808303816000875af1158015610a2c573d6000803e3d6000fd5b505050506040513d601f19601f82011682018060405250810190610a509190611de0565b91509150610a6630610a60610ab8565b846114e4565b610a6e610ab8565b73ffffffffffffffffffffffffffffffffffffffff166108fc829081150290604051600060405180830381858888f19350505050158015610ab3573d6000803e3d6000fd5b505050565b6000600560009054906101000a900473ffffffffffffffffffffffffffffffffffffffff16905090565b606060048054610af190611c9b565b80601f0160208091040260200160405190810160405280929190818152602001828054610b1d90611c9b565b8015610b6a5780601f10610b3f57610100808354040283529160200191610b6a565b820191906000526020600020905b815481529060010190602001808311610b4d57829003601f168201915b5050505050905090565b600c6020528060005260406000206000915054906101000a900460ff1681565b600080610b9f611209565b90506000610bad82866110ad565b905083811015610bf2576040517f08c379a0000000000000000000000000000000000000000000000000000000008152600401610be990611e92565b60405180910390fd5b610bff8286868403611211565b60019250505092915050565b6000808211610c4f576040517f08c379a0000000000000000000000000000000000000000000000000000000008152600401610c4690611f24565b60405180910390fd5b6000600a549050600060648285610c669190611f44565b610c709190611fb5565b84610c7b9190611fe6565b9050600760009054906101000a900473ffffffffffffffffffffffffffffffffffffffff1673ffffffffffffffffffffffffffffffffffffffff168573ffffffffffffffffffffffffffffffffffffffff1603610cfd57600b54915060648285610ce59190611f44565b610cef9190611fb5565b84610cfa9190611fe6565b90505b600c6000610d09611209565b73ffffffffffffffffffffffffffffffffffffffff1673ffffffffffffffffffffffffffffffffffffffff16815260200190815260200160002060009054906101000a900460ff16610d6557610d5f8582611820565b50610d71565b610d6f8585611820565b505b600c6000610d7d611209565b73ffffffffffffffffffffffffffffffffffffffff1673ffffffffffffffffffffffffffffffffffffffff16815260200190815260200160002060009054906101000a900460ff16610fc957600060648386610dd99190611f44565b610de39190611fb5565b9050600060648487610df59190611f44565b610dff9190611fb5565b9050600060648588610e119190611f44565b610e1b9190611fb5565b9050600060648689610e2d9190611f44565b610e379190611fb5565b9050610e4561dead85611820565b50610e72600860009054906101000a900473ffffffffffffffffffffffffffffffffffffffff1684611820565b50610e7d3083611820565b50610e8f610e89610ab8565b82611820565b506000610e9b306108ea565b9050600060648483610ead9190611f44565b610eb79190611fb5565b905060008183610ec79190611fe6565b90506000821115610fc157610efe600660009054906101000a900473ffffffffffffffffffffffffffffffffffffffff16836106c3565b50600660009054906101000a900473ffffffffffffffffffffffffffffffffffffffff1673ffffffffffffffffffffffffffffffffffffffff1663f305d719833084600080610f4b610ab8565b61016842610f599190611cfb565b6040518863ffffffff1660e01b8152600401610f7a96959493929190611d6a565b60606040518083038185885af1158015610f98573d6000803e3d6000fd5b50505050506040513d601f19601f82011682018060405250810190610fbd919061201a565b5050505b505050505050505b60019250505092915050565b610fdd6113da565b80600c60008473ffffffffffffffffffffffffffffffffffffffff1673ffffffffffffffffffffffffffffffffffffffff16815260200190815260200160002060006101000a81548160ff0219169083151502179055505050565b6110406113da565b80600b8190555050565b6110526113da565b80600e60008473ffffffffffffffffffffffffffffffffffffffff1673ffffffffffffffffffffffffffffffffffffffff16815260200190815260200160002060006101000a81548160ff0219169083151502179055505050565b6000600160008473ffffffffffffffffffffffffffffffffffffffff1673ffffffffffffffffffffffffffffffffffffffff16815260200190815260200160002060008373ffffffffffffffffffffffffffffffffffffffff1673ffffffffffffffffffffffffffffffffffffffff16815260200190815260200160002054905092915050565b61113c6113da565b600073ffffffffffffffffffffffffffffffffffffffff168173ffffffffffffffffffffffffffffffffffffffff16036111ab576040517f08c379a00000000000000000000000000000000000000000000000000000000081526004016111a2906120df565b60405180910390fd5b6111b48161175a565b50565b6111bf6113da565b80600960006101000a81548173ffffffffffffffffffffffffffffffffffffffff021916908373ffffffffffffffffffffffffffffffffffffffff16021790555050565b600a5481565b600033905090565b600073ffffffffffffffffffffffffffffffffffffffff168373ffffffffffffffffffffffffffffffffffffffff1603611280576040517f08c379a000000000000000000000000000000000000000000000000000000000815260040161127790612171565b60405180910390fd5b600073ffffffffffffffffffffffffffffffffffffffff168273ffffffffffffffffffffffffffffffffffffffff16036112ef576040517f08c379a00000000000000000000000000000000000000000000000000000000081526004016112e690612203565b60405180910390fd5b80600160008573ffffffffffffffffffffffffffffffffffffffff1673ffffffffffffffffffffffffffffffffffffffff16815260200190815260200160002060008473ffffffffffffffffffffffffffffffffffffffff1673ffffffffffffffffffffffffffffffffffffffff168152602001908152602001600020819055508173ffffffffffffffffffffffffffffffffffffffff168373ffffffffffffffffffffffffffffffffffffffff167f8c5be1e5ebec7d5bd14f71427d1e84f3dd0314c0f7b2291e5b200ac8c7c3b925836040516113cd9190611b30565b60405180910390a3505050565b6113e2611209565b73ffffffffffffffffffffffffffffffffffffffff16611400610ab8565b73ffffffffffffffffffffffffffffffffffffffff1614611456576040517f08c379a000000000000000000000000000000000000000000000000000000000815260040161144d9061226f565b60405180910390fd5b565b600061146484846110ad565b90507fffffffffffffffffffffffffffffffffffffffffffffffffffffffffffffffff81146114de57818110156114d0576040517f08c379a00000000000000000000000000000000000000000000000000000000081526004016114c7906122db565b60405180910390fd5b6114dd8484848403611211565b5b50505050565b600073ffffffffffffffffffffffffffffffffffffffff168373ffffffffffffffffffffffffffffffffffffffff1603611553576040517f08c379a000000000000000000000000000000000000000000000000000000000815260040161154a9061236d565b60405180910390fd5b600073ffffffffffffffffffffffffffffffffffffffff168273ffffffffffffffffffffffffffffffffffffffff16036115c2576040517f08c379a00000000000000000000000000000000000000000000000000000000081526004016115b9906123ff565b60405180910390fd5b6115cd838383611843565b60008060008573ffffffffffffffffffffffffffffffffffffffff1673ffffffffffffffffffffffffffffffffffffffff16815260200190815260200160002054905081811015611653576040517f08c379a000000000000000000000000000000000000000000000000000000000815260040161164a90612491565b60405180910390fd5b8181036000808673ffffffffffffffffffffffffffffffffffffffff1673ffffffffffffffffffffffffffffffffffffffff16815260200190815260200160002081905550816000808573ffffffffffffffffffffffffffffffffffffffff1673ffffffffffffffffffffffffffffffffffffffff168152602001908152602001600020600082825401925050819055508273ffffffffffffffffffffffffffffffffffffffff168473ffffffffffffffffffffffffffffffffffffffff167fddf252ad1be2c89b69c2b068fc378daa952ba7f163c4a11628f55a4df523b3ef846040516117419190611b30565b60405180910390a3611754848484611848565b50505050565b6000600560009054906101000a900473ffffffffffffffffffffffffffffffffffffffff16905081600560006101000a81548173ffffffffffffffffffffffffffffffffffffffff021916908373ffffffffffffffffffffffffffffffffffffffff1602179055508173ffffffffffffffffffffffffffffffffffffffff168173ffffffffffffffffffffffffffffffffffffffff167f8be0079c531659141344cd1fd0a4f28419497f9722a3daafe3b4186f6b6457e060405160405180910390a35050565b60008061182b611209565b90506118388185856114e4565b600191505092915050565b505050565b505050565b600081519050919050565b600082825260208201905092915050565b60005b8381101561188757808201518184015260208101905061186c565b60008484015250505050565b6000601f19601f8301169050919050565b60006118af8261184d565b6118b98185611858565b93506118c9818560208601611869565b6118d281611893565b840191505092915050565b600060208201905081810360008301526118f781846118a4565b905092915050565b600080fd5b600073ffffffffffffffffffffffffffffffffffffffff82169050919050565b600061192f82611904565b9050919050565b61193f81611924565b811461194a57600080fd5b50565b60008135905061195c81611936565b92915050565b6000819050919050565b61197581611962565b811461198057600080fd5b50565b6000813590506119928161196c565b92915050565b600080604083850312156119af576119ae6118ff565b5b60006119bd8582860161194d565b92505060206119ce85828601611983565b9150509250929050565b60008115159050919050565b6119ed816119d8565b82525050565b6000602082019050611a0860008301846119e4565b92915050565b600060208284031215611a2457611a236118ff565b5b6000611a328482850161194d565b91505092915050565b611a44816119d8565b8114611a4f57600080fd5b50565b600081359050611a6181611a3b565b92915050565b60008060408385031215611a7e57611a7d6118ff565b5b6000611a8c8582860161194d565b9250506020611a9d85828601611a52565b9150509250929050565b6000819050919050565b6000611acc611ac7611ac284611904565b611aa7565b611904565b9050919050565b6000611ade82611ab1565b9050919050565b6000611af082611ad3565b9050919050565b611b0081611ae5565b82525050565b6000602082019050611b1b6000830184611af7565b92915050565b611b2a81611962565b82525050565b6000602082019050611b456000830184611b21565b92915050565b600080600060608486031215611b6457611b636118ff565b5b6000611b728682870161194d565b9350506020611b838682870161194d565b9250506040611b9486828701611983565b9150509250925092565b600060ff82169050919050565b611bb481611b9e565b82525050565b6000602082019050611bcf6000830184611bab565b92915050565b611bde81611924565b82525050565b6000602082019050611bf96000830184611bd5565b92915050565b600060208284031215611c1557611c146118ff565b5b6000611c2384828501611983565b91505092915050565b60008060408385031215611c4357611c426118ff565b5b6000611c518582860161194d565b9250506020611c628582860161194d565b9150509250929050565b7f4e487b7100000000000000000000000000000000000000000000000000000000600052602260045260246000fd5b60006002820490506001821680611cb357607f821691505b602082108103611cc657611cc5611c6c565b5b50919050565b7f4e487b7100000000000000000000000000000000000000000000000000000000600052601160045260246000fd5b6000611d0682611962565b9150611d1183611962565b9250828201905080821115611d2957611d28611ccc565b5b92915050565b6000819050919050565b6000611d54611d4f611d4a84611d2f565b611aa7565b611962565b9050919050565b611d6481611d39565b82525050565b600060c082019050611d7f6000830189611bd5565b611d8c6020830188611b21565b611d996040830187611d5b565b611da66060830186611d5b565b611db36080830185611bd5565b611dc060a0830184611b21565b979650505050505050565b600081519050611dda8161196c565b92915050565b60008060408385031215611df757611df66118ff565b5b6000611e0585828601611dcb565b9250506020611e1685828601611dcb565b9150509250929050565b7f45524332303a2064656372656173656420616c6c6f77616e63652062656c6f7760008201527f207a65726f000000000000000000000000000000000000000000000000000000602082015250565b6000611e7c602583611858565b9150611e8782611e20565b604082019050919050565b60006020820190508181036000830152611eab81611e6f565b9050919050565b7f44656265207472616e73666572697220616c206d656e6f7320756e20746f6b6560008201527f6e00000000000000000000000000000000000000000000000000000000000000602082015250565b6000611f0e602183611858565b9150611f1982611eb2565b604082019050919050565b60006020820190508181036000830152611f3d81611f01565b9050919050565b6000611f4f82611962565b9150611f5a83611962565b9250828202611f6881611962565b91508282048414831517611f7f57611f7e611ccc565b5b5092915050565b7f4e487b7100000000000000000000000000000000000000000000000000000000600052601260045260246000fd5b6000611fc082611962565b9150611fcb83611962565b925082611fdb57611fda611f86565b5b828204905092915050565b6000611ff182611962565b9150611ffc83611962565b925082820390508181111561201457612013611ccc565b5b92915050565b600080600060608486031215612033576120326118ff565b5b600061204186828701611dcb565b935050602061205286828701611dcb565b925050604061206386828701611dcb565b9150509250925092565b7f4f776e61626c653a206e6577206f776e657220697320746865207a65726f206160008201527f6464726573730000000000000000000000000000000000000000000000000000602082015250565b60006120c9602683611858565b91506120d48261206d565b604082019050919050565b600060208201905081810360008301526120f8816120bc565b9050919050565b7f45524332303a20617070726f76652066726f6d20746865207a65726f2061646460008201527f7265737300000000000000000000000000000000000000000000000000000000602082015250565b600061215b602483611858565b9150612166826120ff565b604082019050919050565b6000602082019050818103600083015261218a8161214e565b9050919050565b7f45524332303a20617070726f766520746f20746865207a65726f20616464726560008201527f7373000000000000000000000000000000000000000000000000000000000000602082015250565b60006121ed602283611858565b91506121f882612191565b604082019050919050565b6000602082019050818103600083015261221c816121e0565b9050919050565b7f4f776e61626c653a2063616c6c6572206973206e6f7420746865206f776e6572600082015250565b6000612259602083611858565b915061226482612223565b602082019050919050565b600060208201905081810360008301526122888161224c565b9050919050565b7f45524332303a20696e73756666696369656e7420616c6c6f77616e6365000000600082015250565b60006122c5601d83611858565b91506122d08261228f565b602082019050919050565b600060208201905081810360008301526122f4816122b8565b9050919050565b7f45524332303a207472616e736665722066726f6d20746865207a65726f20616460008201527f6472657373000000000000000000000000000000000000000000000000000000602082015250565b6000612357602583611858565b9150612362826122fb565b604082019050919050565b600060208201905081810360008301526123868161234a565b9050919050565b7f45524332303a207472616e7366657220746f20746865207a65726f206164647260008201527f6573730000000000000000000000000000000000000000000000000000000000602082015250565b60006123e9602383611858565b91506123f48261238d565b604082019050919050565b60006020820190508181036000830152612418816123dc565b9050919050565b7f45524332303a207472616e7366657220616d6f756e742065786365656473206260008201527f616c616e63650000000000000000000000000000000000000000000000000000602082015250565b600061247b602683611858565b91506124868261241f565b604082019050919050565b600060208201905081810360008301526124aa8161246e565b905091905056fea26469706673582212204e38164fab767050a85ffe613c4157e7442ad1420846c8b7381cd7967f21732664736f6c63430008120033",
			"opcodes": "PUSH1 0x80 PUSH1 0x40 MSTORE PUSH1 0x6 PUSH1 0xA SSTORE PUSH1 0xA PUSH1 0xB SSTORE CALLVALUE DUP1 ISZERO PUSH3 0x1B JUMPI PUSH1 0x0 DUP1 REVERT JUMPDEST POP PUSH1 0x40 MLOAD PUSH3 0x3300 CODESIZE SUB DUP1 PUSH3 0x3300 DUP4 CODECOPY DUP2 DUP2 ADD PUSH1 0x40 MSTORE DUP2 ADD SWAP1 PUSH3 0x41 SWAP2 SWAP1 PUSH3 0x8D6 JUMP JUMPDEST PUSH1 0x40 MLOAD DUP1 PUSH1 0x40 ADD PUSH1 0x40 MSTORE DUP1 PUSH1 0x4 DUP2 MSTORE PUSH1 0x20 ADD PUSH32 0x4C6F6C6F00000000000000000000000000000000000000000000000000000000 DUP2 MSTORE POP PUSH1 0x40 MLOAD DUP1 PUSH1 0x40 ADD PUSH1 0x40 MSTORE DUP1 PUSH1 0x4 DUP2 MSTORE PUSH1 0x20 ADD PUSH32 0x4C4F4C4F00000000000000000000000000000000000000000000000000000000 DUP2 MSTORE POP DUP2 PUSH1 0x3 SWAP1 DUP2 PUSH3 0xBE SWAP2 SWAP1 PUSH3 0xB97 JUMP JUMPDEST POP DUP1 PUSH1 0x4 SWAP1 DUP2 PUSH3 0xD0 SWAP2 SWAP1 PUSH3 0xB97 JUMP JUMPDEST POP POP POP PUSH3 0xF3 PUSH3 0xE7 PUSH3 0x5FD PUSH1 0x20 SHL PUSH1 0x20 SHR JUMP JUMPDEST PUSH3 0x605 PUSH1 0x20 SHL PUSH1 0x20 SHR JUMP JUMPDEST DUP2 PUSH1 0x8 PUSH1 0x0 PUSH2 0x100 EXP DUP2 SLOAD DUP2 PUSH20 0xFFFFFFFFFFFFFFFFFFFFFFFFFFFFFFFFFFFFFFFF MUL NOT AND SWAP1 DUP4 PUSH20 0xFFFFFFFFFFFFFFFFFFFFFFFFFFFFFFFFFFFFFFFF AND MUL OR SWAP1 SSTORE POP DUP1 PUSH1 0x9 PUSH1 0x0 PUSH2 0x100 EXP DUP2 SLOAD DUP2 PUSH20 0xFFFFFFFFFFFFFFFFFFFFFFFFFFFFFFFFFFFFFFFF MUL NOT AND SWAP1 DUP4 PUSH20 0xFFFFFFFFFFFFFFFFFFFFFFFFFFFFFFFFFFFFFFFF AND MUL OR SWAP1 SSTORE POP PUSH1 0x0 PUSH20 0x7A250D5630B4CF539739DF2C5DACB4C659F2488D SWAP1 POP DUP1 PUSH20 0xFFFFFFFFFFFFFFFFFFFFFFFFFFFFFFFFFFFFFFFF AND PUSH4 0xC45A0155 PUSH1 0x40 MLOAD DUP2 PUSH4 0xFFFFFFFF AND PUSH1 0xE0 SHL DUP2 MSTORE PUSH1 0x4 ADD PUSH1 0x20 PUSH1 0x40 MLOAD DUP1 DUP4 SUB DUP2 DUP7 GAS STATICCALL ISZERO DUP1 ISZERO PUSH3 0x1DA JUMPI RETURNDATASIZE PUSH1 0x0 DUP1 RETURNDATACOPY RETURNDATASIZE PUSH1 0x0 REVERT JUMPDEST POP POP POP POP PUSH1 0x40 MLOAD RETURNDATASIZE PUSH1 0x1F NOT PUSH1 0x1F DUP3 ADD AND DUP3 ADD DUP1 PUSH1 0x40 MSTORE POP DUP2 ADD SWAP1 PUSH3 0x200 SWAP2 SWAP1 PUSH3 0xC7E JUMP JUMPDEST PUSH20 0xFFFFFFFFFFFFFFFFFFFFFFFFFFFFFFFFFFFFFFFF AND PUSH4 0xC9C65396 ADDRESS DUP4 PUSH20 0xFFFFFFFFFFFFFFFFFFFFFFFFFFFFFFFFFFFFFFFF AND PUSH4 0xAD5C4648 PUSH1 0x40 MLOAD DUP2 PUSH4 0xFFFFFFFF AND PUSH1 0xE0 SHL DUP2 MSTORE PUSH1 0x4 ADD PUSH1 0x20 PUSH1 0x40 MLOAD DUP1 DUP4 SUB DUP2 DUP7 GAS STATICCALL ISZERO DUP1 ISZERO PUSH3 0x268 JUMPI RETURNDATASIZE PUSH1 0x0 DUP1 RETURNDATACOPY RETURNDATASIZE PUSH1 0x0 REVERT JUMPDEST POP POP POP POP PUSH1 0x40 MLOAD RETURNDATASIZE PUSH1 0x1F NOT PUSH1 0x1F DUP3 ADD AND DUP3 ADD DUP1 PUSH1 0x40 MSTORE POP DUP2 ADD SWAP1 PUSH3 0x28E SWAP2 SWAP1 PUSH3 0xC7E JUMP JUMPDEST PUSH1 0x40 MLOAD DUP4 PUSH4 0xFFFFFFFF AND PUSH1 0xE0 SHL DUP2 MSTORE PUSH1 0x4 ADD PUSH3 0x2AD SWAP3 SWAP2 SWAP1 PUSH3 0xCC1 JUMP JUMPDEST PUSH1 0x20 PUSH1 0x40 MLOAD DUP1 DUP4 SUB DUP2 PUSH1 0x0 DUP8 GAS CALL ISZERO DUP1 ISZERO PUSH3 0x2CD JUMPI RETURNDATASIZE PUSH1 0x0 DUP1 RETURNDATACOPY RETURNDATASIZE PUSH1 0x0 REVERT JUMPDEST POP POP POP POP PUSH1 0x40 MLOAD RETURNDATASIZE PUSH1 0x1F NOT PUSH1 0x1F DUP3 ADD AND DUP3 ADD DUP1 PUSH1 0x40 MSTORE POP DUP2 ADD SWAP1 PUSH3 0x2F3 SWAP2 SWAP1 PUSH3 0xC7E JUMP JUMPDEST PUSH1 0x7 PUSH1 0x0 PUSH2 0x100 EXP DUP2 SLOAD DUP2 PUSH20 0xFFFFFFFFFFFFFFFFFFFFFFFFFFFFFFFFFFFFFFFF MUL NOT AND SWAP1 DUP4 PUSH20 0xFFFFFFFFFFFFFFFFFFFFFFFFFFFFFFFFFFFFFFFF AND MUL OR SWAP1 SSTORE POP PUSH20 0x7A250D5630B4CF539739DF2C5DACB4C659F2488D PUSH1 0x6 PUSH1 0x0 PUSH2 0x100 EXP DUP2 SLOAD DUP2 PUSH20 0xFFFFFFFFFFFFFFFFFFFFFFFFFFFFFFFFFFFFFFFF MUL NOT AND SWAP1 DUP4 PUSH20 0xFFFFFFFFFFFFFFFFFFFFFFFFFFFFFFFFFFFFFFFF AND MUL OR SWAP1 SSTORE POP PUSH3 0x3B7 PUSH3 0x39C PUSH3 0x6CB PUSH1 0x20 SHL PUSH1 0x20 SHR JUMP JUMPDEST PUSH14 0x314DC6448D9338C15B0A00000000 PUSH3 0x6F5 PUSH1 0x20 SHL PUSH1 0x20 SHR JUMP JUMPDEST PUSH1 0x1 PUSH1 0xC PUSH1 0x0 ADDRESS PUSH20 0xFFFFFFFFFFFFFFFFFFFFFFFFFFFFFFFFFFFFFFFF AND PUSH20 0xFFFFFFFFFFFFFFFFFFFFFFFFFFFFFFFFFFFFFFFF AND DUP2 MSTORE PUSH1 0x20 ADD SWAP1 DUP2 MSTORE PUSH1 0x20 ADD PUSH1 0x0 KECCAK256 PUSH1 0x0 PUSH2 0x100 EXP DUP2 SLOAD DUP2 PUSH1 0xFF MUL NOT AND SWAP1 DUP4 ISZERO ISZERO MUL OR SWAP1 SSTORE POP PUSH1 0x1 PUSH1 0xC PUSH1 0x0 PUSH3 0x425 PUSH3 0x6CB PUSH1 0x20 SHL PUSH1 0x20 SHR JUMP JUMPDEST PUSH20 0xFFFFFFFFFFFFFFFFFFFFFFFFFFFFFFFFFFFFFFFF AND PUSH20 0xFFFFFFFFFFFFFFFFFFFFFFFFFFFFFFFFFFFFFFFF AND DUP2 MSTORE PUSH1 0x20 ADD SWAP1 DUP2 MSTORE PUSH1 0x20 ADD PUSH1 0x0 KECCAK256 PUSH1 0x0 PUSH2 0x100 EXP DUP2 SLOAD DUP2 PUSH1 0xFF MUL NOT AND SWAP1 DUP4 ISZERO ISZERO MUL OR SWAP1 SSTORE POP PUSH1 0x1 PUSH1 0xD PUSH1 0x0 ADDRESS PUSH20 0xFFFFFFFFFFFFFFFFFFFFFFFFFFFFFFFFFFFFFFFF AND PUSH20 0xFFFFFFFFFFFFFFFFFFFFFFFFFFFFFFFFFFFFFFFF AND DUP2 MSTORE PUSH1 0x20 ADD SWAP1 DUP2 MSTORE PUSH1 0x20 ADD PUSH1 0x0 KECCAK256 PUSH1 0x0 PUSH2 0x100 EXP DUP2 SLOAD DUP2 PUSH1 0xFF MUL NOT AND SWAP1 DUP4 ISZERO ISZERO MUL OR SWAP1 SSTORE POP PUSH1 0x1 PUSH1 0xD PUSH1 0x0 PUSH3 0x4E4 PUSH3 0x6CB PUSH1 0x20 SHL PUSH1 0x20 SHR JUMP JUMPDEST PUSH20 0xFFFFFFFFFFFFFFFFFFFFFFFFFFFFFFFFFFFFFFFF AND PUSH20 0xFFFFFFFFFFFFFFFFFFFFFFFFFFFFFFFFFFFFFFFF AND DUP2 MSTORE PUSH1 0x20 ADD SWAP1 DUP2 MSTORE PUSH1 0x20 ADD PUSH1 0x0 KECCAK256 PUSH1 0x0 PUSH2 0x100 EXP DUP2 SLOAD DUP2 PUSH1 0xFF MUL NOT AND SWAP1 DUP4 ISZERO ISZERO MUL OR SWAP1 SSTORE POP PUSH1 0x1 PUSH1 0xE PUSH1 0x0 ADDRESS PUSH20 0xFFFFFFFFFFFFFFFFFFFFFFFFFFFFFFFFFFFFFFFF AND PUSH20 0xFFFFFFFFFFFFFFFFFFFFFFFFFFFFFFFFFFFFFFFF AND DUP2 MSTORE PUSH1 0x20 ADD SWAP1 DUP2 MSTORE PUSH1 0x20 ADD PUSH1 0x0 KECCAK256 PUSH1 0x0 PUSH2 0x100 EXP DUP2 SLOAD DUP2 PUSH1 0xFF MUL NOT AND SWAP1 DUP4 ISZERO ISZERO MUL OR SWAP1 SSTORE POP PUSH1 0x1 PUSH1 0xE PUSH1 0x0 PUSH3 0x5A3 PUSH3 0x6CB PUSH1 0x20 SHL PUSH1 0x20 SHR JUMP JUMPDEST PUSH20 0xFFFFFFFFFFFFFFFFFFFFFFFFFFFFFFFFFFFFFFFF AND PUSH20 0xFFFFFFFFFFFFFFFFFFFFFFFFFFFFFFFFFFFFFFFF AND DUP2 MSTORE PUSH1 0x20 ADD SWAP1 DUP2 MSTORE PUSH1 0x20 ADD PUSH1 0x0 KECCAK256 PUSH1 0x0 PUSH2 0x100 EXP DUP2 SLOAD DUP2 PUSH1 0xFF MUL NOT AND SWAP1 DUP4 ISZERO ISZERO MUL OR SWAP1 SSTORE POP POP POP POP PUSH3 0xE09 JUMP JUMPDEST PUSH1 0x0 CALLER SWAP1 POP SWAP1 JUMP JUMPDEST PUSH1 0x0 PUSH1 0x5 PUSH1 0x0 SWAP1 SLOAD SWAP1 PUSH2 0x100 EXP SWAP1 DIV PUSH20 0xFFFFFFFFFFFFFFFFFFFFFFFFFFFFFFFFFFFFFFFF AND SWAP1 POP DUP2 PUSH1 0x5 PUSH1 0x0 PUSH2 0x100 EXP DUP2 SLOAD DUP2 PUSH20 0xFFFFFFFFFFFFFFFFFFFFFFFFFFFFFFFFFFFFFFFF MUL NOT AND SWAP1 DUP4 PUSH20 0xFFFFFFFFFFFFFFFFFFFFFFFFFFFFFFFFFFFFFFFF AND MUL OR SWAP1 SSTORE POP DUP2 PUSH20 0xFFFFFFFFFFFFFFFFFFFFFFFFFFFFFFFFFFFFFFFF AND DUP2 PUSH20 0xFFFFFFFFFFFFFFFFFFFFFFFFFFFFFFFFFFFFFFFF AND PUSH32 0x8BE0079C531659141344CD1FD0A4F28419497F9722A3DAAFE3B4186F6B6457E0 PUSH1 0x40 MLOAD PUSH1 0x40 MLOAD DUP1 SWAP2 SUB SWAP1 LOG3 POP POP JUMP JUMPDEST PUSH1 0x0 PUSH1 0x5 PUSH1 0x0 SWAP1 SLOAD SWAP1 PUSH2 0x100 EXP SWAP1 DIV PUSH20 0xFFFFFFFFFFFFFFFFFFFFFFFFFFFFFFFFFFFFFFFF AND SWAP1 POP SWAP1 JUMP JUMPDEST PUSH1 0x0 PUSH20 0xFFFFFFFFFFFFFFFFFFFFFFFFFFFFFFFFFFFFFFFF AND DUP3 PUSH20 0xFFFFFFFFFFFFFFFFFFFFFFFFFFFFFFFFFFFFFFFF AND SUB PUSH3 0x767 JUMPI PUSH1 0x40 MLOAD PUSH32 0x8C379A000000000000000000000000000000000000000000000000000000000 DUP2 MSTORE PUSH1 0x4 ADD PUSH3 0x75E SWAP1 PUSH3 0xD4F JUMP JUMPDEST PUSH1 0x40 MLOAD DUP1 SWAP2 SUB SWAP1 REVERT JUMPDEST PUSH3 0x77B PUSH1 0x0 DUP4 DUP4 PUSH3 0x862 PUSH1 0x20 SHL PUSH1 0x20 SHR JUMP JUMPDEST DUP1 PUSH1 0x2 PUSH1 0x0 DUP3 DUP3 SLOAD PUSH3 0x78F SWAP2 SWAP1 PUSH3 0xDA0 JUMP JUMPDEST SWAP3 POP POP DUP2 SWAP1 SSTORE POP DUP1 PUSH1 0x0 DUP1 DUP5 PUSH20 0xFFFFFFFFFFFFFFFFFFFFFFFFFFFFFFFFFFFFFFFF AND PUSH20 0xFFFFFFFFFFFFFFFFFFFFFFFFFFFFFFFFFFFFFFFF AND DUP2 MSTORE PUSH1 0x20 ADD SWAP1 DUP2 MSTORE PUSH1 0x20 ADD PUSH1 0x0 KECCAK256 PUSH1 0x0 DUP3 DUP3 SLOAD ADD SWAP3 POP POP DUP2 SWAP1 SSTORE POP DUP2 PUSH20 0xFFFFFFFFFFFFFFFFFFFFFFFFFFFFFFFFFFFFFFFF AND PUSH1 0x0 PUSH20 0xFFFFFFFFFFFFFFFFFFFFFFFFFFFFFFFFFFFFFFFF AND PUSH32 0xDDF252AD1BE2C89B69C2B068FC378DAA952BA7F163C4A11628F55A4DF523B3EF DUP4 PUSH1 0x40 MLOAD PUSH3 0x842 SWAP2 SWAP1 PUSH3 0xDEC JUMP JUMPDEST PUSH1 0x40 MLOAD DUP1 SWAP2 SUB SWAP1 LOG3 PUSH3 0x85E PUSH1 0x0 DUP4 DUP4 PUSH3 0x867 PUSH1 0x20 SHL PUSH1 0x20 SHR JUMP JUMPDEST POP POP JUMP JUMPDEST POP POP POP JUMP JUMPDEST POP POP POP JUMP JUMPDEST PUSH1 0x0 DUP1 REVERT JUMPDEST PUSH1 0x0 PUSH20 0xFFFFFFFFFFFFFFFFFFFFFFFFFFFFFFFFFFFFFFFF DUP3 AND SWAP1 POP SWAP2 SWAP1 POP JUMP JUMPDEST PUSH1 0x0 PUSH3 0x89E DUP3 PUSH3 0x871 JUMP JUMPDEST SWAP1 POP SWAP2 SWAP1 POP JUMP JUMPDEST PUSH3 0x8B0 DUP2 PUSH3 0x891 JUMP JUMPDEST DUP2 EQ PUSH3 0x8BC JUMPI PUSH1 0x0 DUP1 REVERT JUMPDEST POP JUMP JUMPDEST PUSH1 0x0 DUP2 MLOAD SWAP1 POP PUSH3 0x8D0 DUP2 PUSH3 0x8A5 JUMP JUMPDEST SWAP3 SWAP2 POP POP JUMP JUMPDEST PUSH1 0x0 DUP1 PUSH1 0x40 DUP4 DUP6 SUB SLT ISZERO PUSH3 0x8F0 JUMPI PUSH3 0x8EF PUSH3 0x86C JUMP JUMPDEST JUMPDEST PUSH1 0x0 PUSH3 0x900 DUP6 DUP3 DUP7 ADD PUSH3 0x8BF JUMP JUMPDEST SWAP3 POP POP PUSH1 0x20 PUSH3 0x913 DUP6 DUP3 DUP7 ADD PUSH3 0x8BF JUMP JUMPDEST SWAP2 POP POP SWAP3 POP SWAP3 SWAP1 POP JUMP JUMPDEST PUSH1 0x0 DUP2 MLOAD SWAP1 POP SWAP2 SWAP1 POP JUMP JUMPDEST PUSH32 0x4E487B7100000000000000000000000000000000000000000000000000000000 PUSH1 0x0 MSTORE PUSH1 0x41 PUSH1 0x4 MSTORE PUSH1 0x24 PUSH1 0x0 REVERT JUMPDEST PUSH32 0x4E487B7100000000000000000000000000000000000000000000000000000000 PUSH1 0x0 MSTORE PUSH1 0x22 PUSH1 0x4 MSTORE PUSH1 0x24 PUSH1 0x0 REVERT JUMPDEST PUSH1 0x0 PUSH1 0x2 DUP3 DIV SWAP1 POP PUSH1 0x1 DUP3 AND DUP1 PUSH3 0x99F JUMPI PUSH1 0x7F DUP3 AND SWAP2 POP JUMPDEST PUSH1 0x20 DUP3 LT DUP2 SUB PUSH3 0x9B5 JUMPI PUSH3 0x9B4 PUSH3 0x957 JUMP JUMPDEST JUMPDEST POP SWAP2 SWAP1 POP JUMP JUMPDEST PUSH1 0x0 DUP2 SWAP1 POP DUP2 PUSH1 0x0 MSTORE PUSH1 0x20 PUSH1 0x0 KECCAK256 SWAP1 POP SWAP2 SWAP1 POP JUMP JUMPDEST PUSH1 0x0 PUSH1 0x20 PUSH1 0x1F DUP4 ADD DIV SWAP1 POP SWAP2 SWAP1 POP JUMP JUMPDEST PUSH1 0x0 DUP3 DUP3 SHL SWAP1 POP SWAP3 SWAP2 POP POP JUMP JUMPDEST PUSH1 0x0 PUSH1 0x8 DUP4 MUL PUSH3 0xA1F PUSH32 0xFFFFFFFFFFFFFFFFFFFFFFFFFFFFFFFFFFFFFFFFFFFFFFFFFFFFFFFFFFFFFFFF DUP3 PUSH3 0x9E0 JUMP JUMPDEST PUSH3 0xA2B DUP7 DUP4 PUSH3 0x9E0 JUMP JUMPDEST SWAP6 POP DUP1 NOT DUP5 AND SWAP4 POP DUP1 DUP7 AND DUP5 OR SWAP3 POP POP POP SWAP4 SWAP3 POP POP POP JUMP JUMPDEST PUSH1 0x0 DUP2 SWAP1 POP SWAP2 SWAP1 POP JUMP JUMPDEST PUSH1 0x0 DUP2 SWAP1 POP SWAP2 SWAP1 POP JUMP JUMPDEST PUSH1 0x0 PUSH3 0xA78 PUSH3 0xA72 PUSH3 0xA6C DUP5 PUSH3 0xA43 JUMP JUMPDEST PUSH3 0xA4D JUMP JUMPDEST PUSH3 0xA43 JUMP JUMPDEST SWAP1 POP SWAP2 SWAP1 POP JUMP JUMPDEST PUSH1 0x0 DUP2 SWAP1 POP SWAP2 SWAP1 POP JUMP JUMPDEST PUSH3 0xA94 DUP4 PUSH3 0xA57 JUMP JUMPDEST PUSH3 0xAAC PUSH3 0xAA3 DUP3 PUSH3 0xA7F JUMP JUMPDEST DUP5 DUP5 SLOAD PUSH3 0x9ED JUMP JUMPDEST DUP3 SSTORE POP POP POP POP JUMP JUMPDEST PUSH1 0x0 SWAP1 JUMP JUMPDEST PUSH3 0xAC3 PUSH3 0xAB4 JUMP JUMPDEST PUSH3 0xAD0 DUP2 DUP5 DUP5 PUSH3 0xA89 JUMP JUMPDEST POP POP POP JUMP JUMPDEST JUMPDEST DUP2 DUP2 LT ISZERO PUSH3 0xAF8 JUMPI PUSH3 0xAEC PUSH1 0x0 DUP3 PUSH3 0xAB9 JUMP JUMPDEST PUSH1 0x1 DUP2 ADD SWAP1 POP PUSH3 0xAD6 JUMP JUMPDEST POP POP JUMP JUMPDEST PUSH1 0x1F DUP3 GT ISZERO PUSH3 0xB47 JUMPI PUSH3 0xB11 DUP2 PUSH3 0x9BB JUMP JUMPDEST PUSH3 0xB1C DUP5 PUSH3 0x9D0 JUMP JUMPDEST DUP2 ADD PUSH1 0x20 DUP6 LT ISZERO PUSH3 0xB2C JUMPI DUP2 SWAP1 POP JUMPDEST PUSH3 0xB44 PUSH3 0xB3B DUP6 PUSH3 0x9D0 JUMP JUMPDEST DUP4 ADD DUP3 PUSH3 0xAD5 JUMP JUMPDEST POP POP JUMPDEST POP POP POP JUMP JUMPDEST PUSH1 0x0 DUP3 DUP3 SHR SWAP1 POP SWAP3 SWAP2 POP POP JUMP JUMPDEST PUSH1 0x0 PUSH3 0xB6C PUSH1 0x0 NOT DUP5 PUSH1 0x8 MUL PUSH3 0xB4C JUMP JUMPDEST NOT DUP1 DUP4 AND SWAP2 POP POP SWAP3 SWAP2 POP POP JUMP JUMPDEST PUSH1 0x0 PUSH3 0xB87 DUP4 DUP4 PUSH3 0xB59 JUMP JUMPDEST SWAP2 POP DUP3 PUSH1 0x2 MUL DUP3 OR SWAP1 POP SWAP3 SWAP2 POP POP JUMP JUMPDEST PUSH3 0xBA2 DUP3 PUSH3 0x91D JUMP JUMPDEST PUSH8 0xFFFFFFFFFFFFFFFF DUP2 GT ISZERO PUSH3 0xBBE JUMPI PUSH3 0xBBD PUSH3 0x928 JUMP JUMPDEST JUMPDEST PUSH3 0xBCA DUP3 SLOAD PUSH3 0x986 JUMP JUMPDEST PUSH3 0xBD7 DUP3 DUP3 DUP6 PUSH3 0xAFC JUMP JUMPDEST PUSH1 0x0 PUSH1 0x20 SWAP1 POP PUSH1 0x1F DUP4 GT PUSH1 0x1 DUP2 EQ PUSH3 0xC0F JUMPI PUSH1 0x0 DUP5 ISZERO PUSH3 0xBFA JUMPI DUP3 DUP8 ADD MLOAD SWAP1 POP JUMPDEST PUSH3 0xC06 DUP6 DUP3 PUSH3 0xB79 JUMP JUMPDEST DUP7 SSTORE POP PUSH3 0xC76 JUMP JUMPDEST PUSH1 0x1F NOT DUP5 AND PUSH3 0xC1F DUP7 PUSH3 0x9BB JUMP JUMPDEST PUSH1 0x0 JUMPDEST DUP3 DUP2 LT ISZERO PUSH3 0xC49 JUMPI DUP5 DUP10 ADD MLOAD DUP3 SSTORE PUSH1 0x1 DUP3 ADD SWAP2 POP PUSH1 0x20 DUP6 ADD SWAP5 POP PUSH1 0x20 DUP2 ADD SWAP1 POP PUSH3 0xC22 JUMP JUMPDEST DUP7 DUP4 LT ISZERO PUSH3 0xC69 JUMPI DUP5 DUP10 ADD MLOAD PUSH3 0xC65 PUSH1 0x1F DUP10 AND DUP3 PUSH3 0xB59 JUMP JUMPDEST DUP4 SSTORE POP JUMPDEST PUSH1 0x1 PUSH1 0x2 DUP9 MUL ADD DUP9 SSTORE POP POP POP JUMPDEST POP POP POP POP POP POP JUMP JUMPDEST PUSH1 0x0 PUSH1 0x20 DUP3 DUP5 SUB SLT ISZERO PUSH3 0xC97 JUMPI PUSH3 0xC96 PUSH3 0x86C JUMP JUMPDEST JUMPDEST PUSH1 0x0 PUSH3 0xCA7 DUP5 DUP3 DUP6 ADD PUSH3 0x8BF JUMP JUMPDEST SWAP2 POP POP SWAP3 SWAP2 POP POP JUMP JUMPDEST PUSH3 0xCBB DUP2 PUSH3 0x891 JUMP JUMPDEST DUP3 MSTORE POP POP JUMP JUMPDEST PUSH1 0x0 PUSH1 0x40 DUP3 ADD SWAP1 POP PUSH3 0xCD8 PUSH1 0x0 DUP4 ADD DUP6 PUSH3 0xCB0 JUMP JUMPDEST PUSH3 0xCE7 PUSH1 0x20 DUP4 ADD DUP5 PUSH3 0xCB0 JUMP JUMPDEST SWAP4 SWAP3 POP POP POP JUMP JUMPDEST PUSH1 0x0 DUP3 DUP3 MSTORE PUSH1 0x20 DUP3 ADD SWAP1 POP SWAP3 SWAP2 POP POP JUMP JUMPDEST PUSH32 0x45524332303A206D696E7420746F20746865207A65726F206164647265737300 PUSH1 0x0 DUP3 ADD MSTORE POP JUMP JUMPDEST PUSH1 0x0 PUSH3 0xD37 PUSH1 0x1F DUP4 PUSH3 0xCEE JUMP JUMPDEST SWAP2 POP PUSH3 0xD44 DUP3 PUSH3 0xCFF JUMP JUMPDEST PUSH1 0x20 DUP3 ADD SWAP1 POP SWAP2 SWAP1 POP JUMP JUMPDEST PUSH1 0x0 PUSH1 0x20 DUP3 ADD SWAP1 POP DUP2 DUP2 SUB PUSH1 0x0 DUP4 ADD MSTORE PUSH3 0xD6A DUP2 PUSH3 0xD28 JUMP JUMPDEST SWAP1 POP SWAP2 SWAP1 POP JUMP JUMPDEST PUSH32 0x4E487B7100000000000000000000000000000000000000000000000000000000 PUSH1 0x0 MSTORE PUSH1 0x11 PUSH1 0x4 MSTORE PUSH1 0x24 PUSH1 0x0 REVERT JUMPDEST PUSH1 0x0 PUSH3 0xDAD DUP3 PUSH3 0xA43 JUMP JUMPDEST SWAP2 POP PUSH3 0xDBA DUP4 PUSH3 0xA43 JUMP JUMPDEST SWAP3 POP DUP3 DUP3 ADD SWAP1 POP DUP1 DUP3 GT ISZERO PUSH3 0xDD5 JUMPI PUSH3 0xDD4 PUSH3 0xD71 JUMP JUMPDEST JUMPDEST SWAP3 SWAP2 POP POP JUMP JUMPDEST PUSH3 0xDE6 DUP2 PUSH3 0xA43 JUMP JUMPDEST DUP3 MSTORE POP POP JUMP JUMPDEST PUSH1 0x0 PUSH1 0x20 DUP3 ADD SWAP1 POP PUSH3 0xE03 PUSH1 0x0 DUP4 ADD DUP5 PUSH3 0xDDB JUMP JUMPDEST SWAP3 SWAP2 POP POP JUMP JUMPDEST PUSH2 0x24E7 DUP1 PUSH3 0xE19 PUSH1 0x0 CODECOPY PUSH1 0x0 RETURN INVALID PUSH1 0x80 PUSH1 0x40 MSTORE CALLVALUE DUP1 ISZERO PUSH2 0x10 JUMPI PUSH1 0x0 DUP1 REVERT JUMPDEST POP PUSH1 0x4 CALLDATASIZE LT PUSH2 0x1F0 JUMPI PUSH1 0x0 CALLDATALOAD PUSH1 0xE0 SHR DUP1 PUSH4 0x70A08231 GT PUSH2 0x10F JUMPI DUP1 PUSH4 0xA9059CBB GT PUSH2 0xA2 JUMPI DUP1 PUSH4 0xDD62ED3E GT PUSH2 0x71 JUMPI DUP1 PUSH4 0xDD62ED3E EQ PUSH2 0x5AB JUMPI DUP1 PUSH4 0xF2FDE38B EQ PUSH2 0x5DB JUMPI DUP1 PUSH4 0xF9D3D3E8 EQ PUSH2 0x5F7 JUMPI DUP1 PUSH4 0xFC9E0C94 EQ PUSH2 0x613 JUMPI PUSH2 0x1F0 JUMP JUMPDEST DUP1 PUSH4 0xA9059CBB EQ PUSH2 0x527 JUMPI DUP1 PUSH4 0xC2ED286B EQ PUSH2 0x557 JUMPI DUP1 PUSH4 0xCF49A5EF EQ PUSH2 0x573 JUMPI DUP1 PUSH4 0xD80CBC8C EQ PUSH2 0x58F JUMPI PUSH2 0x1F0 JUMP JUMPDEST DUP1 PUSH4 0x8DA5CB5B GT PUSH2 0xDE JUMPI DUP1 PUSH4 0x8DA5CB5B EQ PUSH2 0x48B JUMPI DUP1 PUSH4 0x95D89B41 EQ PUSH2 0x4A9 JUMPI DUP1 PUSH4 0x989763EF EQ PUSH2 0x4C7 JUMPI DUP1 PUSH4 0xA457C2D7 EQ PUSH2 0x4F7 JUMPI PUSH2 0x1F0 JUMP JUMPDEST DUP1 PUSH4 0x70A08231 EQ PUSH2 0x429 JUMPI DUP1 PUSH4 0x715018A6 EQ PUSH2 0x459 JUMPI DUP1 PUSH4 0x7C9E75C0 EQ PUSH2 0x463 JUMPI DUP1 PUSH4 0x7EA382C1 EQ PUSH2 0x481 JUMPI PUSH2 0x1F0 JUMP JUMPDEST DUP1 PUSH4 0x23B872DD GT PUSH2 0x187 JUMPI DUP1 PUSH4 0x39509351 GT PUSH2 0x156 JUMPI DUP1 PUSH4 0x39509351 EQ PUSH2 0x3A1 JUMPI DUP1 PUSH4 0x49BD5A5E EQ PUSH2 0x3D1 JUMPI DUP1 PUSH4 0x4B0DD0D6 EQ PUSH2 0x3EF JUMPI DUP1 PUSH4 0x6E66F6E9 EQ PUSH2 0x40B JUMPI PUSH2 0x1F0 JUMP JUMPDEST DUP1 PUSH4 0x23B872DD EQ PUSH2 0x319 JUMPI DUP1 PUSH4 0x2E1DC4B8 EQ PUSH2 0x349 JUMPI DUP1 PUSH4 0x313CE567 EQ PUSH2 0x365 JUMPI DUP1 PUSH4 0x32CB6B0C EQ PUSH2 0x383 JUMPI PUSH2 0x1F0 JUMP JUMPDEST DUP1 PUSH4 0x1694505E GT PUSH2 0x1C3 JUMPI DUP1 PUSH4 0x1694505E EQ PUSH2 0x28F JUMPI DUP1 PUSH4 0x18160DDD EQ PUSH2 0x2AD JUMPI DUP1 PUSH4 0x1AF41E5D EQ PUSH2 0x2CB JUMPI DUP1 PUSH4 0x1D7C27D7 EQ PUSH2 0x2FB JUMPI PUSH2 0x1F0 JUMP JUMPDEST DUP1 PUSH4 0x6FDDE03 EQ PUSH2 0x1F5 JUMPI DUP1 PUSH4 0x95EA7B3 EQ PUSH2 0x213 JUMPI DUP1 PUSH4 0xE88DAD1 EQ PUSH2 0x243 JUMPI DUP1 PUSH4 0x13E46192 EQ PUSH2 0x273 JUMPI JUMPDEST PUSH1 0x0 DUP1 REVERT JUMPDEST PUSH2 0x1FD PUSH2 0x631 JUMP JUMPDEST PUSH1 0x40 MLOAD PUSH2 0x20A SWAP2 SWAP1 PUSH2 0x18DD JUMP JUMPDEST PUSH1 0x40 MLOAD DUP1 SWAP2 SUB SWAP1 RETURN JUMPDEST PUSH2 0x22D PUSH1 0x4 DUP1 CALLDATASIZE SUB DUP2 ADD SWAP1 PUSH2 0x228 SWAP2 SWAP1 PUSH2 0x1998 JUMP JUMPDEST PUSH2 0x6C3 JUMP JUMPDEST PUSH1 0x40 MLOAD PUSH2 0x23A SWAP2 SWAP1 PUSH2 0x19F3 JUMP JUMPDEST PUSH1 0x40 MLOAD DUP1 SWAP2 SUB SWAP1 RETURN JUMPDEST PUSH2 0x25D PUSH1 0x4 DUP1 CALLDATASIZE SUB DUP2 ADD SWAP1 PUSH2 0x258 SWAP2 SWAP1 PUSH2 0x1A0E JUMP JUMPDEST PUSH2 0x6E6 JUMP JUMPDEST PUSH1 0x40 MLOAD PUSH2 0x26A SWAP2 SWAP1 PUSH2 0x19F3 JUMP JUMPDEST PUSH1 0x40 MLOAD DUP1 SWAP2 SUB SWAP1 RETURN JUMPDEST PUSH2 0x28D PUSH1 0x4 DUP1 CALLDATASIZE SUB DUP2 ADD SWAP1 PUSH2 0x288 SWAP2 SWAP1 PUSH2 0x1A67 JUMP JUMPDEST PUSH2 0x706 JUMP JUMPDEST STOP JUMPDEST PUSH2 0x297 PUSH2 0x769 JUMP JUMPDEST PUSH1 0x40 MLOAD PUSH2 0x2A4 SWAP2 SWAP1 PUSH2 0x1B06 JUMP JUMPDEST PUSH1 0x40 MLOAD DUP1 SWAP2 SUB SWAP1 RETURN JUMPDEST PUSH2 0x2B5 PUSH2 0x78F JUMP JUMPDEST PUSH1 0x40 MLOAD PUSH2 0x2C2 SWAP2 SWAP1 PUSH2 0x1B30 JUMP JUMPDEST PUSH1 0x40 MLOAD DUP1 SWAP2 SUB SWAP1 RETURN JUMPDEST PUSH2 0x2E5 PUSH1 0x4 DUP1 CALLDATASIZE SUB DUP2 ADD SWAP1 PUSH2 0x2E0 SWAP2 SWAP1 PUSH2 0x1A0E JUMP JUMPDEST PUSH2 0x799 JUMP JUMPDEST PUSH1 0x40 MLOAD PUSH2 0x2F2 SWAP2 SWAP1 PUSH2 0x19F3 JUMP JUMPDEST PUSH1 0x40 MLOAD DUP1 SWAP2 SUB SWAP1 RETURN JUMPDEST PUSH2 0x303 PUSH2 0x7B9 JUMP JUMPDEST PUSH1 0x40 MLOAD PUSH2 0x310 SWAP2 SWAP1 PUSH2 0x1B30 JUMP JUMPDEST PUSH1 0x40 MLOAD DUP1 SWAP2 SUB SWAP1 RETURN JUMPDEST PUSH2 0x333 PUSH1 0x4 DUP1 CALLDATASIZE SUB DUP2 ADD SWAP1 PUSH2 0x32E SWAP2 SWAP1 PUSH2 0x1B4B JUMP JUMPDEST PUSH2 0x7BF JUMP JUMPDEST PUSH1 0x40 MLOAD PUSH2 0x340 SWAP2 SWAP1 PUSH2 0x19F3 JUMP JUMPDEST PUSH1 0x40 MLOAD DUP1 SWAP2 SUB SWAP1 RETURN JUMPDEST PUSH2 0x363 PUSH1 0x4 DUP1 CALLDATASIZE SUB DUP2 ADD SWAP1 PUSH2 0x35E SWAP2 SWAP1 PUSH2 0x1A0E JUMP JUMPDEST PUSH2 0x7EE JUMP JUMPDEST STOP JUMPDEST PUSH2 0x36D PUSH2 0x83A JUMP JUMPDEST PUSH1 0x40 MLOAD PUSH2 0x37A SWAP2 SWAP1 PUSH2 0x1BBA JUMP JUMPDEST PUSH1 0x40 MLOAD DUP1 SWAP2 SUB SWAP1 RETURN JUMPDEST PUSH2 0x38B PUSH2 0x843 JUMP JUMPDEST PUSH1 0x40 MLOAD PUSH2 0x398 SWAP2 SWAP1 PUSH2 0x1B30 JUMP JUMPDEST PUSH1 0x40 MLOAD DUP1 SWAP2 SUB SWAP1 RETURN JUMPDEST PUSH2 0x3BB PUSH1 0x4 DUP1 CALLDATASIZE SUB DUP2 ADD SWAP1 PUSH2 0x3B6 SWAP2 SWAP1 PUSH2 0x1998 JUMP JUMPDEST PUSH2 0x855 JUMP JUMPDEST PUSH1 0x40 MLOAD PUSH2 0x3C8 SWAP2 SWAP1 PUSH2 0x19F3 JUMP JUMPDEST PUSH1 0x40 MLOAD DUP1 SWAP2 SUB SWAP1 RETURN JUMPDEST PUSH2 0x3D9 PUSH2 0x88C JUMP JUMPDEST PUSH1 0x40 MLOAD PUSH2 0x3E6 SWAP2 SWAP1 PUSH2 0x1BE4 JUMP JUMPDEST PUSH1 0x40 MLOAD DUP1 SWAP2 SUB SWAP1 RETURN JUMPDEST PUSH2 0x409 PUSH1 0x4 DUP1 CALLDATASIZE SUB DUP2 ADD SWAP1 PUSH2 0x404 SWAP2 SWAP1 PUSH2 0x1BFF JUMP JUMPDEST PUSH2 0x8B2 JUMP JUMPDEST STOP JUMPDEST PUSH2 0x413 PUSH2 0x8C4 JUMP JUMPDEST PUSH1 0x40 MLOAD PUSH2 0x420 SWAP2 SWAP1 PUSH2 0x1BE4 JUMP JUMPDEST PUSH1 0x40 MLOAD DUP1 SWAP2 SUB SWAP1 RETURN JUMPDEST PUSH2 0x443 PUSH1 0x4 DUP1 CALLDATASIZE SUB DUP2 ADD SWAP1 PUSH2 0x43E SWAP2 SWAP1 PUSH2 0x1A0E JUMP JUMPDEST PUSH2 0x8EA JUMP JUMPDEST PUSH1 0x40 MLOAD PUSH2 0x450 SWAP2 SWAP1 PUSH2 0x1B30 JUMP JUMPDEST PUSH1 0x40 MLOAD DUP1 SWAP2 SUB SWAP1 RETURN JUMPDEST PUSH2 0x461 PUSH2 0x932 JUMP JUMPDEST STOP JUMPDEST PUSH2 0x46B PUSH2 0x946 JUMP JUMPDEST PUSH1 0x40 MLOAD PUSH2 0x478 SWAP2 SWAP1 PUSH2 0x1BE4 JUMP JUMPDEST PUSH1 0x40 MLOAD DUP1 SWAP2 SUB SWAP1 RETURN JUMPDEST PUSH2 0x489 PUSH2 0x96C JUMP JUMPDEST STOP JUMPDEST PUSH2 0x493 PUSH2 0xAB8 JUMP JUMPDEST PUSH1 0x40 MLOAD PUSH2 0x4A0 SWAP2 SWAP1 PUSH2 0x1BE4 JUMP JUMPDEST PUSH1 0x40 MLOAD DUP1 SWAP2 SUB SWAP1 RETURN JUMPDEST PUSH2 0x4B1 PUSH2 0xAE2 JUMP JUMPDEST PUSH1 0x40 MLOAD PUSH2 0x4BE SWAP2 SWAP1 PUSH2 0x18DD JUMP JUMPDEST PUSH1 0x40 MLOAD DUP1 SWAP2 SUB SWAP1 RETURN JUMPDEST PUSH2 0x4E1 PUSH1 0x4 DUP1 CALLDATASIZE SUB DUP2 ADD SWAP1 PUSH2 0x4DC SWAP2 SWAP1 PUSH2 0x1A0E JUMP JUMPDEST PUSH2 0xB74 JUMP JUMPDEST PUSH1 0x40 MLOAD PUSH2 0x4EE SWAP2 SWAP1 PUSH2 0x19F3 JUMP JUMPDEST PUSH1 0x40 MLOAD DUP1 SWAP2 SUB SWAP1 RETURN JUMPDEST PUSH2 0x511 PUSH1 0x4 DUP1 CALLDATASIZE SUB DUP2 ADD SWAP1 PUSH2 0x50C SWAP2 SWAP1 PUSH2 0x1998 JUMP JUMPDEST PUSH2 0xB94 JUMP JUMPDEST PUSH1 0x40 MLOAD PUSH2 0x51E SWAP2 SWAP1 PUSH2 0x19F3 JUMP JUMPDEST PUSH1 0x40 MLOAD DUP1 SWAP2 SUB SWAP1 RETURN JUMPDEST PUSH2 0x541 PUSH1 0x4 DUP1 CALLDATASIZE SUB DUP2 ADD SWAP1 PUSH2 0x53C SWAP2 SWAP1 PUSH2 0x1998 JUMP JUMPDEST PUSH2 0xC0B JUMP JUMPDEST PUSH1 0x40 MLOAD PUSH2 0x54E SWAP2 SWAP1 PUSH2 0x19F3 JUMP JUMPDEST PUSH1 0x40 MLOAD DUP1 SWAP2 SUB SWAP1 RETURN JUMPDEST PUSH2 0x571 PUSH1 0x4 DUP1 CALLDATASIZE SUB DUP2 ADD SWAP1 PUSH2 0x56C SWAP2 SWAP1 PUSH2 0x1A67 JUMP JUMPDEST PUSH2 0xFD5 JUMP JUMPDEST STOP JUMPDEST PUSH2 0x58D PUSH1 0x4 DUP1 CALLDATASIZE SUB DUP2 ADD SWAP1 PUSH2 0x588 SWAP2 SWAP1 PUSH2 0x1BFF JUMP JUMPDEST PUSH2 0x1038 JUMP JUMPDEST STOP JUMPDEST PUSH2 0x5A9 PUSH1 0x4 DUP1 CALLDATASIZE SUB DUP2 ADD SWAP1 PUSH2 0x5A4 SWAP2 SWAP1 PUSH2 0x1A67 JUMP JUMPDEST PUSH2 0x104A JUMP JUMPDEST STOP JUMPDEST PUSH2 0x5C5 PUSH1 0x4 DUP1 CALLDATASIZE SUB DUP2 ADD SWAP1 PUSH2 0x5C0 SWAP2 SWAP1 PUSH2 0x1C2C JUMP JUMPDEST PUSH2 0x10AD JUMP JUMPDEST PUSH1 0x40 MLOAD PUSH2 0x5D2 SWAP2 SWAP1 PUSH2 0x1B30 JUMP JUMPDEST PUSH1 0x40 MLOAD DUP1 SWAP2 SUB SWAP1 RETURN JUMPDEST PUSH2 0x5F5 PUSH1 0x4 DUP1 CALLDATASIZE SUB DUP2 ADD SWAP1 PUSH2 0x5F0 SWAP2 SWAP1 PUSH2 0x1A0E JUMP JUMPDEST PUSH2 0x1134 JUMP JUMPDEST STOP JUMPDEST PUSH2 0x611 PUSH1 0x4 DUP1 CALLDATASIZE SUB DUP2 ADD SWAP1 PUSH2 0x60C SWAP2 SWAP1 PUSH2 0x1A0E JUMP JUMPDEST PUSH2 0x11B7 JUMP JUMPDEST STOP JUMPDEST PUSH2 0x61B PUSH2 0x1203 JUMP JUMPDEST PUSH1 0x40 MLOAD PUSH2 0x628 SWAP2 SWAP1 PUSH2 0x1B30 JUMP JUMPDEST PUSH1 0x40 MLOAD DUP1 SWAP2 SUB SWAP1 RETURN JUMPDEST PUSH1 0x60 PUSH1 0x3 DUP1 SLOAD PUSH2 0x640 SWAP1 PUSH2 0x1C9B JUMP JUMPDEST DUP1 PUSH1 0x1F ADD PUSH1 0x20 DUP1 SWAP2 DIV MUL PUSH1 0x20 ADD PUSH1 0x40 MLOAD SWAP1 DUP2 ADD PUSH1 0x40 MSTORE DUP1 SWAP3 SWAP2 SWAP1 DUP2 DUP2 MSTORE PUSH1 0x20 ADD DUP3 DUP1 SLOAD PUSH2 0x66C SWAP1 PUSH2 0x1C9B JUMP JUMPDEST DUP1 ISZERO PUSH2 0x6B9 JUMPI DUP1 PUSH1 0x1F LT PUSH2 0x68E JUMPI PUSH2 0x100 DUP1 DUP4 SLOAD DIV MUL DUP4 MSTORE SWAP2 PUSH1 0x20 ADD SWAP2 PUSH2 0x6B9 JUMP JUMPDEST DUP3 ADD SWAP2 SWAP1 PUSH1 0x0 MSTORE PUSH1 0x20 PUSH1 0x0 KECCAK256 SWAP1 JUMPDEST DUP2 SLOAD DUP2 MSTORE SWAP1 PUSH1 0x1 ADD SWAP1 PUSH1 0x20 ADD DUP1 DUP4 GT PUSH2 0x69C JUMPI DUP3 SWAP1 SUB PUSH1 0x1F AND DUP3 ADD SWAP2 JUMPDEST POP POP POP POP POP SWAP1 POP SWAP1 JUMP JUMPDEST PUSH1 0x0 DUP1 PUSH2 0x6CE PUSH2 0x1209 JUMP JUMPDEST SWAP1 POP PUSH2 0x6DB DUP2 DUP6 DUP6 PUSH2 0x1211 JUMP JUMPDEST PUSH1 0x1 SWAP2 POP POP SWAP3 SWAP2 POP POP JUMP JUMPDEST PUSH1 0xE PUSH1 0x20 MSTORE DUP1 PUSH1 0x0 MSTORE PUSH1 0x40 PUSH1 0x0 KECCAK256 PUSH1 0x0 SWAP2 POP SLOAD SWAP1 PUSH2 0x100 EXP SWAP1 DIV PUSH1 0xFF AND DUP2 JUMP JUMPDEST PUSH2 0x70E PUSH2 0x13DA JUMP JUMPDEST DUP1 PUSH1 0xD PUSH1 0x0 DUP5 PUSH20 0xFFFFFFFFFFFFFFFFFFFFFFFFFFFFFFFFFFFFFFFF AND PUSH20 0xFFFFFFFFFFFFFFFFFFFFFFFFFFFFFFFFFFFFFFFF AND DUP2 MSTORE PUSH1 0x20 ADD SWAP1 DUP2 MSTORE PUSH1 0x20 ADD PUSH1 0x0 KECCAK256 PUSH1 0x0 PUSH2 0x100 EXP DUP2 SLOAD DUP2 PUSH1 0xFF MUL NOT AND SWAP1 DUP4 ISZERO ISZERO MUL OR SWAP1 SSTORE POP POP POP JUMP JUMPDEST PUSH1 0x6 PUSH1 0x0 SWAP1 SLOAD SWAP1 PUSH2 0x100 EXP SWAP1 DIV PUSH20 0xFFFFFFFFFFFFFFFFFFFFFFFFFFFFFFFFFFFFFFFF AND DUP2 JUMP JUMPDEST PUSH1 0x0 PUSH1 0x2 SLOAD SWAP1 POP SWAP1 JUMP JUMPDEST PUSH1 0xD PUSH1 0x20 MSTORE DUP1 PUSH1 0x0 MSTORE PUSH1 0x40 PUSH1 0x0 KECCAK256 PUSH1 0x0 SWAP2 POP SLOAD SWAP1 PUSH2 0x100 EXP SWAP1 DIV PUSH1 0xFF AND DUP2 JUMP JUMPDEST PUSH1 0xB SLOAD DUP2 JUMP JUMPDEST PUSH1 0x0 DUP1 PUSH2 0x7CA PUSH2 0x1209 JUMP JUMPDEST SWAP1 POP PUSH2 0x7D7 DUP6 DUP3 DUP6 PUSH2 0x1458 JUMP JUMPDEST PUSH2 0x7E2 DUP6 DUP6 DUP6 PUSH2 0x14E4 JUMP JUMPDEST PUSH1 0x1 SWAP2 POP POP SWAP4 SWAP3 POP POP POP JUMP JUMPDEST PUSH2 0x7F6 PUSH2 0x13DA JUMP JUMPDEST DUP1 PUSH1 0x8 PUSH1 0x0 PUSH2 0x100 EXP DUP2 SLOAD DUP2 PUSH20 0xFFFFFFFFFFFFFFFFFFFFFFFFFFFFFFFFFFFFFFFF MUL NOT AND SWAP1 DUP4 PUSH20 0xFFFFFFFFFFFFFFFFFFFFFFFFFFFFFFFFFFFFFFFF AND MUL OR SWAP1 SSTORE POP POP JUMP JUMPDEST PUSH1 0x0 PUSH1 0x12 SWAP1 POP SWAP1 JUMP JUMPDEST PUSH14 0x314DC6448D9338C15B0A00000000 DUP2 JUMP JUMPDEST PUSH1 0x0 DUP1 PUSH2 0x860 PUSH2 0x1209 JUMP JUMPDEST SWAP1 POP PUSH2 0x881 DUP2 DUP6 DUP6 PUSH2 0x872 DUP6 DUP10 PUSH2 0x10AD JUMP JUMPDEST PUSH2 0x87C SWAP2 SWAP1 PUSH2 0x1CFB JUMP JUMPDEST PUSH2 0x1211 JUMP JUMPDEST PUSH1 0x1 SWAP2 POP POP SWAP3 SWAP2 POP POP JUMP JUMPDEST PUSH1 0x7 PUSH1 0x0 SWAP1 SLOAD SWAP1 PUSH2 0x100 EXP SWAP1 DIV PUSH20 0xFFFFFFFFFFFFFFFFFFFFFFFFFFFFFFFFFFFFFFFF AND DUP2 JUMP JUMPDEST PUSH2 0x8BA PUSH2 0x13DA JUMP JUMPDEST DUP1 PUSH1 0xA DUP2 SWAP1 SSTORE POP POP JUMP JUMPDEST PUSH1 0x8 PUSH1 0x0 SWAP1 SLOAD SWAP1 PUSH2 0x100 EXP SWAP1 DIV PUSH20 0xFFFFFFFFFFFFFFFFFFFFFFFFFFFFFFFFFFFFFFFF AND DUP2 JUMP JUMPDEST PUSH1 0x0 DUP1 PUSH1 0x0 DUP4 PUSH20 0xFFFFFFFFFFFFFFFFFFFFFFFFFFFFFFFFFFFFFFFF AND PUSH20 0xFFFFFFFFFFFFFFFFFFFFFFFFFFFFFFFFFFFFFFFF AND DUP2 MSTORE PUSH1 0x20 ADD SWAP1 DUP2 MSTORE PUSH1 0x20 ADD PUSH1 0x0 KECCAK256 SLOAD SWAP1 POP SWAP2 SWAP1 POP JUMP JUMPDEST PUSH2 0x93A PUSH2 0x13DA JUMP JUMPDEST PUSH2 0x944 PUSH1 0x0 PUSH2 0x175A JUMP JUMPDEST JUMP JUMPDEST PUSH1 0x9 PUSH1 0x0 SWAP1 SLOAD SWAP1 PUSH2 0x100 EXP SWAP1 DIV PUSH20 0xFFFFFFFFFFFFFFFFFFFFFFFFFFFFFFFFFFFFFFFF AND DUP2 JUMP JUMPDEST PUSH2 0x974 PUSH2 0x13DA JUMP JUMPDEST PUSH1 0x0 DUP1 PUSH1 0x6 PUSH1 0x0 SWAP1 SLOAD SWAP1 PUSH2 0x100 EXP SWAP1 DIV PUSH20 0xFFFFFFFFFFFFFFFFFFFFFFFFFFFFFFFFFFFFFFFF AND PUSH20 0xFFFFFFFFFFFFFFFFFFFFFFFFFFFFFFFFFFFFFFFF AND PUSH4 0x2751CEC ADDRESS PUSH2 0x9E1 PUSH1 0x7 PUSH1 0x0 SWAP1 SLOAD SWAP1 PUSH2 0x100 EXP SWAP1 DIV PUSH20 0xFFFFFFFFFFFFFFFFFFFFFFFFFFFFFFFFFFFFFFFF AND PUSH2 0x8EA JUMP JUMPDEST PUSH1 0x0 DUP1 PUSH2 0x9EC PUSH2 0xAB8 JUMP JUMPDEST TIMESTAMP PUSH1 0x40 MLOAD DUP8 PUSH4 0xFFFFFFFF AND PUSH1 0xE0 SHL DUP2 MSTORE PUSH1 0x4 ADD PUSH2 0xA0E SWAP7 SWAP6 SWAP5 SWAP4 SWAP3 SWAP2 SWAP1 PUSH2 0x1D6A JUMP JUMPDEST PUSH1 0x40 DUP1 MLOAD DUP1 DUP4 SUB DUP2 PUSH1 0x0 DUP8 GAS CALL ISZERO DUP1 ISZERO PUSH2 0xA2C JUMPI RETURNDATASIZE PUSH1 0x0 DUP1 RETURNDATACOPY RETURNDATASIZE PUSH1 0x0 REVERT JUMPDEST POP POP POP POP PUSH1 0x40 MLOAD RETURNDATASIZE PUSH1 0x1F NOT PUSH1 0x1F DUP3 ADD AND DUP3 ADD DUP1 PUSH1 0x40 MSTORE POP DUP2 ADD SWAP1 PUSH2 0xA50 SWAP2 SWAP1 PUSH2 0x1DE0 JUMP JUMPDEST SWAP2 POP SWAP2 POP PUSH2 0xA66 ADDRESS PUSH2 0xA60 PUSH2 0xAB8 JUMP JUMPDEST DUP5 PUSH2 0x14E4 JUMP JUMPDEST PUSH2 0xA6E PUSH2 0xAB8 JUMP JUMPDEST PUSH20 0xFFFFFFFFFFFFFFFFFFFFFFFFFFFFFFFFFFFFFFFF AND PUSH2 0x8FC DUP3 SWAP1 DUP2 ISZERO MUL SWAP1 PUSH1 0x40 MLOAD PUSH1 0x0 PUSH1 0x40 MLOAD DUP1 DUP4 SUB DUP2 DUP6 DUP9 DUP9 CALL SWAP4 POP POP POP POP ISZERO DUP1 ISZERO PUSH2 0xAB3 JUMPI RETURNDATASIZE PUSH1 0x0 DUP1 RETURNDATACOPY RETURNDATASIZE PUSH1 0x0 REVERT JUMPDEST POP POP POP JUMP JUMPDEST PUSH1 0x0 PUSH1 0x5 PUSH1 0x0 SWAP1 SLOAD SWAP1 PUSH2 0x100 EXP SWAP1 DIV PUSH20 0xFFFFFFFFFFFFFFFFFFFFFFFFFFFFFFFFFFFFFFFF AND SWAP1 POP SWAP1 JUMP JUMPDEST PUSH1 0x60 PUSH1 0x4 DUP1 SLOAD PUSH2 0xAF1 SWAP1 PUSH2 0x1C9B JUMP JUMPDEST DUP1 PUSH1 0x1F ADD PUSH1 0x20 DUP1 SWAP2 DIV MUL PUSH1 0x20 ADD PUSH1 0x40 MLOAD SWAP1 DUP2 ADD PUSH1 0x40 MSTORE DUP1 SWAP3 SWAP2 SWAP1 DUP2 DUP2 MSTORE PUSH1 0x20 ADD DUP3 DUP1 SLOAD PUSH2 0xB1D SWAP1 PUSH2 0x1C9B JUMP JUMPDEST DUP1 ISZERO PUSH2 0xB6A JUMPI DUP1 PUSH1 0x1F LT PUSH2 0xB3F JUMPI PUSH2 0x100 DUP1 DUP4 SLOAD DIV MUL DUP4 MSTORE SWAP2 PUSH1 0x20 ADD SWAP2 PUSH2 0xB6A JUMP JUMPDEST DUP3 ADD SWAP2 SWAP1 PUSH1 0x0 MSTORE PUSH1 0x20 PUSH1 0x0 KECCAK256 SWAP1 JUMPDEST DUP2 SLOAD DUP2 MSTORE SWAP1 PUSH1 0x1 ADD SWAP1 PUSH1 0x20 ADD DUP1 DUP4 GT PUSH2 0xB4D JUMPI DUP3 SWAP1 SUB PUSH1 0x1F AND DUP3 ADD SWAP2 JUMPDEST POP POP POP POP POP SWAP1 POP SWAP1 JUMP JUMPDEST PUSH1 0xC PUSH1 0x20 MSTORE DUP1 PUSH1 0x0 MSTORE PUSH1 0x40 PUSH1 0x0 KECCAK256 PUSH1 0x0 SWAP2 POP SLOAD SWAP1 PUSH2 0x100 EXP SWAP1 DIV PUSH1 0xFF AND DUP2 JUMP JUMPDEST PUSH1 0x0 DUP1 PUSH2 0xB9F PUSH2 0x1209 JUMP JUMPDEST SWAP1 POP PUSH1 0x0 PUSH2 0xBAD DUP3 DUP7 PUSH2 0x10AD JUMP JUMPDEST SWAP1 POP DUP4 DUP2 LT ISZERO PUSH2 0xBF2 JUMPI PUSH1 0x40 MLOAD PUSH32 0x8C379A000000000000000000000000000000000000000000000000000000000 DUP2 MSTORE PUSH1 0x4 ADD PUSH2 0xBE9 SWAP1 PUSH2 0x1E92 JUMP JUMPDEST PUSH1 0x40 MLOAD DUP1 SWAP2 SUB SWAP1 REVERT JUMPDEST PUSH2 0xBFF DUP3 DUP7 DUP7 DUP5 SUB PUSH2 0x1211 JUMP JUMPDEST PUSH1 0x1 SWAP3 POP POP POP SWAP3 SWAP2 POP POP JUMP JUMPDEST PUSH1 0x0 DUP1 DUP3 GT PUSH2 0xC4F JUMPI PUSH1 0x40 MLOAD PUSH32 0x8C379A000000000000000000000000000000000000000000000000000000000 DUP2 MSTORE PUSH1 0x4 ADD PUSH2 0xC46 SWAP1 PUSH2 0x1F24 JUMP JUMPDEST PUSH1 0x40 MLOAD DUP1 SWAP2 SUB SWAP1 REVERT JUMPDEST PUSH1 0x0 PUSH1 0xA SLOAD SWAP1 POP PUSH1 0x0 PUSH1 0x64 DUP3 DUP6 PUSH2 0xC66 SWAP2 SWAP1 PUSH2 0x1F44 JUMP JUMPDEST PUSH2 0xC70 SWAP2 SWAP1 PUSH2 0x1FB5 JUMP JUMPDEST DUP5 PUSH2 0xC7B SWAP2 SWAP1 PUSH2 0x1FE6 JUMP JUMPDEST SWAP1 POP PUSH1 0x7 PUSH1 0x0 SWAP1 SLOAD SWAP1 PUSH2 0x100 EXP SWAP1 DIV PUSH20 0xFFFFFFFFFFFFFFFFFFFFFFFFFFFFFFFFFFFFFFFF AND PUSH20 0xFFFFFFFFFFFFFFFFFFFFFFFFFFFFFFFFFFFFFFFF AND DUP6 PUSH20 0xFFFFFFFFFFFFFFFFFFFFFFFFFFFFFFFFFFFFFFFF AND SUB PUSH2 0xCFD JUMPI PUSH1 0xB SLOAD SWAP2 POP PUSH1 0x64 DUP3 DUP6 PUSH2 0xCE5 SWAP2 SWAP1 PUSH2 0x1F44 JUMP JUMPDEST PUSH2 0xCEF SWAP2 SWAP1 PUSH2 0x1FB5 JUMP JUMPDEST DUP5 PUSH2 0xCFA SWAP2 SWAP1 PUSH2 0x1FE6 JUMP JUMPDEST SWAP1 POP JUMPDEST PUSH1 0xC PUSH1 0x0 PUSH2 0xD09 PUSH2 0x1209 JUMP JUMPDEST PUSH20 0xFFFFFFFFFFFFFFFFFFFFFFFFFFFFFFFFFFFFFFFF AND PUSH20 0xFFFFFFFFFFFFFFFFFFFFFFFFFFFFFFFFFFFFFFFF AND DUP2 MSTORE PUSH1 0x20 ADD SWAP1 DUP2 MSTORE PUSH1 0x20 ADD PUSH1 0x0 KECCAK256 PUSH1 0x0 SWAP1 SLOAD SWAP1 PUSH2 0x100 EXP SWAP1 DIV PUSH1 0xFF AND PUSH2 0xD65 JUMPI PUSH2 0xD5F DUP6 DUP3 PUSH2 0x1820 JUMP JUMPDEST POP PUSH2 0xD71 JUMP JUMPDEST PUSH2 0xD6F DUP6 DUP6 PUSH2 0x1820 JUMP JUMPDEST POP JUMPDEST PUSH1 0xC PUSH1 0x0 PUSH2 0xD7D PUSH2 0x1209 JUMP JUMPDEST PUSH20 0xFFFFFFFFFFFFFFFFFFFFFFFFFFFFFFFFFFFFFFFF AND PUSH20 0xFFFFFFFFFFFFFFFFFFFFFFFFFFFFFFFFFFFFFFFF AND DUP2 MSTORE PUSH1 0x20 ADD SWAP1 DUP2 MSTORE PUSH1 0x20 ADD PUSH1 0x0 KECCAK256 PUSH1 0x0 SWAP1 SLOAD SWAP1 PUSH2 0x100 EXP SWAP1 DIV PUSH1 0xFF AND PUSH2 0xFC9 JUMPI PUSH1 0x0 PUSH1 0x64 DUP4 DUP7 PUSH2 0xDD9 SWAP2 SWAP1 PUSH2 0x1F44 JUMP JUMPDEST PUSH2 0xDE3 SWAP2 SWAP1 PUSH2 0x1FB5 JUMP JUMPDEST SWAP1 POP PUSH1 0x0 PUSH1 0x64 DUP5 DUP8 PUSH2 0xDF5 SWAP2 SWAP1 PUSH2 0x1F44 JUMP JUMPDEST PUSH2 0xDFF SWAP2 SWAP1 PUSH2 0x1FB5 JUMP JUMPDEST SWAP1 POP PUSH1 0x0 PUSH1 0x64 DUP6 DUP9 PUSH2 0xE11 SWAP2 SWAP1 PUSH2 0x1F44 JUMP JUMPDEST PUSH2 0xE1B SWAP2 SWAP1 PUSH2 0x1FB5 JUMP JUMPDEST SWAP1 POP PUSH1 0x0 PUSH1 0x64 DUP7 DUP10 PUSH2 0xE2D SWAP2 SWAP1 PUSH2 0x1F44 JUMP JUMPDEST PUSH2 0xE37 SWAP2 SWAP1 PUSH2 0x1FB5 JUMP JUMPDEST SWAP1 POP PUSH2 0xE45 PUSH2 0xDEAD DUP6 PUSH2 0x1820 JUMP JUMPDEST POP PUSH2 0xE72 PUSH1 0x8 PUSH1 0x0 SWAP1 SLOAD SWAP1 PUSH2 0x100 EXP SWAP1 DIV PUSH20 0xFFFFFFFFFFFFFFFFFFFFFFFFFFFFFFFFFFFFFFFF AND DUP5 PUSH2 0x1820 JUMP JUMPDEST POP PUSH2 0xE7D ADDRESS DUP4 PUSH2 0x1820 JUMP JUMPDEST POP PUSH2 0xE8F PUSH2 0xE89 PUSH2 0xAB8 JUMP JUMPDEST DUP3 PUSH2 0x1820 JUMP JUMPDEST POP PUSH1 0x0 PUSH2 0xE9B ADDRESS PUSH2 0x8EA JUMP JUMPDEST SWAP1 POP PUSH1 0x0 PUSH1 0x64 DUP5 DUP4 PUSH2 0xEAD SWAP2 SWAP1 PUSH2 0x1F44 JUMP JUMPDEST PUSH2 0xEB7 SWAP2 SWAP1 PUSH2 0x1FB5 JUMP JUMPDEST SWAP1 POP PUSH1 0x0 DUP2 DUP4 PUSH2 0xEC7 SWAP2 SWAP1 PUSH2 0x1FE6 JUMP JUMPDEST SWAP1 POP PUSH1 0x0 DUP3 GT ISZERO PUSH2 0xFC1 JUMPI PUSH2 0xEFE PUSH1 0x6 PUSH1 0x0 SWAP1 SLOAD SWAP1 PUSH2 0x100 EXP SWAP1 DIV PUSH20 0xFFFFFFFFFFFFFFFFFFFFFFFFFFFFFFFFFFFFFFFF AND DUP4 PUSH2 0x6C3 JUMP JUMPDEST POP PUSH1 0x6 PUSH1 0x0 SWAP1 SLOAD SWAP1 PUSH2 0x100 EXP SWAP1 DIV PUSH20 0xFFFFFFFFFFFFFFFFFFFFFFFFFFFFFFFFFFFFFFFF AND PUSH20 0xFFFFFFFFFFFFFFFFFFFFFFFFFFFFFFFFFFFFFFFF AND PUSH4 0xF305D719 DUP4 ADDRESS DUP5 PUSH1 0x0 DUP1 PUSH2 0xF4B PUSH2 0xAB8 JUMP JUMPDEST PUSH2 0x168 TIMESTAMP PUSH2 0xF59 SWAP2 SWAP1 PUSH2 0x1CFB JUMP JUMPDEST PUSH1 0x40 MLOAD DUP9 PUSH4 0xFFFFFFFF AND PUSH1 0xE0 SHL DUP2 MSTORE PUSH1 0x4 ADD PUSH2 0xF7A SWAP7 SWAP6 SWAP5 SWAP4 SWAP3 SWAP2 SWAP1 PUSH2 0x1D6A JUMP JUMPDEST PUSH1 0x60 PUSH1 0x40 MLOAD DUP1 DUP4 SUB DUP2 DUP6 DUP9 GAS CALL ISZERO DUP1 ISZERO PUSH2 0xF98 JUMPI RETURNDATASIZE PUSH1 0x0 DUP1 RETURNDATACOPY RETURNDATASIZE PUSH1 0x0 REVERT JUMPDEST POP POP POP POP POP PUSH1 0x40 MLOAD RETURNDATASIZE PUSH1 0x1F NOT PUSH1 0x1F DUP3 ADD AND DUP3 ADD DUP1 PUSH1 0x40 MSTORE POP DUP2 ADD SWAP1 PUSH2 0xFBD SWAP2 SWAP1 PUSH2 0x201A JUMP JUMPDEST POP POP POP JUMPDEST POP POP POP POP POP POP POP JUMPDEST PUSH1 0x1 SWAP3 POP POP POP SWAP3 SWAP2 POP POP JUMP JUMPDEST PUSH2 0xFDD PUSH2 0x13DA JUMP JUMPDEST DUP1 PUSH1 0xC PUSH1 0x0 DUP5 PUSH20 0xFFFFFFFFFFFFFFFFFFFFFFFFFFFFFFFFFFFFFFFF AND PUSH20 0xFFFFFFFFFFFFFFFFFFFFFFFFFFFFFFFFFFFFFFFF AND DUP2 MSTORE PUSH1 0x20 ADD SWAP1 DUP2 MSTORE PUSH1 0x20 ADD PUSH1 0x0 KECCAK256 PUSH1 0x0 PUSH2 0x100 EXP DUP2 SLOAD DUP2 PUSH1 0xFF MUL NOT AND SWAP1 DUP4 ISZERO ISZERO MUL OR SWAP1 SSTORE POP POP POP JUMP JUMPDEST PUSH2 0x1040 PUSH2 0x13DA JUMP JUMPDEST DUP1 PUSH1 0xB DUP2 SWAP1 SSTORE POP POP JUMP JUMPDEST PUSH2 0x1052 PUSH2 0x13DA JUMP JUMPDEST DUP1 PUSH1 0xE PUSH1 0x0 DUP5 PUSH20 0xFFFFFFFFFFFFFFFFFFFFFFFFFFFFFFFFFFFFFFFF AND PUSH20 0xFFFFFFFFFFFFFFFFFFFFFFFFFFFFFFFFFFFFFFFF AND DUP2 MSTORE PUSH1 0x20 ADD SWAP1 DUP2 MSTORE PUSH1 0x20 ADD PUSH1 0x0 KECCAK256 PUSH1 0x0 PUSH2 0x100 EXP DUP2 SLOAD DUP2 PUSH1 0xFF MUL NOT AND SWAP1 DUP4 ISZERO ISZERO MUL OR SWAP1 SSTORE POP POP POP JUMP JUMPDEST PUSH1 0x0 PUSH1 0x1 PUSH1 0x0 DUP5 PUSH20 0xFFFFFFFFFFFFFFFFFFFFFFFFFFFFFFFFFFFFFFFF AND PUSH20 0xFFFFFFFFFFFFFFFFFFFFFFFFFFFFFFFFFFFFFFFF AND DUP2 MSTORE PUSH1 0x20 ADD SWAP1 DUP2 MSTORE PUSH1 0x20 ADD PUSH1 0x0 KECCAK256 PUSH1 0x0 DUP4 PUSH20 0xFFFFFFFFFFFFFFFFFFFFFFFFFFFFFFFFFFFFFFFF AND PUSH20 0xFFFFFFFFFFFFFFFFFFFFFFFFFFFFFFFFFFFFFFFF AND DUP2 MSTORE PUSH1 0x20 ADD SWAP1 DUP2 MSTORE PUSH1 0x20 ADD PUSH1 0x0 KECCAK256 SLOAD SWAP1 POP SWAP3 SWAP2 POP POP JUMP JUMPDEST PUSH2 0x113C PUSH2 0x13DA JUMP JUMPDEST PUSH1 0x0 PUSH20 0xFFFFFFFFFFFFFFFFFFFFFFFFFFFFFFFFFFFFFFFF AND DUP2 PUSH20 0xFFFFFFFFFFFFFFFFFFFFFFFFFFFFFFFFFFFFFFFF AND SUB PUSH2 0x11AB JUMPI PUSH1 0x40 MLOAD PUSH32 0x8C379A000000000000000000000000000000000000000000000000000000000 DUP2 MSTORE PUSH1 0x4 ADD PUSH2 0x11A2 SWAP1 PUSH2 0x20DF JUMP JUMPDEST PUSH1 0x40 MLOAD DUP1 SWAP2 SUB SWAP1 REVERT JUMPDEST PUSH2 0x11B4 DUP2 PUSH2 0x175A JUMP JUMPDEST POP JUMP JUMPDEST PUSH2 0x11BF PUSH2 0x13DA JUMP JUMPDEST DUP1 PUSH1 0x9 PUSH1 0x0 PUSH2 0x100 EXP DUP2 SLOAD DUP2 PUSH20 0xFFFFFFFFFFFFFFFFFFFFFFFFFFFFFFFFFFFFFFFF MUL NOT AND SWAP1 DUP4 PUSH20 0xFFFFFFFFFFFFFFFFFFFFFFFFFFFFFFFFFFFFFFFF AND MUL OR SWAP1 SSTORE POP POP JUMP JUMPDEST PUSH1 0xA SLOAD DUP2 JUMP JUMPDEST PUSH1 0x0 CALLER SWAP1 POP SWAP1 JUMP JUMPDEST PUSH1 0x0 PUSH20 0xFFFFFFFFFFFFFFFFFFFFFFFFFFFFFFFFFFFFFFFF AND DUP4 PUSH20 0xFFFFFFFFFFFFFFFFFFFFFFFFFFFFFFFFFFFFFFFF AND SUB PUSH2 0x1280 JUMPI PUSH1 0x40 MLOAD PUSH32 0x8C379A000000000000000000000000000000000000000000000000000000000 DUP2 MSTORE PUSH1 0x4 ADD PUSH2 0x1277 SWAP1 PUSH2 0x2171 JUMP JUMPDEST PUSH1 0x40 MLOAD DUP1 SWAP2 SUB SWAP1 REVERT JUMPDEST PUSH1 0x0 PUSH20 0xFFFFFFFFFFFFFFFFFFFFFFFFFFFFFFFFFFFFFFFF AND DUP3 PUSH20 0xFFFFFFFFFFFFFFFFFFFFFFFFFFFFFFFFFFFFFFFF AND SUB PUSH2 0x12EF JUMPI PUSH1 0x40 MLOAD PUSH32 0x8C379A000000000000000000000000000000000000000000000000000000000 DUP2 MSTORE PUSH1 0x4 ADD PUSH2 0x12E6 SWAP1 PUSH2 0x2203 JUMP JUMPDEST PUSH1 0x40 MLOAD DUP1 SWAP2 SUB SWAP1 REVERT JUMPDEST DUP1 PUSH1 0x1 PUSH1 0x0 DUP6 PUSH20 0xFFFFFFFFFFFFFFFFFFFFFFFFFFFFFFFFFFFFFFFF AND PUSH20 0xFFFFFFFFFFFFFFFFFFFFFFFFFFFFFFFFFFFFFFFF AND DUP2 MSTORE PUSH1 0x20 ADD SWAP1 DUP2 MSTORE PUSH1 0x20 ADD PUSH1 0x0 KECCAK256 PUSH1 0x0 DUP5 PUSH20 0xFFFFFFFFFFFFFFFFFFFFFFFFFFFFFFFFFFFFFFFF AND PUSH20 0xFFFFFFFFFFFFFFFFFFFFFFFFFFFFFFFFFFFFFFFF AND DUP2 MSTORE PUSH1 0x20 ADD SWAP1 DUP2 MSTORE PUSH1 0x20 ADD PUSH1 0x0 KECCAK256 DUP2 SWAP1 SSTORE POP DUP2 PUSH20 0xFFFFFFFFFFFFFFFFFFFFFFFFFFFFFFFFFFFFFFFF AND DUP4 PUSH20 0xFFFFFFFFFFFFFFFFFFFFFFFFFFFFFFFFFFFFFFFF AND PUSH32 0x8C5BE1E5EBEC7D5BD14F71427D1E84F3DD0314C0F7B2291E5B200AC8C7C3B925 DUP4 PUSH1 0x40 MLOAD PUSH2 0x13CD SWAP2 SWAP1 PUSH2 0x1B30 JUMP JUMPDEST PUSH1 0x40 MLOAD DUP1 SWAP2 SUB SWAP1 LOG3 POP POP POP JUMP JUMPDEST PUSH2 0x13E2 PUSH2 0x1209 JUMP JUMPDEST PUSH20 0xFFFFFFFFFFFFFFFFFFFFFFFFFFFFFFFFFFFFFFFF AND PUSH2 0x1400 PUSH2 0xAB8 JUMP JUMPDEST PUSH20 0xFFFFFFFFFFFFFFFFFFFFFFFFFFFFFFFFFFFFFFFF AND EQ PUSH2 0x1456 JUMPI PUSH1 0x40 MLOAD PUSH32 0x8C379A000000000000000000000000000000000000000000000000000000000 DUP2 MSTORE PUSH1 0x4 ADD PUSH2 0x144D SWAP1 PUSH2 0x226F JUMP JUMPDEST PUSH1 0x40 MLOAD DUP1 SWAP2 SUB SWAP1 REVERT JUMPDEST JUMP JUMPDEST PUSH1 0x0 PUSH2 0x1464 DUP5 DUP5 PUSH2 0x10AD JUMP JUMPDEST SWAP1 POP PUSH32 0xFFFFFFFFFFFFFFFFFFFFFFFFFFFFFFFFFFFFFFFFFFFFFFFFFFFFFFFFFFFFFFFF DUP2 EQ PUSH2 0x14DE JUMPI DUP2 DUP2 LT ISZERO PUSH2 0x14D0 JUMPI PUSH1 0x40 MLOAD PUSH32 0x8C379A000000000000000000000000000000000000000000000000000000000 DUP2 MSTORE PUSH1 0x4 ADD PUSH2 0x14C7 SWAP1 PUSH2 0x22DB JUMP JUMPDEST PUSH1 0x40 MLOAD DUP1 SWAP2 SUB SWAP1 REVERT JUMPDEST PUSH2 0x14DD DUP5 DUP5 DUP5 DUP5 SUB PUSH2 0x1211 JUMP JUMPDEST JUMPDEST POP POP POP POP JUMP JUMPDEST PUSH1 0x0 PUSH20 0xFFFFFFFFFFFFFFFFFFFFFFFFFFFFFFFFFFFFFFFF AND DUP4 PUSH20 0xFFFFFFFFFFFFFFFFFFFFFFFFFFFFFFFFFFFFFFFF AND SUB PUSH2 0x1553 JUMPI PUSH1 0x40 MLOAD PUSH32 0x8C379A000000000000000000000000000000000000000000000000000000000 DUP2 MSTORE PUSH1 0x4 ADD PUSH2 0x154A SWAP1 PUSH2 0x236D JUMP JUMPDEST PUSH1 0x40 MLOAD DUP1 SWAP2 SUB SWAP1 REVERT JUMPDEST PUSH1 0x0 PUSH20 0xFFFFFFFFFFFFFFFFFFFFFFFFFFFFFFFFFFFFFFFF AND DUP3 PUSH20 0xFFFFFFFFFFFFFFFFFFFFFFFFFFFFFFFFFFFFFFFF AND SUB PUSH2 0x15C2 JUMPI PUSH1 0x40 MLOAD PUSH32 0x8C379A000000000000000000000000000000000000000000000000000000000 DUP2 MSTORE PUSH1 0x4 ADD PUSH2 0x15B9 SWAP1 PUSH2 0x23FF JUMP JUMPDEST PUSH1 0x40 MLOAD DUP1 SWAP2 SUB SWAP1 REVERT JUMPDEST PUSH2 0x15CD DUP4 DUP4 DUP4 PUSH2 0x1843 JUMP JUMPDEST PUSH1 0x0 DUP1 PUSH1 0x0 DUP6 PUSH20 0xFFFFFFFFFFFFFFFFFFFFFFFFFFFFFFFFFFFFFFFF AND PUSH20 0xFFFFFFFFFFFFFFFFFFFFFFFFFFFFFFFFFFFFFFFF AND DUP2 MSTORE PUSH1 0x20 ADD SWAP1 DUP2 MSTORE PUSH1 0x20 ADD PUSH1 0x0 KECCAK256 SLOAD SWAP1 POP DUP2 DUP2 LT ISZERO PUSH2 0x1653 JUMPI PUSH1 0x40 MLOAD PUSH32 0x8C379A000000000000000000000000000000000000000000000000000000000 DUP2 MSTORE PUSH1 0x4 ADD PUSH2 0x164A SWAP1 PUSH2 0x2491 JUMP JUMPDEST PUSH1 0x40 MLOAD DUP1 SWAP2 SUB SWAP1 REVERT JUMPDEST DUP2 DUP2 SUB PUSH1 0x0 DUP1 DUP7 PUSH20 0xFFFFFFFFFFFFFFFFFFFFFFFFFFFFFFFFFFFFFFFF AND PUSH20 0xFFFFFFFFFFFFFFFFFFFFFFFFFFFFFFFFFFFFFFFF AND DUP2 MSTORE PUSH1 0x20 ADD SWAP1 DUP2 MSTORE PUSH1 0x20 ADD PUSH1 0x0 KECCAK256 DUP2 SWAP1 SSTORE POP DUP2 PUSH1 0x0 DUP1 DUP6 PUSH20 0xFFFFFFFFFFFFFFFFFFFFFFFFFFFFFFFFFFFFFFFF AND PUSH20 0xFFFFFFFFFFFFFFFFFFFFFFFFFFFFFFFFFFFFFFFF AND DUP2 MSTORE PUSH1 0x20 ADD SWAP1 DUP2 MSTORE PUSH1 0x20 ADD PUSH1 0x0 KECCAK256 PUSH1 0x0 DUP3 DUP3 SLOAD ADD SWAP3 POP POP DUP2 SWAP1 SSTORE POP DUP3 PUSH20 0xFFFFFFFFFFFFFFFFFFFFFFFFFFFFFFFFFFFFFFFF AND DUP5 PUSH20 0xFFFFFFFFFFFFFFFFFFFFFFFFFFFFFFFFFFFFFFFF AND PUSH32 0xDDF252AD1BE2C89B69C2B068FC378DAA952BA7F163C4A11628F55A4DF523B3EF DUP5 PUSH1 0x40 MLOAD PUSH2 0x1741 SWAP2 SWAP1 PUSH2 0x1B30 JUMP JUMPDEST PUSH1 0x40 MLOAD DUP1 SWAP2 SUB SWAP1 LOG3 PUSH2 0x1754 DUP5 DUP5 DUP5 PUSH2 0x1848 JUMP JUMPDEST POP POP POP POP JUMP JUMPDEST PUSH1 0x0 PUSH1 0x5 PUSH1 0x0 SWAP1 SLOAD SWAP1 PUSH2 0x100 EXP SWAP1 DIV PUSH20 0xFFFFFFFFFFFFFFFFFFFFFFFFFFFFFFFFFFFFFFFF AND SWAP1 POP DUP2 PUSH1 0x5 PUSH1 0x0 PUSH2 0x100 EXP DUP2 SLOAD DUP2 PUSH20 0xFFFFFFFFFFFFFFFFFFFFFFFFFFFFFFFFFFFFFFFF MUL NOT AND SWAP1 DUP4 PUSH20 0xFFFFFFFFFFFFFFFFFFFFFFFFFFFFFFFFFFFFFFFF AND MUL OR SWAP1 SSTORE POP DUP2 PUSH20 0xFFFFFFFFFFFFFFFFFFFFFFFFFFFFFFFFFFFFFFFF AND DUP2 PUSH20 0xFFFFFFFFFFFFFFFFFFFFFFFFFFFFFFFFFFFFFFFF AND PUSH32 0x8BE0079C531659141344CD1FD0A4F28419497F9722A3DAAFE3B4186F6B6457E0 PUSH1 0x40 MLOAD PUSH1 0x40 MLOAD DUP1 SWAP2 SUB SWAP1 LOG3 POP POP JUMP JUMPDEST PUSH1 0x0 DUP1 PUSH2 0x182B PUSH2 0x1209 JUMP JUMPDEST SWAP1 POP PUSH2 0x1838 DUP2 DUP6 DUP6 PUSH2 0x14E4 JUMP JUMPDEST PUSH1 0x1 SWAP2 POP POP SWAP3 SWAP2 POP POP JUMP JUMPDEST POP POP POP JUMP JUMPDEST POP POP POP JUMP JUMPDEST PUSH1 0x0 DUP2 MLOAD SWAP1 POP SWAP2 SWAP1 POP JUMP JUMPDEST PUSH1 0x0 DUP3 DUP3 MSTORE PUSH1 0x20 DUP3 ADD SWAP1 POP SWAP3 SWAP2 POP POP JUMP JUMPDEST PUSH1 0x0 JUMPDEST DUP4 DUP2 LT ISZERO PUSH2 0x1887 JUMPI DUP1 DUP3 ADD MLOAD DUP2 DUP5 ADD MSTORE PUSH1 0x20 DUP2 ADD SWAP1 POP PUSH2 0x186C JUMP JUMPDEST PUSH1 0x0 DUP5 DUP5 ADD MSTORE POP POP POP POP JUMP JUMPDEST PUSH1 0x0 PUSH1 0x1F NOT PUSH1 0x1F DUP4 ADD AND SWAP1 POP SWAP2 SWAP1 POP JUMP JUMPDEST PUSH1 0x0 PUSH2 0x18AF DUP3 PUSH2 0x184D JUMP JUMPDEST PUSH2 0x18B9 DUP2 DUP6 PUSH2 0x1858 JUMP JUMPDEST SWAP4 POP PUSH2 0x18C9 DUP2 DUP6 PUSH1 0x20 DUP7 ADD PUSH2 0x1869 JUMP JUMPDEST PUSH2 0x18D2 DUP2 PUSH2 0x1893 JUMP JUMPDEST DUP5 ADD SWAP2 POP POP SWAP3 SWAP2 POP POP JUMP JUMPDEST PUSH1 0x0 PUSH1 0x20 DUP3 ADD SWAP1 POP DUP2 DUP2 SUB PUSH1 0x0 DUP4 ADD MSTORE PUSH2 0x18F7 DUP2 DUP5 PUSH2 0x18A4 JUMP JUMPDEST SWAP1 POP SWAP3 SWAP2 POP POP JUMP JUMPDEST PUSH1 0x0 DUP1 REVERT JUMPDEST PUSH1 0x0 PUSH20 0xFFFFFFFFFFFFFFFFFFFFFFFFFFFFFFFFFFFFFFFF DUP3 AND SWAP1 POP SWAP2 SWAP1 POP JUMP JUMPDEST PUSH1 0x0 PUSH2 0x192F DUP3 PUSH2 0x1904 JUMP JUMPDEST SWAP1 POP SWAP2 SWAP1 POP JUMP JUMPDEST PUSH2 0x193F DUP2 PUSH2 0x1924 JUMP JUMPDEST DUP2 EQ PUSH2 0x194A JUMPI PUSH1 0x0 DUP1 REVERT JUMPDEST POP JUMP JUMPDEST PUSH1 0x0 DUP2 CALLDATALOAD SWAP1 POP PUSH2 0x195C DUP2 PUSH2 0x1936 JUMP JUMPDEST SWAP3 SWAP2 POP POP JUMP JUMPDEST PUSH1 0x0 DUP2 SWAP1 POP SWAP2 SWAP1 POP JUMP JUMPDEST PUSH2 0x1975 DUP2 PUSH2 0x1962 JUMP JUMPDEST DUP2 EQ PUSH2 0x1980 JUMPI PUSH1 0x0 DUP1 REVERT JUMPDEST POP JUMP JUMPDEST PUSH1 0x0 DUP2 CALLDATALOAD SWAP1 POP PUSH2 0x1992 DUP2 PUSH2 0x196C JUMP JUMPDEST SWAP3 SWAP2 POP POP JUMP JUMPDEST PUSH1 0x0 DUP1 PUSH1 0x40 DUP4 DUP6 SUB SLT ISZERO PUSH2 0x19AF JUMPI PUSH2 0x19AE PUSH2 0x18FF JUMP JUMPDEST JUMPDEST PUSH1 0x0 PUSH2 0x19BD DUP6 DUP3 DUP7 ADD PUSH2 0x194D JUMP JUMPDEST SWAP3 POP POP PUSH1 0x20 PUSH2 0x19CE DUP6 DUP3 DUP7 ADD PUSH2 0x1983 JUMP JUMPDEST SWAP2 POP POP SWAP3 POP SWAP3 SWAP1 POP JUMP JUMPDEST PUSH1 0x0 DUP2 ISZERO ISZERO SWAP1 POP SWAP2 SWAP1 POP JUMP JUMPDEST PUSH2 0x19ED DUP2 PUSH2 0x19D8 JUMP JUMPDEST DUP3 MSTORE POP POP JUMP JUMPDEST PUSH1 0x0 PUSH1 0x20 DUP3 ADD SWAP1 POP PUSH2 0x1A08 PUSH1 0x0 DUP4 ADD DUP5 PUSH2 0x19E4 JUMP JUMPDEST SWAP3 SWAP2 POP POP JUMP JUMPDEST PUSH1 0x0 PUSH1 0x20 DUP3 DUP5 SUB SLT ISZERO PUSH2 0x1A24 JUMPI PUSH2 0x1A23 PUSH2 0x18FF JUMP JUMPDEST JUMPDEST PUSH1 0x0 PUSH2 0x1A32 DUP5 DUP3 DUP6 ADD PUSH2 0x194D JUMP JUMPDEST SWAP2 POP POP SWAP3 SWAP2 POP POP JUMP JUMPDEST PUSH2 0x1A44 DUP2 PUSH2 0x19D8 JUMP JUMPDEST DUP2 EQ PUSH2 0x1A4F JUMPI PUSH1 0x0 DUP1 REVERT JUMPDEST POP JUMP JUMPDEST PUSH1 0x0 DUP2 CALLDATALOAD SWAP1 POP PUSH2 0x1A61 DUP2 PUSH2 0x1A3B JUMP JUMPDEST SWAP3 SWAP2 POP POP JUMP JUMPDEST PUSH1 0x0 DUP1 PUSH1 0x40 DUP4 DUP6 SUB SLT ISZERO PUSH2 0x1A7E JUMPI PUSH2 0x1A7D PUSH2 0x18FF JUMP JUMPDEST JUMPDEST PUSH1 0x0 PUSH2 0x1A8C DUP6 DUP3 DUP7 ADD PUSH2 0x194D JUMP JUMPDEST SWAP3 POP POP PUSH1 0x20 PUSH2 0x1A9D DUP6 DUP3 DUP7 ADD PUSH2 0x1A52 JUMP JUMPDEST SWAP2 POP POP SWAP3 POP SWAP3 SWAP1 POP JUMP JUMPDEST PUSH1 0x0 DUP2 SWAP1 POP SWAP2 SWAP1 POP JUMP JUMPDEST PUSH1 0x0 PUSH2 0x1ACC PUSH2 0x1AC7 PUSH2 0x1AC2 DUP5 PUSH2 0x1904 JUMP JUMPDEST PUSH2 0x1AA7 JUMP JUMPDEST PUSH2 0x1904 JUMP JUMPDEST SWAP1 POP SWAP2 SWAP1 POP JUMP JUMPDEST PUSH1 0x0 PUSH2 0x1ADE DUP3 PUSH2 0x1AB1 JUMP JUMPDEST SWAP1 POP SWAP2 SWAP1 POP JUMP JUMPDEST PUSH1 0x0 PUSH2 0x1AF0 DUP3 PUSH2 0x1AD3 JUMP JUMPDEST SWAP1 POP SWAP2 SWAP1 POP JUMP JUMPDEST PUSH2 0x1B00 DUP2 PUSH2 0x1AE5 JUMP JUMPDEST DUP3 MSTORE POP POP JUMP JUMPDEST PUSH1 0x0 PUSH1 0x20 DUP3 ADD SWAP1 POP PUSH2 0x1B1B PUSH1 0x0 DUP4 ADD DUP5 PUSH2 0x1AF7 JUMP JUMPDEST SWAP3 SWAP2 POP POP JUMP JUMPDEST PUSH2 0x1B2A DUP2 PUSH2 0x1962 JUMP JUMPDEST DUP3 MSTORE POP POP JUMP JUMPDEST PUSH1 0x0 PUSH1 0x20 DUP3 ADD SWAP1 POP PUSH2 0x1B45 PUSH1 0x0 DUP4 ADD DUP5 PUSH2 0x1B21 JUMP JUMPDEST SWAP3 SWAP2 POP POP JUMP JUMPDEST PUSH1 0x0 DUP1 PUSH1 0x0 PUSH1 0x60 DUP5 DUP7 SUB SLT ISZERO PUSH2 0x1B64 JUMPI PUSH2 0x1B63 PUSH2 0x18FF JUMP JUMPDEST JUMPDEST PUSH1 0x0 PUSH2 0x1B72 DUP7 DUP3 DUP8 ADD PUSH2 0x194D JUMP JUMPDEST SWAP4 POP POP PUSH1 0x20 PUSH2 0x1B83 DUP7 DUP3 DUP8 ADD PUSH2 0x194D JUMP JUMPDEST SWAP3 POP POP PUSH1 0x40 PUSH2 0x1B94 DUP7 DUP3 DUP8 ADD PUSH2 0x1983 JUMP JUMPDEST SWAP2 POP POP SWAP3 POP SWAP3 POP SWAP3 JUMP JUMPDEST PUSH1 0x0 PUSH1 0xFF DUP3 AND SWAP1 POP SWAP2 SWAP1 POP JUMP JUMPDEST PUSH2 0x1BB4 DUP2 PUSH2 0x1B9E JUMP JUMPDEST DUP3 MSTORE POP POP JUMP JUMPDEST PUSH1 0x0 PUSH1 0x20 DUP3 ADD SWAP1 POP PUSH2 0x1BCF PUSH1 0x0 DUP4 ADD DUP5 PUSH2 0x1BAB JUMP JUMPDEST SWAP3 SWAP2 POP POP JUMP JUMPDEST PUSH2 0x1BDE DUP2 PUSH2 0x1924 JUMP JUMPDEST DUP3 MSTORE POP POP JUMP JUMPDEST PUSH1 0x0 PUSH1 0x20 DUP3 ADD SWAP1 POP PUSH2 0x1BF9 PUSH1 0x0 DUP4 ADD DUP5 PUSH2 0x1BD5 JUMP JUMPDEST SWAP3 SWAP2 POP POP JUMP JUMPDEST PUSH1 0x0 PUSH1 0x20 DUP3 DUP5 SUB SLT ISZERO PUSH2 0x1C15 JUMPI PUSH2 0x1C14 PUSH2 0x18FF JUMP JUMPDEST JUMPDEST PUSH1 0x0 PUSH2 0x1C23 DUP5 DUP3 DUP6 ADD PUSH2 0x1983 JUMP JUMPDEST SWAP2 POP POP SWAP3 SWAP2 POP POP JUMP JUMPDEST PUSH1 0x0 DUP1 PUSH1 0x40 DUP4 DUP6 SUB SLT ISZERO PUSH2 0x1C43 JUMPI PUSH2 0x1C42 PUSH2 0x18FF JUMP JUMPDEST JUMPDEST PUSH1 0x0 PUSH2 0x1C51 DUP6 DUP3 DUP7 ADD PUSH2 0x194D JUMP JUMPDEST SWAP3 POP POP PUSH1 0x20 PUSH2 0x1C62 DUP6 DUP3 DUP7 ADD PUSH2 0x194D JUMP JUMPDEST SWAP2 POP POP SWAP3 POP SWAP3 SWAP1 POP JUMP JUMPDEST PUSH32 0x4E487B7100000000000000000000000000000000000000000000000000000000 PUSH1 0x0 MSTORE PUSH1 0x22 PUSH1 0x4 MSTORE PUSH1 0x24 PUSH1 0x0 REVERT JUMPDEST PUSH1 0x0 PUSH1 0x2 DUP3 DIV SWAP1 POP PUSH1 0x1 DUP3 AND DUP1 PUSH2 0x1CB3 JUMPI PUSH1 0x7F DUP3 AND SWAP2 POP JUMPDEST PUSH1 0x20 DUP3 LT DUP2 SUB PUSH2 0x1CC6 JUMPI PUSH2 0x1CC5 PUSH2 0x1C6C JUMP JUMPDEST JUMPDEST POP SWAP2 SWAP1 POP JUMP JUMPDEST PUSH32 0x4E487B7100000000000000000000000000000000000000000000000000000000 PUSH1 0x0 MSTORE PUSH1 0x11 PUSH1 0x4 MSTORE PUSH1 0x24 PUSH1 0x0 REVERT JUMPDEST PUSH1 0x0 PUSH2 0x1D06 DUP3 PUSH2 0x1962 JUMP JUMPDEST SWAP2 POP PUSH2 0x1D11 DUP4 PUSH2 0x1962 JUMP JUMPDEST SWAP3 POP DUP3 DUP3 ADD SWAP1 POP DUP1 DUP3 GT ISZERO PUSH2 0x1D29 JUMPI PUSH2 0x1D28 PUSH2 0x1CCC JUMP JUMPDEST JUMPDEST SWAP3 SWAP2 POP POP JUMP JUMPDEST PUSH1 0x0 DUP2 SWAP1 POP SWAP2 SWAP1 POP JUMP JUMPDEST PUSH1 0x0 PUSH2 0x1D54 PUSH2 0x1D4F PUSH2 0x1D4A DUP5 PUSH2 0x1D2F JUMP JUMPDEST PUSH2 0x1AA7 JUMP JUMPDEST PUSH2 0x1962 JUMP JUMPDEST SWAP1 POP SWAP2 SWAP1 POP JUMP JUMPDEST PUSH2 0x1D64 DUP2 PUSH2 0x1D39 JUMP JUMPDEST DUP3 MSTORE POP POP JUMP JUMPDEST PUSH1 0x0 PUSH1 0xC0 DUP3 ADD SWAP1 POP PUSH2 0x1D7F PUSH1 0x0 DUP4 ADD DUP10 PUSH2 0x1BD5 JUMP JUMPDEST PUSH2 0x1D8C PUSH1 0x20 DUP4 ADD DUP9 PUSH2 0x1B21 JUMP JUMPDEST PUSH2 0x1D99 PUSH1 0x40 DUP4 ADD DUP8 PUSH2 0x1D5B JUMP JUMPDEST PUSH2 0x1DA6 PUSH1 0x60 DUP4 ADD DUP7 PUSH2 0x1D5B JUMP JUMPDEST PUSH2 0x1DB3 PUSH1 0x80 DUP4 ADD DUP6 PUSH2 0x1BD5 JUMP JUMPDEST PUSH2 0x1DC0 PUSH1 0xA0 DUP4 ADD DUP5 PUSH2 0x1B21 JUMP JUMPDEST SWAP8 SWAP7 POP POP POP POP POP POP POP JUMP JUMPDEST PUSH1 0x0 DUP2 MLOAD SWAP1 POP PUSH2 0x1DDA DUP2 PUSH2 0x196C JUMP JUMPDEST SWAP3 SWAP2 POP POP JUMP JUMPDEST PUSH1 0x0 DUP1 PUSH1 0x40 DUP4 DUP6 SUB SLT ISZERO PUSH2 0x1DF7 JUMPI PUSH2 0x1DF6 PUSH2 0x18FF JUMP JUMPDEST JUMPDEST PUSH1 0x0 PUSH2 0x1E05 DUP6 DUP3 DUP7 ADD PUSH2 0x1DCB JUMP JUMPDEST SWAP3 POP POP PUSH1 0x20 PUSH2 0x1E16 DUP6 DUP3 DUP7 ADD PUSH2 0x1DCB JUMP JUMPDEST SWAP2 POP POP SWAP3 POP SWAP3 SWAP1 POP JUMP JUMPDEST PUSH32 0x45524332303A2064656372656173656420616C6C6F77616E63652062656C6F77 PUSH1 0x0 DUP3 ADD MSTORE PUSH32 0x207A65726F000000000000000000000000000000000000000000000000000000 PUSH1 0x20 DUP3 ADD MSTORE POP JUMP JUMPDEST PUSH1 0x0 PUSH2 0x1E7C PUSH1 0x25 DUP4 PUSH2 0x1858 JUMP JUMPDEST SWAP2 POP PUSH2 0x1E87 DUP3 PUSH2 0x1E20 JUMP JUMPDEST PUSH1 0x40 DUP3 ADD SWAP1 POP SWAP2 SWAP1 POP JUMP JUMPDEST PUSH1 0x0 PUSH1 0x20 DUP3 ADD SWAP1 POP DUP2 DUP2 SUB PUSH1 0x0 DUP4 ADD MSTORE PUSH2 0x1EAB DUP2 PUSH2 0x1E6F JUMP JUMPDEST SWAP1 POP SWAP2 SWAP1 POP JUMP JUMPDEST PUSH32 0x44656265207472616E73666572697220616C206D656E6F7320756E20746F6B65 PUSH1 0x0 DUP3 ADD MSTORE PUSH32 0x6E00000000000000000000000000000000000000000000000000000000000000 PUSH1 0x20 DUP3 ADD MSTORE POP JUMP JUMPDEST PUSH1 0x0 PUSH2 0x1F0E PUSH1 0x21 DUP4 PUSH2 0x1858 JUMP JUMPDEST SWAP2 POP PUSH2 0x1F19 DUP3 PUSH2 0x1EB2 JUMP JUMPDEST PUSH1 0x40 DUP3 ADD SWAP1 POP SWAP2 SWAP1 POP JUMP JUMPDEST PUSH1 0x0 PUSH1 0x20 DUP3 ADD SWAP1 POP DUP2 DUP2 SUB PUSH1 0x0 DUP4 ADD MSTORE PUSH2 0x1F3D DUP2 PUSH2 0x1F01 JUMP JUMPDEST SWAP1 POP SWAP2 SWAP1 POP JUMP JUMPDEST PUSH1 0x0 PUSH2 0x1F4F DUP3 PUSH2 0x1962 JUMP JUMPDEST SWAP2 POP PUSH2 0x1F5A DUP4 PUSH2 0x1962 JUMP JUMPDEST SWAP3 POP DUP3 DUP3 MUL PUSH2 0x1F68 DUP2 PUSH2 0x1962 JUMP JUMPDEST SWAP2 POP DUP3 DUP3 DIV DUP5 EQ DUP4 ISZERO OR PUSH2 0x1F7F JUMPI PUSH2 0x1F7E PUSH2 0x1CCC JUMP JUMPDEST JUMPDEST POP SWAP3 SWAP2 POP POP JUMP JUMPDEST PUSH32 0x4E487B7100000000000000000000000000000000000000000000000000000000 PUSH1 0x0 MSTORE PUSH1 0x12 PUSH1 0x4 MSTORE PUSH1 0x24 PUSH1 0x0 REVERT JUMPDEST PUSH1 0x0 PUSH2 0x1FC0 DUP3 PUSH2 0x1962 JUMP JUMPDEST SWAP2 POP PUSH2 0x1FCB DUP4 PUSH2 0x1962 JUMP JUMPDEST SWAP3 POP DUP3 PUSH2 0x1FDB JUMPI PUSH2 0x1FDA PUSH2 0x1F86 JUMP JUMPDEST JUMPDEST DUP3 DUP3 DIV SWAP1 POP SWAP3 SWAP2 POP POP JUMP JUMPDEST PUSH1 0x0 PUSH2 0x1FF1 DUP3 PUSH2 0x1962 JUMP JUMPDEST SWAP2 POP PUSH2 0x1FFC DUP4 PUSH2 0x1962 JUMP JUMPDEST SWAP3 POP DUP3 DUP3 SUB SWAP1 POP DUP2 DUP2 GT ISZERO PUSH2 0x2014 JUMPI PUSH2 0x2013 PUSH2 0x1CCC JUMP JUMPDEST JUMPDEST SWAP3 SWAP2 POP POP JUMP JUMPDEST PUSH1 0x0 DUP1 PUSH1 0x0 PUSH1 0x60 DUP5 DUP7 SUB SLT ISZERO PUSH2 0x2033 JUMPI PUSH2 0x2032 PUSH2 0x18FF JUMP JUMPDEST JUMPDEST PUSH1 0x0 PUSH2 0x2041 DUP7 DUP3 DUP8 ADD PUSH2 0x1DCB JUMP JUMPDEST SWAP4 POP POP PUSH1 0x20 PUSH2 0x2052 DUP7 DUP3 DUP8 ADD PUSH2 0x1DCB JUMP JUMPDEST SWAP3 POP POP PUSH1 0x40 PUSH2 0x2063 DUP7 DUP3 DUP8 ADD PUSH2 0x1DCB JUMP JUMPDEST SWAP2 POP POP SWAP3 POP SWAP3 POP SWAP3 JUMP JUMPDEST PUSH32 0x4F776E61626C653A206E6577206F776E657220697320746865207A65726F2061 PUSH1 0x0 DUP3 ADD MSTORE PUSH32 0x6464726573730000000000000000000000000000000000000000000000000000 PUSH1 0x20 DUP3 ADD MSTORE POP JUMP JUMPDEST PUSH1 0x0 PUSH2 0x20C9 PUSH1 0x26 DUP4 PUSH2 0x1858 JUMP JUMPDEST SWAP2 POP PUSH2 0x20D4 DUP3 PUSH2 0x206D JUMP JUMPDEST PUSH1 0x40 DUP3 ADD SWAP1 POP SWAP2 SWAP1 POP JUMP JUMPDEST PUSH1 0x0 PUSH1 0x20 DUP3 ADD SWAP1 POP DUP2 DUP2 SUB PUSH1 0x0 DUP4 ADD MSTORE PUSH2 0x20F8 DUP2 PUSH2 0x20BC JUMP JUMPDEST SWAP1 POP SWAP2 SWAP1 POP JUMP JUMPDEST PUSH32 0x45524332303A20617070726F76652066726F6D20746865207A65726F20616464 PUSH1 0x0 DUP3 ADD MSTORE PUSH32 0x7265737300000000000000000000000000000000000000000000000000000000 PUSH1 0x20 DUP3 ADD MSTORE POP JUMP JUMPDEST PUSH1 0x0 PUSH2 0x215B PUSH1 0x24 DUP4 PUSH2 0x1858 JUMP JUMPDEST SWAP2 POP PUSH2 0x2166 DUP3 PUSH2 0x20FF JUMP JUMPDEST PUSH1 0x40 DUP3 ADD SWAP1 POP SWAP2 SWAP1 POP JUMP JUMPDEST PUSH1 0x0 PUSH1 0x20 DUP3 ADD SWAP1 POP DUP2 DUP2 SUB PUSH1 0x0 DUP4 ADD MSTORE PUSH2 0x218A DUP2 PUSH2 0x214E JUMP JUMPDEST SWAP1 POP SWAP2 SWAP1 POP JUMP JUMPDEST PUSH32 0x45524332303A20617070726F766520746F20746865207A65726F206164647265 PUSH1 0x0 DUP3 ADD MSTORE PUSH32 0x7373000000000000000000000000000000000000000000000000000000000000 PUSH1 0x20 DUP3 ADD MSTORE POP JUMP JUMPDEST PUSH1 0x0 PUSH2 0x21ED PUSH1 0x22 DUP4 PUSH2 0x1858 JUMP JUMPDEST SWAP2 POP PUSH2 0x21F8 DUP3 PUSH2 0x2191 JUMP JUMPDEST PUSH1 0x40 DUP3 ADD SWAP1 POP SWAP2 SWAP1 POP JUMP JUMPDEST PUSH1 0x0 PUSH1 0x20 DUP3 ADD SWAP1 POP DUP2 DUP2 SUB PUSH1 0x0 DUP4 ADD MSTORE PUSH2 0x221C DUP2 PUSH2 0x21E0 JUMP JUMPDEST SWAP1 POP SWAP2 SWAP1 POP JUMP JUMPDEST PUSH32 0x4F776E61626C653A2063616C6C6572206973206E6F7420746865206F776E6572 PUSH1 0x0 DUP3 ADD MSTORE POP JUMP JUMPDEST PUSH1 0x0 PUSH2 0x2259 PUSH1 0x20 DUP4 PUSH2 0x1858 JUMP JUMPDEST SWAP2 POP PUSH2 0x2264 DUP3 PUSH2 0x2223 JUMP JUMPDEST PUSH1 0x20 DUP3 ADD SWAP1 POP SWAP2 SWAP1 POP JUMP JUMPDEST PUSH1 0x0 PUSH1 0x20 DUP3 ADD SWAP1 POP DUP2 DUP2 SUB PUSH1 0x0 DUP4 ADD MSTORE PUSH2 0x2288 DUP2 PUSH2 0x224C JUMP JUMPDEST SWAP1 POP SWAP2 SWAP1 POP JUMP JUMPDEST PUSH32 0x45524332303A20696E73756666696369656E7420616C6C6F77616E6365000000 PUSH1 0x0 DUP3 ADD MSTORE POP JUMP JUMPDEST PUSH1 0x0 PUSH2 0x22C5 PUSH1 0x1D DUP4 PUSH2 0x1858 JUMP JUMPDEST SWAP2 POP PUSH2 0x22D0 DUP3 PUSH2 0x228F JUMP JUMPDEST PUSH1 0x20 DUP3 ADD SWAP1 POP SWAP2 SWAP1 POP JUMP JUMPDEST PUSH1 0x0 PUSH1 0x20 DUP3 ADD SWAP1 POP DUP2 DUP2 SUB PUSH1 0x0 DUP4 ADD MSTORE PUSH2 0x22F4 DUP2 PUSH2 0x22B8 JUMP JUMPDEST SWAP1 POP SWAP2 SWAP1 POP JUMP JUMPDEST PUSH32 0x45524332303A207472616E736665722066726F6D20746865207A65726F206164 PUSH1 0x0 DUP3 ADD MSTORE PUSH32 0x6472657373000000000000000000000000000000000000000000000000000000 PUSH1 0x20 DUP3 ADD MSTORE POP JUMP JUMPDEST PUSH1 0x0 PUSH2 0x2357 PUSH1 0x25 DUP4 PUSH2 0x1858 JUMP JUMPDEST SWAP2 POP PUSH2 0x2362 DUP3 PUSH2 0x22FB JUMP JUMPDEST PUSH1 0x40 DUP3 ADD SWAP1 POP SWAP2 SWAP1 POP JUMP JUMPDEST PUSH1 0x0 PUSH1 0x20 DUP3 ADD SWAP1 POP DUP2 DUP2 SUB PUSH1 0x0 DUP4 ADD MSTORE PUSH2 0x2386 DUP2 PUSH2 0x234A JUMP JUMPDEST SWAP1 POP SWAP2 SWAP1 POP JUMP JUMPDEST PUSH32 0x45524332303A207472616E7366657220746F20746865207A65726F2061646472 PUSH1 0x0 DUP3 ADD MSTORE PUSH32 0x6573730000000000000000000000000000000000000000000000000000000000 PUSH1 0x20 DUP3 ADD MSTORE POP JUMP JUMPDEST PUSH1 0x0 PUSH2 0x23E9 PUSH1 0x23 DUP4 PUSH2 0x1858 JUMP JUMPDEST SWAP2 POP PUSH2 0x23F4 DUP3 PUSH2 0x238D JUMP JUMPDEST PUSH1 0x40 DUP3 ADD SWAP1 POP SWAP2 SWAP1 POP JUMP JUMPDEST PUSH1 0x0 PUSH1 0x20 DUP3 ADD SWAP1 POP DUP2 DUP2 SUB PUSH1 0x0 DUP4 ADD MSTORE PUSH2 0x2418 DUP2 PUSH2 0x23DC JUMP JUMPDEST SWAP1 POP SWAP2 SWAP1 POP JUMP JUMPDEST PUSH32 0x45524332303A207472616E7366657220616D6F756E7420657863656564732062 PUSH1 0x0 DUP3 ADD MSTORE PUSH32 0x616C616E63650000000000000000000000000000000000000000000000000000 PUSH1 0x20 DUP3 ADD MSTORE POP JUMP JUMPDEST PUSH1 0x0 PUSH2 0x247B PUSH1 0x26 DUP4 PUSH2 0x1858 JUMP JUMPDEST SWAP2 POP PUSH2 0x2486 DUP3 PUSH2 0x241F JUMP JUMPDEST PUSH1 0x40 DUP3 ADD SWAP1 POP SWAP2 SWAP1 POP JUMP JUMPDEST PUSH1 0x0 PUSH1 0x20 DUP3 ADD SWAP1 POP DUP2 DUP2 SUB PUSH1 0x0 DUP4 ADD MSTORE PUSH2 0x24AA DUP2 PUSH2 0x246E JUMP JUMPDEST SWAP1 POP SWAP2 SWAP1 POP JUMP INVALID LOG2 PUSH5 0x6970667358 0x22 SLT KECCAK256 0x4E CODESIZE AND 0x4F 0xAB PUSH23 0x7050A85FFE613C4157E7442AD1420846C8B7381CD7967F 0x21 PUSH20 0x2664736F6C634300081200330000000000000000 "
		},
		"gasEstimates": {
			"creation": {
				"codeDepositCost": "1889400",
				"executionCost": "infinite",
				"totalCost": "infinite"
			},
			"external": {
				"MAX_SUPPLY()": "441",
				"allowance(address,address)": "infinite",
				"approve(address,uint256)": "infinite",
				"balanceOf(address)": "2887",
				"decimals()": "433",
				"decreaseAllowance(address,uint256)": "infinite",
				"excludedFromBurn(address)": "2936",
				"excludedFromReward(address)": "2935",
				"excludedFromTax(address)": "2934",
				"impuestoCompra()": "2539",
				"impuestoVenta()": "2541",
				"increaseAllowance(address,uint256)": "infinite",
				"name()": "infinite",
				"owner()": "2567",
				"renounceOwnership()": "30466",
				"setExcludedFromBurn(address,bool)": "27366",
				"setExcludedFromReward(address,bool)": "27368",
				"setExcludedFromTax(address,bool)": "27322",
				"setImpuestoCompra(uint256)": "24873",
				"setImpuestoVenta(uint256)": "24873",
				"setTokenBurn(address)": "27074",
				"setTokenReward(address)": "27054",
				"symbol()": "infinite",
				"tokenBurn()": "2604",
				"tokenReward()": "2625",
				"totalSupply()": "2505",
				"transfer(address,uint256)": "infinite",
				"transferFrom(address,address,uint256)": "infinite",
				"transferOwnership(address)": "30810",
				"uniswapV2Pair()": "2581",
				"uniswapV2Router()": "infinite",
				"withdrawLiquidity()": "infinite"
			}
		},
		"methodIdentifiers": {
			"MAX_SUPPLY()": "32cb6b0c",
			"allowance(address,address)": "dd62ed3e",
			"approve(address,uint256)": "095ea7b3",
			"balanceOf(address)": "70a08231",
			"decimals()": "313ce567",
			"decreaseAllowance(address,uint256)": "a457c2d7",
			"excludedFromBurn(address)": "0e88dad1",
			"excludedFromReward(address)": "1af41e5d",
			"excludedFromTax(address)": "989763ef",
			"impuestoCompra()": "fc9e0c94",
			"impuestoVenta()": "1d7c27d7",
			"increaseAllowance(address,uint256)": "39509351",
			"name()": "06fdde03",
			"owner()": "8da5cb5b",
			"renounceOwnership()": "715018a6",
			"setExcludedFromBurn(address,bool)": "d80cbc8c",
			"setExcludedFromReward(address,bool)": "13e46192",
			"setExcludedFromTax(address,bool)": "c2ed286b",
			"setImpuestoCompra(uint256)": "4b0dd0d6",
			"setImpuestoVenta(uint256)": "cf49a5ef",
			"setTokenBurn(address)": "f9d3d3e8",
			"setTokenReward(address)": "2e1dc4b8",
			"symbol()": "95d89b41",
			"tokenBurn()": "7c9e75c0",
			"tokenReward()": "6e66f6e9",
			"totalSupply()": "18160ddd",
			"transfer(address,uint256)": "a9059cbb",
			"transferFrom(address,address,uint256)": "23b872dd",
			"transferOwnership(address)": "f2fde38b",
			"uniswapV2Pair()": "49bd5a5e",
			"uniswapV2Router()": "1694505e",
			"withdrawLiquidity()": "7ea382c1"
		}
	},
	"abi": [
		{
			"inputs": [
				{
					"internalType": "address",
					"name": "_tokenReward",
					"type": "address"
				},
				{
					"internalType": "address",
					"name": "_tokenBurn",
					"type": "address"
				}
			],
			"stateMutability": "nonpayable",
			"type": "constructor"
		},
		{
			"anonymous": false,
			"inputs": [
				{
					"indexed": true,
					"internalType": "address",
					"name": "owner",
					"type": "address"
				},
				{
					"indexed": true,
					"internalType": "address",
					"name": "spender",
					"type": "address"
				},
				{
					"indexed": false,
					"internalType": "uint256",
					"name": "value",
					"type": "uint256"
				}
			],
			"name": "Approval",
			"type": "event"
		},
		{
			"anonymous": false,
			"inputs": [
				{
					"indexed": true,
					"internalType": "address",
					"name": "previousOwner",
					"type": "address"
				},
				{
					"indexed": true,
					"internalType": "address",
					"name": "newOwner",
					"type": "address"
				}
			],
			"name": "OwnershipTransferred",
			"type": "event"
		},
		{
			"anonymous": false,
			"inputs": [
				{
					"indexed": true,
					"internalType": "address",
					"name": "from",
					"type": "address"
				},
				{
					"indexed": true,
					"internalType": "address",
					"name": "to",
					"type": "address"
				},
				{
					"indexed": false,
					"internalType": "uint256",
					"name": "value",
					"type": "uint256"
				}
			],
			"name": "Transfer",
			"type": "event"
		},
		{
			"inputs": [],
			"name": "MAX_SUPPLY",
			"outputs": [
				{
					"internalType": "uint256",
					"name": "",
					"type": "uint256"
				}
			],
			"stateMutability": "view",
			"type": "function"
		},
		{
			"inputs": [
				{
					"internalType": "address",
					"name": "owner",
					"type": "address"
				},
				{
					"internalType": "address",
					"name": "spender",
					"type": "address"
				}
			],
			"name": "allowance",
			"outputs": [
				{
					"internalType": "uint256",
					"name": "",
					"type": "uint256"
				}
			],
			"stateMutability": "view",
			"type": "function"
		},
		{
			"inputs": [
				{
					"internalType": "address",
					"name": "spender",
					"type": "address"
				},
				{
					"internalType": "uint256",
					"name": "amount",
					"type": "uint256"
				}
			],
			"name": "approve",
			"outputs": [
				{
					"internalType": "bool",
					"name": "",
					"type": "bool"
				}
			],
			"stateMutability": "nonpayable",
			"type": "function"
		},
		{
			"inputs": [
				{
					"internalType": "address",
					"name": "account",
					"type": "address"
				}
			],
			"name": "balanceOf",
			"outputs": [
				{
					"internalType": "uint256",
					"name": "",
					"type": "uint256"
				}
			],
			"stateMutability": "view",
			"type": "function"
		},
		{
			"inputs": [],
			"name": "decimals",
			"outputs": [
				{
					"internalType": "uint8",
					"name": "",
					"type": "uint8"
				}
			],
			"stateMutability": "view",
			"type": "function"
		},
		{
			"inputs": [
				{
					"internalType": "address",
					"name": "spender",
					"type": "address"
				},
				{
					"internalType": "uint256",
					"name": "subtractedValue",
					"type": "uint256"
				}
			],
			"name": "decreaseAllowance",
			"outputs": [
				{
					"internalType": "bool",
					"name": "",
					"type": "bool"
				}
			],
			"stateMutability": "nonpayable",
			"type": "function"
		},
		{
			"inputs": [
				{
					"internalType": "address",
					"name": "",
					"type": "address"
				}
			],
			"name": "excludedFromBurn",
			"outputs": [
				{
					"internalType": "bool",
					"name": "",
					"type": "bool"
				}
			],
			"stateMutability": "view",
			"type": "function"
		},
		{
			"inputs": [
				{
					"internalType": "address",
					"name": "",
					"type": "address"
				}
			],
			"name": "excludedFromReward",
			"outputs": [
				{
					"internalType": "bool",
					"name": "",
					"type": "bool"
				}
			],
			"stateMutability": "view",
			"type": "function"
		},
		{
			"inputs": [
				{
					"internalType": "address",
					"name": "",
					"type": "address"
				}
			],
			"name": "excludedFromTax",
			"outputs": [
				{
					"internalType": "bool",
					"name": "",
					"type": "bool"
				}
			],
			"stateMutability": "view",
			"type": "function"
		},
		{
			"inputs": [],
			"name": "impuestoCompra",
			"outputs": [
				{
					"internalType": "uint256",
					"name": "",
					"type": "uint256"
				}
			],
			"stateMutability": "view",
			"type": "function"
		},
		{
			"inputs": [],
			"name": "impuestoVenta",
			"outputs": [
				{
					"internalType": "uint256",
					"name": "",
					"type": "uint256"
				}
			],
			"stateMutability": "view",
			"type": "function"
		},
		{
			"inputs": [
				{
					"internalType": "address",
					"name": "spender",
					"type": "address"
				},
				{
					"internalType": "uint256",
					"name": "addedValue",
					"type": "uint256"
				}
			],
			"name": "increaseAllowance",
			"outputs": [
				{
					"internalType": "bool",
					"name": "",
					"type": "bool"
				}
			],
			"stateMutability": "nonpayable",
			"type": "function"
		},
		{
			"inputs": [],
			"name": "name",
			"outputs": [
				{
					"internalType": "string",
					"name": "",
					"type": "string"
				}
			],
			"stateMutability": "view",
			"type": "function"
		},
		{
			"inputs": [],
			"name": "owner",
			"outputs": [
				{
					"internalType": "address",
					"name": "",
					"type": "address"
				}
			],
			"stateMutability": "view",
			"type": "function"
		},
		{
			"inputs": [],
			"name": "renounceOwnership",
			"outputs": [],
			"stateMutability": "nonpayable",
			"type": "function"
		},
		{
			"inputs": [
				{
					"internalType": "address",
					"name": "account",
					"type": "address"
				},
				{
					"internalType": "bool",
					"name": "excluded",
					"type": "bool"
				}
			],
			"name": "setExcludedFromBurn",
			"outputs": [],
			"stateMutability": "nonpayable",
			"type": "function"
		},
		{
			"inputs": [
				{
					"internalType": "address",
					"name": "account",
					"type": "address"
				},
				{
					"internalType": "bool",
					"name": "excluded",
					"type": "bool"
				}
			],
			"name": "setExcludedFromReward",
			"outputs": [],
			"stateMutability": "nonpayable",
			"type": "function"
		},
		{
			"inputs": [
				{
					"internalType": "address",
					"name": "account",
					"type": "address"
				},
				{
					"internalType": "bool",
					"name": "excluded",
					"type": "bool"
				}
			],
			"name": "setExcludedFromTax",
			"outputs": [],
			"stateMutability": "nonpayable",
			"type": "function"
		},
		{
			"inputs": [
				{
					"internalType": "uint256",
					"name": "newImpuesto",
					"type": "uint256"
				}
			],
			"name": "setImpuestoCompra",
			"outputs": [],
			"stateMutability": "nonpayable",
			"type": "function"
		},
		{
			"inputs": [
				{
					"internalType": "uint256",
					"name": "newImpuesto",
					"type": "uint256"
				}
			],
			"name": "setImpuestoVenta",
			"outputs": [],
			"stateMutability": "nonpayable",
			"type": "function"
		},
		{
			"inputs": [
				{
					"internalType": "address",
					"name": "newTokenBurn",
					"type": "address"
				}
			],
			"name": "setTokenBurn",
			"outputs": [],
			"stateMutability": "nonpayable",
			"type": "function"
		},
		{
			"inputs": [
				{
					"internalType": "address",
					"name": "newTokenReward",
					"type": "address"
				}
			],
			"name": "setTokenReward",
			"outputs": [],
			"stateMutability": "nonpayable",
			"type": "function"
		},
		{
			"inputs": [],
			"name": "symbol",
			"outputs": [
				{
					"internalType": "string",
					"name": "",
					"type": "string"
				}
			],
			"stateMutability": "view",
			"type": "function"
		},
		{
			"inputs": [],
			"name": "tokenBurn",
			"outputs": [
				{
					"internalType": "address",
					"name": "",
					"type": "address"
				}
			],
			"stateMutability": "view",
			"type": "function"
		},
		{
			"inputs": [],
			"name": "tokenReward",
			"outputs": [
				{
					"internalType": "address",
					"name": "",
					"type": "address"
				}
			],
			"stateMutability": "view",
			"type": "function"
		},
		{
			"inputs": [],
			"name": "totalSupply",
			"outputs": [
				{
					"internalType": "uint256",
					"name": "",
					"type": "uint256"
				}
			],
			"stateMutability": "view",
			"type": "function"
		},
		{
			"inputs": [
				{
					"internalType": "address",
					"name": "recipient",
					"type": "address"
				},
				{
					"internalType": "uint256",
					"name": "amount",
					"type": "uint256"
				}
			],
			"name": "transfer",
			"outputs": [
				{
					"internalType": "bool",
					"name": "",
					"type": "bool"
				}
			],
			"stateMutability": "nonpayable",
			"type": "function"
		},
		{
			"inputs": [
				{
					"internalType": "address",
					"name": "from",
					"type": "address"
				},
				{
					"internalType": "address",
					"name": "to",
					"type": "address"
				},
				{
					"internalType": "uint256",
					"name": "amount",
					"type": "uint256"
				}
			],
			"name": "transferFrom",
			"outputs": [
				{
					"internalType": "bool",
					"name": "",
					"type": "bool"
				}
			],
			"stateMutability": "nonpayable",
			"type": "function"
		},
		{
			"inputs": [
				{
					"internalType": "address",
					"name": "newOwner",
					"type": "address"
				}
			],
			"name": "transferOwnership",
			"outputs": [],
			"stateMutability": "nonpayable",
			"type": "function"
		},
		{
			"inputs": [],
			"name": "uniswapV2Pair",
			"outputs": [
				{
					"internalType": "address",
					"name": "",
					"type": "address"
				}
			],
			"stateMutability": "view",
			"type": "function"
		},
		{
			"inputs": [],
			"name": "uniswapV2Router",
			"outputs": [
				{
					"internalType": "contract IUniswapV2Router02",
					"name": "",
					"type": "address"
				}
			],
			"stateMutability": "view",
			"type": "function"
		},
		{
			"inputs": [],
			"name": "withdrawLiquidity",
			"outputs": [],
			"stateMutability": "nonpayable",
			"type": "function"
		}
	]
}